{
  "_format": "hh-sol-artifact-1",
  "contractName": "ContentCreatorQuest",
  "sourceName": "contracts/ContentCreatorQuest.sol",
  "abi": [
    {
      "inputs": [
        {
          "internalType": "address",
          "name": "_questManager",
          "type": "address"
        },
        {
          "internalType": "string",
          "name": "_questName",
          "type": "string"
        },
        {
          "internalType": "string",
          "name": "_questType",
          "type": "string"
        }
      ],
      "stateMutability": "nonpayable",
      "type": "constructor"
    },
    {
      "anonymous": false,
      "inputs": [
        {
          "indexed": false,
          "internalType": "uint256",
          "name": "questId",
          "type": "uint256"
        },
        {
          "indexed": true,
          "internalType": "address",
          "name": "participant",
          "type": "address"
        },
        {
          "indexed": false,
          "internalType": "string",
          "name": "contentUrl",
          "type": "string"
        },
        {
          "indexed": false,
          "internalType": "string[]",
          "name": "hashtags",
          "type": "string[]"
        }
      ],
      "name": "ContentSubmitted",
      "type": "event"
    },
    {
      "anonymous": false,
      "inputs": [
        {
          "indexed": false,
          "internalType": "string",
          "name": "message",
          "type": "string"
        }
      ],
      "name": "Debug",
      "type": "event"
    },
    {
      "anonymous": false,
      "inputs": [
        {
          "indexed": false,
          "internalType": "address",
          "name": "addr",
          "type": "address"
        }
      ],
      "name": "DebugAddress",
      "type": "event"
    },
    {
      "anonymous": false,
      "inputs": [
        {
          "indexed": false,
          "internalType": "bool",
          "name": "value",
          "type": "bool"
        }
      ],
      "name": "DebugBool",
      "type": "event"
    },
    {
      "anonymous": false,
      "inputs": [
        {
          "indexed": false,
          "internalType": "string",
          "name": "value",
          "type": "string"
        }
      ],
      "name": "DebugString",
      "type": "event"
    },
    {
      "anonymous": false,
      "inputs": [
        {
          "indexed": false,
          "internalType": "uint256",
          "name": "value",
          "type": "uint256"
        }
      ],
      "name": "DebugUint256",
      "type": "event"
    },
    {
      "anonymous": false,
      "inputs": [
        {
          "indexed": false,
          "internalType": "uint256",
          "name": "questId",
          "type": "uint256"
        },
        {
          "indexed": true,
          "internalType": "address",
          "name": "participant",
          "type": "address"
        },
        {
          "indexed": false,
          "internalType": "string",
          "name": "interactionType",
          "type": "string"
        },
        {
          "indexed": false,
          "internalType": "bytes",
          "name": "target",
          "type": "bytes"
        }
      ],
      "name": "InteractionCompleted",
      "type": "event"
    },
    {
      "anonymous": false,
      "inputs": [
        {
          "indexed": false,
          "internalType": "uint256",
          "name": "questId",
          "type": "uint256"
        },
        {
          "indexed": true,
          "internalType": "address",
          "name": "questInitiator",
          "type": "address"
        }
      ],
      "name": "QuestInitialized",
      "type": "event"
    },
    {
      "inputs": [
        {
          "internalType": "uint256",
          "name": "",
          "type": "uint256"
        }
      ],
      "name": "activeQuestIds",
      "outputs": [
        {
          "internalType": "uint256",
          "name": "",
          "type": "uint256"
        }
      ],
      "stateMutability": "view",
      "type": "function"
    },
    {
      "inputs": [
        {
          "internalType": "uint256",
          "name": "",
          "type": "uint256"
        },
        {
          "internalType": "uint256",
          "name": "",
          "type": "uint256"
        }
      ],
      "name": "contentSubmissions",
      "outputs": [
        {
          "internalType": "address",
          "name": "participant",
          "type": "address"
        },
        {
          "internalType": "string",
          "name": "contentUrl",
          "type": "string"
        }
      ],
      "stateMutability": "view",
      "type": "function"
    },
    {
      "inputs": [
        {
          "internalType": "uint256",
          "name": "index",
          "type": "uint256"
        }
      ],
      "name": "getActiveQuestByIndex",
      "outputs": [
        {
          "internalType": "uint256",
          "name": "",
          "type": "uint256"
        }
      ],
      "stateMutability": "view",
      "type": "function"
    },
    {
      "inputs": [],
      "name": "getActiveQuestCount",
      "outputs": [
        {
          "internalType": "uint256",
          "name": "",
          "type": "uint256"
        }
      ],
      "stateMutability": "view",
      "type": "function"
    },
    {
      "inputs": [
        {
          "internalType": "uint256",
          "name": "questId",
          "type": "uint256"
        }
      ],
      "name": "getContentSubmissions",
      "outputs": [
        {
          "components": [
            {
              "internalType": "address",
              "name": "participant",
              "type": "address"
            },
            {
              "internalType": "string",
              "name": "contentUrl",
              "type": "string"
            },
            {
              "internalType": "string[]",
              "name": "hashtags",
              "type": "string[]"
            }
          ],
          "internalType": "struct ContentCreatorQuest.ContentSubmission[]",
          "name": "",
          "type": "tuple[]"
        }
      ],
      "stateMutability": "view",
      "type": "function"
    },
    {
      "inputs": [
        {
          "internalType": "uint256",
          "name": "index",
          "type": "uint256"
        }
      ],
      "name": "getQuestByIndex",
      "outputs": [
        {
          "internalType": "uint256",
          "name": "",
          "type": "uint256"
        }
      ],
      "stateMutability": "view",
      "type": "function"
    },
    {
      "inputs": [],
      "name": "getQuestCount",
      "outputs": [
        {
          "internalType": "uint256",
          "name": "",
          "type": "uint256"
        }
      ],
      "stateMutability": "view",
      "type": "function"
    },
    {
      "inputs": [
        {
          "internalType": "uint256",
          "name": "index",
          "type": "uint256"
        }
      ],
      "name": "getUserByIndex",
      "outputs": [
        {
          "internalType": "address",
          "name": "",
          "type": "address"
        }
      ],
      "stateMutability": "view",
      "type": "function"
    },
    {
      "inputs": [],
      "name": "getUserCount",
      "outputs": [
        {
          "internalType": "uint256",
          "name": "",
          "type": "uint256"
        }
      ],
      "stateMutability": "view",
      "type": "function"
    },
    {
      "inputs": [
        {
          "internalType": "uint256",
          "name": "questId",
          "type": "uint256"
        },
        {
          "internalType": "uint256",
          "name": "expirationTime",
          "type": "uint256"
        },
        {
          "internalType": "uint256",
          "name": "_minSubmissions",
          "type": "uint256"
        },
        {
          "internalType": "string[]",
          "name": "_requiredHashtags",
          "type": "string[]"
        },
        {
          "internalType": "bool",
          "name": "_requireHashtags",
          "type": "bool"
        }
      ],
      "name": "initializeContentCreatorQuest",
      "outputs": [],
      "stateMutability": "nonpayable",
      "type": "function"
    },
    {
      "inputs": [
        {
          "internalType": "uint256",
          "name": "questId",
          "type": "uint256"
        },
        {
          "internalType": "bytes",
          "name": "data",
          "type": "bytes"
        },
        {
          "internalType": "uint256",
          "name": "expirationTime",
          "type": "uint256"
        }
      ],
      "name": "initializeQuest",
      "outputs": [],
      "stateMutability": "nonpayable",
      "type": "function"
    },
    {
      "inputs": [
        {
          "internalType": "uint256",
          "name": "questId",
          "type": "uint256"
        },
        {
          "internalType": "address",
          "name": "participant",
          "type": "address"
        },
        {
          "internalType": "string",
          "name": "interactionType",
          "type": "string"
        },
        {
          "internalType": "bytes",
          "name": "target",
          "type": "bytes"
        }
      ],
      "name": "interact",
      "outputs": [],
      "stateMutability": "nonpayable",
      "type": "function"
    },
    {
      "inputs": [
        {
          "internalType": "uint256",
          "name": "questId",
          "type": "uint256"
        }
      ],
      "name": "isQuestExpired",
      "outputs": [
        {
          "internalType": "bool",
          "name": "",
          "type": "bool"
        }
      ],
      "stateMutability": "view",
      "type": "function"
    },
    {
      "inputs": [],
      "name": "listActiveQuests",
      "outputs": [
        {
          "components": [
            {
              "internalType": "uint256",
              "name": "questId",
              "type": "uint256"
            },
            {
              "internalType": "bytes",
              "name": "data",
              "type": "bytes"
            },
            {
              "internalType": "bool",
              "name": "isInitialized",
              "type": "bool"
            },
            {
              "internalType": "bool",
              "name": "isActive",
              "type": "bool"
            },
            {
              "internalType": "bool",
              "name": "isCompleted",
              "type": "bool"
            },
            {
              "internalType": "address",
              "name": "initiator",
              "type": "address"
            },
            {
              "internalType": "uint256",
              "name": "expirationTime",
              "type": "uint256"
            },
            {
              "internalType": "address",
              "name": "questContract",
              "type": "address"
            }
          ],
          "internalType": "struct Quest.QuestInfo[]",
          "name": "",
          "type": "tuple[]"
        }
      ],
      "stateMutability": "view",
      "type": "function"
    },
    {
      "inputs": [],
      "name": "listQuests",
      "outputs": [
        {
          "components": [
            {
              "internalType": "uint256",
              "name": "questId",
              "type": "uint256"
            },
            {
              "internalType": "bytes",
              "name": "data",
              "type": "bytes"
            },
            {
              "internalType": "bool",
              "name": "isInitialized",
              "type": "bool"
            },
            {
              "internalType": "bool",
              "name": "isActive",
              "type": "bool"
            },
            {
              "internalType": "bool",
              "name": "isCompleted",
              "type": "bool"
            },
            {
              "internalType": "address",
              "name": "initiator",
              "type": "address"
            },
            {
              "internalType": "uint256",
              "name": "expirationTime",
              "type": "uint256"
            },
            {
              "internalType": "address",
              "name": "questContract",
              "type": "address"
            }
          ],
          "internalType": "struct Quest.QuestInfo[]",
          "name": "",
          "type": "tuple[]"
        }
      ],
      "stateMutability": "view",
      "type": "function"
    },
    {
      "inputs": [],
      "name": "listUsers",
      "outputs": [
        {
          "internalType": "address[]",
          "name": "",
          "type": "address[]"
        }
      ],
      "stateMutability": "view",
      "type": "function"
    },
    {
      "inputs": [],
      "name": "minSubmissions",
      "outputs": [
        {
          "internalType": "uint256",
          "name": "",
          "type": "uint256"
        }
      ],
      "stateMutability": "view",
      "type": "function"
    },
    {
      "inputs": [
        {
          "internalType": "uint256",
          "name": "",
          "type": "uint256"
        }
      ],
      "name": "questIds",
      "outputs": [
        {
          "internalType": "uint256",
          "name": "",
          "type": "uint256"
        }
      ],
      "stateMutability": "view",
      "type": "function"
    },
    {
      "inputs": [],
      "name": "questManager",
      "outputs": [
        {
          "internalType": "contract IQuestManager",
          "name": "",
          "type": "address"
        }
      ],
      "stateMutability": "view",
      "type": "function"
    },
    {
      "inputs": [],
      "name": "questName",
      "outputs": [
        {
          "internalType": "string",
          "name": "",
          "type": "string"
        }
      ],
      "stateMutability": "view",
      "type": "function"
    },
    {
      "inputs": [],
      "name": "questType",
      "outputs": [
        {
          "internalType": "string",
          "name": "",
          "type": "string"
        }
      ],
      "stateMutability": "view",
      "type": "function"
    },
    {
      "inputs": [
        {
          "internalType": "uint256",
          "name": "",
          "type": "uint256"
        }
      ],
      "name": "quests",
      "outputs": [
        {
          "internalType": "uint256",
          "name": "questId",
          "type": "uint256"
        },
        {
          "internalType": "bytes",
          "name": "data",
          "type": "bytes"
        },
        {
          "internalType": "bool",
          "name": "isInitialized",
          "type": "bool"
        },
        {
          "internalType": "bool",
          "name": "isActive",
          "type": "bool"
        },
        {
          "internalType": "bool",
          "name": "isCompleted",
          "type": "bool"
        },
        {
          "internalType": "address",
          "name": "initiator",
          "type": "address"
        },
        {
          "internalType": "uint256",
          "name": "expirationTime",
          "type": "uint256"
        },
        {
          "internalType": "address",
          "name": "questContract",
          "type": "address"
        }
      ],
      "stateMutability": "view",
      "type": "function"
    },
    {
      "inputs": [
        {
          "internalType": "uint256",
          "name": "questId",
          "type": "uint256"
        },
        {
          "internalType": "address",
          "name": "user",
          "type": "address"
        }
      ],
      "name": "registerUser",
      "outputs": [],
      "stateMutability": "nonpayable",
      "type": "function"
    },
    {
      "inputs": [],
      "name": "requireHashtags",
      "outputs": [
        {
          "internalType": "bool",
          "name": "",
          "type": "bool"
        }
      ],
      "stateMutability": "view",
      "type": "function"
    },
    {
      "inputs": [
        {
          "internalType": "uint256",
          "name": "",
          "type": "uint256"
        }
      ],
      "name": "requiredHashtags",
      "outputs": [
        {
          "internalType": "string",
          "name": "",
          "type": "string"
        }
      ],
      "stateMutability": "view",
      "type": "function"
    },
    {
      "inputs": [
        {
          "internalType": "uint256",
          "name": "",
          "type": "uint256"
        },
        {
          "internalType": "address",
          "name": "",
          "type": "address"
        }
      ],
      "name": "userQuests",
      "outputs": [
        {
          "internalType": "bool",
          "name": "",
          "type": "bool"
        }
      ],
      "stateMutability": "view",
      "type": "function"
    },
    {
      "inputs": [
        {
          "internalType": "uint256",
          "name": "",
          "type": "uint256"
        },
        {
          "internalType": "address",
          "name": "",
          "type": "address"
        }
      ],
      "name": "userSubmissions",
      "outputs": [
        {
          "internalType": "uint256",
          "name": "",
          "type": "uint256"
        }
      ],
      "stateMutability": "view",
      "type": "function"
    },
    {
      "inputs": [
        {
          "internalType": "uint256",
          "name": "",
          "type": "uint256"
        }
      ],
      "name": "users",
      "outputs": [
        {
          "internalType": "address",
          "name": "",
          "type": "address"
        }
      ],
      "stateMutability": "view",
      "type": "function"
    }
  ],
  "bytecode": "0x60806040523480156200001157600080fd5b5060405162004e4138038062004e418339818101604052810190620000379190620002a2565b828282826000806101000a81548173ffffffffffffffffffffffffffffffffffffffff021916908373ffffffffffffffffffffffffffffffffffffffff16021790555081600190816200008b919062000587565b5080600290816200009d919062000587565b505050505050506200066e565b6000604051905090565b600080fd5b600080fd5b600073ffffffffffffffffffffffffffffffffffffffff82169050919050565b6000620000eb82620000be565b9050919050565b620000fd81620000de565b81146200010957600080fd5b50565b6000815190506200011d81620000f2565b92915050565b600080fd5b600080fd5b6000601f19601f8301169050919050565b7f4e487b7100000000000000000000000000000000000000000000000000000000600052604160045260246000fd5b62000178826200012d565b810181811067ffffffffffffffff821117156200019a57620001996200013e565b5b80604052505050565b6000620001af620000aa565b9050620001bd82826200016d565b919050565b600067ffffffffffffffff821115620001e057620001df6200013e565b5b620001eb826200012d565b9050602081019050919050565b60005b8381101562000218578082015181840152602081019050620001fb565b60008484015250505050565b60006200023b6200023584620001c2565b620001a3565b9050828152602081018484840111156200025a576200025962000128565b5b62000267848285620001f8565b509392505050565b600082601f83011262000287576200028662000123565b5b81516200029984826020860162000224565b91505092915050565b600080600060608486031215620002be57620002bd620000b4565b5b6000620002ce868287016200010c565b935050602084015167ffffffffffffffff811115620002f257620002f1620000b9565b5b62000300868287016200026f565b925050604084015167ffffffffffffffff811115620003245762000323620000b9565b5b62000332868287016200026f565b9150509250925092565b600081519050919050565b7f4e487b7100000000000000000000000000000000000000000000000000000000600052602260045260246000fd5b600060028204905060018216806200038f57607f821691505b602082108103620003a557620003a462000347565b5b50919050565b60008190508160005260206000209050919050565b60006020601f8301049050919050565b600082821b905092915050565b6000600883026200040f7fffffffffffffffffffffffffffffffffffffffffffffffffffffffffffffffff82620003d0565b6200041b8683620003d0565b95508019841693508086168417925050509392505050565b6000819050919050565b6000819050919050565b600062000468620004626200045c8462000433565b6200043d565b62000433565b9050919050565b6000819050919050565b620004848362000447565b6200049c62000493826200046f565b848454620003dd565b825550505050565b600090565b620004b3620004a4565b620004c081848462000479565b505050565b5b81811015620004e857620004dc600082620004a9565b600181019050620004c6565b5050565b601f82111562000537576200050181620003ab565b6200050c84620003c0565b810160208510156200051c578190505b620005346200052b85620003c0565b830182620004c5565b50505b505050565b600082821c905092915050565b60006200055c600019846008026200053c565b1980831691505092915050565b600062000577838362000549565b9150826002028217905092915050565b62000592826200033c565b67ffffffffffffffff811115620005ae57620005ad6200013e565b5b620005ba825462000376565b620005c7828285620004ec565b600060209050601f831160018114620005ff5760008415620005ea578287015190505b620005f6858262000569565b86555062000666565b601f1984166200060f86620003ab565b60005b82811015620006395784890151825560018201915060208501945060208101905062000612565b8683101562000659578489015162000655601f89168262000549565b8355505b6001600288020188555050505b505050505050565b6147c3806200067e6000396000f3fe608060405234801561001057600080fd5b50600436106101c45760003560e01c806390cfaf2b116100f9578063e085f98011610097578063ec7c263d11610071578063ec7c263d1461054d578063ed8891f51461056b578063f12c575b1461059b578063ff5d32fe146105cb576101c4565b8063e085f980146104de578063e6de516514610515578063e7e5bc7d14610531576101c4565b8063b5cb15f7116100d3578063b5cb15f714610456578063c97f73d914610474578063dc1627eb14610490578063e04a3770146104ae576101c4565b806390cfaf2b146103fc578063967c15271461041a578063a2dad7af14610438576101c4565b80636397178111610166578063874af06211610140578063874af062146103605780638a8a1f72146103905780638ad257b7146103c05780638c6692f3146103de576101c4565b806363971781146102e25780637f4631d91461030057806384cbdb8814610330576101c4565b8063365b98b2116101a2578063365b98b2146102485780634bde98321461027857806356d83a29146102a85780635ff2e043146102c6576101c4565b80630c886a6b146101c957806311ec2659146101fa57806335953dc814610218575b600080fd5b6101e360048036038101906101de9190612704565b6105fb565b6040516101f1929190612815565b60405180910390f35b6102026106e4565b60405161020f9190612845565b60405180910390f35b610232600480360381019061022d9190612867565b610772565b60405161023f91906128a3565b60405180910390f35b610262600480360381019061025d9190612867565b6107e1565b60405161026f91906128be565b60405180910390f35b610292600480360381019061028d9190612905565b610820565b60405161029f9190612960565b60405180910390f35b6102b061084f565b6040516102bd91906128a3565b60405180910390f35b6102e060048036038101906102db9190612bc2565b61085c565b005b6102ea6109d3565b6040516102f791906128a3565b60405180910390f35b61031a60048036038101906103159190612867565b6109e0565b6040516103279190612960565b60405180910390f35b61034a60048036038101906103459190612867565b610a02565b60405161035791906128a3565b60405180910390f35b61037a60048036038101906103759190612867565b610a26565b60405161038791906128a3565b60405180910390f35b6103aa60048036038101906103a59190612867565b610a95565b6040516103b79190612845565b60405180910390f35b6103c8610b41565b6040516103d59190612d17565b60405180910390f35b6103e6610c46565b6040516103f391906128a3565b60405180910390f35b610404610c4c565b6040516104119190612960565b60405180910390f35b610422610c5f565b60405161042f9190612845565b60405180910390f35b610440610ced565b60405161044d9190612f1e565b60405180910390f35b61045e610f6f565b60405161046b91906128a3565b60405180910390f35b61048e60048036038101906104899190612fe1565b610f7c565b005b61049861132f565b6040516104a591906130af565b60405180910390f35b6104c860048036038101906104c39190612867565b611353565b6040516104d591906132ef565b60405180910390f35b6104f860048036038101906104f39190612867565b611586565b60405161050c98979695949392919061335b565b60405180910390f35b61052f600480360381019061052a9190612905565b6116bd565b005b61054b600480360381019061054691906133e0565b6118d0565b005b610555612075565b6040516105629190612f1e565b60405180910390f35b61058560048036038101906105809190612905565b6122f7565b60405161059291906128a3565b60405180910390f35b6105b560048036038101906105b09190612867565b61231c565b6040516105c291906128a3565b60405180910390f35b6105e560048036038101906105e09190612867565b612340565b6040516105f291906128be565b60405180910390f35b6008602052816000526040600020818154811061061757600080fd5b9060005260206000209060030201600091509150508060000160009054906101000a900473ffffffffffffffffffffffffffffffffffffffff1690806001018054610661906134ae565b80601f016020809104026020016040519081016040528092919081815260200182805461068d906134ae565b80156106da5780601f106106af576101008083540402835291602001916106da565b820191906000526020600020905b8154815290600101906020018083116106bd57829003601f168201915b5050505050905082565b600180546106f1906134ae565b80601f016020809104026020016040519081016040528092919081815260200182805461071d906134ae565b801561076a5780601f1061073f5761010080835404028352916020019161076a565b820191906000526020600020905b81548152906001019060200180831161074d57829003601f168201915b505050505081565b600060058054905082106107bb576040517f08c379a00000000000000000000000000000000000000000000000000000000081526004016107b29061352b565b60405180910390fd5b600582815481106107cf576107ce61354b565b5b90600052602060002001549050919050565b600781815481106107f157600080fd5b906000526020600020016000915054906101000a900473ffffffffffffffffffffffffffffffffffffffff1681565b60066020528160005260406000206020528060005260406000206000915091509054906101000a900460ff1681565b6000600580549050905090565b42841161089e576040517f08c379a0000000000000000000000000000000000000000000000000000000008152600401610895906135ec565b60405180910390fd5b600083116108e1576040517f08c379a00000000000000000000000000000000000000000000000000000000081526004016108d89061367e565b60405180910390fd5b6003600086815260200190815260200160002060020160009054906101000a900460ff1615610945576040517f08c379a000000000000000000000000000000000000000000000000000000000815260040161093c906136ea565b60405180910390fd5b61095f856040518060200160405280600081525086610f7c565b82600a8190555081600b908051906020019061097c929190612569565b5080600c60006101000a81548160ff0219169083151502179055507f7cdb51e9dbbc205231228146c3246e7f914aa6d4a33170e43ecc8e3593481d1a6040516109c490613756565b60405180910390a15050505050565b6000600480549050905090565b6000600360008381526020019081526020016000206003015442119050919050565b60048181548110610a1257600080fd5b906000526020600020016000915090505481565b60006004805490508210610a6f576040517f08c379a0000000000000000000000000000000000000000000000000000000008152600401610a669061352b565b60405180910390fd5b60048281548110610a8357610a8261354b565b5b90600052602060002001549050919050565b600b8181548110610aa557600080fd5b906000526020600020016000915090508054610ac0906134ae565b80601f0160208091040260200160405190810160405280929190818152602001828054610aec906134ae565b8015610b395780601f10610b0e57610100808354040283529160200191610b39565b820191906000526020600020905b815481529060010190602001808311610b1c57829003601f168201915b505050505081565b6060600060078054905067ffffffffffffffff811115610b6457610b63612980565b5b604051908082528060200260200182016040528015610b925781602001602082028036833780820191505090505b50905060005b600780549050811015610c3e5760078181548110610bb957610bb861354b565b5b9060005260206000200160009054906101000a900473ffffffffffffffffffffffffffffffffffffffff16828281518110610bf757610bf661354b565b5b602002602001019073ffffffffffffffffffffffffffffffffffffffff16908173ffffffffffffffffffffffffffffffffffffffff16815250508080600101915050610b98565b508091505090565b600a5481565b600c60009054906101000a900460ff1681565b60028054610c6c906134ae565b80601f0160208091040260200160405190810160405280929190818152602001828054610c98906134ae565b8015610ce55780601f10610cba57610100808354040283529160200191610ce5565b820191906000526020600020905b815481529060010190602001808311610cc857829003601f168201915b505050505081565b6060600060058054905067ffffffffffffffff811115610d1057610d0f612980565b5b604051908082528060200260200182016040528015610d4957816020015b610d366125c2565b815260200190600190039081610d2e5790505b50905060005b600580549050811015610f67576003600060058381548110610d7457610d7361354b565b5b906000526020600020015481526020019081526020016000206040518061010001604052908160008201548152602001600182018054610db3906134ae565b80601f0160208091040260200160405190810160405280929190818152602001828054610ddf906134ae565b8015610e2c5780601f10610e0157610100808354040283529160200191610e2c565b820191906000526020600020905b815481529060010190602001808311610e0f57829003601f168201915b505050505081526020016002820160009054906101000a900460ff161515151581526020016002820160019054906101000a900460ff161515151581526020016002820160029054906101000a900460ff161515151581526020016002820160039054906101000a900473ffffffffffffffffffffffffffffffffffffffff1673ffffffffffffffffffffffffffffffffffffffff1673ffffffffffffffffffffffffffffffffffffffff168152602001600382015481526020016004820160009054906101000a900473ffffffffffffffffffffffffffffffffffffffff1673ffffffffffffffffffffffffffffffffffffffff1673ffffffffffffffffffffffffffffffffffffffff1681525050828281518110610f4f57610f4e61354b565b5b60200260200101819052508080600101915050610d4f565b508091505090565b6000600780549050905090565b6003600084815260200190815260200160002060020160009054906101000a900460ff1615610fe0576040517f08c379a0000000000000000000000000000000000000000000000000000000008152600401610fd7906136ea565b60405180910390fd5b6000600360008581526020019081526020016000209050838160000181905550828160010190816110119190613918565b5060018160020160006101000a81548160ff02191690831515021790555060018160020160016101000a81548160ff02191690831515021790555060008160020160026101000a81548160ff021916908315150217905550338160020160036101000a81548173ffffffffffffffffffffffffffffffffffffffff021916908373ffffffffffffffffffffffffffffffffffffffff160217905550818160030181905550308160040160006101000a81548173ffffffffffffffffffffffffffffffffffffffff021916908373ffffffffffffffffffffffffffffffffffffffff160217905550600484908060018154018082558091505060019003906000526020600020016000909190919091505560058490806001815401808255809150506001900390600052602060002001600090919091909150557f43d4b4706539f9e22baf8767ebea21ad24f723f14b6981664ac4d0af596dddbe8460405161117991906128a3565b60405180910390a17fe7375f84984fefa09f5f03aa56ffb11ed839b99d56943f858953e537609f8be7336040516111b091906128be565b60405180910390a17fe3a4ce2743f762fb9ba1b280ad891310a8dc003fa605660cb8e460f3c7218e7a8160020160019054906101000a900460ff166040516111f89190612960565b60405180910390a17fe3a4ce2743f762fb9ba1b280ad891310a8dc003fa605660cb8e460f3c7218e7a8160020160029054906101000a900460ff166040516112409190612960565b60405180910390a160008054906101000a900473ffffffffffffffffffffffffffffffffffffffff1673ffffffffffffffffffffffffffffffffffffffff1663d11adfd08560013060026040518563ffffffff1660e01b81526004016112a99493929190613a83565b600060405180830381600087803b1580156112c357600080fd5b505af11580156112d7573d6000803e3d6000fd5b505050503373ffffffffffffffffffffffffffffffffffffffff167f1a7137fe5d6f1b04a954215abb63ee4ac4cf282fa0c719abd2e160b1cc06d67c8560405161132191906128a3565b60405180910390a250505050565b60008054906101000a900473ffffffffffffffffffffffffffffffffffffffff1681565b606060086000838152602001908152602001600020805480602002602001604051908101604052809291908181526020016000905b8282101561157b57838290600052602060002090600302016040518060600160405290816000820160009054906101000a900473ffffffffffffffffffffffffffffffffffffffff1673ffffffffffffffffffffffffffffffffffffffff1673ffffffffffffffffffffffffffffffffffffffff168152602001600182018054611411906134ae565b80601f016020809104026020016040519081016040528092919081815260200182805461143d906134ae565b801561148a5780601f1061145f5761010080835404028352916020019161148a565b820191906000526020600020905b81548152906001019060200180831161146d57829003601f168201915b5050505050815260200160028201805480602002602001604051908101604052809291908181526020016000905b828210156115645783829060005260206000200180546114d7906134ae565b80601f0160208091040260200160405190810160405280929190818152602001828054611503906134ae565b80156115505780601f1061152557610100808354040283529160200191611550565b820191906000526020600020905b81548152906001019060200180831161153357829003601f168201915b5050505050815260200190600101906114b8565b505050508152505081526020019060010190611388565b505050509050919050565b60036020528060005260406000206000915090508060000154908060010180546115af906134ae565b80601f01602080910402602001604051908101604052809291908181526020018280546115db906134ae565b80156116285780601f106115fd57610100808354040283529160200191611628565b820191906000526020600020905b81548152906001019060200180831161160b57829003601f168201915b5050505050908060020160009054906101000a900460ff16908060020160019054906101000a900460ff16908060020160029054906101000a900460ff16908060020160039054906101000a900473ffffffffffffffffffffffffffffffffffffffff16908060030154908060040160009054906101000a900473ffffffffffffffffffffffffffffffffffffffff16905088565b600073ffffffffffffffffffffffffffffffffffffffff166003600084815260200190815260200160002060040160009054906101000a900473ffffffffffffffffffffffffffffffffffffffff1673ffffffffffffffffffffffffffffffffffffffff1603611762576040517f08c379a000000000000000000000000000000000000000000000000000000000815260040161175990613b22565b60405180910390fd5b6006600083815260200190815260200160002060008273ffffffffffffffffffffffffffffffffffffffff1673ffffffffffffffffffffffffffffffffffffffff16815260200190815260200160002060009054906101000a900460ff1615611800576040517f08c379a00000000000000000000000000000000000000000000000000000000081526004016117f790613bb4565b60405180910390fd5b60016006600084815260200190815260200160002060008373ffffffffffffffffffffffffffffffffffffffff1673ffffffffffffffffffffffffffffffffffffffff16815260200190815260200160002060006101000a81548160ff0219169083151502179055506007819080600181540180825580915050600190039060005260206000200160009091909190916101000a81548173ffffffffffffffffffffffffffffffffffffffff021916908373ffffffffffffffffffffffffffffffffffffffff1602179055505050565b7f7cdb51e9dbbc205231228146c3246e7f914aa6d4a33170e43ecc8e3593481d1a6040516118fd90613c20565b60405180910390a17f43d4b4706539f9e22baf8767ebea21ad24f723f14b6981664ac4d0af596dddbe8460405161193491906128a3565b60405180910390a17fe7375f84984fefa09f5f03aa56ffb11ed839b99d56943f858953e537609f8be78360405161196b91906128be565b60405180910390a17f20670ef4ff6910e98e7c43650896cc0feeab168b4ca974d0748d31c42706a1e9826040516119a29190612845565b60405180910390a16040516020016119b990613c97565b60405160208183030381529060405280519060200120826040516020016119e09190613cdd565b6040516020818303038152906040528051906020012014611a36576040517f08c379a0000000000000000000000000000000000000000000000000000000008152600401611a2d90613d40565b60405180910390fd5b7f7cdb51e9dbbc205231228146c3246e7f914aa6d4a33170e43ecc8e3593481d1a604051611a6390613dac565b60405180910390a16003600085815260200190815260200160002060020160019054906101000a900460ff16611ace576040517f08c379a0000000000000000000000000000000000000000000000000000000008152600401611ac590613e18565b60405180910390fd5b7f7cdb51e9dbbc205231228146c3246e7f914aa6d4a33170e43ecc8e3593481d1a604051611afb90613e84565b60405180910390a1611b0c846109e0565b15611b4c576040517f08c379a0000000000000000000000000000000000000000000000000000000008152600401611b4390613ef0565b60405180910390fd5b7f7cdb51e9dbbc205231228146c3246e7f914aa6d4a33170e43ecc8e3593481d1a604051611b7990613f5c565b60405180910390a160008082806020019051810190611b9891906140a1565b915091507f7cdb51e9dbbc205231228146c3246e7f914aa6d4a33170e43ecc8e3593481d1a604051611bc990614165565b60405180910390a17f20670ef4ff6910e98e7c43650896cc0feeab168b4ca974d0748d31c42706a1e982604051611c009190612845565b60405180910390a17f43d4b4706539f9e22baf8767ebea21ad24f723f14b6981664ac4d0af596dddbe8151604051611c3891906128a3565b60405180910390a16000825111611c84576040517f08c379a0000000000000000000000000000000000000000000000000000000008152600401611c7b906141d1565b60405180910390fd5b7f7cdb51e9dbbc205231228146c3246e7f914aa6d4a33170e43ecc8e3593481d1a604051611cb19061423d565b60405180910390a1600c60009054906101000a900460ff1615611e275760006001905060005b600b80549050811015611daf576000805b8451811015611d9157600b8381548110611d0557611d0461354b565b5b90600052602060002001604051602001611d1f91906142e0565b60405160208183030381529060405280519060200120858281518110611d4857611d4761354b565b5b6020026020010151604051602001611d609190613cdd565b6040516020818303038152906040528051906020012003611d845760019150611d91565b8080600101915050611ce8565b5080611da1576000925050611daf565b508080600101915050611cd7565b5080611df0576040517f08c379a0000000000000000000000000000000000000000000000000000000008152600401611de790614343565b60405180910390fd5b7f7cdb51e9dbbc205231228146c3246e7f914aa6d4a33170e43ecc8e3593481d1a604051611e1d906143af565b60405180910390a1505b6009600087815260200190815260200160002060008673ffffffffffffffffffffffffffffffffffffffff1673ffffffffffffffffffffffffffffffffffffffff1681526020019081526020016000206000815480929190611e88906143fe565b91905055506008600087815260200190815260200160002060405180606001604052808773ffffffffffffffffffffffffffffffffffffffff16815260200184815260200183815250908060018154018082558091505060019003906000526020600020906003020160009091909190915060008201518160000160006101000a81548173ffffffffffffffffffffffffffffffffffffffff021916908373ffffffffffffffffffffffffffffffffffffffff1602179055506020820151816001019081611f56919061448c565b506040820151816002019080519060200190611f73929190612569565b5050507f7cdb51e9dbbc205231228146c3246e7f914aa6d4a33170e43ecc8e3593481d1a604051611fa3906145aa565b60405180910390a1611fb7868686866123cf565b8473ffffffffffffffffffffffffffffffffffffffff167f667374a1d113cbbfa02267bc923de277c5e15fee0413feb7a92cde123d8698ce87848460405161200193929190614650565b60405180910390a2600a546009600088815260200190815260200160002060008773ffffffffffffffffffffffffffffffffffffffff1673ffffffffffffffffffffffffffffffffffffffff168152602001908152602001600020541061206d5761206c8686612427565b5b505050505050565b6060600060048054905067ffffffffffffffff81111561209857612097612980565b5b6040519080825280602002602001820160405280156120d157816020015b6120be6125c2565b8152602001906001900390816120b65790505b50905060005b6004805490508110156122ef5760036000600483815481106120fc576120fb61354b565b5b90600052602060002001548152602001908152602001600020604051806101000160405290816000820154815260200160018201805461213b906134ae565b80601f0160208091040260200160405190810160405280929190818152602001828054612167906134ae565b80156121b45780601f10612189576101008083540402835291602001916121b4565b820191906000526020600020905b81548152906001019060200180831161219757829003601f168201915b505050505081526020016002820160009054906101000a900460ff161515151581526020016002820160019054906101000a900460ff161515151581526020016002820160029054906101000a900460ff161515151581526020016002820160039054906101000a900473ffffffffffffffffffffffffffffffffffffffff1673ffffffffffffffffffffffffffffffffffffffff1673ffffffffffffffffffffffffffffffffffffffff168152602001600382015481526020016004820160009054906101000a900473ffffffffffffffffffffffffffffffffffffffff1673ffffffffffffffffffffffffffffffffffffffff1673ffffffffffffffffffffffffffffffffffffffff16815250508282815181106122d7576122d661354b565b5b602002602001018190525080806001019150506120d7565b508091505090565b6009602052816000526040600020602052806000526040600020600091509150505481565b6005818154811061232c57600080fd5b906000526020600020016000915090505481565b60006007805490508210612389576040517f08c379a00000000000000000000000000000000000000000000000000000000081526004016123809061352b565b60405180910390fd5b6007828154811061239d5761239c61354b565b5b9060005260206000200160009054906101000a900473ffffffffffffffffffffffffffffffffffffffff169050919050565b8273ffffffffffffffffffffffffffffffffffffffff167ff3d8e37dcc46fe5e1a9488363a34d373e636904e7bdb5aabc3cc3e8960c83c7185848460405161241993929190614695565b60405180910390a250505050565b6003600083815260200190815260200160002060020160029054906101000a900460ff166124ae5760016003600084815260200190815260200160002060020160026101000a81548160ff02191690831515021790555060006003600084815260200190815260200160002060020160016101000a81548160ff0219169083151502179055505b60016006600084815260200190815260200160002060008373ffffffffffffffffffffffffffffffffffffffff1673ffffffffffffffffffffffffffffffffffffffff16815260200190815260200160002060006101000a81548160ff0219169083151502179055508073ffffffffffffffffffffffffffffffffffffffff167ff3d8e37dcc46fe5e1a9488363a34d373e636904e7bdb5aabc3cc3e8960c83c718360405161255d919061474c565b60405180910390a25050565b8280548282559060005260206000209081019282156125b1579160200282015b828111156125b05782518290816125a0919061448c565b5091602001919060010190612589565b5b5090506125be9190612639565b5090565b6040518061010001604052806000815260200160608152602001600015158152602001600015158152602001600015158152602001600073ffffffffffffffffffffffffffffffffffffffff16815260200160008152602001600073ffffffffffffffffffffffffffffffffffffffff1681525090565b5b808211156126595760008181612650919061265d565b5060010161263a565b5090565b508054612669906134ae565b6000825580601f1061267b575061269a565b601f016020900490600052602060002090810190612699919061269d565b5b50565b5b808211156126b657600081600090555060010161269e565b5090565b6000604051905090565b600080fd5b600080fd5b6000819050919050565b6126e1816126ce565b81146126ec57600080fd5b50565b6000813590506126fe816126d8565b92915050565b6000806040838503121561271b5761271a6126c4565b5b6000612729858286016126ef565b925050602061273a858286016126ef565b9150509250929050565b600073ffffffffffffffffffffffffffffffffffffffff82169050919050565b600061276f82612744565b9050919050565b61277f81612764565b82525050565b600081519050919050565b600082825260208201905092915050565b60005b838110156127bf5780820151818401526020810190506127a4565b60008484015250505050565b6000601f19601f8301169050919050565b60006127e782612785565b6127f18185612790565b93506128018185602086016127a1565b61280a816127cb565b840191505092915050565b600060408201905061282a6000830185612776565b818103602083015261283c81846127dc565b90509392505050565b6000602082019050818103600083015261285f81846127dc565b905092915050565b60006020828403121561287d5761287c6126c4565b5b600061288b848285016126ef565b91505092915050565b61289d816126ce565b82525050565b60006020820190506128b86000830184612894565b92915050565b60006020820190506128d36000830184612776565b92915050565b6128e281612764565b81146128ed57600080fd5b50565b6000813590506128ff816128d9565b92915050565b6000806040838503121561291c5761291b6126c4565b5b600061292a858286016126ef565b925050602061293b858286016128f0565b9150509250929050565b60008115159050919050565b61295a81612945565b82525050565b60006020820190506129756000830184612951565b92915050565b600080fd5b7f4e487b7100000000000000000000000000000000000000000000000000000000600052604160045260246000fd5b6129b8826127cb565b810181811067ffffffffffffffff821117156129d7576129d6612980565b5b80604052505050565b60006129ea6126ba565b90506129f682826129af565b919050565b600067ffffffffffffffff821115612a1657612a15612980565b5b602082029050602081019050919050565b600080fd5b600080fd5b600067ffffffffffffffff821115612a4c57612a4b612980565b5b612a55826127cb565b9050602081019050919050565b82818337600083830152505050565b6000612a84612a7f84612a31565b6129e0565b905082815260208101848484011115612aa057612a9f612a2c565b5b612aab848285612a62565b509392505050565b600082601f830112612ac857612ac761297b565b5b8135612ad8848260208601612a71565b91505092915050565b6000612af4612aef846129fb565b6129e0565b90508083825260208201905060208402830185811115612b1757612b16612a27565b5b835b81811015612b5e57803567ffffffffffffffff811115612b3c57612b3b61297b565b5b808601612b498982612ab3565b85526020850194505050602081019050612b19565b5050509392505050565b600082601f830112612b7d57612b7c61297b565b5b8135612b8d848260208601612ae1565b91505092915050565b612b9f81612945565b8114612baa57600080fd5b50565b600081359050612bbc81612b96565b92915050565b600080600080600060a08688031215612bde57612bdd6126c4565b5b6000612bec888289016126ef565b9550506020612bfd888289016126ef565b9450506040612c0e888289016126ef565b935050606086013567ffffffffffffffff811115612c2f57612c2e6126c9565b5b612c3b88828901612b68565b9250506080612c4c88828901612bad565b9150509295509295909350565b600081519050919050565b600082825260208201905092915050565b6000819050602082019050919050565b612c8e81612764565b82525050565b6000612ca08383612c85565b60208301905092915050565b6000602082019050919050565b6000612cc482612c59565b612cce8185612c64565b9350612cd983612c75565b8060005b83811015612d0a578151612cf18882612c94565b9750612cfc83612cac565b925050600181019050612cdd565b5085935050505092915050565b60006020820190508181036000830152612d318184612cb9565b905092915050565b600081519050919050565b600082825260208201905092915050565b6000819050602082019050919050565b612d6e816126ce565b82525050565b600081519050919050565b600082825260208201905092915050565b6000612d9b82612d74565b612da58185612d7f565b9350612db58185602086016127a1565b612dbe816127cb565b840191505092915050565b612dd281612945565b82525050565b600061010083016000830151612df16000860182612d65565b5060208301518482036020860152612e098282612d90565b9150506040830151612e1e6040860182612dc9565b506060830151612e316060860182612dc9565b506080830151612e446080860182612dc9565b5060a0830151612e5760a0860182612c85565b5060c0830151612e6a60c0860182612d65565b5060e0830151612e7d60e0860182612c85565b508091505092915050565b6000612e948383612dd8565b905092915050565b6000602082019050919050565b6000612eb482612d39565b612ebe8185612d44565b935083602082028501612ed085612d55565b8060005b85811015612f0c5784840389528151612eed8582612e88565b9450612ef883612e9c565b925060208a01995050600181019050612ed4565b50829750879550505050505092915050565b60006020820190508181036000830152612f388184612ea9565b905092915050565b600067ffffffffffffffff821115612f5b57612f5a612980565b5b612f64826127cb565b9050602081019050919050565b6000612f84612f7f84612f40565b6129e0565b905082815260208101848484011115612fa057612f9f612a2c565b5b612fab848285612a62565b509392505050565b600082601f830112612fc857612fc761297b565b5b8135612fd8848260208601612f71565b91505092915050565b600080600060608486031215612ffa57612ff96126c4565b5b6000613008868287016126ef565b935050602084013567ffffffffffffffff811115613029576130286126c9565b5b61303586828701612fb3565b9250506040613046868287016126ef565b9150509250925092565b6000819050919050565b600061307561307061306b84612744565b613050565b612744565b9050919050565b60006130878261305a565b9050919050565b60006130998261307c565b9050919050565b6130a98161308e565b82525050565b60006020820190506130c460008301846130a0565b92915050565b600081519050919050565b600082825260208201905092915050565b6000819050602082019050919050565b600082825260208201905092915050565b600061311282612785565b61311c81856130f6565b935061312c8185602086016127a1565b613135816127cb565b840191505092915050565b600081519050919050565b600082825260208201905092915050565b6000819050602082019050919050565b60006131788383613107565b905092915050565b6000602082019050919050565b600061319882613140565b6131a2818561314b565b9350836020820285016131b48561315c565b8060005b858110156131f057848403895281516131d1858261316c565b94506131dc83613180565b925060208a019950506001810190506131b8565b50829750879550505050505092915050565b600060608301600083015161321a6000860182612c85565b50602083015184820360208601526132328282613107565b9150506040830151848203604086015261324c828261318d565b9150508091505092915050565b60006132658383613202565b905092915050565b6000602082019050919050565b6000613285826130ca565b61328f81856130d5565b9350836020820285016132a1856130e6565b8060005b858110156132dd57848403895281516132be8582613259565b94506132c98361326d565b925060208a019950506001810190506132a5565b50829750879550505050505092915050565b60006020820190508181036000830152613309818461327a565b905092915050565b600082825260208201905092915050565b600061332d82612d74565b6133378185613311565b93506133478185602086016127a1565b613350816127cb565b840191505092915050565b600061010082019050613371600083018b612894565b8181036020830152613383818a613322565b90506133926040830189612951565b61339f6060830188612951565b6133ac6080830187612951565b6133b960a0830186612776565b6133c660c0830185612894565b6133d360e0830184612776565b9998505050505050505050565b600080600080608085870312156133fa576133f96126c4565b5b6000613408878288016126ef565b9450506020613419878288016128f0565b935050604085013567ffffffffffffffff81111561343a576134396126c9565b5b61344687828801612ab3565b925050606085013567ffffffffffffffff811115613467576134666126c9565b5b61347387828801612fb3565b91505092959194509250565b7f4e487b7100000000000000000000000000000000000000000000000000000000600052602260045260246000fd5b600060028204905060018216806134c657607f821691505b6020821081036134d9576134d861347f565b5b50919050565b7f496e646578206f7574206f6620626f756e647300000000000000000000000000600082015250565b6000613515601383612790565b9150613520826134df565b602082019050919050565b6000602082019050818103600083015261354481613508565b9050919050565b7f4e487b7100000000000000000000000000000000000000000000000000000000600052603260045260246000fd5b7f45787069726174696f6e2074696d65206d75737420626520696e20746865206660008201527f75747572652e0000000000000000000000000000000000000000000000000000602082015250565b60006135d6602683612790565b91506135e18261357a565b604082019050919050565b60006020820190508181036000830152613605816135c9565b9050919050565b7f4d696e696d756d207375626d697373696f6e73206d757374206265206772656160008201527f746572207468616e207a65726f2e000000000000000000000000000000000000602082015250565b6000613668602e83612790565b91506136738261360c565b604082019050919050565b600060208201905081810360008301526136978161365b565b9050919050565b7f517565737420697320616c726561647920696e697469616c697a65642e000000600082015250565b60006136d4601d83612790565b91506136df8261369e565b602082019050919050565b60006020820190508181036000830152613703816136c7565b9050919050565b7f436f6e74656e7443726561746f72517565737420696e697469616c697a656400600082015250565b6000613740601f83612790565b915061374b8261370a565b602082019050919050565b6000602082019050818103600083015261376f81613733565b9050919050565b60008190508160005260206000209050919050565b60006020601f8301049050919050565b600082821b905092915050565b6000600883026137d87fffffffffffffffffffffffffffffffffffffffffffffffffffffffffffffffff8261379b565b6137e2868361379b565b95508019841693508086168417925050509392505050565b600061381561381061380b846126ce565b613050565b6126ce565b9050919050565b6000819050919050565b61382f836137fa565b61384361383b8261381c565b8484546137a8565b825550505050565b600090565b61385861384b565b613863818484613826565b505050565b5b818110156138875761387c600082613850565b600181019050613869565b5050565b601f8211156138cc5761389d81613776565b6138a68461378b565b810160208510156138b5578190505b6138c96138c18561378b565b830182613868565b50505b505050565b600082821c905092915050565b60006138ef600019846008026138d1565b1980831691505092915050565b600061390883836138de565b9150826002028217905092915050565b61392182612d74565b67ffffffffffffffff81111561393a57613939612980565b5b61394482546134ae565b61394f82828561388b565b600060209050601f8311600181146139825760008415613970578287015190505b61397a85826138fc565b8655506139e2565b601f19841661399086613776565b60005b828110156139b857848901518255600182019150602085019450602081019050613993565b868310156139d557848901516139d1601f8916826138de565b8355505b6001600288020188555050505b505050505050565b60008190508160005260206000209050919050565b60008154613a0c816134ae565b613a168186612790565b94506001821660008114613a315760018114613a4757613a7a565b60ff198316865281151560200286019350613a7a565b613a50856139ea565b60005b83811015613a7257815481890152600182019150602081019050613a53565b808801955050505b50505092915050565b6000608082019050613a986000830187612894565b8181036020830152613aaa81866139ff565b9050613ab96040830185612776565b8181036060830152613acb81846139ff565b905095945050505050565b7f517565737420494420646f6573206e6f742065786973742e0000000000000000600082015250565b6000613b0c601883612790565b9150613b1782613ad6565b602082019050919050565b60006020820190508181036000830152613b3b81613aff565b9050919050565b7f5573657220616c7265616479207265676973746572656420666f72207468697360008201527f2071756573742e00000000000000000000000000000000000000000000000000602082015250565b6000613b9e602783612790565b9150613ba982613b42565b604082019050919050565b60006020820190508181036000830152613bcd81613b91565b9050919050565b7f496e746572616374696f6e207374617274656400000000000000000000000000600082015250565b6000613c0a601383612790565b9150613c1582613bd4565b602082019050919050565b60006020820190508181036000830152613c3981613bfd565b9050919050565b600081905092915050565b7f7375626d69740000000000000000000000000000000000000000000000000000600082015250565b6000613c81600683613c40565b9150613c8c82613c4b565b600682019050919050565b6000613ca282613c74565b9150819050919050565b6000613cb782612785565b613cc18185613c40565b9350613cd18185602086016127a1565b80840191505092915050565b6000613ce98284613cac565b915081905092915050565b7f496e76616c696420696e746572616374696f6e20747970652e00000000000000600082015250565b6000613d2a601983612790565b9150613d3582613cf4565b602082019050919050565b60006020820190508181036000830152613d5981613d1d565b9050919050565b7f496e746572616374696f6e20747970652076616c696461746564000000000000600082015250565b6000613d96601a83612790565b9150613da182613d60565b602082019050919050565b60006020820190508181036000830152613dc581613d89565b9050919050565b7f5175657374206973206e6f74206163746976652e000000000000000000000000600082015250565b6000613e02601483612790565b9150613e0d82613dcc565b602082019050919050565b60006020820190508181036000830152613e3181613df5565b9050919050565b7f5175657374206973206163746976650000000000000000000000000000000000600082015250565b6000613e6e600f83612790565b9150613e7982613e38565b602082019050919050565b60006020820190508181036000830152613e9d81613e61565b9050919050565b7f51756573742068617320657870697265642e0000000000000000000000000000600082015250565b6000613eda601283612790565b9150613ee582613ea4565b602082019050919050565b60006020820190508181036000830152613f0981613ecd565b9050919050565b7f5175657374206973206e6f742065787069726564000000000000000000000000600082015250565b6000613f46601483612790565b9150613f5182613f10565b602082019050919050565b60006020820190508181036000830152613f7581613f39565b9050919050565b6000613f8f613f8a84612a31565b6129e0565b905082815260208101848484011115613fab57613faa612a2c565b5b613fb68482856127a1565b509392505050565b600082601f830112613fd357613fd261297b565b5b8151613fe3848260208601613f7c565b91505092915050565b6000613fff613ffa846129fb565b6129e0565b9050808382526020820190506020840283018581111561402257614021612a27565b5b835b8181101561406957805167ffffffffffffffff8111156140475761404661297b565b5b8086016140548982613fbe565b85526020850194505050602081019050614024565b5050509392505050565b600082601f8301126140885761408761297b565b5b8151614098848260208601613fec565b91505092915050565b600080604083850312156140b8576140b76126c4565b5b600083015167ffffffffffffffff8111156140d6576140d56126c9565b5b6140e285828601613fbe565b925050602083015167ffffffffffffffff811115614103576141026126c9565b5b61410f85828601614073565b9150509250929050565b7f546172676574206465636f646564000000000000000000000000000000000000600082015250565b600061414f600e83612790565b915061415a82614119565b602082019050919050565b6000602082019050818103600083015261417e81614142565b9050919050565b7f436f6e74656e742055524c2063616e6e6f7420626520656d7074792e00000000600082015250565b60006141bb601c83612790565b91506141c682614185565b602082019050919050565b600060208201905081810360008301526141ea816141ae565b9050919050565b7f436f6e74656e742055524c2069732076616c6964000000000000000000000000600082015250565b6000614227601483612790565b9150614232826141f1565b602082019050919050565b600060208201905081810360008301526142568161421a565b9050919050565b6000815461426a816134ae565b6142748186613c40565b9450600182166000811461428f57600181146142a4576142d7565b60ff19831686528115158202860193506142d7565b6142ad856139ea565b60005b838110156142cf578154818901526001820191506020810190506142b0565b838801955050505b50505092915050565b60006142ec828461425d565b915081905092915050565b7f526571756972656420686173687461677320617265206d697373696e672e0000600082015250565b600061432d601e83612790565b9150614338826142f7565b602082019050919050565b6000602082019050818103600083015261435c81614320565b9050919050565b7f48617368746167732076616c6964617465640000000000000000000000000000600082015250565b6000614399601283612790565b91506143a482614363565b602082019050919050565b600060208201905081810360008301526143c88161438c565b9050919050565b7f4e487b7100000000000000000000000000000000000000000000000000000000600052601160045260246000fd5b6000614409826126ce565b91507fffffffffffffffffffffffffffffffffffffffffffffffffffffffffffffffff820361443b5761443a6143cf565b5b600182019050919050565b601f82111561448757614458816139ea565b6144618461378b565b81016020851015614470578190505b61448461447c8561378b565b830182613868565b50505b505050565b61449582612785565b67ffffffffffffffff8111156144ae576144ad612980565b5b6144b882546134ae565b6144c3828285614446565b600060209050601f8311600181146144f657600084156144e4578287015190505b6144ee85826138fc565b865550614556565b601f198416614504866139ea565b60005b8281101561452c57848901518255600182019150602085019450602081019050614507565b868310156145495784890151614545601f8916826138de565b8355505b6001600288020188555050505b505050505050565b7f436f6e74656e74207375626d697373696f6e207265636f726465640000000000600082015250565b6000614594601b83612790565b915061459f8261455e565b602082019050919050565b600060208201905081810360008301526145c381614587565b9050919050565b600082825260208201905092915050565b60006145e682613140565b6145f081856145ca565b9350836020820285016146028561315c565b8060005b8581101561463e578484038952815161461f858261316c565b945061462a83613180565b925060208a01995050600181019050614606565b50829750879550505050505092915050565b60006060820190506146656000830186612894565b818103602083015261467781856127dc565b9050818103604083015261468b81846145db565b9050949350505050565b60006060820190506146aa6000830186612894565b81810360208301526146bc81856127dc565b905081810360408301526146d08184613322565b9050949350505050565b7f636f6d706c6574696f6e00000000000000000000000000000000000000000000600082015250565b6000614710600a83612790565b915061471b826146da565b602082019050919050565b50565b6000614736600083613311565b915061474182614726565b600082019050919050565b60006060820190506147616000830184612894565b818103602083015261477281614703565b9050818103604083015261478581614729565b90509291505056fea2646970667358221220986edee34c03b4f614ee90f4ab87475f7099bac8c34cb32b712b2e598d45d27464736f6c63430008170033",
  "linkReferences": {},
  "deployedLinkReferences": {}
}