{
  "_format": "hh-sol-artifact-1",
  "contractName": "ContentCreatorQuest",
  "sourceName": "contracts/ContentCreatorQuest.sol",
  "abi": [
    {
      "inputs": [
        {
          "internalType": "address",
          "name": "_questManager",
          "type": "address"
        },
        {
          "internalType": "string",
          "name": "_questName",
          "type": "string"
        },
        {
          "internalType": "string",
          "name": "_questType",
          "type": "string"
        }
      ],
      "stateMutability": "nonpayable",
      "type": "constructor"
    },
    {
      "anonymous": false,
      "inputs": [
        {
          "indexed": false,
          "internalType": "uint256",
          "name": "questId",
          "type": "uint256"
        },
        {
          "indexed": true,
          "internalType": "address",
          "name": "participant",
          "type": "address"
        },
        {
          "indexed": false,
          "internalType": "string",
          "name": "contentUrl",
          "type": "string"
        },
        {
          "indexed": false,
          "internalType": "string[]",
          "name": "hashtags",
          "type": "string[]"
        }
      ],
      "name": "ContentSubmitted",
      "type": "event"
    },
    {
      "anonymous": false,
      "inputs": [
        {
          "indexed": false,
          "internalType": "string",
          "name": "message",
          "type": "string"
        }
      ],
      "name": "Debug",
      "type": "event"
    },
    {
      "anonymous": false,
      "inputs": [
        {
          "indexed": false,
          "internalType": "address",
          "name": "addr",
          "type": "address"
        }
      ],
      "name": "DebugAddress",
      "type": "event"
    },
    {
      "anonymous": false,
      "inputs": [
        {
          "indexed": false,
          "internalType": "bool",
          "name": "value",
          "type": "bool"
        }
      ],
      "name": "DebugBool",
      "type": "event"
    },
    {
      "anonymous": false,
      "inputs": [
        {
          "indexed": false,
          "internalType": "string",
          "name": "value",
          "type": "string"
        }
      ],
      "name": "DebugString",
      "type": "event"
    },
    {
      "anonymous": false,
      "inputs": [
        {
          "indexed": false,
          "internalType": "uint256",
          "name": "value",
          "type": "uint256"
        }
      ],
      "name": "DebugUint256",
      "type": "event"
    },
    {
      "anonymous": false,
      "inputs": [
        {
          "indexed": false,
          "internalType": "uint256",
          "name": "questId",
          "type": "uint256"
        },
        {
          "indexed": true,
          "internalType": "address",
          "name": "participant",
          "type": "address"
        },
        {
          "indexed": false,
          "internalType": "string",
          "name": "interactionType",
          "type": "string"
        },
        {
          "indexed": false,
          "internalType": "bytes",
          "name": "target",
          "type": "bytes"
        }
      ],
      "name": "InteractionCompleted",
      "type": "event"
    },
    {
      "anonymous": false,
      "inputs": [
        {
          "indexed": false,
          "internalType": "uint256",
          "name": "questId",
          "type": "uint256"
        },
        {
          "indexed": true,
          "internalType": "address",
          "name": "questInitiator",
          "type": "address"
        }
      ],
      "name": "QuestInitialized",
      "type": "event"
    },
    {
      "inputs": [
        {
          "internalType": "uint256",
          "name": "",
          "type": "uint256"
        }
      ],
      "name": "activeQuestIds",
      "outputs": [
        {
          "internalType": "uint256",
          "name": "",
          "type": "uint256"
        }
      ],
      "stateMutability": "view",
      "type": "function"
    },
    {
      "inputs": [
        {
          "internalType": "uint256",
          "name": "",
          "type": "uint256"
        },
        {
          "internalType": "uint256",
          "name": "",
          "type": "uint256"
        }
      ],
      "name": "contentSubmissions",
      "outputs": [
        {
          "internalType": "address",
          "name": "participant",
          "type": "address"
        },
        {
          "internalType": "string",
          "name": "contentUrl",
          "type": "string"
        }
      ],
      "stateMutability": "view",
      "type": "function"
    },
    {
      "inputs": [
        {
          "internalType": "uint256",
          "name": "index",
          "type": "uint256"
        }
      ],
      "name": "getActiveQuestByIndex",
      "outputs": [
        {
          "internalType": "uint256",
          "name": "",
          "type": "uint256"
        }
      ],
      "stateMutability": "view",
      "type": "function"
    },
    {
      "inputs": [],
      "name": "getActiveQuestCount",
      "outputs": [
        {
          "internalType": "uint256",
          "name": "",
          "type": "uint256"
        }
      ],
      "stateMutability": "view",
      "type": "function"
    },
    {
      "inputs": [
        {
          "internalType": "uint256",
          "name": "questId",
          "type": "uint256"
        }
      ],
      "name": "getContentSubmissions",
      "outputs": [
        {
          "components": [
            {
              "internalType": "address",
              "name": "participant",
              "type": "address"
            },
            {
              "internalType": "string",
              "name": "contentUrl",
              "type": "string"
            },
            {
              "internalType": "string[]",
              "name": "hashtags",
              "type": "string[]"
            }
          ],
          "internalType": "struct ContentCreatorQuest.ContentSubmission[]",
          "name": "",
          "type": "tuple[]"
        }
      ],
      "stateMutability": "view",
      "type": "function"
    },
    {
      "inputs": [
        {
          "internalType": "uint256",
          "name": "index",
          "type": "uint256"
        }
      ],
      "name": "getQuestByIndex",
      "outputs": [
        {
          "internalType": "uint256",
          "name": "",
          "type": "uint256"
        }
      ],
      "stateMutability": "view",
      "type": "function"
    },
    {
      "inputs": [],
      "name": "getQuestCount",
      "outputs": [
        {
          "internalType": "uint256",
          "name": "",
          "type": "uint256"
        }
      ],
      "stateMutability": "view",
      "type": "function"
    },
    {
      "inputs": [
        {
          "internalType": "uint256",
          "name": "index",
          "type": "uint256"
        }
      ],
      "name": "getUserByIndex",
      "outputs": [
        {
          "internalType": "address",
          "name": "",
          "type": "address"
        }
      ],
      "stateMutability": "view",
      "type": "function"
    },
    {
      "inputs": [],
      "name": "getUserCount",
      "outputs": [
        {
          "internalType": "uint256",
          "name": "",
          "type": "uint256"
        }
      ],
      "stateMutability": "view",
      "type": "function"
    },
    {
      "inputs": [
        {
          "internalType": "uint256",
          "name": "questId",
          "type": "uint256"
        },
        {
          "internalType": "uint256",
          "name": "questTypeId",
          "type": "uint256"
        },
        {
          "internalType": "uint256",
          "name": "expirationTime",
          "type": "uint256"
        },
        {
          "internalType": "uint256",
          "name": "_minSubmissions",
          "type": "uint256"
        },
        {
          "internalType": "string[]",
          "name": "_requiredHashtags",
          "type": "string[]"
        },
        {
          "internalType": "bool",
          "name": "_requireHashtags",
          "type": "bool"
        }
      ],
      "name": "initializeContentCreatorQuest",
      "outputs": [],
      "stateMutability": "nonpayable",
      "type": "function"
    },
    {
      "inputs": [
        {
          "internalType": "uint256",
          "name": "questId",
          "type": "uint256"
        },
        {
          "internalType": "uint256",
          "name": "questTypeId",
          "type": "uint256"
        },
        {
          "internalType": "bytes",
          "name": "data",
          "type": "bytes"
        },
        {
          "internalType": "uint256",
          "name": "expirationTime",
          "type": "uint256"
        }
      ],
      "name": "initializeQuest",
      "outputs": [],
      "stateMutability": "nonpayable",
      "type": "function"
    },
    {
      "inputs": [
        {
          "internalType": "uint256",
          "name": "questId",
          "type": "uint256"
        },
        {
          "internalType": "address",
          "name": "participant",
          "type": "address"
        },
        {
          "internalType": "string",
          "name": "interactionType",
          "type": "string"
        },
        {
          "internalType": "bytes",
          "name": "target",
          "type": "bytes"
        }
      ],
      "name": "interact",
      "outputs": [],
      "stateMutability": "nonpayable",
      "type": "function"
    },
    {
      "inputs": [
        {
          "internalType": "uint256",
          "name": "questId",
          "type": "uint256"
        }
      ],
      "name": "isQuestExpired",
      "outputs": [
        {
          "internalType": "bool",
          "name": "",
          "type": "bool"
        }
      ],
      "stateMutability": "view",
      "type": "function"
    },
    {
      "inputs": [],
      "name": "listActiveQuests",
      "outputs": [
        {
          "components": [
            {
              "internalType": "uint256",
              "name": "questId",
              "type": "uint256"
            },
            {
              "internalType": "uint256",
              "name": "questTypeId",
              "type": "uint256"
            },
            {
              "internalType": "bytes",
              "name": "data",
              "type": "bytes"
            },
            {
              "internalType": "bool",
              "name": "isInitialized",
              "type": "bool"
            },
            {
              "internalType": "bool",
              "name": "isActive",
              "type": "bool"
            },
            {
              "internalType": "bool",
              "name": "isCompleted",
              "type": "bool"
            },
            {
              "internalType": "address",
              "name": "initiator",
              "type": "address"
            },
            {
              "internalType": "uint256",
              "name": "expirationTime",
              "type": "uint256"
            },
            {
              "internalType": "address",
              "name": "questContract",
              "type": "address"
            }
          ],
          "internalType": "struct Quest.QuestInfo[]",
          "name": "",
          "type": "tuple[]"
        }
      ],
      "stateMutability": "view",
      "type": "function"
    },
    {
      "inputs": [],
      "name": "listQuests",
      "outputs": [
        {
          "components": [
            {
              "internalType": "uint256",
              "name": "questId",
              "type": "uint256"
            },
            {
              "internalType": "uint256",
              "name": "questTypeId",
              "type": "uint256"
            },
            {
              "internalType": "bytes",
              "name": "data",
              "type": "bytes"
            },
            {
              "internalType": "bool",
              "name": "isInitialized",
              "type": "bool"
            },
            {
              "internalType": "bool",
              "name": "isActive",
              "type": "bool"
            },
            {
              "internalType": "bool",
              "name": "isCompleted",
              "type": "bool"
            },
            {
              "internalType": "address",
              "name": "initiator",
              "type": "address"
            },
            {
              "internalType": "uint256",
              "name": "expirationTime",
              "type": "uint256"
            },
            {
              "internalType": "address",
              "name": "questContract",
              "type": "address"
            }
          ],
          "internalType": "struct Quest.QuestInfo[]",
          "name": "",
          "type": "tuple[]"
        }
      ],
      "stateMutability": "view",
      "type": "function"
    },
    {
      "inputs": [],
      "name": "listUsers",
      "outputs": [
        {
          "internalType": "address[]",
          "name": "",
          "type": "address[]"
        }
      ],
      "stateMutability": "view",
      "type": "function"
    },
    {
      "inputs": [],
      "name": "minSubmissions",
      "outputs": [
        {
          "internalType": "uint256",
          "name": "",
          "type": "uint256"
        }
      ],
      "stateMutability": "view",
      "type": "function"
    },
    {
      "inputs": [
        {
          "internalType": "uint256",
          "name": "",
          "type": "uint256"
        }
      ],
      "name": "questIds",
      "outputs": [
        {
          "internalType": "uint256",
          "name": "",
          "type": "uint256"
        }
      ],
      "stateMutability": "view",
      "type": "function"
    },
    {
      "inputs": [],
      "name": "questManager",
      "outputs": [
        {
          "internalType": "contract IQuestManager",
          "name": "",
          "type": "address"
        }
      ],
      "stateMutability": "view",
      "type": "function"
    },
    {
      "inputs": [],
      "name": "questName",
      "outputs": [
        {
          "internalType": "string",
          "name": "",
          "type": "string"
        }
      ],
      "stateMutability": "view",
      "type": "function"
    },
    {
      "inputs": [],
      "name": "questType",
      "outputs": [
        {
          "internalType": "string",
          "name": "",
          "type": "string"
        }
      ],
      "stateMutability": "view",
      "type": "function"
    },
    {
      "inputs": [
        {
          "internalType": "uint256",
          "name": "",
          "type": "uint256"
        }
      ],
      "name": "quests",
      "outputs": [
        {
          "internalType": "uint256",
          "name": "questId",
          "type": "uint256"
        },
        {
          "internalType": "uint256",
          "name": "questTypeId",
          "type": "uint256"
        },
        {
          "internalType": "bytes",
          "name": "data",
          "type": "bytes"
        },
        {
          "internalType": "bool",
          "name": "isInitialized",
          "type": "bool"
        },
        {
          "internalType": "bool",
          "name": "isActive",
          "type": "bool"
        },
        {
          "internalType": "bool",
          "name": "isCompleted",
          "type": "bool"
        },
        {
          "internalType": "address",
          "name": "initiator",
          "type": "address"
        },
        {
          "internalType": "uint256",
          "name": "expirationTime",
          "type": "uint256"
        },
        {
          "internalType": "address",
          "name": "questContract",
          "type": "address"
        }
      ],
      "stateMutability": "view",
      "type": "function"
    },
    {
      "inputs": [
        {
          "internalType": "uint256",
          "name": "questId",
          "type": "uint256"
        },
        {
          "internalType": "address",
          "name": "user",
          "type": "address"
        }
      ],
      "name": "registerUser",
      "outputs": [],
      "stateMutability": "nonpayable",
      "type": "function"
    },
    {
      "inputs": [],
      "name": "requireHashtags",
      "outputs": [
        {
          "internalType": "bool",
          "name": "",
          "type": "bool"
        }
      ],
      "stateMutability": "view",
      "type": "function"
    },
    {
      "inputs": [
        {
          "internalType": "uint256",
          "name": "",
          "type": "uint256"
        }
      ],
      "name": "requiredHashtags",
      "outputs": [
        {
          "internalType": "string",
          "name": "",
          "type": "string"
        }
      ],
      "stateMutability": "view",
      "type": "function"
    },
    {
      "inputs": [
        {
          "internalType": "uint256",
          "name": "",
          "type": "uint256"
        },
        {
          "internalType": "address",
          "name": "",
          "type": "address"
        }
      ],
      "name": "userQuests",
      "outputs": [
        {
          "internalType": "bool",
          "name": "",
          "type": "bool"
        }
      ],
      "stateMutability": "view",
      "type": "function"
    },
    {
      "inputs": [
        {
          "internalType": "uint256",
          "name": "",
          "type": "uint256"
        },
        {
          "internalType": "address",
          "name": "",
          "type": "address"
        }
      ],
      "name": "userSubmissions",
      "outputs": [
        {
          "internalType": "uint256",
          "name": "",
          "type": "uint256"
        }
      ],
      "stateMutability": "view",
      "type": "function"
    },
    {
      "inputs": [
        {
          "internalType": "uint256",
          "name": "",
          "type": "uint256"
        }
      ],
      "name": "users",
      "outputs": [
        {
          "internalType": "address",
          "name": "",
          "type": "address"
        }
      ],
      "stateMutability": "view",
      "type": "function"
    }
  ],
  "bytecode": "0x60806040523480156200001157600080fd5b5060405162004eb938038062004eb98339818101604052810190620000379190620002a2565b828282826000806101000a81548173ffffffffffffffffffffffffffffffffffffffff021916908373ffffffffffffffffffffffffffffffffffffffff16021790555081600190816200008b919062000587565b5080600290816200009d919062000587565b505050505050506200066e565b6000604051905090565b600080fd5b600080fd5b600073ffffffffffffffffffffffffffffffffffffffff82169050919050565b6000620000eb82620000be565b9050919050565b620000fd81620000de565b81146200010957600080fd5b50565b6000815190506200011d81620000f2565b92915050565b600080fd5b600080fd5b6000601f19601f8301169050919050565b7f4e487b7100000000000000000000000000000000000000000000000000000000600052604160045260246000fd5b62000178826200012d565b810181811067ffffffffffffffff821117156200019a57620001996200013e565b5b80604052505050565b6000620001af620000aa565b9050620001bd82826200016d565b919050565b600067ffffffffffffffff821115620001e057620001df6200013e565b5b620001eb826200012d565b9050602081019050919050565b60005b8381101562000218578082015181840152602081019050620001fb565b60008484015250505050565b60006200023b6200023584620001c2565b620001a3565b9050828152602081018484840111156200025a576200025962000128565b5b62000267848285620001f8565b509392505050565b600082601f83011262000287576200028662000123565b5b81516200029984826020860162000224565b91505092915050565b600080600060608486031215620002be57620002bd620000b4565b5b6000620002ce868287016200010c565b935050602084015167ffffffffffffffff811115620002f257620002f1620000b9565b5b62000300868287016200026f565b925050604084015167ffffffffffffffff811115620003245762000323620000b9565b5b62000332868287016200026f565b9150509250925092565b600081519050919050565b7f4e487b7100000000000000000000000000000000000000000000000000000000600052602260045260246000fd5b600060028204905060018216806200038f57607f821691505b602082108103620003a557620003a462000347565b5b50919050565b60008190508160005260206000209050919050565b60006020601f8301049050919050565b600082821b905092915050565b6000600883026200040f7fffffffffffffffffffffffffffffffffffffffffffffffffffffffffffffffff82620003d0565b6200041b8683620003d0565b95508019841693508086168417925050509392505050565b6000819050919050565b6000819050919050565b600062000468620004626200045c8462000433565b6200043d565b62000433565b9050919050565b6000819050919050565b620004848362000447565b6200049c62000493826200046f565b848454620003dd565b825550505050565b600090565b620004b3620004a4565b620004c081848462000479565b505050565b5b81811015620004e857620004dc600082620004a9565b600181019050620004c6565b5050565b601f82111562000537576200050181620003ab565b6200050c84620003c0565b810160208510156200051c578190505b620005346200052b85620003c0565b830182620004c5565b50505b505050565b600082821c905092915050565b60006200055c600019846008026200053c565b1980831691505092915050565b600062000577838362000549565b9150826002028217905092915050565b62000592826200033c565b67ffffffffffffffff811115620005ae57620005ad6200013e565b5b620005ba825462000376565b620005c7828285620004ec565b600060209050601f831160018114620005ff5760008415620005ea578287015190505b620005f6858262000569565b86555062000666565b601f1984166200060f86620003ab565b60005b82811015620006395784890151825560018201915060208501945060208101905062000612565b8683101562000659578489015162000655601f89168262000549565b8355505b6001600288020188555050505b505050505050565b61483b806200067e6000396000f3fe608060405234801561001057600080fd5b50600436106101c45760003560e01c80638c6692f3116100f9578063e085f98011610097578063ec7c263d11610071578063ec7c263d1461054e578063ed8891f51461056c578063f12c575b1461059c578063ff5d32fe146105cc576101c4565b8063e085f980146104de578063e6de516514610516578063e7e5bc7d14610532576101c4565b8063a2dad7af116100d3578063a2dad7af14610454578063b5cb15f714610472578063dc1627eb14610490578063e04a3770146104ae576101c4565b80638c6692f3146103fa57806390cfaf2b14610418578063967c152714610436576101c4565b806356d83a291161016657806384cbdb881161014057806384cbdb881461034c578063874af0621461037c5780638a8a1f72146103ac5780638ad257b7146103dc576101c4565b806356d83a29146102e057806363971781146102fe5780637f4631d91461031c576101c4565b806335953dc8116101a257806335953dc814610234578063365b98b2146102645780633d5caaac146102945780634bde9832146102b0576101c4565b80630c886a6b146101c957806311ec2659146101fa578063198ba5de14610218575b600080fd5b6101e360048036038101906101de9190612732565b6105fc565b6040516101f1929190612843565b60405180910390f35b6102026106e5565b60405161020f9190612873565b60405180910390f35b610232600480360381019061022d91906129ca565b610773565b005b61024e60048036038101906102499190612a4d565b610b30565b60405161025b9190612a89565b60405180910390f35b61027e60048036038101906102799190612a4d565b610b9f565b60405161028b9190612aa4565b60405180910390f35b6102ae60048036038101906102a99190612c7e565b610bde565b005b6102ca60048036038101906102c59190612d53565b610d57565b6040516102d79190612da2565b60405180910390f35b6102e8610d86565b6040516102f59190612a89565b60405180910390f35b610306610d93565b6040516103139190612a89565b60405180910390f35b61033660048036038101906103319190612a4d565b610da0565b6040516103439190612da2565b60405180910390f35b61036660048036038101906103619190612a4d565b610dc2565b6040516103739190612a89565b60405180910390f35b61039660048036038101906103919190612a4d565b610de6565b6040516103a39190612a89565b60405180910390f35b6103c660048036038101906103c19190612a4d565b610e55565b6040516103d39190612873565b60405180910390f35b6103e4610f01565b6040516103f19190612e7b565b60405180910390f35b610402611006565b60405161040f9190612a89565b60405180910390f35b61042061100c565b60405161042d9190612da2565b60405180910390f35b61043e61101f565b60405161044b9190612873565b60405180910390f35b61045c6110ad565b6040516104699190613097565b60405180910390f35b61047a611339565b6040516104879190612a89565b60405180910390f35b610498611346565b6040516104a59190613118565b60405180910390f35b6104c860048036038101906104c39190612a4d565b61136a565b6040516104d59190613358565b60405180910390f35b6104f860048036038101906104f39190612a4d565b61159d565b60405161050d999897969594939291906133c4565b60405180910390f35b610530600480360381019061052b9190612d53565b6116da565b005b61054c60048036038101906105479190613458565b6118ed565b005b610556612092565b6040516105639190613097565b60405180910390f35b61058660048036038101906105819190612d53565b61231e565b6040516105939190612a89565b60405180910390f35b6105b660048036038101906105b19190612a4d565b612343565b6040516105c39190612a89565b60405180910390f35b6105e660048036038101906105e19190612a4d565b612367565b6040516105f39190612aa4565b60405180910390f35b6008602052816000526040600020818154811061061857600080fd5b9060005260206000209060030201600091509150508060000160009054906101000a900473ffffffffffffffffffffffffffffffffffffffff169080600101805461066290613526565b80601f016020809104026020016040519081016040528092919081815260200182805461068e90613526565b80156106db5780601f106106b0576101008083540402835291602001916106db565b820191906000526020600020905b8154815290600101906020018083116106be57829003601f168201915b5050505050905082565b600180546106f290613526565b80601f016020809104026020016040519081016040528092919081815260200182805461071e90613526565b801561076b5780601f106107405761010080835404028352916020019161076b565b820191906000526020600020905b81548152906001019060200180831161074e57829003601f168201915b505050505081565b6003600085815260200190815260200160002060030160009054906101000a900460ff16156107d7576040517f08c379a00000000000000000000000000000000000000000000000000000000081526004016107ce906135a3565b60405180910390fd5b6000600360008681526020019081526020016000209050848160000181905550838160010181905550828160020190816108119190613765565b5060018160030160006101000a81548160ff02191690831515021790555060018160030160016101000a81548160ff02191690831515021790555060008160030160026101000a81548160ff021916908315150217905550338160030160036101000a81548173ffffffffffffffffffffffffffffffffffffffff021916908373ffffffffffffffffffffffffffffffffffffffff160217905550818160040181905550308160050160006101000a81548173ffffffffffffffffffffffffffffffffffffffff021916908373ffffffffffffffffffffffffffffffffffffffff160217905550600485908060018154018082558091505060019003906000526020600020016000909190919091505560058590806001815401808255809150506001900390600052602060002001600090919091909150557f43d4b4706539f9e22baf8767ebea21ad24f723f14b6981664ac4d0af596dddbe856040516109799190612a89565b60405180910390a17fe7375f84984fefa09f5f03aa56ffb11ed839b99d56943f858953e537609f8be7336040516109b09190612aa4565b60405180910390a17fe3a4ce2743f762fb9ba1b280ad891310a8dc003fa605660cb8e460f3c7218e7a8160030160019054906101000a900460ff166040516109f89190612da2565b60405180910390a17fe3a4ce2743f762fb9ba1b280ad891310a8dc003fa605660cb8e460f3c7218e7a8160030160029054906101000a900460ff16604051610a409190612da2565b60405180910390a160008054906101000a900473ffffffffffffffffffffffffffffffffffffffff1673ffffffffffffffffffffffffffffffffffffffff1663d11adfd08660013060026040518563ffffffff1660e01b8152600401610aa994939291906138d0565b600060405180830381600087803b158015610ac357600080fd5b505af1158015610ad7573d6000803e3d6000fd5b505050503373ffffffffffffffffffffffffffffffffffffffff167f1a7137fe5d6f1b04a954215abb63ee4ac4cf282fa0c719abd2e160b1cc06d67c86604051610b219190612a89565b60405180910390a25050505050565b60006005805490508210610b79576040517f08c379a0000000000000000000000000000000000000000000000000000000008152600401610b709061396f565b60405180910390fd5b60058281548110610b8d57610b8c61398f565b5b90600052602060002001549050919050565b60078181548110610baf57600080fd5b906000526020600020016000915054906101000a900473ffffffffffffffffffffffffffffffffffffffff1681565b428411610c20576040517f08c379a0000000000000000000000000000000000000000000000000000000008152600401610c1790613a30565b60405180910390fd5b60008311610c63576040517f08c379a0000000000000000000000000000000000000000000000000000000008152600401610c5a90613ac2565b60405180910390fd5b6003600087815260200190815260200160002060030160009054906101000a900460ff1615610cc7576040517f08c379a0000000000000000000000000000000000000000000000000000000008152600401610cbe906135a3565b60405180910390fd5b610ce286866040518060200160405280600081525087610773565b82600a8190555081600b9080519060200190610cff929190612590565b5080600c60006101000a81548160ff0219169083151502179055507f7cdb51e9dbbc205231228146c3246e7f914aa6d4a33170e43ecc8e3593481d1a604051610d4790613b2e565b60405180910390a1505050505050565b60066020528160005260406000206020528060005260406000206000915091509054906101000a900460ff1681565b6000600580549050905090565b6000600480549050905090565b6000600360008381526020019081526020016000206004015442119050919050565b60048181548110610dd257600080fd5b906000526020600020016000915090505481565b60006004805490508210610e2f576040517f08c379a0000000000000000000000000000000000000000000000000000000008152600401610e269061396f565b60405180910390fd5b60048281548110610e4357610e4261398f565b5b90600052602060002001549050919050565b600b8181548110610e6557600080fd5b906000526020600020016000915090508054610e8090613526565b80601f0160208091040260200160405190810160405280929190818152602001828054610eac90613526565b8015610ef95780601f10610ece57610100808354040283529160200191610ef9565b820191906000526020600020905b815481529060010190602001808311610edc57829003601f168201915b505050505081565b6060600060078054905067ffffffffffffffff811115610f2457610f2361289f565b5b604051908082528060200260200182016040528015610f525781602001602082028036833780820191505090505b50905060005b600780549050811015610ffe5760078181548110610f7957610f7861398f565b5b9060005260206000200160009054906101000a900473ffffffffffffffffffffffffffffffffffffffff16828281518110610fb757610fb661398f565b5b602002602001019073ffffffffffffffffffffffffffffffffffffffff16908173ffffffffffffffffffffffffffffffffffffffff16815250508080600101915050610f58565b508091505090565b600a5481565b600c60009054906101000a900460ff1681565b6002805461102c90613526565b80601f016020809104026020016040519081016040528092919081815260200182805461105890613526565b80156110a55780601f1061107a576101008083540402835291602001916110a5565b820191906000526020600020905b81548152906001019060200180831161108857829003601f168201915b505050505081565b6060600060058054905067ffffffffffffffff8111156110d0576110cf61289f565b5b60405190808252806020026020018201604052801561110957816020015b6110f66125e9565b8152602001906001900390816110ee5790505b50905060005b6005805490508110156113315760036000600583815481106111345761113361398f565b5b9060005260206000200154815260200190815260200160002060405180610120016040529081600082015481526020016001820154815260200160028201805461117d90613526565b80601f01602080910402602001604051908101604052809291908181526020018280546111a990613526565b80156111f65780601f106111cb576101008083540402835291602001916111f6565b820191906000526020600020905b8154815290600101906020018083116111d957829003601f168201915b505050505081526020016003820160009054906101000a900460ff161515151581526020016003820160019054906101000a900460ff161515151581526020016003820160029054906101000a900460ff161515151581526020016003820160039054906101000a900473ffffffffffffffffffffffffffffffffffffffff1673ffffffffffffffffffffffffffffffffffffffff1673ffffffffffffffffffffffffffffffffffffffff168152602001600482015481526020016005820160009054906101000a900473ffffffffffffffffffffffffffffffffffffffff1673ffffffffffffffffffffffffffffffffffffffff1673ffffffffffffffffffffffffffffffffffffffff16815250508282815181106113195761131861398f565b5b6020026020010181905250808060010191505061110f565b508091505090565b6000600780549050905090565b60008054906101000a900473ffffffffffffffffffffffffffffffffffffffff1681565b606060086000838152602001908152602001600020805480602002602001604051908101604052809291908181526020016000905b8282101561159257838290600052602060002090600302016040518060600160405290816000820160009054906101000a900473ffffffffffffffffffffffffffffffffffffffff1673ffffffffffffffffffffffffffffffffffffffff1673ffffffffffffffffffffffffffffffffffffffff16815260200160018201805461142890613526565b80601f016020809104026020016040519081016040528092919081815260200182805461145490613526565b80156114a15780601f10611476576101008083540402835291602001916114a1565b820191906000526020600020905b81548152906001019060200180831161148457829003601f168201915b5050505050815260200160028201805480602002602001604051908101604052809291908181526020016000905b8282101561157b5783829060005260206000200180546114ee90613526565b80601f016020809104026020016040519081016040528092919081815260200182805461151a90613526565b80156115675780601f1061153c57610100808354040283529160200191611567565b820191906000526020600020905b81548152906001019060200180831161154a57829003601f168201915b5050505050815260200190600101906114cf565b50505050815250508152602001906001019061139f565b505050509050919050565b60036020528060005260406000206000915090508060000154908060010154908060020180546115cc90613526565b80601f01602080910402602001604051908101604052809291908181526020018280546115f890613526565b80156116455780601f1061161a57610100808354040283529160200191611645565b820191906000526020600020905b81548152906001019060200180831161162857829003601f168201915b5050505050908060030160009054906101000a900460ff16908060030160019054906101000a900460ff16908060030160029054906101000a900460ff16908060030160039054906101000a900473ffffffffffffffffffffffffffffffffffffffff16908060040154908060050160009054906101000a900473ffffffffffffffffffffffffffffffffffffffff16905089565b600073ffffffffffffffffffffffffffffffffffffffff166003600084815260200190815260200160002060050160009054906101000a900473ffffffffffffffffffffffffffffffffffffffff1673ffffffffffffffffffffffffffffffffffffffff160361177f576040517f08c379a000000000000000000000000000000000000000000000000000000000815260040161177690613b9a565b60405180910390fd5b6006600083815260200190815260200160002060008273ffffffffffffffffffffffffffffffffffffffff1673ffffffffffffffffffffffffffffffffffffffff16815260200190815260200160002060009054906101000a900460ff161561181d576040517f08c379a000000000000000000000000000000000000000000000000000000000815260040161181490613c2c565b60405180910390fd5b60016006600084815260200190815260200160002060008373ffffffffffffffffffffffffffffffffffffffff1673ffffffffffffffffffffffffffffffffffffffff16815260200190815260200160002060006101000a81548160ff0219169083151502179055506007819080600181540180825580915050600190039060005260206000200160009091909190916101000a81548173ffffffffffffffffffffffffffffffffffffffff021916908373ffffffffffffffffffffffffffffffffffffffff1602179055505050565b7f7cdb51e9dbbc205231228146c3246e7f914aa6d4a33170e43ecc8e3593481d1a60405161191a90613c98565b60405180910390a17f43d4b4706539f9e22baf8767ebea21ad24f723f14b6981664ac4d0af596dddbe846040516119519190612a89565b60405180910390a17fe7375f84984fefa09f5f03aa56ffb11ed839b99d56943f858953e537609f8be7836040516119889190612aa4565b60405180910390a17f20670ef4ff6910e98e7c43650896cc0feeab168b4ca974d0748d31c42706a1e9826040516119bf9190612873565b60405180910390a16040516020016119d690613d0f565b60405160208183030381529060405280519060200120826040516020016119fd9190613d55565b6040516020818303038152906040528051906020012014611a53576040517f08c379a0000000000000000000000000000000000000000000000000000000008152600401611a4a90613db8565b60405180910390fd5b7f7cdb51e9dbbc205231228146c3246e7f914aa6d4a33170e43ecc8e3593481d1a604051611a8090613e24565b60405180910390a16003600085815260200190815260200160002060030160019054906101000a900460ff16611aeb576040517f08c379a0000000000000000000000000000000000000000000000000000000008152600401611ae290613e90565b60405180910390fd5b7f7cdb51e9dbbc205231228146c3246e7f914aa6d4a33170e43ecc8e3593481d1a604051611b1890613efc565b60405180910390a1611b2984610da0565b15611b69576040517f08c379a0000000000000000000000000000000000000000000000000000000008152600401611b6090613f68565b60405180910390fd5b7f7cdb51e9dbbc205231228146c3246e7f914aa6d4a33170e43ecc8e3593481d1a604051611b9690613fd4565b60405180910390a160008082806020019051810190611bb59190614119565b915091507f7cdb51e9dbbc205231228146c3246e7f914aa6d4a33170e43ecc8e3593481d1a604051611be6906141dd565b60405180910390a17f20670ef4ff6910e98e7c43650896cc0feeab168b4ca974d0748d31c42706a1e982604051611c1d9190612873565b60405180910390a17f43d4b4706539f9e22baf8767ebea21ad24f723f14b6981664ac4d0af596dddbe8151604051611c559190612a89565b60405180910390a16000825111611ca1576040517f08c379a0000000000000000000000000000000000000000000000000000000008152600401611c9890614249565b60405180910390fd5b7f7cdb51e9dbbc205231228146c3246e7f914aa6d4a33170e43ecc8e3593481d1a604051611cce906142b5565b60405180910390a1600c60009054906101000a900460ff1615611e445760006001905060005b600b80549050811015611dcc576000805b8451811015611dae57600b8381548110611d2257611d2161398f565b5b90600052602060002001604051602001611d3c9190614358565b60405160208183030381529060405280519060200120858281518110611d6557611d6461398f565b5b6020026020010151604051602001611d7d9190613d55565b6040516020818303038152906040528051906020012003611da15760019150611dae565b8080600101915050611d05565b5080611dbe576000925050611dcc565b508080600101915050611cf4565b5080611e0d576040517f08c379a0000000000000000000000000000000000000000000000000000000008152600401611e04906143bb565b60405180910390fd5b7f7cdb51e9dbbc205231228146c3246e7f914aa6d4a33170e43ecc8e3593481d1a604051611e3a90614427565b60405180910390a1505b6009600087815260200190815260200160002060008673ffffffffffffffffffffffffffffffffffffffff1673ffffffffffffffffffffffffffffffffffffffff1681526020019081526020016000206000815480929190611ea590614476565b91905055506008600087815260200190815260200160002060405180606001604052808773ffffffffffffffffffffffffffffffffffffffff16815260200184815260200183815250908060018154018082558091505060019003906000526020600020906003020160009091909190915060008201518160000160006101000a81548173ffffffffffffffffffffffffffffffffffffffff021916908373ffffffffffffffffffffffffffffffffffffffff1602179055506020820151816001019081611f739190614504565b506040820151816002019080519060200190611f90929190612590565b5050507f7cdb51e9dbbc205231228146c3246e7f914aa6d4a33170e43ecc8e3593481d1a604051611fc090614622565b60405180910390a1611fd4868686866123f6565b8473ffffffffffffffffffffffffffffffffffffffff167f667374a1d113cbbfa02267bc923de277c5e15fee0413feb7a92cde123d8698ce87848460405161201e939291906146c8565b60405180910390a2600a546009600088815260200190815260200160002060008773ffffffffffffffffffffffffffffffffffffffff1673ffffffffffffffffffffffffffffffffffffffff168152602001908152602001600020541061208a57612089868661244e565b5b505050505050565b6060600060048054905067ffffffffffffffff8111156120b5576120b461289f565b5b6040519080825280602002602001820160405280156120ee57816020015b6120db6125e9565b8152602001906001900390816120d35790505b50905060005b6004805490508110156123165760036000600483815481106121195761211861398f565b5b9060005260206000200154815260200190815260200160002060405180610120016040529081600082015481526020016001820154815260200160028201805461216290613526565b80601f016020809104026020016040519081016040528092919081815260200182805461218e90613526565b80156121db5780601f106121b0576101008083540402835291602001916121db565b820191906000526020600020905b8154815290600101906020018083116121be57829003601f168201915b505050505081526020016003820160009054906101000a900460ff161515151581526020016003820160019054906101000a900460ff161515151581526020016003820160029054906101000a900460ff161515151581526020016003820160039054906101000a900473ffffffffffffffffffffffffffffffffffffffff1673ffffffffffffffffffffffffffffffffffffffff1673ffffffffffffffffffffffffffffffffffffffff168152602001600482015481526020016005820160009054906101000a900473ffffffffffffffffffffffffffffffffffffffff1673ffffffffffffffffffffffffffffffffffffffff1673ffffffffffffffffffffffffffffffffffffffff16815250508282815181106122fe576122fd61398f565b5b602002602001018190525080806001019150506120f4565b508091505090565b6009602052816000526040600020602052806000526040600020600091509150505481565b6005818154811061235357600080fd5b906000526020600020016000915090505481565b600060078054905082106123b0576040517f08c379a00000000000000000000000000000000000000000000000000000000081526004016123a79061396f565b60405180910390fd5b600782815481106123c4576123c361398f565b5b9060005260206000200160009054906101000a900473ffffffffffffffffffffffffffffffffffffffff169050919050565b8273ffffffffffffffffffffffffffffffffffffffff167ff3d8e37dcc46fe5e1a9488363a34d373e636904e7bdb5aabc3cc3e8960c83c718584846040516124409392919061470d565b60405180910390a250505050565b6003600083815260200190815260200160002060030160029054906101000a900460ff166124d55760016003600084815260200190815260200160002060030160026101000a81548160ff02191690831515021790555060006003600084815260200190815260200160002060030160016101000a81548160ff0219169083151502179055505b60016006600084815260200190815260200160002060008373ffffffffffffffffffffffffffffffffffffffff1673ffffffffffffffffffffffffffffffffffffffff16815260200190815260200160002060006101000a81548160ff0219169083151502179055508073ffffffffffffffffffffffffffffffffffffffff167ff3d8e37dcc46fe5e1a9488363a34d373e636904e7bdb5aabc3cc3e8960c83c718360405161258491906147c4565b60405180910390a25050565b8280548282559060005260206000209081019282156125d8579160200282015b828111156125d75782518290816125c79190614504565b50916020019190600101906125b0565b5b5090506125e59190612667565b5090565b604051806101200160405280600081526020016000815260200160608152602001600015158152602001600015158152602001600015158152602001600073ffffffffffffffffffffffffffffffffffffffff16815260200160008152602001600073ffffffffffffffffffffffffffffffffffffffff1681525090565b5b80821115612687576000818161267e919061268b565b50600101612668565b5090565b50805461269790613526565b6000825580601f106126a957506126c8565b601f0160209004906000526020600020908101906126c791906126cb565b5b50565b5b808211156126e45760008160009055506001016126cc565b5090565b6000604051905090565b600080fd5b600080fd5b6000819050919050565b61270f816126fc565b811461271a57600080fd5b50565b60008135905061272c81612706565b92915050565b60008060408385031215612749576127486126f2565b5b60006127578582860161271d565b92505060206127688582860161271d565b9150509250929050565b600073ffffffffffffffffffffffffffffffffffffffff82169050919050565b600061279d82612772565b9050919050565b6127ad81612792565b82525050565b600081519050919050565b600082825260208201905092915050565b60005b838110156127ed5780820151818401526020810190506127d2565b60008484015250505050565b6000601f19601f8301169050919050565b6000612815826127b3565b61281f81856127be565b935061282f8185602086016127cf565b612838816127f9565b840191505092915050565b600060408201905061285860008301856127a4565b818103602083015261286a818461280a565b90509392505050565b6000602082019050818103600083015261288d818461280a565b905092915050565b600080fd5b600080fd5b7f4e487b7100000000000000000000000000000000000000000000000000000000600052604160045260246000fd5b6128d7826127f9565b810181811067ffffffffffffffff821117156128f6576128f561289f565b5b80604052505050565b60006129096126e8565b905061291582826128ce565b919050565b600067ffffffffffffffff8211156129355761293461289f565b5b61293e826127f9565b9050602081019050919050565b82818337600083830152505050565b600061296d6129688461291a565b6128ff565b9050828152602081018484840111156129895761298861289a565b5b61299484828561294b565b509392505050565b600082601f8301126129b1576129b0612895565b5b81356129c184826020860161295a565b91505092915050565b600080600080608085870312156129e4576129e36126f2565b5b60006129f28782880161271d565b9450506020612a038782880161271d565b935050604085013567ffffffffffffffff811115612a2457612a236126f7565b5b612a308782880161299c565b9250506060612a418782880161271d565b91505092959194509250565b600060208284031215612a6357612a626126f2565b5b6000612a718482850161271d565b91505092915050565b612a83816126fc565b82525050565b6000602082019050612a9e6000830184612a7a565b92915050565b6000602082019050612ab960008301846127a4565b92915050565b600067ffffffffffffffff821115612ada57612ad961289f565b5b602082029050602081019050919050565b600080fd5b600067ffffffffffffffff821115612b0b57612b0a61289f565b5b612b14826127f9565b9050602081019050919050565b6000612b34612b2f84612af0565b6128ff565b905082815260208101848484011115612b5057612b4f61289a565b5b612b5b84828561294b565b509392505050565b600082601f830112612b7857612b77612895565b5b8135612b88848260208601612b21565b91505092915050565b6000612ba4612b9f84612abf565b6128ff565b90508083825260208201905060208402830185811115612bc757612bc6612aeb565b5b835b81811015612c0e57803567ffffffffffffffff811115612bec57612beb612895565b5b808601612bf98982612b63565b85526020850194505050602081019050612bc9565b5050509392505050565b600082601f830112612c2d57612c2c612895565b5b8135612c3d848260208601612b91565b91505092915050565b60008115159050919050565b612c5b81612c46565b8114612c6657600080fd5b50565b600081359050612c7881612c52565b92915050565b60008060008060008060c08789031215612c9b57612c9a6126f2565b5b6000612ca989828a0161271d565b9650506020612cba89828a0161271d565b9550506040612ccb89828a0161271d565b9450506060612cdc89828a0161271d565b935050608087013567ffffffffffffffff811115612cfd57612cfc6126f7565b5b612d0989828a01612c18565b92505060a0612d1a89828a01612c69565b9150509295509295509295565b612d3081612792565b8114612d3b57600080fd5b50565b600081359050612d4d81612d27565b92915050565b60008060408385031215612d6a57612d696126f2565b5b6000612d788582860161271d565b9250506020612d8985828601612d3e565b9150509250929050565b612d9c81612c46565b82525050565b6000602082019050612db76000830184612d93565b92915050565b600081519050919050565b600082825260208201905092915050565b6000819050602082019050919050565b612df281612792565b82525050565b6000612e048383612de9565b60208301905092915050565b6000602082019050919050565b6000612e2882612dbd565b612e328185612dc8565b9350612e3d83612dd9565b8060005b83811015612e6e578151612e558882612df8565b9750612e6083612e10565b925050600181019050612e41565b5085935050505092915050565b60006020820190508181036000830152612e958184612e1d565b905092915050565b600081519050919050565b600082825260208201905092915050565b6000819050602082019050919050565b612ed2816126fc565b82525050565b600081519050919050565b600082825260208201905092915050565b6000612eff82612ed8565b612f098185612ee3565b9350612f198185602086016127cf565b612f22816127f9565b840191505092915050565b612f3681612c46565b82525050565b600061012083016000830151612f556000860182612ec9565b506020830151612f686020860182612ec9565b5060408301518482036040860152612f808282612ef4565b9150506060830151612f956060860182612f2d565b506080830151612fa86080860182612f2d565b5060a0830151612fbb60a0860182612f2d565b5060c0830151612fce60c0860182612de9565b5060e0830151612fe160e0860182612ec9565b50610100830151612ff6610100860182612de9565b508091505092915050565b600061300d8383612f3c565b905092915050565b6000602082019050919050565b600061302d82612e9d565b6130378185612ea8565b93508360208202850161304985612eb9565b8060005b8581101561308557848403895281516130668582613001565b945061307183613015565b925060208a0199505060018101905061304d565b50829750879550505050505092915050565b600060208201905081810360008301526130b18184613022565b905092915050565b6000819050919050565b60006130de6130d96130d484612772565b6130b9565b612772565b9050919050565b60006130f0826130c3565b9050919050565b6000613102826130e5565b9050919050565b613112816130f7565b82525050565b600060208201905061312d6000830184613109565b92915050565b600081519050919050565b600082825260208201905092915050565b6000819050602082019050919050565b600082825260208201905092915050565b600061317b826127b3565b613185818561315f565b93506131958185602086016127cf565b61319e816127f9565b840191505092915050565b600081519050919050565b600082825260208201905092915050565b6000819050602082019050919050565b60006131e18383613170565b905092915050565b6000602082019050919050565b6000613201826131a9565b61320b81856131b4565b93508360208202850161321d856131c5565b8060005b85811015613259578484038952815161323a85826131d5565b9450613245836131e9565b925060208a01995050600181019050613221565b50829750879550505050505092915050565b60006060830160008301516132836000860182612de9565b506020830151848203602086015261329b8282613170565b915050604083015184820360408601526132b582826131f6565b9150508091505092915050565b60006132ce838361326b565b905092915050565b6000602082019050919050565b60006132ee82613133565b6132f8818561313e565b93508360208202850161330a8561314f565b8060005b85811015613346578484038952815161332785826132c2565b9450613332836132d6565b925060208a0199505060018101905061330e565b50829750879550505050505092915050565b6000602082019050818103600083015261337281846132e3565b905092915050565b600082825260208201905092915050565b600061339682612ed8565b6133a0818561337a565b93506133b08185602086016127cf565b6133b9816127f9565b840191505092915050565b6000610120820190506133da600083018c612a7a565b6133e7602083018b612a7a565b81810360408301526133f9818a61338b565b90506134086060830189612d93565b6134156080830188612d93565b61342260a0830187612d93565b61342f60c08301866127a4565b61343c60e0830185612a7a565b61344a6101008301846127a4565b9a9950505050505050505050565b60008060008060808587031215613472576134716126f2565b5b60006134808782880161271d565b945050602061349187828801612d3e565b935050604085013567ffffffffffffffff8111156134b2576134b16126f7565b5b6134be87828801612b63565b925050606085013567ffffffffffffffff8111156134df576134de6126f7565b5b6134eb8782880161299c565b91505092959194509250565b7f4e487b7100000000000000000000000000000000000000000000000000000000600052602260045260246000fd5b6000600282049050600182168061353e57607f821691505b602082108103613551576135506134f7565b5b50919050565b7f517565737420697320616c726561647920696e697469616c697a65642e000000600082015250565b600061358d601d836127be565b915061359882613557565b602082019050919050565b600060208201905081810360008301526135bc81613580565b9050919050565b60008190508160005260206000209050919050565b60006020601f8301049050919050565b600082821b905092915050565b6000600883026136257fffffffffffffffffffffffffffffffffffffffffffffffffffffffffffffffff826135e8565b61362f86836135e8565b95508019841693508086168417925050509392505050565b600061366261365d613658846126fc565b6130b9565b6126fc565b9050919050565b6000819050919050565b61367c83613647565b61369061368882613669565b8484546135f5565b825550505050565b600090565b6136a5613698565b6136b0818484613673565b505050565b5b818110156136d4576136c960008261369d565b6001810190506136b6565b5050565b601f821115613719576136ea816135c3565b6136f3846135d8565b81016020851015613702578190505b61371661370e856135d8565b8301826136b5565b50505b505050565b600082821c905092915050565b600061373c6000198460080261371e565b1980831691505092915050565b6000613755838361372b565b9150826002028217905092915050565b61376e82612ed8565b67ffffffffffffffff8111156137875761378661289f565b5b6137918254613526565b61379c8282856136d8565b600060209050601f8311600181146137cf57600084156137bd578287015190505b6137c78582613749565b86555061382f565b601f1984166137dd866135c3565b60005b82811015613805578489015182556001820191506020850194506020810190506137e0565b86831015613822578489015161381e601f89168261372b565b8355505b6001600288020188555050505b505050505050565b60008190508160005260206000209050919050565b6000815461385981613526565b61386381866127be565b9450600182166000811461387e5760018114613894576138c7565b60ff1983168652811515602002860193506138c7565b61389d85613837565b60005b838110156138bf578154818901526001820191506020810190506138a0565b808801955050505b50505092915050565b60006080820190506138e56000830187612a7a565b81810360208301526138f7818661384c565b905061390660408301856127a4565b8181036060830152613918818461384c565b905095945050505050565b7f496e646578206f7574206f6620626f756e647300000000000000000000000000600082015250565b60006139596013836127be565b915061396482613923565b602082019050919050565b600060208201905081810360008301526139888161394c565b9050919050565b7f4e487b7100000000000000000000000000000000000000000000000000000000600052603260045260246000fd5b7f45787069726174696f6e2074696d65206d75737420626520696e20746865206660008201527f75747572652e0000000000000000000000000000000000000000000000000000602082015250565b6000613a1a6026836127be565b9150613a25826139be565b604082019050919050565b60006020820190508181036000830152613a4981613a0d565b9050919050565b7f4d696e696d756d207375626d697373696f6e73206d757374206265206772656160008201527f746572207468616e207a65726f2e000000000000000000000000000000000000602082015250565b6000613aac602e836127be565b9150613ab782613a50565b604082019050919050565b60006020820190508181036000830152613adb81613a9f565b9050919050565b7f436f6e74656e7443726561746f72517565737420696e697469616c697a656400600082015250565b6000613b18601f836127be565b9150613b2382613ae2565b602082019050919050565b60006020820190508181036000830152613b4781613b0b565b9050919050565b7f517565737420494420646f6573206e6f742065786973742e0000000000000000600082015250565b6000613b846018836127be565b9150613b8f82613b4e565b602082019050919050565b60006020820190508181036000830152613bb381613b77565b9050919050565b7f5573657220616c7265616479207265676973746572656420666f72207468697360008201527f2071756573742e00000000000000000000000000000000000000000000000000602082015250565b6000613c166027836127be565b9150613c2182613bba565b604082019050919050565b60006020820190508181036000830152613c4581613c09565b9050919050565b7f496e746572616374696f6e207374617274656400000000000000000000000000600082015250565b6000613c826013836127be565b9150613c8d82613c4c565b602082019050919050565b60006020820190508181036000830152613cb181613c75565b9050919050565b600081905092915050565b7f7375626d69740000000000000000000000000000000000000000000000000000600082015250565b6000613cf9600683613cb8565b9150613d0482613cc3565b600682019050919050565b6000613d1a82613cec565b9150819050919050565b6000613d2f826127b3565b613d398185613cb8565b9350613d498185602086016127cf565b80840191505092915050565b6000613d618284613d24565b915081905092915050565b7f496e76616c696420696e746572616374696f6e20747970652e00000000000000600082015250565b6000613da26019836127be565b9150613dad82613d6c565b602082019050919050565b60006020820190508181036000830152613dd181613d95565b9050919050565b7f496e746572616374696f6e20747970652076616c696461746564000000000000600082015250565b6000613e0e601a836127be565b9150613e1982613dd8565b602082019050919050565b60006020820190508181036000830152613e3d81613e01565b9050919050565b7f5175657374206973206e6f74206163746976652e000000000000000000000000600082015250565b6000613e7a6014836127be565b9150613e8582613e44565b602082019050919050565b60006020820190508181036000830152613ea981613e6d565b9050919050565b7f5175657374206973206163746976650000000000000000000000000000000000600082015250565b6000613ee6600f836127be565b9150613ef182613eb0565b602082019050919050565b60006020820190508181036000830152613f1581613ed9565b9050919050565b7f51756573742068617320657870697265642e0000000000000000000000000000600082015250565b6000613f526012836127be565b9150613f5d82613f1c565b602082019050919050565b60006020820190508181036000830152613f8181613f45565b9050919050565b7f5175657374206973206e6f742065787069726564000000000000000000000000600082015250565b6000613fbe6014836127be565b9150613fc982613f88565b602082019050919050565b60006020820190508181036000830152613fed81613fb1565b9050919050565b600061400761400284612af0565b6128ff565b9050828152602081018484840111156140235761402261289a565b5b61402e8482856127cf565b509392505050565b600082601f83011261404b5761404a612895565b5b815161405b848260208601613ff4565b91505092915050565b600061407761407284612abf565b6128ff565b9050808382526020820190506020840283018581111561409a57614099612aeb565b5b835b818110156140e157805167ffffffffffffffff8111156140bf576140be612895565b5b8086016140cc8982614036565b8552602085019450505060208101905061409c565b5050509392505050565b600082601f830112614100576140ff612895565b5b8151614110848260208601614064565b91505092915050565b600080604083850312156141305761412f6126f2565b5b600083015167ffffffffffffffff81111561414e5761414d6126f7565b5b61415a85828601614036565b925050602083015167ffffffffffffffff81111561417b5761417a6126f7565b5b614187858286016140eb565b9150509250929050565b7f546172676574206465636f646564000000000000000000000000000000000000600082015250565b60006141c7600e836127be565b91506141d282614191565b602082019050919050565b600060208201905081810360008301526141f6816141ba565b9050919050565b7f436f6e74656e742055524c2063616e6e6f7420626520656d7074792e00000000600082015250565b6000614233601c836127be565b915061423e826141fd565b602082019050919050565b6000602082019050818103600083015261426281614226565b9050919050565b7f436f6e74656e742055524c2069732076616c6964000000000000000000000000600082015250565b600061429f6014836127be565b91506142aa82614269565b602082019050919050565b600060208201905081810360008301526142ce81614292565b9050919050565b600081546142e281613526565b6142ec8186613cb8565b94506001821660008114614307576001811461431c5761434f565b60ff198316865281151582028601935061434f565b61432585613837565b60005b8381101561434757815481890152600182019150602081019050614328565b838801955050505b50505092915050565b600061436482846142d5565b915081905092915050565b7f526571756972656420686173687461677320617265206d697373696e672e0000600082015250565b60006143a5601e836127be565b91506143b08261436f565b602082019050919050565b600060208201905081810360008301526143d481614398565b9050919050565b7f48617368746167732076616c6964617465640000000000000000000000000000600082015250565b60006144116012836127be565b915061441c826143db565b602082019050919050565b6000602082019050818103600083015261444081614404565b9050919050565b7f4e487b7100000000000000000000000000000000000000000000000000000000600052601160045260246000fd5b6000614481826126fc565b91507fffffffffffffffffffffffffffffffffffffffffffffffffffffffffffffffff82036144b3576144b2614447565b5b600182019050919050565b601f8211156144ff576144d081613837565b6144d9846135d8565b810160208510156144e8578190505b6144fc6144f4856135d8565b8301826136b5565b50505b505050565b61450d826127b3565b67ffffffffffffffff8111156145265761452561289f565b5b6145308254613526565b61453b8282856144be565b600060209050601f83116001811461456e576000841561455c578287015190505b6145668582613749565b8655506145ce565b601f19841661457c86613837565b60005b828110156145a45784890151825560018201915060208501945060208101905061457f565b868310156145c157848901516145bd601f89168261372b565b8355505b6001600288020188555050505b505050505050565b7f436f6e74656e74207375626d697373696f6e207265636f726465640000000000600082015250565b600061460c601b836127be565b9150614617826145d6565b602082019050919050565b6000602082019050818103600083015261463b816145ff565b9050919050565b600082825260208201905092915050565b600061465e826131a9565b6146688185614642565b93508360208202850161467a856131c5565b8060005b858110156146b6578484038952815161469785826131d5565b94506146a2836131e9565b925060208a0199505060018101905061467e565b50829750879550505050505092915050565b60006060820190506146dd6000830186612a7a565b81810360208301526146ef818561280a565b905081810360408301526147038184614653565b9050949350505050565b60006060820190506147226000830186612a7a565b8181036020830152614734818561280a565b90508181036040830152614748818461338b565b9050949350505050565b7f636f6d706c6574696f6e00000000000000000000000000000000000000000000600082015250565b6000614788600a836127be565b915061479382614752565b602082019050919050565b50565b60006147ae60008361337a565b91506147b98261479e565b600082019050919050565b60006060820190506147d96000830184612a7a565b81810360208301526147ea8161477b565b905081810360408301526147fd816147a1565b90509291505056fea2646970667358221220cbc154c9e3c010d8542a6884c029b0013dd4f064a6864b35d7098736a10b605064736f6c63430008170033",
  "linkReferences": {},
  "deployedLinkReferences": {}
}