{
  "_format": "hh-sol-artifact-1",
  "contractName": "EventManager",
  "sourceName": "contracts/EventManager.sol",
  "abi": [
    {
      "inputs": [
        {
          "internalType": "address",
          "name": "_questManagerAddress",
          "type": "address"
        }
      ],
      "stateMutability": "nonpayable",
      "type": "constructor"
    },
    {
      "inputs": [],
      "name": "admin",
      "outputs": [
        {
          "internalType": "address",
          "name": "",
          "type": "address"
        }
      ],
      "stateMutability": "view",
      "type": "function"
    },
    {
      "inputs": [
        {
          "internalType": "uint256",
          "name": "_eventId",
          "type": "uint256"
        },
        {
          "internalType": "uint256",
          "name": "_questId",
          "type": "uint256"
        },
        {
          "internalType": "uint256",
          "name": "_questStartTime",
          "type": "uint256"
        },
        {
          "internalType": "uint256",
          "name": "_questEndTime",
          "type": "uint256"
        }
      ],
      "name": "assignQuestToEvent",
      "outputs": [],
      "stateMutability": "nonpayable",
      "type": "function"
    },
    {
      "inputs": [
        {
          "internalType": "uint256",
          "name": "_startTime",
          "type": "uint256"
        },
        {
          "internalType": "uint256",
          "name": "_endTime",
          "type": "uint256"
        },
        {
          "internalType": "string",
          "name": "_description",
          "type": "string"
        }
      ],
      "name": "createEvent",
      "outputs": [],
      "stateMutability": "nonpayable",
      "type": "function"
    },
    {
      "inputs": [
        {
          "internalType": "uint256",
          "name": "_id",
          "type": "uint256"
        }
      ],
      "name": "deleteEvent",
      "outputs": [],
      "stateMutability": "nonpayable",
      "type": "function"
    },
    {
      "inputs": [],
      "name": "eventCount",
      "outputs": [
        {
          "internalType": "uint256",
          "name": "",
          "type": "uint256"
        }
      ],
      "stateMutability": "view",
      "type": "function"
    },
    {
      "inputs": [
        {
          "internalType": "uint256",
          "name": "",
          "type": "uint256"
        }
      ],
      "name": "events",
      "outputs": [
        {
          "internalType": "uint256",
          "name": "id",
          "type": "uint256"
        },
        {
          "internalType": "uint256",
          "name": "startTime",
          "type": "uint256"
        },
        {
          "internalType": "uint256",
          "name": "endTime",
          "type": "uint256"
        },
        {
          "internalType": "string",
          "name": "description",
          "type": "string"
        },
        {
          "internalType": "enum EventManager.EventStatus",
          "name": "status",
          "type": "uint8"
        }
      ],
      "stateMutability": "view",
      "type": "function"
    },
    {
      "inputs": [
        {
          "internalType": "uint256",
          "name": "_eventId",
          "type": "uint256"
        },
        {
          "internalType": "uint256",
          "name": "_questId",
          "type": "uint256"
        }
      ],
      "name": "getQuestInfo",
      "outputs": [
        {
          "components": [
            {
              "internalType": "uint256",
              "name": "questId",
              "type": "uint256"
            },
            {
              "internalType": "uint256",
              "name": "startTime",
              "type": "uint256"
            },
            {
              "internalType": "uint256",
              "name": "endTime",
              "type": "uint256"
            }
          ],
          "internalType": "struct EventManager.QuestInfo",
          "name": "",
          "type": "tuple"
        }
      ],
      "stateMutability": "view",
      "type": "function"
    },
    {
      "inputs": [],
      "name": "listEvents",
      "outputs": [
        {
          "internalType": "uint256[]",
          "name": "ids",
          "type": "uint256[]"
        }
      ],
      "stateMutability": "view",
      "type": "function"
    },
    {
      "inputs": [
        {
          "internalType": "uint256",
          "name": "_id",
          "type": "uint256"
        },
        {
          "internalType": "uint256",
          "name": "_newStartTime",
          "type": "uint256"
        },
        {
          "internalType": "uint256",
          "name": "_newEndTime",
          "type": "uint256"
        },
        {
          "internalType": "string",
          "name": "_newDescription",
          "type": "string"
        }
      ],
      "name": "updateEvent",
      "outputs": [],
      "stateMutability": "nonpayable",
      "type": "function"
    }
  ],
  "bytecode": "0x60806040523480156200001157600080fd5b506040516200176338038062001763833981810160405281019062000037919062000129565b336000806101000a81548173ffffffffffffffffffffffffffffffffffffffff021916908373ffffffffffffffffffffffffffffffffffffffff16021790555080600160006101000a81548173ffffffffffffffffffffffffffffffffffffffff021916908373ffffffffffffffffffffffffffffffffffffffff160217905550506200015b565b600080fd5b600073ffffffffffffffffffffffffffffffffffffffff82169050919050565b6000620000f182620000c4565b9050919050565b6200010381620000e4565b81146200010f57600080fd5b50565b6000815190506200012381620000f8565b92915050565b600060208284031215620001425762000141620000bf565b5b6000620001528482850162000112565b91505092915050565b6115f8806200016b6000396000f3fe608060405234801561001057600080fd5b50600436106100935760003560e01c806371be2e4a1161006657806371be2e4a1461013657806391ac277a14610154578063f3d98aef14610170578063f851a4401461018c578063f8749a58146101aa57610093565b80630b79143014610098578063294e0d56146100cc57806355d27a5c146100e85780635ee975bb14610106575b600080fd5b6100b260048036038101906100ad9190610959565b6101c6565b6040516100c3959493929190610a9c565b60405180910390f35b6100e660048036038101906100e19190610c2b565b610291565b005b6100f06103b0565b6040516100fd9190610d58565b60405180910390f35b610120600480360381019061011b9190610d7a565b610458565b60405161012d9190610dfc565b60405180910390f35b61013e6104b8565b60405161014b9190610e17565b60405180910390f35b61016e60048036038101906101699190610e32565b6104be565b005b61018a60048036038101906101859190610e99565b61069c565b005b61019461078a565b6040516101a19190610f5d565b60405180910390f35b6101c460048036038101906101bf9190610959565b6107ae565b005b60036020528060005260406000206000915090508060000154908060010154908060020154908060030180546101fb90610fa7565b80601f016020809104026020016040519081016040528092919081815260200182805461022790610fa7565b80156102745780601f1061024957610100808354040283529160200191610274565b820191906000526020600020905b81548152906001019060200180831161025757829003601f168201915b5050505050908060040160009054906101000a900460ff16905085565b60008054906101000a900473ffffffffffffffffffffffffffffffffffffffff1673ffffffffffffffffffffffffffffffffffffffff163373ffffffffffffffffffffffffffffffffffffffff161461031f576040517f08c379a00000000000000000000000000000000000000000000000000000000081526004016103169061104a565b60405180910390fd5b600060026000815461033090611099565b919050819055905060006003600083815260200190815260200160002090508181600001819055508481600101819055508381600201819055508281600301908161037b919061128d565b5060008160040160006101000a81548160ff021916908360018111156103a4576103a3610a25565b5b02179055505050505050565b6060600060025467ffffffffffffffff8111156103d0576103cf610b00565b5b6040519080825280602002602001820160405280156103fe5781602001602082028036833780820191505090505b5090506000600190505b6002548111610450578082600183610420919061135f565b8151811061043157610430611393565b5b602002602001018181525050808061044890611099565b915050610408565b508091505090565b610460610891565b6003600084815260200190815260200160002060050160008381526020019081526020016000206040518060600160405290816000820154815260200160018201548152602001600282015481525050905092915050565b60025481565b60008054906101000a900473ffffffffffffffffffffffffffffffffffffffff1673ffffffffffffffffffffffffffffffffffffffff163373ffffffffffffffffffffffffffffffffffffffff161461054c576040517f08c379a00000000000000000000000000000000000000000000000000000000081526004016105439061104a565b60405180910390fd5b6000600160009054906101000a900473ffffffffffffffffffffffffffffffffffffffff1673ffffffffffffffffffffffffffffffffffffffff166349f86f34856040518263ffffffff1660e01b81526004016105a99190610e17565b600060405180830381865afa1580156105c6573d6000803e3d6000fd5b505050506040513d6000823e3d601f19601f820116820180604052508101906105ef919061150d565b6000015103610633576040517f08c379a000000000000000000000000000000000000000000000000000000000815260040161062a906115a2565b60405180910390fd5b60405180606001604052808481526020018381526020018281525060036000868152602001908152602001600020600501600085815260200190815260200160002060008201518160000155602082015181600101556040820151816002015590505050505050565b60008054906101000a900473ffffffffffffffffffffffffffffffffffffffff1673ffffffffffffffffffffffffffffffffffffffff163373ffffffffffffffffffffffffffffffffffffffff161461072a576040517f08c379a00000000000000000000000000000000000000000000000000000000081526004016107219061104a565b60405180910390fd5b82600360008681526020019081526020016000206001018190555081600360008681526020019081526020016000206002018190555080600360008681526020019081526020016000206003019081610783919061128d565b5050505050565b60008054906101000a900473ffffffffffffffffffffffffffffffffffffffff1681565b60008054906101000a900473ffffffffffffffffffffffffffffffffffffffff1673ffffffffffffffffffffffffffffffffffffffff163373ffffffffffffffffffffffffffffffffffffffff161461083c576040517f08c379a00000000000000000000000000000000000000000000000000000000081526004016108339061104a565b60405180910390fd5b600360008281526020019081526020016000206000808201600090556001820160009055600282016000905560038201600061087891906108b2565b6004820160006101000a81549060ff0219169055505050565b60405180606001604052806000815260200160008152602001600081525090565b5080546108be90610fa7565b6000825580601f106108d057506108ef565b601f0160209004906000526020600020908101906108ee91906108f2565b5b50565b5b8082111561090b5760008160009055506001016108f3565b5090565b6000604051905090565b600080fd5b600080fd5b6000819050919050565b61093681610923565b811461094157600080fd5b50565b6000813590506109538161092d565b92915050565b60006020828403121561096f5761096e610919565b5b600061097d84828501610944565b91505092915050565b61098f81610923565b82525050565b600081519050919050565b600082825260208201905092915050565b60005b838110156109cf5780820151818401526020810190506109b4565b60008484015250505050565b6000601f19601f8301169050919050565b60006109f782610995565b610a0181856109a0565b9350610a118185602086016109b1565b610a1a816109db565b840191505092915050565b7f4e487b7100000000000000000000000000000000000000000000000000000000600052602160045260246000fd5b60028110610a6557610a64610a25565b5b50565b6000819050610a7682610a54565b919050565b6000610a8682610a68565b9050919050565b610a9681610a7b565b82525050565b600060a082019050610ab16000830188610986565b610abe6020830187610986565b610acb6040830186610986565b8181036060830152610add81856109ec565b9050610aec6080830184610a8d565b9695505050505050565b600080fd5b600080fd5b7f4e487b7100000000000000000000000000000000000000000000000000000000600052604160045260246000fd5b610b38826109db565b810181811067ffffffffffffffff82111715610b5757610b56610b00565b5b80604052505050565b6000610b6a61090f565b9050610b768282610b2f565b919050565b600067ffffffffffffffff821115610b9657610b95610b00565b5b610b9f826109db565b9050602081019050919050565b82818337600083830152505050565b6000610bce610bc984610b7b565b610b60565b905082815260208101848484011115610bea57610be9610afb565b5b610bf5848285610bac565b509392505050565b600082601f830112610c1257610c11610af6565b5b8135610c22848260208601610bbb565b91505092915050565b600080600060608486031215610c4457610c43610919565b5b6000610c5286828701610944565b9350506020610c6386828701610944565b925050604084013567ffffffffffffffff811115610c8457610c8361091e565b5b610c9086828701610bfd565b9150509250925092565b600081519050919050565b600082825260208201905092915050565b6000819050602082019050919050565b610ccf81610923565b82525050565b6000610ce18383610cc6565b60208301905092915050565b6000602082019050919050565b6000610d0582610c9a565b610d0f8185610ca5565b9350610d1a83610cb6565b8060005b83811015610d4b578151610d328882610cd5565b9750610d3d83610ced565b925050600181019050610d1e565b5085935050505092915050565b60006020820190508181036000830152610d728184610cfa565b905092915050565b60008060408385031215610d9157610d90610919565b5b6000610d9f85828601610944565b9250506020610db085828601610944565b9150509250929050565b606082016000820151610dd06000850182610cc6565b506020820151610de36020850182610cc6565b506040820151610df66040850182610cc6565b50505050565b6000606082019050610e116000830184610dba565b92915050565b6000602082019050610e2c6000830184610986565b92915050565b60008060008060808587031215610e4c57610e4b610919565b5b6000610e5a87828801610944565b9450506020610e6b87828801610944565b9350506040610e7c87828801610944565b9250506060610e8d87828801610944565b91505092959194509250565b60008060008060808587031215610eb357610eb2610919565b5b6000610ec187828801610944565b9450506020610ed287828801610944565b9350506040610ee387828801610944565b925050606085013567ffffffffffffffff811115610f0457610f0361091e565b5b610f1087828801610bfd565b91505092959194509250565b600073ffffffffffffffffffffffffffffffffffffffff82169050919050565b6000610f4782610f1c565b9050919050565b610f5781610f3c565b82525050565b6000602082019050610f726000830184610f4e565b92915050565b7f4e487b7100000000000000000000000000000000000000000000000000000000600052602260045260246000fd5b60006002820490506001821680610fbf57607f821691505b602082108103610fd257610fd1610f78565b5b50919050565b7f4f6e6c792061646d696e2063616e20706572666f726d2074686973206163746960008201527f6f6e000000000000000000000000000000000000000000000000000000000000602082015250565b60006110346022836109a0565b915061103f82610fd8565b604082019050919050565b6000602082019050818103600083015261106381611027565b9050919050565b7f4e487b7100000000000000000000000000000000000000000000000000000000600052601160045260246000fd5b60006110a482610923565b91507fffffffffffffffffffffffffffffffffffffffffffffffffffffffffffffffff82036110d6576110d561106a565b5b600182019050919050565b60008190508160005260206000209050919050565b60006020601f8301049050919050565b600082821b905092915050565b6000600883026111437fffffffffffffffffffffffffffffffffffffffffffffffffffffffffffffffff82611106565b61114d8683611106565b95508019841693508086168417925050509392505050565b6000819050919050565b600061118a61118561118084610923565b611165565b610923565b9050919050565b6000819050919050565b6111a48361116f565b6111b86111b082611191565b848454611113565b825550505050565b600090565b6111cd6111c0565b6111d881848461119b565b505050565b5b818110156111fc576111f16000826111c5565b6001810190506111de565b5050565b601f82111561124157611212816110e1565b61121b846110f6565b8101602085101561122a578190505b61123e611236856110f6565b8301826111dd565b50505b505050565b600082821c905092915050565b600061126460001984600802611246565b1980831691505092915050565b600061127d8383611253565b9150826002028217905092915050565b61129682610995565b67ffffffffffffffff8111156112af576112ae610b00565b5b6112b98254610fa7565b6112c4828285611200565b600060209050601f8311600181146112f757600084156112e5578287015190505b6112ef8582611271565b865550611357565b601f198416611305866110e1565b60005b8281101561132d57848901518255600182019150602085019450602081019050611308565b8683101561134a5784890151611346601f891682611253565b8355505b6001600288020188555050505b505050505050565b600061136a82610923565b915061137583610923565b925082820390508181111561138d5761138c61106a565b5b92915050565b7f4e487b7100000000000000000000000000000000000000000000000000000000600052603260045260246000fd5b600080fd5b600080fd5b6000815190506113db8161092d565b92915050565b60006113f46113ef84610b7b565b610b60565b9050828152602081018484840111156114105761140f610afb565b5b61141b8482856109b1565b509392505050565b600082601f83011261143857611437610af6565b5b81516114488482602086016113e1565b91505092915050565b600060c08284031215611467576114666113c2565b5b61147160c0610b60565b90506000611481848285016113cc565b6000830152506020611495848285016113cc565b60208301525060406114a9848285016113cc565b60408301525060606114bd848285016113cc565b60608301525060806114d1848285016113cc565b60808301525060a082015167ffffffffffffffff8111156114f5576114f46113c7565b5b61150184828501611423565b60a08301525092915050565b60006020828403121561152357611522610919565b5b600082015167ffffffffffffffff8111156115415761154061091e565b5b61154d84828501611451565b91505092915050565b7f517565737420646f6573206e6f74206578697374000000000000000000000000600082015250565b600061158c6014836109a0565b915061159782611556565b602082019050919050565b600060208201905081810360008301526115bb8161157f565b905091905056fea2646970667358221220f6c70e50d6e71a3296c6a31a4f2d65ef0e9e364c4426389ffa1d2d417f9de5db64736f6c63430008170033",
  "linkReferences": {},
  "deployedLinkReferences": {}
}