{
  "_format": "hh-sol-artifact-1",
  "contractName": "EventsManager",
  "sourceName": "contracts/EventManager.sol",
  "abi": [
    {
      "inputs": [
        {
          "internalType": "address",
          "name": "_questManagerAddress",
          "type": "address"
        }
      ],
      "stateMutability": "nonpayable",
      "type": "constructor"
    },
    {
      "anonymous": false,
      "inputs": [
        {
          "indexed": false,
          "internalType": "uint256",
          "name": "eventId",
          "type": "uint256"
        },
        {
          "indexed": false,
          "internalType": "uint256",
          "name": "startTime",
          "type": "uint256"
        },
        {
          "indexed": false,
          "internalType": "uint256",
          "name": "endTime",
          "type": "uint256"
        },
        {
          "indexed": false,
          "internalType": "string",
          "name": "description",
          "type": "string"
        }
      ],
      "name": "EventsCreated",
      "type": "event"
    },
    {
      "inputs": [
        {
          "internalType": "uint256",
          "name": "_eventId",
          "type": "uint256"
        },
        {
          "internalType": "uint256",
          "name": "_questId",
          "type": "uint256"
        },
        {
          "internalType": "uint256",
          "name": "_questStartTime",
          "type": "uint256"
        },
        {
          "internalType": "uint256",
          "name": "_questEndTime",
          "type": "uint256"
        }
      ],
      "name": "addQuestToEvents",
      "outputs": [],
      "stateMutability": "nonpayable",
      "type": "function"
    },
    {
      "inputs": [],
      "name": "admin",
      "outputs": [
        {
          "internalType": "address",
          "name": "",
          "type": "address"
        }
      ],
      "stateMutability": "view",
      "type": "function"
    },
    {
      "inputs": [
        {
          "internalType": "uint256",
          "name": "_eventId",
          "type": "uint256"
        },
        {
          "internalType": "uint256",
          "name": "_questId",
          "type": "uint256"
        },
        {
          "internalType": "uint256",
          "name": "_questStartTime",
          "type": "uint256"
        },
        {
          "internalType": "uint256",
          "name": "_questEndTime",
          "type": "uint256"
        }
      ],
      "name": "assignQuestToEvents",
      "outputs": [],
      "stateMutability": "nonpayable",
      "type": "function"
    },
    {
      "inputs": [
        {
          "internalType": "uint256",
          "name": "_startTime",
          "type": "uint256"
        },
        {
          "internalType": "uint256",
          "name": "_endTime",
          "type": "uint256"
        },
        {
          "internalType": "string",
          "name": "_description",
          "type": "string"
        }
      ],
      "name": "createEvents",
      "outputs": [
        {
          "internalType": "uint256",
          "name": "",
          "type": "uint256"
        }
      ],
      "stateMutability": "nonpayable",
      "type": "function"
    },
    {
      "inputs": [
        {
          "internalType": "uint256",
          "name": "_id",
          "type": "uint256"
        }
      ],
      "name": "deleteEvents",
      "outputs": [],
      "stateMutability": "nonpayable",
      "type": "function"
    },
    {
      "inputs": [
        {
          "internalType": "uint256",
          "name": "",
          "type": "uint256"
        }
      ],
      "name": "events",
      "outputs": [
        {
          "internalType": "uint256",
          "name": "id",
          "type": "uint256"
        },
        {
          "internalType": "uint256",
          "name": "startTime",
          "type": "uint256"
        },
        {
          "internalType": "uint256",
          "name": "endTime",
          "type": "uint256"
        },
        {
          "internalType": "string",
          "name": "description",
          "type": "string"
        },
        {
          "internalType": "enum EventsManager.EventsStatus",
          "name": "status",
          "type": "uint8"
        }
      ],
      "stateMutability": "view",
      "type": "function"
    },
    {
      "inputs": [],
      "name": "eventsCount",
      "outputs": [
        {
          "internalType": "uint256",
          "name": "",
          "type": "uint256"
        }
      ],
      "stateMutability": "view",
      "type": "function"
    },
    {
      "inputs": [
        {
          "internalType": "uint256",
          "name": "_eventId",
          "type": "uint256"
        }
      ],
      "name": "getEvents",
      "outputs": [
        {
          "internalType": "uint256",
          "name": "id",
          "type": "uint256"
        },
        {
          "internalType": "uint256",
          "name": "startTime",
          "type": "uint256"
        },
        {
          "internalType": "uint256",
          "name": "endTime",
          "type": "uint256"
        },
        {
          "internalType": "string",
          "name": "description",
          "type": "string"
        },
        {
          "internalType": "enum EventsManager.EventsStatus",
          "name": "status",
          "type": "uint8"
        }
      ],
      "stateMutability": "view",
      "type": "function"
    },
    {
      "inputs": [
        {
          "internalType": "uint256",
          "name": "index",
          "type": "uint256"
        }
      ],
      "name": "getEventsByIndex",
      "outputs": [
        {
          "internalType": "uint256",
          "name": "id",
          "type": "uint256"
        },
        {
          "internalType": "uint256",
          "name": "startTime",
          "type": "uint256"
        },
        {
          "internalType": "uint256",
          "name": "endTime",
          "type": "uint256"
        },
        {
          "internalType": "string",
          "name": "description",
          "type": "string"
        },
        {
          "internalType": "enum EventsManager.EventsStatus",
          "name": "status",
          "type": "uint8"
        }
      ],
      "stateMutability": "view",
      "type": "function"
    },
    {
      "inputs": [],
      "name": "getEventsCount",
      "outputs": [
        {
          "internalType": "uint256",
          "name": "",
          "type": "uint256"
        }
      ],
      "stateMutability": "view",
      "type": "function"
    },
    {
      "inputs": [
        {
          "internalType": "uint256",
          "name": "_eventId",
          "type": "uint256"
        },
        {
          "internalType": "uint256",
          "name": "_questId",
          "type": "uint256"
        }
      ],
      "name": "getQuestInfo",
      "outputs": [
        {
          "components": [
            {
              "internalType": "uint256",
              "name": "questId",
              "type": "uint256"
            },
            {
              "internalType": "uint256",
              "name": "startTime",
              "type": "uint256"
            },
            {
              "internalType": "uint256",
              "name": "endTime",
              "type": "uint256"
            }
          ],
          "internalType": "struct EventsManager.QuestInfo",
          "name": "",
          "type": "tuple"
        }
      ],
      "stateMutability": "view",
      "type": "function"
    },
    {
      "inputs": [],
      "name": "listEvents",
      "outputs": [
        {
          "internalType": "uint256[]",
          "name": "ids",
          "type": "uint256[]"
        }
      ],
      "stateMutability": "view",
      "type": "function"
    },
    {
      "inputs": [
        {
          "internalType": "uint256",
          "name": "_id",
          "type": "uint256"
        },
        {
          "internalType": "uint256",
          "name": "_newStartTime",
          "type": "uint256"
        },
        {
          "internalType": "uint256",
          "name": "_newEndTime",
          "type": "uint256"
        },
        {
          "internalType": "string",
          "name": "_newDescription",
          "type": "string"
        }
      ],
      "name": "updateEvents",
      "outputs": [],
      "stateMutability": "nonpayable",
      "type": "function"
    }
  ],
  "bytecode": "0x60806040523480156200001157600080fd5b5060405162001d7838038062001d78833981810160405281019062000037919062000129565b336000806101000a81548173ffffffffffffffffffffffffffffffffffffffff021916908373ffffffffffffffffffffffffffffffffffffffff16021790555080600160006101000a81548173ffffffffffffffffffffffffffffffffffffffff021916908373ffffffffffffffffffffffffffffffffffffffff160217905550506200015b565b600080fd5b600073ffffffffffffffffffffffffffffffffffffffff82169050919050565b6000620000f182620000c4565b9050919050565b6200010381620000e4565b81146200010f57600080fd5b50565b6000815190506200012381620000f8565b92915050565b600060208284031215620001425762000141620000bf565b5b6000620001528482850162000112565b91505092915050565b611c0d806200016b6000396000f3fe608060405234801561001057600080fd5b50600436106100cf5760003560e01c8063ba3ebae11161008c578063c302c41211610066578063c302c41214610232578063d54399921461024e578063f58c4a831461027e578063f851a4401461029a576100cf565b8063ba3ebae1146101ae578063bb83d589146101ca578063bd687def146101fe576100cf565b80630b791430146100d457806330366d5f1461010857806339e2e46f1461012657806355d27a5c146101445780635ee975bb14610162578063673359bd14610192575b600080fd5b6100ee60048036038101906100e99190610e4a565b6102b8565b6040516100ff959493929190610f8d565b60405180910390f35b610110610383565b60405161011d9190610fe7565b60405180910390f35b61012e610390565b60405161013b9190610fe7565b60405180910390f35b61014c610396565b60405161015991906110c0565b60405180910390f35b61017c600480360381019061017791906110e2565b61043e565b6040516101899190611164565b60405180910390f35b6101ac60048036038101906101a79190610e4a565b61049e565b005b6101c860048036038101906101c391906112b4565b610581565b005b6101e460048036038101906101df9190610e4a565b61066f565b6040516101f5959493929190610f8d565b60405180910390f35b61021860048036038101906102139190610e4a565b6107bf565b604051610229959493929190610f8d565b60405180910390f35b61024c60048036038101906102479190611337565b6108a3565b005b6102686004803603810190610263919061139e565b610a81565b6040516102759190610fe7565b60405180910390f35b61029860048036038101906102939190611337565b610c0e565b005b6102a2610d5e565b6040516102af919061144e565b60405180910390f35b60036020528060005260406000206000915090508060000154908060010154908060020154908060030180546102ed90611498565b80601f016020809104026020016040519081016040528092919081815260200182805461031990611498565b80156103665780601f1061033b57610100808354040283529160200191610366565b820191906000526020600020905b81548152906001019060200180831161034957829003601f168201915b5050505050908060040160009054906101000a900460ff16905085565b6000600480549050905090565b60025481565b6060600060025467ffffffffffffffff8111156103b6576103b5611189565b5b6040519080825280602002602001820160405280156103e45781602001602082028036833780820191505090505b5090506000600190505b600254811161043657808260018361040691906114f8565b815181106104175761041661152c565b5b602002602001018181525050808061042e9061155b565b9150506103ee565b508091505090565b610446610d82565b6003600084815260200190815260200160002060050160008381526020019081526020016000206040518060600160405290816000820154815260200160018201548152602001600282015481525050905092915050565b60008054906101000a900473ffffffffffffffffffffffffffffffffffffffff1673ffffffffffffffffffffffffffffffffffffffff163373ffffffffffffffffffffffffffffffffffffffff161461052c576040517f08c379a000000000000000000000000000000000000000000000000000000000815260040161052390611615565b60405180910390fd5b60036000828152602001908152602001600020600080820160009055600182016000905560028201600090556003820160006105689190610da3565b6004820160006101000a81549060ff0219169055505050565b60008054906101000a900473ffffffffffffffffffffffffffffffffffffffff1673ffffffffffffffffffffffffffffffffffffffff163373ffffffffffffffffffffffffffffffffffffffff161461060f576040517f08c379a000000000000000000000000000000000000000000000000000000000815260040161060690611615565b60405180910390fd5b8260036000868152602001908152602001600020600101819055508160036000868152602001908152602001600020600201819055508060036000868152602001908152602001600020600301908161066891906117e1565b5050505050565b60008060006060600060048054905086106106bf576040517f08c379a00000000000000000000000000000000000000000000000000000000081526004016106b6906118ff565b60405180910390fd5b6000600487815481106106d5576106d461152c565b5b906000526020600020015490506000600360008381526020019081526020016000209050806000015481600101548260020154836003018460040160009054906101000a900460ff1681805461072a90611498565b80601f016020809104026020016040519081016040528092919081815260200182805461075690611498565b80156107a35780601f10610778576101008083540402835291602001916107a3565b820191906000526020600020905b81548152906001019060200180831161078657829003601f168201915b5050505050915096509650965096509650505091939590929450565b60008060006060600080600360008881526020019081526020016000209050806000015481600101548260020154836003018460040160009054906101000a900460ff1681805461080f90611498565b80601f016020809104026020016040519081016040528092919081815260200182805461083b90611498565b80156108885780601f1061085d57610100808354040283529160200191610888565b820191906000526020600020905b81548152906001019060200180831161086b57829003601f168201915b50505050509150955095509550955095505091939590929450565b60008054906101000a900473ffffffffffffffffffffffffffffffffffffffff1673ffffffffffffffffffffffffffffffffffffffff163373ffffffffffffffffffffffffffffffffffffffff1614610931576040517f08c379a000000000000000000000000000000000000000000000000000000000815260040161092890611615565b60405180910390fd5b6000600160009054906101000a900473ffffffffffffffffffffffffffffffffffffffff1673ffffffffffffffffffffffffffffffffffffffff166349f86f34856040518263ffffffff1660e01b815260040161098e9190610fe7565b600060405180830381865afa1580156109ab573d6000803e3d6000fd5b505050506040513d6000823e3d601f19601f820116820180604052508101906109d49190611a6a565b6000015103610a18576040517f08c379a0000000000000000000000000000000000000000000000000000000008152600401610a0f90611aff565b60405180910390fd5b60405180606001604052808481526020018381526020018281525060036000868152602001908152602001600020600501600085815260200190815260200160002060008201518160000155602082015181600101556040820151816002015590505050505050565b60008060009054906101000a900473ffffffffffffffffffffffffffffffffffffffff1673ffffffffffffffffffffffffffffffffffffffff163373ffffffffffffffffffffffffffffffffffffffff1614610b12576040517f08c379a0000000000000000000000000000000000000000000000000000000008152600401610b0990611615565b60405180910390fd5b6000600260008154610b239061155b565b9190508190559050600060036000838152602001908152602001600020905081816000018190555085816001018190555084816002018190555083816003019081610b6e91906117e1565b5060008160040160006101000a81548160ff02191690836001811115610b9757610b96610f16565b5b021790555060048290806001815401808255809150506001900390600052602060002001600090919091909150557f4c73c21c96da84bc0602c1102b2d001c009c652b4ea8bfca0c93ff1ff0ecc72782878787604051610bfa9493929190611b1f565b60405180910390a181925050509392505050565b60008054906101000a900473ffffffffffffffffffffffffffffffffffffffff1673ffffffffffffffffffffffffffffffffffffffff163373ffffffffffffffffffffffffffffffffffffffff1614610c9c576040517f08c379a0000000000000000000000000000000000000000000000000000000008152600401610c9390611615565b60405180910390fd5b6000600360008681526020019081526020016000206000015403610cf5576040517f08c379a0000000000000000000000000000000000000000000000000000000008152600401610cec90611bb7565b60405180910390fd5b60405180606001604052808481526020018381526020018281525060036000868152602001908152602001600020600501600085815260200190815260200160002060008201518160000155602082015181600101556040820151816002015590505050505050565b60008054906101000a900473ffffffffffffffffffffffffffffffffffffffff1681565b60405180606001604052806000815260200160008152602001600081525090565b508054610daf90611498565b6000825580601f10610dc15750610de0565b601f016020900490600052602060002090810190610ddf9190610de3565b5b50565b5b80821115610dfc576000816000905550600101610de4565b5090565b6000604051905090565b600080fd5b600080fd5b6000819050919050565b610e2781610e14565b8114610e3257600080fd5b50565b600081359050610e4481610e1e565b92915050565b600060208284031215610e6057610e5f610e0a565b5b6000610e6e84828501610e35565b91505092915050565b610e8081610e14565b82525050565b600081519050919050565b600082825260208201905092915050565b60005b83811015610ec0578082015181840152602081019050610ea5565b60008484015250505050565b6000601f19601f8301169050919050565b6000610ee882610e86565b610ef28185610e91565b9350610f02818560208601610ea2565b610f0b81610ecc565b840191505092915050565b7f4e487b7100000000000000000000000000000000000000000000000000000000600052602160045260246000fd5b60028110610f5657610f55610f16565b5b50565b6000819050610f6782610f45565b919050565b6000610f7782610f59565b9050919050565b610f8781610f6c565b82525050565b600060a082019050610fa26000830188610e77565b610faf6020830187610e77565b610fbc6040830186610e77565b8181036060830152610fce8185610edd565b9050610fdd6080830184610f7e565b9695505050505050565b6000602082019050610ffc6000830184610e77565b92915050565b600081519050919050565b600082825260208201905092915050565b6000819050602082019050919050565b61103781610e14565b82525050565b6000611049838361102e565b60208301905092915050565b6000602082019050919050565b600061106d82611002565b611077818561100d565b93506110828361101e565b8060005b838110156110b357815161109a888261103d565b97506110a583611055565b925050600181019050611086565b5085935050505092915050565b600060208201905081810360008301526110da8184611062565b905092915050565b600080604083850312156110f9576110f8610e0a565b5b600061110785828601610e35565b925050602061111885828601610e35565b9150509250929050565b606082016000820151611138600085018261102e565b50602082015161114b602085018261102e565b50604082015161115e604085018261102e565b50505050565b60006060820190506111796000830184611122565b92915050565b600080fd5b600080fd5b7f4e487b7100000000000000000000000000000000000000000000000000000000600052604160045260246000fd5b6111c182610ecc565b810181811067ffffffffffffffff821117156111e0576111df611189565b5b80604052505050565b60006111f3610e00565b90506111ff82826111b8565b919050565b600067ffffffffffffffff82111561121f5761121e611189565b5b61122882610ecc565b9050602081019050919050565b82818337600083830152505050565b600061125761125284611204565b6111e9565b90508281526020810184848401111561127357611272611184565b5b61127e848285611235565b509392505050565b600082601f83011261129b5761129a61117f565b5b81356112ab848260208601611244565b91505092915050565b600080600080608085870312156112ce576112cd610e0a565b5b60006112dc87828801610e35565b94505060206112ed87828801610e35565b93505060406112fe87828801610e35565b925050606085013567ffffffffffffffff81111561131f5761131e610e0f565b5b61132b87828801611286565b91505092959194509250565b6000806000806080858703121561135157611350610e0a565b5b600061135f87828801610e35565b945050602061137087828801610e35565b935050604061138187828801610e35565b925050606061139287828801610e35565b91505092959194509250565b6000806000606084860312156113b7576113b6610e0a565b5b60006113c586828701610e35565b93505060206113d686828701610e35565b925050604084013567ffffffffffffffff8111156113f7576113f6610e0f565b5b61140386828701611286565b9150509250925092565b600073ffffffffffffffffffffffffffffffffffffffff82169050919050565b60006114388261140d565b9050919050565b6114488161142d565b82525050565b6000602082019050611463600083018461143f565b92915050565b7f4e487b7100000000000000000000000000000000000000000000000000000000600052602260045260246000fd5b600060028204905060018216806114b057607f821691505b6020821081036114c3576114c2611469565b5b50919050565b7f4e487b7100000000000000000000000000000000000000000000000000000000600052601160045260246000fd5b600061150382610e14565b915061150e83610e14565b9250828203905081811115611526576115256114c9565b5b92915050565b7f4e487b7100000000000000000000000000000000000000000000000000000000600052603260045260246000fd5b600061156682610e14565b91507fffffffffffffffffffffffffffffffffffffffffffffffffffffffffffffffff8203611598576115976114c9565b5b600182019050919050565b7f4f6e6c792061646d696e2063616e20706572666f726d2074686973206163746960008201527f6f6e000000000000000000000000000000000000000000000000000000000000602082015250565b60006115ff602283610e91565b915061160a826115a3565b604082019050919050565b6000602082019050818103600083015261162e816115f2565b9050919050565b60008190508160005260206000209050919050565b60006020601f8301049050919050565b600082821b905092915050565b6000600883026116977fffffffffffffffffffffffffffffffffffffffffffffffffffffffffffffffff8261165a565b6116a1868361165a565b95508019841693508086168417925050509392505050565b6000819050919050565b60006116de6116d96116d484610e14565b6116b9565b610e14565b9050919050565b6000819050919050565b6116f8836116c3565b61170c611704826116e5565b848454611667565b825550505050565b600090565b611721611714565b61172c8184846116ef565b505050565b5b8181101561175057611745600082611719565b600181019050611732565b5050565b601f8211156117955761176681611635565b61176f8461164a565b8101602085101561177e578190505b61179261178a8561164a565b830182611731565b50505b505050565b600082821c905092915050565b60006117b86000198460080261179a565b1980831691505092915050565b60006117d183836117a7565b9150826002028217905092915050565b6117ea82610e86565b67ffffffffffffffff81111561180357611802611189565b5b61180d8254611498565b611818828285611754565b600060209050601f83116001811461184b5760008415611839578287015190505b61184385826117c5565b8655506118ab565b601f19841661185986611635565b60005b828110156118815784890151825560018201915060208501945060208101905061185c565b8683101561189e578489015161189a601f8916826117a7565b8355505b6001600288020188555050505b505050505050565b7f496e646578206f7574206f6620626f756e647300000000000000000000000000600082015250565b60006118e9601383610e91565b91506118f4826118b3565b602082019050919050565b60006020820190508181036000830152611918816118dc565b9050919050565b600080fd5b600080fd5b60008151905061193881610e1e565b92915050565b600061195161194c84611204565b6111e9565b90508281526020810184848401111561196d5761196c611184565b5b611978848285610ea2565b509392505050565b600082601f8301126119955761199461117f565b5b81516119a584826020860161193e565b91505092915050565b600060c082840312156119c4576119c361191f565b5b6119ce60c06111e9565b905060006119de84828501611929565b60008301525060206119f284828501611929565b6020830152506040611a0684828501611929565b6040830152506060611a1a84828501611929565b6060830152506080611a2e84828501611929565b60808301525060a082015167ffffffffffffffff811115611a5257611a51611924565b5b611a5e84828501611980565b60a08301525092915050565b600060208284031215611a8057611a7f610e0a565b5b600082015167ffffffffffffffff811115611a9e57611a9d610e0f565b5b611aaa848285016119ae565b91505092915050565b7f517565737420646f6573206e6f74206578697374000000000000000000000000600082015250565b6000611ae9601483610e91565b9150611af482611ab3565b602082019050919050565b60006020820190508181036000830152611b1881611adc565b9050919050565b6000608082019050611b346000830187610e77565b611b416020830186610e77565b611b4e6040830185610e77565b8181036060830152611b608184610edd565b905095945050505050565b7f4576656e747320646f6573206e6f742065786973740000000000000000000000600082015250565b6000611ba1601583610e91565b9150611bac82611b6b565b602082019050919050565b60006020820190508181036000830152611bd081611b94565b905091905056fea2646970667358221220034c79db95a849576aeb05e8ac05d64e33ec7b7fe2a327cd4fe10620d281b96664736f6c63430008170033",
  "linkReferences": {},
  "deployedLinkReferences": {}
}