{
  "_format": "hh-sol-artifact-1",
  "contractName": "EventQuestManagement",
  "sourceName": "contracts/EventQuestManager.sol",
  "abi": [
    {
      "inputs": [
        {
          "internalType": "string",
          "name": "name",
          "type": "string"
        },
        {
          "internalType": "uint256",
          "name": "startDate",
          "type": "uint256"
        },
        {
          "internalType": "uint256",
          "name": "endDate",
          "type": "uint256"
        }
      ],
      "name": "createEvent",
      "outputs": [
        {
          "internalType": "uint256",
          "name": "",
          "type": "uint256"
        }
      ],
      "stateMutability": "nonpayable",
      "type": "function"
    },
    {
      "inputs": [
        {
          "internalType": "string",
          "name": "name",
          "type": "string"
        },
        {
          "internalType": "uint256",
          "name": "defaultInteractions",
          "type": "uint256"
        },
        {
          "internalType": "uint256",
          "name": "defaultStartDate",
          "type": "uint256"
        },
        {
          "internalType": "uint256",
          "name": "defaultEndDate",
          "type": "uint256"
        },
        {
          "internalType": "uint256",
          "name": "defaultRewardAmount",
          "type": "uint256"
        }
      ],
      "name": "createQuest",
      "outputs": [
        {
          "internalType": "uint256",
          "name": "",
          "type": "uint256"
        }
      ],
      "stateMutability": "nonpayable",
      "type": "function"
    },
    {
      "inputs": [
        {
          "internalType": "uint256",
          "name": "eventId",
          "type": "uint256"
        },
        {
          "internalType": "uint256",
          "name": "questId",
          "type": "uint256"
        },
        {
          "internalType": "uint256",
          "name": "minimumInteractions",
          "type": "uint256"
        },
        {
          "internalType": "uint256",
          "name": "startDate",
          "type": "uint256"
        },
        {
          "internalType": "uint256",
          "name": "endDate",
          "type": "uint256"
        },
        {
          "internalType": "uint256",
          "name": "rewardAmount",
          "type": "uint256"
        },
        {
          "internalType": "string",
          "name": "urlHashTags",
          "type": "string"
        }
      ],
      "name": "createQuestEvent",
      "outputs": [
        {
          "internalType": "uint256",
          "name": "",
          "type": "uint256"
        }
      ],
      "stateMutability": "nonpayable",
      "type": "function"
    },
    {
      "inputs": [
        {
          "internalType": "uint256",
          "name": "attendeeId",
          "type": "uint256"
        },
        {
          "internalType": "uint256",
          "name": "rewardPoolId",
          "type": "uint256"
        },
        {
          "internalType": "uint256",
          "name": "amount",
          "type": "uint256"
        },
        {
          "internalType": "string",
          "name": "rewardType",
          "type": "string"
        },
        {
          "internalType": "address",
          "name": "poolWalletAddress",
          "type": "address"
        }
      ],
      "name": "createReward",
      "outputs": [
        {
          "internalType": "uint256",
          "name": "",
          "type": "uint256"
        }
      ],
      "stateMutability": "nonpayable",
      "type": "function"
    },
    {
      "inputs": [
        {
          "internalType": "uint256",
          "name": "transferAmount",
          "type": "uint256"
        },
        {
          "internalType": "uint256",
          "name": "questEventId",
          "type": "uint256"
        },
        {
          "internalType": "uint256",
          "name": "sponsorId",
          "type": "uint256"
        }
      ],
      "name": "createRewardPool",
      "outputs": [
        {
          "internalType": "uint256",
          "name": "",
          "type": "uint256"
        }
      ],
      "stateMutability": "nonpayable",
      "type": "function"
    },
    {
      "inputs": [
        {
          "internalType": "string",
          "name": "companyName",
          "type": "string"
        },
        {
          "internalType": "address",
          "name": "wallet",
          "type": "address"
        },
        {
          "internalType": "uint256",
          "name": "rewardPoolId",
          "type": "uint256"
        }
      ],
      "name": "createSponsor",
      "outputs": [
        {
          "internalType": "uint256",
          "name": "",
          "type": "uint256"
        }
      ],
      "stateMutability": "nonpayable",
      "type": "function"
    },
    {
      "inputs": [
        {
          "internalType": "address",
          "name": "wallet",
          "type": "address"
        },
        {
          "internalType": "string",
          "name": "role",
          "type": "string"
        }
      ],
      "name": "createUser",
      "outputs": [
        {
          "internalType": "uint256",
          "name": "",
          "type": "uint256"
        }
      ],
      "stateMutability": "nonpayable",
      "type": "function"
    },
    {
      "inputs": [
        {
          "internalType": "uint256",
          "name": "questEventId",
          "type": "uint256"
        },
        {
          "internalType": "uint256",
          "name": "userId",
          "type": "uint256"
        },
        {
          "internalType": "uint256",
          "name": "interactions",
          "type": "uint256"
        },
        {
          "internalType": "bool",
          "name": "validated",
          "type": "bool"
        },
        {
          "internalType": "string",
          "name": "url",
          "type": "string"
        },
        {
          "internalType": "bool",
          "name": "completed",
          "type": "bool"
        }
      ],
      "name": "createUserQuestEvent",
      "outputs": [
        {
          "internalType": "uint256",
          "name": "",
          "type": "uint256"
        }
      ],
      "stateMutability": "nonpayable",
      "type": "function"
    },
    {
      "inputs": [
        {
          "internalType": "uint256",
          "name": "eventId",
          "type": "uint256"
        }
      ],
      "name": "deleteEvent",
      "outputs": [],
      "stateMutability": "nonpayable",
      "type": "function"
    },
    {
      "inputs": [
        {
          "internalType": "uint256",
          "name": "questId",
          "type": "uint256"
        }
      ],
      "name": "deleteQuest",
      "outputs": [],
      "stateMutability": "nonpayable",
      "type": "function"
    },
    {
      "inputs": [
        {
          "internalType": "uint256",
          "name": "questEventId",
          "type": "uint256"
        }
      ],
      "name": "deleteQuestEvent",
      "outputs": [],
      "stateMutability": "nonpayable",
      "type": "function"
    },
    {
      "inputs": [
        {
          "internalType": "uint256",
          "name": "rewardId",
          "type": "uint256"
        }
      ],
      "name": "deleteReward",
      "outputs": [],
      "stateMutability": "nonpayable",
      "type": "function"
    },
    {
      "inputs": [
        {
          "internalType": "uint256",
          "name": "rewardPoolId",
          "type": "uint256"
        }
      ],
      "name": "deleteRewardPool",
      "outputs": [],
      "stateMutability": "nonpayable",
      "type": "function"
    },
    {
      "inputs": [
        {
          "internalType": "uint256",
          "name": "sponsorId",
          "type": "uint256"
        }
      ],
      "name": "deleteSponsor",
      "outputs": [],
      "stateMutability": "nonpayable",
      "type": "function"
    },
    {
      "inputs": [
        {
          "internalType": "uint256",
          "name": "userId",
          "type": "uint256"
        }
      ],
      "name": "deleteUser",
      "outputs": [],
      "stateMutability": "nonpayable",
      "type": "function"
    },
    {
      "inputs": [
        {
          "internalType": "uint256",
          "name": "userQuestEventId",
          "type": "uint256"
        }
      ],
      "name": "deleteUserQuestEvent",
      "outputs": [],
      "stateMutability": "nonpayable",
      "type": "function"
    },
    {
      "inputs": [
        {
          "internalType": "uint256",
          "name": "",
          "type": "uint256"
        }
      ],
      "name": "events",
      "outputs": [
        {
          "internalType": "uint256",
          "name": "eventId",
          "type": "uint256"
        },
        {
          "internalType": "string",
          "name": "name",
          "type": "string"
        },
        {
          "internalType": "uint256",
          "name": "startDate",
          "type": "uint256"
        },
        {
          "internalType": "uint256",
          "name": "endDate",
          "type": "uint256"
        }
      ],
      "stateMutability": "view",
      "type": "function"
    },
    {
      "inputs": [
        {
          "internalType": "uint256",
          "name": "",
          "type": "uint256"
        }
      ],
      "name": "questEvents",
      "outputs": [
        {
          "internalType": "uint256",
          "name": "questEventId",
          "type": "uint256"
        },
        {
          "internalType": "uint256",
          "name": "eventId",
          "type": "uint256"
        },
        {
          "internalType": "uint256",
          "name": "questId",
          "type": "uint256"
        },
        {
          "internalType": "uint256",
          "name": "minimumInteractions",
          "type": "uint256"
        },
        {
          "internalType": "uint256",
          "name": "startDate",
          "type": "uint256"
        },
        {
          "internalType": "uint256",
          "name": "endDate",
          "type": "uint256"
        },
        {
          "internalType": "uint256",
          "name": "rewardAmount",
          "type": "uint256"
        },
        {
          "internalType": "string",
          "name": "urlHashTags",
          "type": "string"
        }
      ],
      "stateMutability": "view",
      "type": "function"
    },
    {
      "inputs": [
        {
          "internalType": "uint256",
          "name": "",
          "type": "uint256"
        }
      ],
      "name": "quests",
      "outputs": [
        {
          "internalType": "uint256",
          "name": "questId",
          "type": "uint256"
        },
        {
          "internalType": "string",
          "name": "name",
          "type": "string"
        },
        {
          "internalType": "uint256",
          "name": "defaultInteractions",
          "type": "uint256"
        },
        {
          "internalType": "uint256",
          "name": "defaultStartDate",
          "type": "uint256"
        },
        {
          "internalType": "uint256",
          "name": "defaultEndDate",
          "type": "uint256"
        },
        {
          "internalType": "uint256",
          "name": "defaultRewardAmount",
          "type": "uint256"
        }
      ],
      "stateMutability": "view",
      "type": "function"
    },
    {
      "inputs": [
        {
          "internalType": "uint256",
          "name": "eventId",
          "type": "uint256"
        }
      ],
      "name": "readEvent",
      "outputs": [
        {
          "components": [
            {
              "internalType": "uint256",
              "name": "eventId",
              "type": "uint256"
            },
            {
              "internalType": "string",
              "name": "name",
              "type": "string"
            },
            {
              "internalType": "uint256",
              "name": "startDate",
              "type": "uint256"
            },
            {
              "internalType": "uint256",
              "name": "endDate",
              "type": "uint256"
            }
          ],
          "internalType": "struct EventQuestManagement.Events",
          "name": "",
          "type": "tuple"
        }
      ],
      "stateMutability": "view",
      "type": "function"
    },
    {
      "inputs": [
        {
          "internalType": "uint256",
          "name": "questId",
          "type": "uint256"
        }
      ],
      "name": "readQuest",
      "outputs": [
        {
          "components": [
            {
              "internalType": "uint256",
              "name": "questId",
              "type": "uint256"
            },
            {
              "internalType": "string",
              "name": "name",
              "type": "string"
            },
            {
              "internalType": "uint256",
              "name": "defaultInteractions",
              "type": "uint256"
            },
            {
              "internalType": "uint256",
              "name": "defaultStartDate",
              "type": "uint256"
            },
            {
              "internalType": "uint256",
              "name": "defaultEndDate",
              "type": "uint256"
            },
            {
              "internalType": "uint256",
              "name": "defaultRewardAmount",
              "type": "uint256"
            }
          ],
          "internalType": "struct EventQuestManagement.Quest",
          "name": "",
          "type": "tuple"
        }
      ],
      "stateMutability": "view",
      "type": "function"
    },
    {
      "inputs": [
        {
          "internalType": "uint256",
          "name": "questEventId",
          "type": "uint256"
        }
      ],
      "name": "readQuestEvent",
      "outputs": [
        {
          "components": [
            {
              "internalType": "uint256",
              "name": "questEventId",
              "type": "uint256"
            },
            {
              "internalType": "uint256",
              "name": "eventId",
              "type": "uint256"
            },
            {
              "internalType": "uint256",
              "name": "questId",
              "type": "uint256"
            },
            {
              "internalType": "uint256",
              "name": "minimumInteractions",
              "type": "uint256"
            },
            {
              "internalType": "uint256",
              "name": "startDate",
              "type": "uint256"
            },
            {
              "internalType": "uint256",
              "name": "endDate",
              "type": "uint256"
            },
            {
              "internalType": "uint256",
              "name": "rewardAmount",
              "type": "uint256"
            },
            {
              "internalType": "string",
              "name": "urlHashTags",
              "type": "string"
            }
          ],
          "internalType": "struct EventQuestManagement.QuestEvent",
          "name": "",
          "type": "tuple"
        }
      ],
      "stateMutability": "view",
      "type": "function"
    },
    {
      "inputs": [
        {
          "internalType": "uint256",
          "name": "rewardId",
          "type": "uint256"
        }
      ],
      "name": "readReward",
      "outputs": [
        {
          "components": [
            {
              "internalType": "uint256",
              "name": "rewardId",
              "type": "uint256"
            },
            {
              "internalType": "uint256",
              "name": "attendeeId",
              "type": "uint256"
            },
            {
              "internalType": "uint256",
              "name": "rewardPoolId",
              "type": "uint256"
            },
            {
              "internalType": "uint256",
              "name": "amount",
              "type": "uint256"
            },
            {
              "internalType": "string",
              "name": "rewardType",
              "type": "string"
            },
            {
              "internalType": "address",
              "name": "poolWalletAddress",
              "type": "address"
            }
          ],
          "internalType": "struct EventQuestManagement.Reward",
          "name": "",
          "type": "tuple"
        }
      ],
      "stateMutability": "view",
      "type": "function"
    },
    {
      "inputs": [
        {
          "internalType": "uint256",
          "name": "rewardPoolId",
          "type": "uint256"
        }
      ],
      "name": "readRewardPool",
      "outputs": [
        {
          "components": [
            {
              "internalType": "uint256",
              "name": "rewardPoolId",
              "type": "uint256"
            },
            {
              "internalType": "uint256",
              "name": "transferAmount",
              "type": "uint256"
            },
            {
              "internalType": "uint256",
              "name": "questEventId",
              "type": "uint256"
            },
            {
              "internalType": "uint256",
              "name": "sponsorId",
              "type": "uint256"
            }
          ],
          "internalType": "struct EventQuestManagement.RewardPool",
          "name": "",
          "type": "tuple"
        }
      ],
      "stateMutability": "view",
      "type": "function"
    },
    {
      "inputs": [
        {
          "internalType": "uint256",
          "name": "sponsorId",
          "type": "uint256"
        }
      ],
      "name": "readSponsor",
      "outputs": [
        {
          "components": [
            {
              "internalType": "uint256",
              "name": "sponsorId",
              "type": "uint256"
            },
            {
              "internalType": "string",
              "name": "companyName",
              "type": "string"
            },
            {
              "internalType": "address",
              "name": "wallet",
              "type": "address"
            },
            {
              "internalType": "uint256",
              "name": "rewardPoolId",
              "type": "uint256"
            }
          ],
          "internalType": "struct EventQuestManagement.Sponsor",
          "name": "",
          "type": "tuple"
        }
      ],
      "stateMutability": "view",
      "type": "function"
    },
    {
      "inputs": [
        {
          "internalType": "uint256",
          "name": "userId",
          "type": "uint256"
        }
      ],
      "name": "readUser",
      "outputs": [
        {
          "components": [
            {
              "internalType": "uint256",
              "name": "userId",
              "type": "uint256"
            },
            {
              "internalType": "address",
              "name": "wallet",
              "type": "address"
            },
            {
              "internalType": "string",
              "name": "role",
              "type": "string"
            }
          ],
          "internalType": "struct EventQuestManagement.User",
          "name": "",
          "type": "tuple"
        }
      ],
      "stateMutability": "view",
      "type": "function"
    },
    {
      "inputs": [
        {
          "internalType": "uint256",
          "name": "userQuestEventId",
          "type": "uint256"
        }
      ],
      "name": "readUserQuestEvent",
      "outputs": [
        {
          "components": [
            {
              "internalType": "uint256",
              "name": "userQuestEventId",
              "type": "uint256"
            },
            {
              "internalType": "uint256",
              "name": "questEventId",
              "type": "uint256"
            },
            {
              "internalType": "uint256",
              "name": "userId",
              "type": "uint256"
            },
            {
              "internalType": "uint256",
              "name": "interactions",
              "type": "uint256"
            },
            {
              "internalType": "bool",
              "name": "validated",
              "type": "bool"
            },
            {
              "internalType": "string",
              "name": "url",
              "type": "string"
            },
            {
              "internalType": "bool",
              "name": "completed",
              "type": "bool"
            }
          ],
          "internalType": "struct EventQuestManagement.UserQuestEvent",
          "name": "",
          "type": "tuple"
        }
      ],
      "stateMutability": "view",
      "type": "function"
    },
    {
      "inputs": [
        {
          "internalType": "uint256",
          "name": "",
          "type": "uint256"
        }
      ],
      "name": "rewardPools",
      "outputs": [
        {
          "internalType": "uint256",
          "name": "rewardPoolId",
          "type": "uint256"
        },
        {
          "internalType": "uint256",
          "name": "transferAmount",
          "type": "uint256"
        },
        {
          "internalType": "uint256",
          "name": "questEventId",
          "type": "uint256"
        },
        {
          "internalType": "uint256",
          "name": "sponsorId",
          "type": "uint256"
        }
      ],
      "stateMutability": "view",
      "type": "function"
    },
    {
      "inputs": [
        {
          "internalType": "uint256",
          "name": "",
          "type": "uint256"
        }
      ],
      "name": "rewards",
      "outputs": [
        {
          "internalType": "uint256",
          "name": "rewardId",
          "type": "uint256"
        },
        {
          "internalType": "uint256",
          "name": "attendeeId",
          "type": "uint256"
        },
        {
          "internalType": "uint256",
          "name": "rewardPoolId",
          "type": "uint256"
        },
        {
          "internalType": "uint256",
          "name": "amount",
          "type": "uint256"
        },
        {
          "internalType": "string",
          "name": "rewardType",
          "type": "string"
        },
        {
          "internalType": "address",
          "name": "poolWalletAddress",
          "type": "address"
        }
      ],
      "stateMutability": "view",
      "type": "function"
    },
    {
      "inputs": [
        {
          "internalType": "uint256",
          "name": "",
          "type": "uint256"
        }
      ],
      "name": "sponsors",
      "outputs": [
        {
          "internalType": "uint256",
          "name": "sponsorId",
          "type": "uint256"
        },
        {
          "internalType": "string",
          "name": "companyName",
          "type": "string"
        },
        {
          "internalType": "address",
          "name": "wallet",
          "type": "address"
        },
        {
          "internalType": "uint256",
          "name": "rewardPoolId",
          "type": "uint256"
        }
      ],
      "stateMutability": "view",
      "type": "function"
    },
    {
      "inputs": [
        {
          "internalType": "uint256",
          "name": "eventId",
          "type": "uint256"
        },
        {
          "internalType": "string",
          "name": "name",
          "type": "string"
        },
        {
          "internalType": "uint256",
          "name": "startDate",
          "type": "uint256"
        },
        {
          "internalType": "uint256",
          "name": "endDate",
          "type": "uint256"
        }
      ],
      "name": "updateEvent",
      "outputs": [],
      "stateMutability": "nonpayable",
      "type": "function"
    },
    {
      "inputs": [
        {
          "internalType": "uint256",
          "name": "questId",
          "type": "uint256"
        },
        {
          "internalType": "string",
          "name": "name",
          "type": "string"
        },
        {
          "internalType": "uint256",
          "name": "defaultInteractions",
          "type": "uint256"
        },
        {
          "internalType": "uint256",
          "name": "defaultStartDate",
          "type": "uint256"
        },
        {
          "internalType": "uint256",
          "name": "defaultEndDate",
          "type": "uint256"
        },
        {
          "internalType": "uint256",
          "name": "defaultRewardAmount",
          "type": "uint256"
        }
      ],
      "name": "updateQuest",
      "outputs": [],
      "stateMutability": "nonpayable",
      "type": "function"
    },
    {
      "inputs": [
        {
          "internalType": "uint256",
          "name": "questEventId",
          "type": "uint256"
        },
        {
          "internalType": "uint256",
          "name": "eventId",
          "type": "uint256"
        },
        {
          "internalType": "uint256",
          "name": "questId",
          "type": "uint256"
        },
        {
          "internalType": "uint256",
          "name": "minimumInteractions",
          "type": "uint256"
        },
        {
          "internalType": "uint256",
          "name": "startDate",
          "type": "uint256"
        },
        {
          "internalType": "uint256",
          "name": "endDate",
          "type": "uint256"
        },
        {
          "internalType": "uint256",
          "name": "rewardAmount",
          "type": "uint256"
        },
        {
          "internalType": "string",
          "name": "urlHashTags",
          "type": "string"
        }
      ],
      "name": "updateQuestEvent",
      "outputs": [],
      "stateMutability": "nonpayable",
      "type": "function"
    },
    {
      "inputs": [
        {
          "internalType": "uint256",
          "name": "rewardId",
          "type": "uint256"
        },
        {
          "internalType": "uint256",
          "name": "attendeeId",
          "type": "uint256"
        },
        {
          "internalType": "uint256",
          "name": "rewardPoolId",
          "type": "uint256"
        },
        {
          "internalType": "uint256",
          "name": "amount",
          "type": "uint256"
        },
        {
          "internalType": "string",
          "name": "rewardType",
          "type": "string"
        },
        {
          "internalType": "address",
          "name": "poolWalletAddress",
          "type": "address"
        }
      ],
      "name": "updateReward",
      "outputs": [],
      "stateMutability": "nonpayable",
      "type": "function"
    },
    {
      "inputs": [
        {
          "internalType": "uint256",
          "name": "rewardPoolId",
          "type": "uint256"
        },
        {
          "internalType": "uint256",
          "name": "transferAmount",
          "type": "uint256"
        },
        {
          "internalType": "uint256",
          "name": "questEventId",
          "type": "uint256"
        },
        {
          "internalType": "uint256",
          "name": "sponsorId",
          "type": "uint256"
        }
      ],
      "name": "updateRewardPool",
      "outputs": [],
      "stateMutability": "nonpayable",
      "type": "function"
    },
    {
      "inputs": [
        {
          "internalType": "uint256",
          "name": "sponsorId",
          "type": "uint256"
        },
        {
          "internalType": "string",
          "name": "companyName",
          "type": "string"
        },
        {
          "internalType": "address",
          "name": "wallet",
          "type": "address"
        },
        {
          "internalType": "uint256",
          "name": "rewardPoolId",
          "type": "uint256"
        }
      ],
      "name": "updateSponsor",
      "outputs": [],
      "stateMutability": "nonpayable",
      "type": "function"
    },
    {
      "inputs": [
        {
          "internalType": "uint256",
          "name": "userId",
          "type": "uint256"
        },
        {
          "internalType": "address",
          "name": "wallet",
          "type": "address"
        },
        {
          "internalType": "string",
          "name": "role",
          "type": "string"
        }
      ],
      "name": "updateUser",
      "outputs": [],
      "stateMutability": "nonpayable",
      "type": "function"
    },
    {
      "inputs": [
        {
          "internalType": "uint256",
          "name": "userQuestEventId",
          "type": "uint256"
        },
        {
          "internalType": "uint256",
          "name": "questEventId",
          "type": "uint256"
        },
        {
          "internalType": "uint256",
          "name": "userId",
          "type": "uint256"
        },
        {
          "internalType": "uint256",
          "name": "interactions",
          "type": "uint256"
        },
        {
          "internalType": "bool",
          "name": "validated",
          "type": "bool"
        },
        {
          "internalType": "string",
          "name": "url",
          "type": "string"
        },
        {
          "internalType": "bool",
          "name": "completed",
          "type": "bool"
        }
      ],
      "name": "updateUserQuestEvent",
      "outputs": [],
      "stateMutability": "nonpayable",
      "type": "function"
    },
    {
      "inputs": [
        {
          "internalType": "uint256",
          "name": "",
          "type": "uint256"
        }
      ],
      "name": "userQuestEvents",
      "outputs": [
        {
          "internalType": "uint256",
          "name": "userQuestEventId",
          "type": "uint256"
        },
        {
          "internalType": "uint256",
          "name": "questEventId",
          "type": "uint256"
        },
        {
          "internalType": "uint256",
          "name": "userId",
          "type": "uint256"
        },
        {
          "internalType": "uint256",
          "name": "interactions",
          "type": "uint256"
        },
        {
          "internalType": "bool",
          "name": "validated",
          "type": "bool"
        },
        {
          "internalType": "string",
          "name": "url",
          "type": "string"
        },
        {
          "internalType": "bool",
          "name": "completed",
          "type": "bool"
        }
      ],
      "stateMutability": "view",
      "type": "function"
    },
    {
      "inputs": [
        {
          "internalType": "uint256",
          "name": "",
          "type": "uint256"
        }
      ],
      "name": "users",
      "outputs": [
        {
          "internalType": "uint256",
          "name": "userId",
          "type": "uint256"
        },
        {
          "internalType": "address",
          "name": "wallet",
          "type": "address"
        },
        {
          "internalType": "string",
          "name": "role",
          "type": "string"
        }
      ],
      "stateMutability": "view",
      "type": "function"
    }
  ],
  "bytecode": "0x608060405234801561001057600080fd5b506147dc806100206000396000f3fe608060405234801561001057600080fd5b50600436106102485760003560e01c80634da6a0191161013b578063a36c82e4116100b8578063e1ba30a91161007c578063e1ba30a9146107e2578063e7cf1ab714610812578063f301af421461082e578063f8749a5814610863578063f9bcd5451461087f57610248565b8063a36c82e414610729578063a77d563914610745578063cb1d2d4614610761578063d3f207461461077d578063e085f980146107ad57610248565b806381982ab7116100ff57806381982ab71461063657806389f801701461066657806393066b4c1461069657806397c4e95c146106c95780639e9580f6146106f957610248565b80634da6a019146105965780634e1b7c33146105b257806361e7bfe7146105ce5780636c92fe3c146105ea5780637413a5301461060657610248565b806324eca0d8116101c9578063365b98b21161018d578063365b98b2146104dd57806338bfae691461050f57806338f148451461052b5780634167f53a1461054757806346abf3911461056357610248565b806324eca0d8146103e75780632588d069146104175780632f361e3b1461044d578063334d03551461047d578063341684a0146104ad57610248565b806311fa78631161021057806311fa786314610304578063168edae314610334578063177cae681461035057806318d8b97a146103805780631b719189146103b057610248565b80630180900a1461024d5780630b791430146102695780630d70e5d01461029c578063103d36b8146102cc578063105b7e72146102e8575b600080fd5b61026760048036038101906102629190612e90565b6108af565b005b610283600480360381019061027e9190612f4e565b61097c565b6040516102939493929190613009565b60405180910390f35b6102b660048036038101906102b19190612f4e565b610a34565b6040516102c3919061313f565b60405180910390f35b6102e660048036038101906102e19190612f4e565b610bac565b005b61030260048036038101906102fd9190612f4e565b610c56565b005b61031e60048036038101906103199190612f4e565b610ce8565b60405161032b91906131c4565b60405180910390f35b61034e60048036038101906103499190612f4e565b610e6a565b005b61036a600480360381019061036591906131e6565b610f34565b604051610377919061328f565b60405180910390f35b61039a60048036038101906103959190612f4e565b61102c565b6040516103a79190613333565b60405180910390f35b6103ca60048036038101906103c59190612f4e565b611176565b6040516103de989796959493929190613355565b60405180910390f35b61040160048036038101906103fc9190613406565b611246565b60405161040e919061328f565b60405180910390f35b610431600480360381019061042c9190612f4e565b61132e565b6040516104449796959493929190613484565b60405180910390f35b61046760048036038101906104629190612f4e565b611412565b60405161047491906135a5565b60405180910390f35b610497600480360381019061049291906135c7565b611588565b6040516104a4919061328f565b60405180910390f35b6104c760048036038101906104c29190612f4e565b611692565b6040516104d491906136e7565b60405180910390f35b6104f760048036038101906104f29190612f4e565b611828565b60405161050693929190613718565b60405180910390f35b61052960048036038101906105249190613756565b6118fa565b005b61054560048036038101906105409190612f4e565b61197a565b005b610561600480360381019061055c91906137bd565b611a2b565b005b61057d60048036038101906105789190612f4e565b611ae4565b60405161058d949392919061382c565b60405180910390f35b6105b060048036038101906105ab9190613871565b611b14565b005b6105cc60048036038101906105c791906138f4565b611bd7565b005b6105e860048036038101906105e39190612f4e565b611c88565b005b61060460048036038101906105ff9190612f4e565b611d42565b005b610620600480360381019061061b91906139c6565b611dfb565b60405161062d919061328f565b60405180910390f35b610650600480360381019061064b9190612f4e565b611e84565b60405161065d9190613ac9565b60405180910390f35b610680600480360381019061067b9190612f4e565b611fe3565b60405161068d9190613b40565b60405180910390f35b6106b060048036038101906106ab9190612f4e565b612091565b6040516106c09493929190613b5b565b60405180910390f35b6106e360048036038101906106de9190613ba7565b612169565b6040516106f0919061328f565b60405180910390f35b610713600480360381019061070e9190613c65565b612243565b604051610720919061328f565b60405180910390f35b610743600480360381019061073e9190613cd4565b6122d7565b005b61075f600480360381019061075a9190613d7d565b612374565b005b61077b60048036038101906107769190613e00565b6123fc565b005b61079760048036038101906107929190613ea9565b6124d3565b6040516107a4919061328f565b60405180910390f35b6107c760048036038101906107c29190612f4e565b61258a565b6040516107d996959493929190613f40565b60405180910390f35b6107fc60048036038101906107f79190612f4e565b61264e565b604051610809919061400b565b60405180910390f35b61082c60048036038101906108279190612f4e565b612782565b005b61084860048036038101906108439190612f4e565b61284b565b60405161085a9695949392919061402d565b60405180910390f35b61087d60048036038101906108789190612f4e565b61292f565b005b61089960048036038101906108949190614095565b6129c7565b6040516108a6919061328f565b60405180910390f35b6000600560008981526020019081526020016000209050600081600001540361090d576040517f08c379a00000000000000000000000000000000000000000000000000000000081526004016109049061413d565b60405180910390fd5b868160010181905550858160020181905550848160030181905550838160040160006101000a81548160ff021916908315150217905550828160050190816109559190614369565b50818160060160006101000a81548160ff0219169083151502179055505050505050505050565b60006020528060005260406000206000915090508060000154908060010180546109a59061418c565b80601f01602080910402602001604051908101604052809291908181526020018280546109d19061418c565b8015610a1e5780601f106109f357610100808354040283529160200191610a1e565b820191906000526020600020905b815481529060010190602001808311610a0157829003601f168201915b5050505050908060020154908060030154905084565b610a3c612a9e565b6000600260008481526020019081526020016000206000015403610a95576040517f08c379a0000000000000000000000000000000000000000000000000000000008152600401610a8c90614487565b60405180910390fd5b60026000838152602001908152602001600020604051806060016040529081600082015481526020016001820160009054906101000a900473ffffffffffffffffffffffffffffffffffffffff1673ffffffffffffffffffffffffffffffffffffffff1673ffffffffffffffffffffffffffffffffffffffff168152602001600282018054610b239061418c565b80601f0160208091040260200160405190810160405280929190818152602001828054610b4f9061418c565b8015610b9c5780601f10610b7157610100808354040283529160200191610b9c565b820191906000526020600020905b815481529060010190602001808311610b7f57829003601f168201915b5050505050815250509050919050565b6000600160008381526020019081526020016000206000015403610c05576040517f08c379a0000000000000000000000000000000000000000000000000000000008152600401610bfc906144f3565b60405180910390fd5b60016000828152602001908152602001600020600080820160009055600182016000610c319190612ad5565b6002820160009055600382016000905560048201600090556005820160009055505050565b6000600760008381526020019081526020016000206000015403610caf576040517f08c379a0000000000000000000000000000000000000000000000000000000008152600401610ca69061455f565b60405180910390fd5b60076000828152602001908152602001600020600080820160009055600182016000905560028201600090556003820160009055505050565b610cf0612b15565b6000600360008481526020019081526020016000206000015403610d49576040517f08c379a0000000000000000000000000000000000000000000000000000000008152600401610d40906145cb565b60405180910390fd5b6003600083815260200190815260200160002060405180608001604052908160008201548152602001600182018054610d819061418c565b80601f0160208091040260200160405190810160405280929190818152602001828054610dad9061418c565b8015610dfa5780601f10610dcf57610100808354040283529160200191610dfa565b820191906000526020600020905b815481529060010190602001808311610ddd57829003601f168201915b505050505081526020016002820160009054906101000a900473ffffffffffffffffffffffffffffffffffffffff1673ffffffffffffffffffffffffffffffffffffffff1673ffffffffffffffffffffffffffffffffffffffff1681526020016003820154815250509050919050565b6000600560008381526020019081526020016000206000015403610ec3576040517f08c379a0000000000000000000000000000000000000000000000000000000008152600401610eba9061413d565b60405180910390fd5b600560008281526020019081526020016000206000808201600090556001820160009055600282016000905560038201600090556004820160006101000a81549060ff0219169055600582016000610f1b9190612ad5565b6006820160006101000a81549060ff0219169055505050565b6000600d6000815480929190610f499061461a565b91905055506040518060e00160405280600d548152602001888152602001878152602001868152602001851515815260200184815260200183151581525060056000600d5481526020019081526020016000206000820151816000015560208201518160010155604082015181600201556060820151816003015560808201518160040160006101000a81548160ff02191690831515021790555060a0820151816005019081610ff99190614369565b5060c08201518160060160006101000a81548160ff021916908315150217905550905050600d5490509695505050505050565b611034612b53565b600060016000848152602001908152602001600020600001540361108d576040517f08c379a0000000000000000000000000000000000000000000000000000000008152600401611084906144f3565b60405180910390fd5b600160008381526020019081526020016000206040518060c0016040529081600082015481526020016001820180546110c59061418c565b80601f01602080910402602001604051908101604052809291908181526020018280546110f19061418c565b801561113e5780601f106111135761010080835404028352916020019161113e565b820191906000526020600020905b81548152906001019060200180831161112157829003601f168201915b505050505081526020016002820154815260200160038201548152602001600482015481526020016005820154815250509050919050565b60046020528060005260406000206000915090508060000154908060010154908060020154908060030154908060040154908060050154908060060154908060070180546111c39061418c565b80601f01602080910402602001604051908101604052809291908181526020018280546111ef9061418c565b801561123c5780601f106112115761010080835404028352916020019161123c565b820191906000526020600020905b81548152906001019060200180831161121f57829003601f168201915b5050505050905088565b6000600b600081548092919061125b9061461a565b91905055506040518060800160405280600b5481526020018581526020018473ffffffffffffffffffffffffffffffffffffffff1681526020018381525060036000600b5481526020019081526020016000206000820151816000015560208201518160010190816112cd9190614369565b5060408201518160020160006101000a81548173ffffffffffffffffffffffffffffffffffffffff021916908373ffffffffffffffffffffffffffffffffffffffff16021790555060608201518160030155905050600b5490509392505050565b60056020528060005260406000206000915090508060000154908060010154908060020154908060030154908060040160009054906101000a900460ff169080600501805461137c9061418c565b80601f01602080910402602001604051908101604052809291908181526020018280546113a89061418c565b80156113f55780601f106113ca576101008083540402835291602001916113f5565b820191906000526020600020905b8154815290600101906020018083116113d857829003601f168201915b5050505050908060060160009054906101000a900460ff16905087565b61141a612b89565b6000600560008481526020019081526020016000206000015403611473576040517f08c379a000000000000000000000000000000000000000000000000000000000815260040161146a9061413d565b60405180910390fd5b600560008381526020019081526020016000206040518060e0016040529081600082015481526020016001820154815260200160028201548152602001600382015481526020016004820160009054906101000a900460ff161515151581526020016005820180546114e49061418c565b80601f01602080910402602001604051908101604052809291908181526020018280546115109061418c565b801561155d5780601f106115325761010080835404028352916020019161155d565b820191906000526020600020905b81548152906001019060200180831161154057829003601f168201915b505050505081526020016006820160009054906101000a900460ff1615151515815250509050919050565b6000600e600081548092919061159d9061461a565b91905055506040518060c00160405280600e5481526020018781526020018681526020018581526020018481526020018373ffffffffffffffffffffffffffffffffffffffff1681525060066000600e5481526020019081526020016000206000820151816000015560208201518160010155604082015181600201556060820151816003015560808201518160040190816116399190614369565b5060a08201518160050160006101000a81548173ffffffffffffffffffffffffffffffffffffffff021916908373ffffffffffffffffffffffffffffffffffffffff160217905550905050600e54905095945050505050565b61169a612bca565b60006006600084815260200190815260200160002060000154036116f3576040517f08c379a00000000000000000000000000000000000000000000000000000000081526004016116ea906146ae565b60405180910390fd5b600660008381526020019081526020016000206040518060c0016040529081600082015481526020016001820154815260200160028201548152602001600382015481526020016004820180546117499061418c565b80601f01602080910402602001604051908101604052809291908181526020018280546117759061418c565b80156117c25780601f10611797576101008083540402835291602001916117c2565b820191906000526020600020905b8154815290600101906020018083116117a557829003601f168201915b505050505081526020016005820160009054906101000a900473ffffffffffffffffffffffffffffffffffffffff1673ffffffffffffffffffffffffffffffffffffffff1673ffffffffffffffffffffffffffffffffffffffff16815250509050919050565b60026020528060005260406000206000915090508060000154908060010160009054906101000a900473ffffffffffffffffffffffffffffffffffffffff16908060020180546118779061418c565b80601f01602080910402602001604051908101604052809291908181526020018280546118a39061418c565b80156118f05780601f106118c5576101008083540402835291602001916118f0565b820191906000526020600020905b8154815290600101906020018083116118d357829003601f168201915b5050505050905083565b60006007600086815260200190815260200160002090506000816000015403611958576040517f08c379a000000000000000000000000000000000000000000000000000000000815260040161194f9061455f565b60405180910390fd5b8381600101819055508281600201819055508181600301819055505050505050565b60006002600083815260200190815260200160002060000154036119d3576040517f08c379a00000000000000000000000000000000000000000000000000000000081526004016119ca90614487565b60405180910390fd5b600260008281526020019081526020016000206000808201600090556001820160006101000a81549073ffffffffffffffffffffffffffffffffffffffff0219169055600282016000611a269190612ad5565b505050565b60006002600085815260200190815260200160002090506000816000015403611a89576040517f08c379a0000000000000000000000000000000000000000000000000000000008152600401611a8090614487565b60405180910390fd5b828160010160006101000a81548173ffffffffffffffffffffffffffffffffffffffff021916908373ffffffffffffffffffffffffffffffffffffffff16021790555081816002019081611add9190614369565b5050505050565b60076020528060005260406000206000915090508060000154908060010154908060020154908060030154905084565b60006003600086815260200190815260200160002090506000816000015403611b72576040517f08c379a0000000000000000000000000000000000000000000000000000000008152600401611b69906145cb565b60405180910390fd5b83816001019081611b839190614369565b50828160020160006101000a81548173ffffffffffffffffffffffffffffffffffffffff021916908373ffffffffffffffffffffffffffffffffffffffff1602179055508181600301819055505050505050565b6000600460008a815260200190815260200160002090506000816000015403611c35576040517f08c379a0000000000000000000000000000000000000000000000000000000008152600401611c2c9061471a565b60405180910390fd5b87816001018190555086816002018190555085816003018190555084816004018190555083816005018190555082816006018190555081816007019081611c7c9190614369565b50505050505050505050565b6000600460008381526020019081526020016000206000015403611ce1576040517f08c379a0000000000000000000000000000000000000000000000000000000008152600401611cd89061471a565b60405180910390fd5b60046000828152602001908152602001600020600080820160009055600182016000905560028201600090556003820160009055600482016000905560058201600090556006820160009055600782016000611d3d9190612ad5565b505050565b6000600360008381526020019081526020016000206000015403611d9b576040517f08c379a0000000000000000000000000000000000000000000000000000000008152600401611d92906145cb565b60405180910390fd5b60036000828152602001908152602001600020600080820160009055600182016000611dc79190612ad5565b6002820160006101000a81549073ffffffffffffffffffffffffffffffffffffffff02191690556003820160009055505050565b6000600f6000815480929190611e109061461a565b91905055506040518060800160405280600f5481526020018581526020018481526020018381525060076000600f54815260200190815260200160002060008201518160000155602082015181600101556040820151816002015560608201518160030155905050600f5490509392505050565b611e8c612c16565b6000600460008481526020019081526020016000206000015403611ee5576040517f08c379a0000000000000000000000000000000000000000000000000000000008152600401611edc9061471a565b60405180910390fd5b600460008381526020019081526020016000206040518061010001604052908160008201548152602001600182015481526020016002820154815260200160038201548152602001600482015481526020016005820154815260200160068201548152602001600782018054611f5a9061418c565b80601f0160208091040260200160405190810160405280929190818152602001828054611f869061418c565b8015611fd35780601f10611fa857610100808354040283529160200191611fd3565b820191906000526020600020905b815481529060010190602001808311611fb657829003601f168201915b5050505050815250509050919050565b611feb612c5b565b6000600760008481526020019081526020016000206000015403612044576040517f08c379a000000000000000000000000000000000000000000000000000000000815260040161203b9061455f565b60405180910390fd5b600760008381526020019081526020016000206040518060800160405290816000820154815260200160018201548152602001600282015481526020016003820154815250509050919050565b60036020528060005260406000206000915090508060000154908060010180546120ba9061418c565b80601f01602080910402602001604051908101604052809291908181526020018280546120e69061418c565b80156121335780601f1061210857610100808354040283529160200191612133565b820191906000526020600020905b81548152906001019060200180831161211657829003601f168201915b5050505050908060020160009054906101000a900473ffffffffffffffffffffffffffffffffffffffff16908060030154905084565b6000600c600081548092919061217e9061461a565b9190505550604051806101000160405280600c5481526020018981526020018881526020018781526020018681526020018581526020018481526020018381525060046000600c548152602001908152602001600020600082015181600001556020820151816001015560408201518160020155606082015181600301556080820151816004015560a0820151816005015560c0820151816006015560e082015181600701908161222f9190614369565b50905050600c549050979650505050505050565b6000600860008154809291906122589061461a565b9190505550604051806080016040528060085481526020018581526020018481526020018381525060008060085481526020019081526020016000206000820151816000015560208201518160010190816122b39190614369565b50604082015181600201556060820151816003015590505060085490509392505050565b60006001600088815260200190815260200160002090506000816000015403612335576040517f08c379a000000000000000000000000000000000000000000000000000000000815260040161232c906144f3565b60405180910390fd5b858160010190816123469190614369565b5084816002018190555083816003018190555082816004018190555081816005018190555050505050505050565b6000806000868152602001908152602001600020905060008160000154036123d1576040517f08c379a00000000000000000000000000000000000000000000000000000000081526004016123c890614786565b60405180910390fd5b838160010190816123e29190614369565b508281600201819055508181600301819055505050505050565b6000600660008881526020019081526020016000209050600081600001540361245a576040517f08c379a0000000000000000000000000000000000000000000000000000000008152600401612451906146ae565b60405180910390fd5b858160010181905550848160020181905550838160030181905550828160040190816124869190614369565b50818160050160006101000a81548173ffffffffffffffffffffffffffffffffffffffff021916908373ffffffffffffffffffffffffffffffffffffffff16021790555050505050505050565b6000600960008154809291906124e89061461a565b91905055506040518060c001604052806009548152602001878152602001868152602001858152602001848152602001838152506001600060095481526020019081526020016000206000820151816000015560208201518160010190816125509190614369565b5060408201518160020155606082015181600301556080820151816004015560a08201518160050155905050600954905095945050505050565b60016020528060005260406000206000915090508060000154908060010180546125b39061418c565b80601f01602080910402602001604051908101604052809291908181526020018280546125df9061418c565b801561262c5780601f106126015761010080835404028352916020019161262c565b820191906000526020600020905b81548152906001019060200180831161260f57829003601f168201915b5050505050908060020154908060030154908060040154908060050154905086565b612656612c83565b600080600084815260200190815260200160002060000154036126ae576040517f08c379a00000000000000000000000000000000000000000000000000000000081526004016126a590614786565b60405180910390fd5b600080838152602001908152602001600020604051806080016040529081600082015481526020016001820180546126e59061418c565b80601f01602080910402602001604051908101604052809291908181526020018280546127119061418c565b801561275e5780601f106127335761010080835404028352916020019161275e565b820191906000526020600020905b81548152906001019060200180831161274157829003601f168201915b50505050508152602001600282015481526020016003820154815250509050919050565b60006006600083815260200190815260200160002060000154036127db576040517f08c379a00000000000000000000000000000000000000000000000000000000081526004016127d2906146ae565b60405180910390fd5b6006600082815260200190815260200160002060008082016000905560018201600090556002820160009055600382016000905560048201600061281f9190612ad5565b6005820160006101000a81549073ffffffffffffffffffffffffffffffffffffffff0219169055505050565b60066020528060005260406000206000915090508060000154908060010154908060020154908060030154908060040180546128869061418c565b80601f01602080910402602001604051908101604052809291908181526020018280546128b29061418c565b80156128ff5780601f106128d4576101008083540402835291602001916128ff565b820191906000526020600020905b8154815290600101906020018083116128e257829003601f168201915b5050505050908060050160009054906101000a900473ffffffffffffffffffffffffffffffffffffffff16905086565b60008060008381526020019081526020016000206000015403612987576040517f08c379a000000000000000000000000000000000000000000000000000000000815260040161297e90614786565b60405180910390fd5b6000808281526020019081526020016000206000808201600090556001820160006129b29190612ad5565b60028201600090556003820160009055505050565b6000600a60008154809291906129dc9061461a565b91905055506040518060600160405280600a5481526020018473ffffffffffffffffffffffffffffffffffffffff1681526020018381525060026000600a5481526020019081526020016000206000820151816000015560208201518160010160006101000a81548173ffffffffffffffffffffffffffffffffffffffff021916908373ffffffffffffffffffffffffffffffffffffffff1602179055506040820151816002019081612a8f9190614369565b50905050600a54905092915050565b604051806060016040528060008152602001600073ffffffffffffffffffffffffffffffffffffffff168152602001606081525090565b508054612ae19061418c565b6000825580601f10612af35750612b12565b601f016020900490600052602060002090810190612b119190612cab565b5b50565b60405180608001604052806000815260200160608152602001600073ffffffffffffffffffffffffffffffffffffffff168152602001600081525090565b6040518060c001604052806000815260200160608152602001600081526020016000815260200160008152602001600081525090565b6040518060e0016040528060008152602001600081526020016000815260200160008152602001600015158152602001606081526020016000151581525090565b6040518060c001604052806000815260200160008152602001600081526020016000815260200160608152602001600073ffffffffffffffffffffffffffffffffffffffff1681525090565b60405180610100016040528060008152602001600081526020016000815260200160008152602001600081526020016000815260200160008152602001606081525090565b6040518060800160405280600081526020016000815260200160008152602001600081525090565b6040518060800160405280600081526020016060815260200160008152602001600081525090565b5b80821115612cc4576000816000905550600101612cac565b5090565b6000604051905090565b600080fd5b600080fd5b6000819050919050565b612cef81612cdc565b8114612cfa57600080fd5b50565b600081359050612d0c81612ce6565b92915050565b60008115159050919050565b612d2781612d12565b8114612d3257600080fd5b50565b600081359050612d4481612d1e565b92915050565b600080fd5b600080fd5b6000601f19601f8301169050919050565b7f4e487b7100000000000000000000000000000000000000000000000000000000600052604160045260246000fd5b612d9d82612d54565b810181811067ffffffffffffffff82111715612dbc57612dbb612d65565b5b80604052505050565b6000612dcf612cc8565b9050612ddb8282612d94565b919050565b600067ffffffffffffffff821115612dfb57612dfa612d65565b5b612e0482612d54565b9050602081019050919050565b82818337600083830152505050565b6000612e33612e2e84612de0565b612dc5565b905082815260208101848484011115612e4f57612e4e612d4f565b5b612e5a848285612e11565b509392505050565b600082601f830112612e7757612e76612d4a565b5b8135612e87848260208601612e20565b91505092915050565b600080600080600080600060e0888a031215612eaf57612eae612cd2565b5b6000612ebd8a828b01612cfd565b9750506020612ece8a828b01612cfd565b9650506040612edf8a828b01612cfd565b9550506060612ef08a828b01612cfd565b9450506080612f018a828b01612d35565b93505060a088013567ffffffffffffffff811115612f2257612f21612cd7565b5b612f2e8a828b01612e62565b92505060c0612f3f8a828b01612d35565b91505092959891949750929550565b600060208284031215612f6457612f63612cd2565b5b6000612f7284828501612cfd565b91505092915050565b612f8481612cdc565b82525050565b600081519050919050565b600082825260208201905092915050565b60005b83811015612fc4578082015181840152602081019050612fa9565b60008484015250505050565b6000612fdb82612f8a565b612fe58185612f95565b9350612ff5818560208601612fa6565b612ffe81612d54565b840191505092915050565b600060808201905061301e6000830187612f7b565b81810360208301526130308186612fd0565b905061303f6040830185612f7b565b61304c6060830184612f7b565b95945050505050565b61305e81612cdc565b82525050565b600073ffffffffffffffffffffffffffffffffffffffff82169050919050565b600061308f82613064565b9050919050565b61309f81613084565b82525050565b600082825260208201905092915050565b60006130c182612f8a565b6130cb81856130a5565b93506130db818560208601612fa6565b6130e481612d54565b840191505092915050565b60006060830160008301516131076000860182613055565b50602083015161311a6020860182613096565b506040830151848203604086015261313282826130b6565b9150508091505092915050565b6000602082019050818103600083015261315981846130ef565b905092915050565b60006080830160008301516131796000860182613055565b506020830151848203602086015261319182826130b6565b91505060408301516131a66040860182613096565b5060608301516131b96060860182613055565b508091505092915050565b600060208201905081810360008301526131de8184613161565b905092915050565b60008060008060008060c0878903121561320357613202612cd2565b5b600061321189828a01612cfd565b965050602061322289828a01612cfd565b955050604061323389828a01612cfd565b945050606061324489828a01612d35565b935050608087013567ffffffffffffffff81111561326557613264612cd7565b5b61327189828a01612e62565b92505060a061328289828a01612d35565b9150509295509295509295565b60006020820190506132a46000830184612f7b565b92915050565b600060c0830160008301516132c26000860182613055565b50602083015184820360208601526132da82826130b6565b91505060408301516132ef6040860182613055565b5060608301516133026060860182613055565b5060808301516133156080860182613055565b5060a083015161332860a0860182613055565b508091505092915050565b6000602082019050818103600083015261334d81846132aa565b905092915050565b60006101008201905061336b600083018b612f7b565b613378602083018a612f7b565b6133856040830189612f7b565b6133926060830188612f7b565b61339f6080830187612f7b565b6133ac60a0830186612f7b565b6133b960c0830185612f7b565b81810360e08301526133cb8184612fd0565b90509998505050505050505050565b6133e381613084565b81146133ee57600080fd5b50565b600081359050613400816133da565b92915050565b60008060006060848603121561341f5761341e612cd2565b5b600084013567ffffffffffffffff81111561343d5761343c612cd7565b5b61344986828701612e62565b935050602061345a868287016133f1565b925050604061346b86828701612cfd565b9150509250925092565b61347e81612d12565b82525050565b600060e082019050613499600083018a612f7b565b6134a66020830189612f7b565b6134b36040830188612f7b565b6134c06060830187612f7b565b6134cd6080830186613475565b81810360a08301526134df8185612fd0565b90506134ee60c0830184613475565b98975050505050505050565b61350381612d12565b82525050565b600060e0830160008301516135216000860182613055565b5060208301516135346020860182613055565b5060408301516135476040860182613055565b50606083015161355a6060860182613055565b50608083015161356d60808601826134fa565b5060a083015184820360a086015261358582826130b6565b91505060c083015161359a60c08601826134fa565b508091505092915050565b600060208201905081810360008301526135bf8184613509565b905092915050565b600080600080600060a086880312156135e3576135e2612cd2565b5b60006135f188828901612cfd565b955050602061360288828901612cfd565b945050604061361388828901612cfd565b935050606086013567ffffffffffffffff81111561363457613633612cd7565b5b61364088828901612e62565b9250506080613651888289016133f1565b9150509295509295909350565b600060c0830160008301516136766000860182613055565b5060208301516136896020860182613055565b50604083015161369c6040860182613055565b5060608301516136af6060860182613055565b50608083015184820360808601526136c782826130b6565b91505060a08301516136dc60a0860182613096565b508091505092915050565b60006020820190508181036000830152613701818461365e565b905092915050565b61371281613084565b82525050565b600060608201905061372d6000830186612f7b565b61373a6020830185613709565b818103604083015261374c8184612fd0565b9050949350505050565b600080600080608085870312156137705761376f612cd2565b5b600061377e87828801612cfd565b945050602061378f87828801612cfd565b93505060406137a087828801612cfd565b92505060606137b187828801612cfd565b91505092959194509250565b6000806000606084860312156137d6576137d5612cd2565b5b60006137e486828701612cfd565b93505060206137f5868287016133f1565b925050604084013567ffffffffffffffff81111561381657613815612cd7565b5b61382286828701612e62565b9150509250925092565b60006080820190506138416000830187612f7b565b61384e6020830186612f7b565b61385b6040830185612f7b565b6138686060830184612f7b565b95945050505050565b6000806000806080858703121561388b5761388a612cd2565b5b600061389987828801612cfd565b945050602085013567ffffffffffffffff8111156138ba576138b9612cd7565b5b6138c687828801612e62565b93505060406138d7878288016133f1565b92505060606138e887828801612cfd565b91505092959194509250565b600080600080600080600080610100898b03121561391557613914612cd2565b5b60006139238b828c01612cfd565b98505060206139348b828c01612cfd565b97505060406139458b828c01612cfd565b96505060606139568b828c01612cfd565b95505060806139678b828c01612cfd565b94505060a06139788b828c01612cfd565b93505060c06139898b828c01612cfd565b92505060e089013567ffffffffffffffff8111156139aa576139a9612cd7565b5b6139b68b828c01612e62565b9150509295985092959890939650565b6000806000606084860312156139df576139de612cd2565b5b60006139ed86828701612cfd565b93505060206139fe86828701612cfd565b9250506040613a0f86828701612cfd565b9150509250925092565b600061010083016000830151613a326000860182613055565b506020830151613a456020860182613055565b506040830151613a586040860182613055565b506060830151613a6b6060860182613055565b506080830151613a7e6080860182613055565b5060a0830151613a9160a0860182613055565b5060c0830151613aa460c0860182613055565b5060e083015184820360e0860152613abc82826130b6565b9150508091505092915050565b60006020820190508181036000830152613ae38184613a19565b905092915050565b608082016000820151613b016000850182613055565b506020820151613b146020850182613055565b506040820151613b276040850182613055565b506060820151613b3a6060850182613055565b50505050565b6000608082019050613b556000830184613aeb565b92915050565b6000608082019050613b706000830187612f7b565b8181036020830152613b828186612fd0565b9050613b916040830185613709565b613b9e6060830184612f7b565b95945050505050565b600080600080600080600060e0888a031215613bc657613bc5612cd2565b5b6000613bd48a828b01612cfd565b9750506020613be58a828b01612cfd565b9650506040613bf68a828b01612cfd565b9550506060613c078a828b01612cfd565b9450506080613c188a828b01612cfd565b93505060a0613c298a828b01612cfd565b92505060c088013567ffffffffffffffff811115613c4a57613c49612cd7565b5b613c568a828b01612e62565b91505092959891949750929550565b600080600060608486031215613c7e57613c7d612cd2565b5b600084013567ffffffffffffffff811115613c9c57613c9b612cd7565b5b613ca886828701612e62565b9350506020613cb986828701612cfd565b9250506040613cca86828701612cfd565b9150509250925092565b60008060008060008060c08789031215613cf157613cf0612cd2565b5b6000613cff89828a01612cfd565b965050602087013567ffffffffffffffff811115613d2057613d1f612cd7565b5b613d2c89828a01612e62565b9550506040613d3d89828a01612cfd565b9450506060613d4e89828a01612cfd565b9350506080613d5f89828a01612cfd565b92505060a0613d7089828a01612cfd565b9150509295509295509295565b60008060008060808587031215613d9757613d96612cd2565b5b6000613da587828801612cfd565b945050602085013567ffffffffffffffff811115613dc657613dc5612cd7565b5b613dd287828801612e62565b9350506040613de387828801612cfd565b9250506060613df487828801612cfd565b91505092959194509250565b60008060008060008060c08789031215613e1d57613e1c612cd2565b5b6000613e2b89828a01612cfd565b9650506020613e3c89828a01612cfd565b9550506040613e4d89828a01612cfd565b9450506060613e5e89828a01612cfd565b935050608087013567ffffffffffffffff811115613e7f57613e7e612cd7565b5b613e8b89828a01612e62565b92505060a0613e9c89828a016133f1565b9150509295509295509295565b600080600080600060a08688031215613ec557613ec4612cd2565b5b600086013567ffffffffffffffff811115613ee357613ee2612cd7565b5b613eef88828901612e62565b9550506020613f0088828901612cfd565b9450506040613f1188828901612cfd565b9350506060613f2288828901612cfd565b9250506080613f3388828901612cfd565b9150509295509295909350565b600060c082019050613f556000830189612f7b565b8181036020830152613f678188612fd0565b9050613f766040830187612f7b565b613f836060830186612f7b565b613f906080830185612f7b565b613f9d60a0830184612f7b565b979650505050505050565b6000608083016000830151613fc06000860182613055565b5060208301518482036020860152613fd882826130b6565b9150506040830151613fed6040860182613055565b5060608301516140006060860182613055565b508091505092915050565b600060208201905081810360008301526140258184613fa8565b905092915050565b600060c0820190506140426000830189612f7b565b61404f6020830188612f7b565b61405c6040830187612f7b565b6140696060830186612f7b565b818103608083015261407b8185612fd0565b905061408a60a0830184613709565b979650505050505050565b600080604083850312156140ac576140ab612cd2565b5b60006140ba858286016133f1565b925050602083013567ffffffffffffffff8111156140db576140da612cd7565b5b6140e785828601612e62565b9150509250929050565b7f5573657251756573744576656e7420646f6573206e6f74206578697374000000600082015250565b6000614127601d83612f95565b9150614132826140f1565b602082019050919050565b600060208201905081810360008301526141568161411a565b9050919050565b7f4e487b7100000000000000000000000000000000000000000000000000000000600052602260045260246000fd5b600060028204905060018216806141a457607f821691505b6020821081036141b7576141b661415d565b5b50919050565b60008190508160005260206000209050919050565b60006020601f8301049050919050565b600082821b905092915050565b60006008830261421f7fffffffffffffffffffffffffffffffffffffffffffffffffffffffffffffffff826141e2565b61422986836141e2565b95508019841693508086168417925050509392505050565b6000819050919050565b600061426661426161425c84612cdc565b614241565b612cdc565b9050919050565b6000819050919050565b6142808361424b565b61429461428c8261426d565b8484546141ef565b825550505050565b600090565b6142a961429c565b6142b4818484614277565b505050565b5b818110156142d8576142cd6000826142a1565b6001810190506142ba565b5050565b601f82111561431d576142ee816141bd565b6142f7846141d2565b81016020851015614306578190505b61431a614312856141d2565b8301826142b9565b50505b505050565b600082821c905092915050565b600061434060001984600802614322565b1980831691505092915050565b6000614359838361432f565b9150826002028217905092915050565b61437282612f8a565b67ffffffffffffffff81111561438b5761438a612d65565b5b614395825461418c565b6143a08282856142dc565b600060209050601f8311600181146143d357600084156143c1578287015190505b6143cb858261434d565b865550614433565b601f1984166143e1866141bd565b60005b82811015614409578489015182556001820191506020850194506020810190506143e4565b868310156144265784890151614422601f89168261432f565b8355505b6001600288020188555050505b505050505050565b7f5573657220646f6573206e6f7420657869737400000000000000000000000000600082015250565b6000614471601383612f95565b915061447c8261443b565b602082019050919050565b600060208201905081810360008301526144a081614464565b9050919050565b7f517565737420646f6573206e6f74206578697374000000000000000000000000600082015250565b60006144dd601483612f95565b91506144e8826144a7565b602082019050919050565b6000602082019050818103600083015261450c816144d0565b9050919050565b7f526577617264506f6f6c20646f6573206e6f7420657869737400000000000000600082015250565b6000614549601983612f95565b915061455482614513565b602082019050919050565b600060208201905081810360008301526145788161453c565b9050919050565b7f53706f6e736f7220646f6573206e6f7420657869737400000000000000000000600082015250565b60006145b5601683612f95565b91506145c08261457f565b602082019050919050565b600060208201905081810360008301526145e4816145a8565b9050919050565b7f4e487b7100000000000000000000000000000000000000000000000000000000600052601160045260246000fd5b600061462582612cdc565b91507fffffffffffffffffffffffffffffffffffffffffffffffffffffffffffffffff8203614657576146566145eb565b5b600182019050919050565b7f52657761726420646f6573206e6f742065786973740000000000000000000000600082015250565b6000614698601583612f95565b91506146a382614662565b602082019050919050565b600060208201905081810360008301526146c78161468b565b9050919050565b7f51756573744576656e7420646f6573206e6f7420657869737400000000000000600082015250565b6000614704601983612f95565b915061470f826146ce565b602082019050919050565b60006020820190508181036000830152614733816146f7565b9050919050565b7f4576656e7420646f6573206e6f74206578697374000000000000000000000000600082015250565b6000614770601483612f95565b915061477b8261473a565b602082019050919050565b6000602082019050818103600083015261479f81614763565b905091905056fea2646970667358221220d6128e78b750992e6d722176157d119ba70fe6a03cc988cd78f1a55e264084b264736f6c63430008170033",
  "linkReferences": {},
  "deployedLinkReferences": {}
}