{
  "_format": "hh-sol-artifact-1",
  "contractName": "EventManager",
  "sourceName": "contracts/EventManager.sol",
  "abi": [
    {
      "inputs": [
        {
          "internalType": "address",
          "name": "_questManagerAddress",
          "type": "address"
        }
      ],
      "stateMutability": "nonpayable",
      "type": "constructor"
    },
    {
      "anonymous": false,
      "inputs": [
        {
          "indexed": false,
          "internalType": "uint256",
          "name": "eventId",
          "type": "uint256"
        },
        {
          "indexed": false,
          "internalType": "uint256",
          "name": "startTime",
          "type": "uint256"
        },
        {
          "indexed": false,
          "internalType": "uint256",
          "name": "endTime",
          "type": "uint256"
        },
        {
          "indexed": false,
          "internalType": "string",
          "name": "description",
          "type": "string"
        }
      ],
      "name": "EventCreated",
      "type": "event"
    },
    {
      "inputs": [
        {
          "internalType": "uint256",
          "name": "_eventId",
          "type": "uint256"
        },
        {
          "internalType": "uint256",
          "name": "_questId",
          "type": "uint256"
        },
        {
          "internalType": "uint256",
          "name": "_questStartTime",
          "type": "uint256"
        },
        {
          "internalType": "uint256",
          "name": "_questEndTime",
          "type": "uint256"
        }
      ],
      "name": "addQuestToEvent",
      "outputs": [],
      "stateMutability": "nonpayable",
      "type": "function"
    },
    {
      "inputs": [],
      "name": "admin",
      "outputs": [
        {
          "internalType": "address",
          "name": "",
          "type": "address"
        }
      ],
      "stateMutability": "view",
      "type": "function"
    },
    {
      "inputs": [
        {
          "internalType": "uint256",
          "name": "_eventId",
          "type": "uint256"
        },
        {
          "internalType": "uint256",
          "name": "_questId",
          "type": "uint256"
        },
        {
          "internalType": "uint256",
          "name": "_questStartTime",
          "type": "uint256"
        },
        {
          "internalType": "uint256",
          "name": "_questEndTime",
          "type": "uint256"
        }
      ],
      "name": "assignQuestToEvent",
      "outputs": [],
      "stateMutability": "nonpayable",
      "type": "function"
    },
    {
      "inputs": [
        {
          "internalType": "uint256",
          "name": "_startTime",
          "type": "uint256"
        },
        {
          "internalType": "uint256",
          "name": "_endTime",
          "type": "uint256"
        },
        {
          "internalType": "string",
          "name": "_description",
          "type": "string"
        }
      ],
      "name": "createEvent",
      "outputs": [
        {
          "internalType": "uint256",
          "name": "",
          "type": "uint256"
        }
      ],
      "stateMutability": "nonpayable",
      "type": "function"
    },
    {
      "inputs": [
        {
          "internalType": "uint256",
          "name": "_id",
          "type": "uint256"
        }
      ],
      "name": "deleteEvent",
      "outputs": [],
      "stateMutability": "nonpayable",
      "type": "function"
    },
    {
      "inputs": [],
      "name": "eventCount",
      "outputs": [
        {
          "internalType": "uint256",
          "name": "",
          "type": "uint256"
        }
      ],
      "stateMutability": "view",
      "type": "function"
    },
    {
      "inputs": [
        {
          "internalType": "uint256",
          "name": "",
          "type": "uint256"
        }
      ],
      "name": "events",
      "outputs": [
        {
          "internalType": "uint256",
          "name": "id",
          "type": "uint256"
        },
        {
          "internalType": "uint256",
          "name": "startTime",
          "type": "uint256"
        },
        {
          "internalType": "uint256",
          "name": "endTime",
          "type": "uint256"
        },
        {
          "internalType": "string",
          "name": "description",
          "type": "string"
        },
        {
          "internalType": "enum EventManager.EventStatus",
          "name": "status",
          "type": "uint8"
        }
      ],
      "stateMutability": "view",
      "type": "function"
    },
    {
      "inputs": [
        {
          "internalType": "uint256",
          "name": "_eventId",
          "type": "uint256"
        },
        {
          "internalType": "uint256",
          "name": "_questId",
          "type": "uint256"
        }
      ],
      "name": "getQuestInfo",
      "outputs": [
        {
          "components": [
            {
              "internalType": "uint256",
              "name": "questId",
              "type": "uint256"
            },
            {
              "internalType": "uint256",
              "name": "startTime",
              "type": "uint256"
            },
            {
              "internalType": "uint256",
              "name": "endTime",
              "type": "uint256"
            }
          ],
          "internalType": "struct EventManager.QuestInfo",
          "name": "",
          "type": "tuple"
        }
      ],
      "stateMutability": "view",
      "type": "function"
    },
    {
      "inputs": [],
      "name": "listEvents",
      "outputs": [
        {
          "internalType": "uint256[]",
          "name": "ids",
          "type": "uint256[]"
        }
      ],
      "stateMutability": "view",
      "type": "function"
    },
    {
      "inputs": [
        {
          "internalType": "uint256",
          "name": "_id",
          "type": "uint256"
        },
        {
          "internalType": "uint256",
          "name": "_newStartTime",
          "type": "uint256"
        },
        {
          "internalType": "uint256",
          "name": "_newEndTime",
          "type": "uint256"
        },
        {
          "internalType": "string",
          "name": "_newDescription",
          "type": "string"
        }
      ],
      "name": "updateEvent",
      "outputs": [],
      "stateMutability": "nonpayable",
      "type": "function"
    }
  ],
  "bytecode": "0x60806040523480156200001157600080fd5b50604051620019eb380380620019eb833981810160405281019062000037919062000129565b336000806101000a81548173ffffffffffffffffffffffffffffffffffffffff021916908373ffffffffffffffffffffffffffffffffffffffff16021790555080600160006101000a81548173ffffffffffffffffffffffffffffffffffffffff021916908373ffffffffffffffffffffffffffffffffffffffff160217905550506200015b565b600080fd5b600073ffffffffffffffffffffffffffffffffffffffff82169050919050565b6000620000f182620000c4565b9050919050565b6200010381620000e4565b81146200010f57600080fd5b50565b6000815190506200012381620000f8565b92915050565b600060208284031215620001425762000141620000bf565b5b6000620001528482850162000112565b91505092915050565b611880806200016b6000396000f3fe608060405234801561001057600080fd5b506004361061009e5760003560e01c806391ac277a1161006657806391ac277a14610173578063aca61d2f1461018f578063f3d98aef146101ab578063f851a440146101c7578063f8749a58146101e55761009e565b80630b791430146100a3578063294e0d56146100d757806355d27a5c146101075780635ee975bb1461012557806371be2e4a14610155575b600080fd5b6100bd60048036038101906100b89190610b29565b610201565b6040516100ce959493929190610c6c565b60405180910390f35b6100f160048036038101906100ec9190610dfb565b6102cc565b6040516100fe9190610e6a565b60405180910390f35b61010f610430565b60405161011c9190610f43565b60405180910390f35b61013f600480360381019061013a9190610f65565b6104d8565b60405161014c9190610fe7565b60405180910390f35b61015d610538565b60405161016a9190610e6a565b60405180910390f35b61018d60048036038101906101889190611002565b61053e565b005b6101a960048036038101906101a49190611002565b61071c565b005b6101c560048036038101906101c09190611069565b61086c565b005b6101cf61095a565b6040516101dc919061112d565b60405180910390f35b6101ff60048036038101906101fa9190610b29565b61097e565b005b600360205280600052604060002060009150905080600001549080600101549080600201549080600301805461023690611177565b80601f016020809104026020016040519081016040528092919081815260200182805461026290611177565b80156102af5780601f10610284576101008083540402835291602001916102af565b820191906000526020600020905b81548152906001019060200180831161029257829003601f168201915b5050505050908060040160009054906101000a900460ff16905085565b60008060009054906101000a900473ffffffffffffffffffffffffffffffffffffffff1673ffffffffffffffffffffffffffffffffffffffff163373ffffffffffffffffffffffffffffffffffffffff161461035d576040517f08c379a00000000000000000000000000000000000000000000000000000000081526004016103549061121a565b60405180910390fd5b600060026000815461036e90611269565b91905081905590506000600360008381526020019081526020016000209050818160000181905550858160010181905550848160020181905550838160030190816103b9919061145d565b5060008160040160006101000a81548160ff021916908360018111156103e2576103e1610bf5565b5b02179055507feed34311e4d0afbdd9f8353fa93c36793415c7594d9a17cbd5db7caa7b550b758287878760405161041c949392919061152f565b60405180910390a181925050509392505050565b6060600060025467ffffffffffffffff8111156104505761044f610cd0565b5b60405190808252806020026020018201604052801561047e5781602001602082028036833780820191505090505b5090506000600190505b60025481116104d05780826001836104a0919061157b565b815181106104b1576104b06115af565b5b60200260200101818152505080806104c890611269565b915050610488565b508091505090565b6104e0610a61565b6003600084815260200190815260200160002060050160008381526020019081526020016000206040518060600160405290816000820154815260200160018201548152602001600282015481525050905092915050565b60025481565b60008054906101000a900473ffffffffffffffffffffffffffffffffffffffff1673ffffffffffffffffffffffffffffffffffffffff163373ffffffffffffffffffffffffffffffffffffffff16146105cc576040517f08c379a00000000000000000000000000000000000000000000000000000000081526004016105c39061121a565b60405180910390fd5b6000600160009054906101000a900473ffffffffffffffffffffffffffffffffffffffff1673ffffffffffffffffffffffffffffffffffffffff166349f86f34856040518263ffffffff1660e01b81526004016106299190610e6a565b600060405180830381865afa158015610646573d6000803e3d6000fd5b505050506040513d6000823e3d601f19601f8201168201806040525081019061066f9190611729565b60000151036106b3576040517f08c379a00000000000000000000000000000000000000000000000000000000081526004016106aa906117be565b60405180910390fd5b60405180606001604052808481526020018381526020018281525060036000868152602001908152602001600020600501600085815260200190815260200160002060008201518160000155602082015181600101556040820151816002015590505050505050565b60008054906101000a900473ffffffffffffffffffffffffffffffffffffffff1673ffffffffffffffffffffffffffffffffffffffff163373ffffffffffffffffffffffffffffffffffffffff16146107aa576040517f08c379a00000000000000000000000000000000000000000000000000000000081526004016107a19061121a565b60405180910390fd5b6000600360008681526020019081526020016000206000015403610803576040517f08c379a00000000000000000000000000000000000000000000000000000000081526004016107fa9061182a565b60405180910390fd5b60405180606001604052808481526020018381526020018281525060036000868152602001908152602001600020600501600085815260200190815260200160002060008201518160000155602082015181600101556040820151816002015590505050505050565b60008054906101000a900473ffffffffffffffffffffffffffffffffffffffff1673ffffffffffffffffffffffffffffffffffffffff163373ffffffffffffffffffffffffffffffffffffffff16146108fa576040517f08c379a00000000000000000000000000000000000000000000000000000000081526004016108f19061121a565b60405180910390fd5b82600360008681526020019081526020016000206001018190555081600360008681526020019081526020016000206002018190555080600360008681526020019081526020016000206003019081610953919061145d565b5050505050565b60008054906101000a900473ffffffffffffffffffffffffffffffffffffffff1681565b60008054906101000a900473ffffffffffffffffffffffffffffffffffffffff1673ffffffffffffffffffffffffffffffffffffffff163373ffffffffffffffffffffffffffffffffffffffff1614610a0c576040517f08c379a0000000000000000000000000000000000000000000000000000000008152600401610a039061121a565b60405180910390fd5b6003600082815260200190815260200160002060008082016000905560018201600090556002820160009055600382016000610a489190610a82565b6004820160006101000a81549060ff0219169055505050565b60405180606001604052806000815260200160008152602001600081525090565b508054610a8e90611177565b6000825580601f10610aa05750610abf565b601f016020900490600052602060002090810190610abe9190610ac2565b5b50565b5b80821115610adb576000816000905550600101610ac3565b5090565b6000604051905090565b600080fd5b600080fd5b6000819050919050565b610b0681610af3565b8114610b1157600080fd5b50565b600081359050610b2381610afd565b92915050565b600060208284031215610b3f57610b3e610ae9565b5b6000610b4d84828501610b14565b91505092915050565b610b5f81610af3565b82525050565b600081519050919050565b600082825260208201905092915050565b60005b83811015610b9f578082015181840152602081019050610b84565b60008484015250505050565b6000601f19601f8301169050919050565b6000610bc782610b65565b610bd18185610b70565b9350610be1818560208601610b81565b610bea81610bab565b840191505092915050565b7f4e487b7100000000000000000000000000000000000000000000000000000000600052602160045260246000fd5b60028110610c3557610c34610bf5565b5b50565b6000819050610c4682610c24565b919050565b6000610c5682610c38565b9050919050565b610c6681610c4b565b82525050565b600060a082019050610c816000830188610b56565b610c8e6020830187610b56565b610c9b6040830186610b56565b8181036060830152610cad8185610bbc565b9050610cbc6080830184610c5d565b9695505050505050565b600080fd5b600080fd5b7f4e487b7100000000000000000000000000000000000000000000000000000000600052604160045260246000fd5b610d0882610bab565b810181811067ffffffffffffffff82111715610d2757610d26610cd0565b5b80604052505050565b6000610d3a610adf565b9050610d468282610cff565b919050565b600067ffffffffffffffff821115610d6657610d65610cd0565b5b610d6f82610bab565b9050602081019050919050565b82818337600083830152505050565b6000610d9e610d9984610d4b565b610d30565b905082815260208101848484011115610dba57610db9610ccb565b5b610dc5848285610d7c565b509392505050565b600082601f830112610de257610de1610cc6565b5b8135610df2848260208601610d8b565b91505092915050565b600080600060608486031215610e1457610e13610ae9565b5b6000610e2286828701610b14565b9350506020610e3386828701610b14565b925050604084013567ffffffffffffffff811115610e5457610e53610aee565b5b610e6086828701610dcd565b9150509250925092565b6000602082019050610e7f6000830184610b56565b92915050565b600081519050919050565b600082825260208201905092915050565b6000819050602082019050919050565b610eba81610af3565b82525050565b6000610ecc8383610eb1565b60208301905092915050565b6000602082019050919050565b6000610ef082610e85565b610efa8185610e90565b9350610f0583610ea1565b8060005b83811015610f36578151610f1d8882610ec0565b9750610f2883610ed8565b925050600181019050610f09565b5085935050505092915050565b60006020820190508181036000830152610f5d8184610ee5565b905092915050565b60008060408385031215610f7c57610f7b610ae9565b5b6000610f8a85828601610b14565b9250506020610f9b85828601610b14565b9150509250929050565b606082016000820151610fbb6000850182610eb1565b506020820151610fce6020850182610eb1565b506040820151610fe16040850182610eb1565b50505050565b6000606082019050610ffc6000830184610fa5565b92915050565b6000806000806080858703121561101c5761101b610ae9565b5b600061102a87828801610b14565b945050602061103b87828801610b14565b935050604061104c87828801610b14565b925050606061105d87828801610b14565b91505092959194509250565b6000806000806080858703121561108357611082610ae9565b5b600061109187828801610b14565b94505060206110a287828801610b14565b93505060406110b387828801610b14565b925050606085013567ffffffffffffffff8111156110d4576110d3610aee565b5b6110e087828801610dcd565b91505092959194509250565b600073ffffffffffffffffffffffffffffffffffffffff82169050919050565b6000611117826110ec565b9050919050565b6111278161110c565b82525050565b6000602082019050611142600083018461111e565b92915050565b7f4e487b7100000000000000000000000000000000000000000000000000000000600052602260045260246000fd5b6000600282049050600182168061118f57607f821691505b6020821081036111a2576111a1611148565b5b50919050565b7f4f6e6c792061646d696e2063616e20706572666f726d2074686973206163746960008201527f6f6e000000000000000000000000000000000000000000000000000000000000602082015250565b6000611204602283610b70565b915061120f826111a8565b604082019050919050565b60006020820190508181036000830152611233816111f7565b9050919050565b7f4e487b7100000000000000000000000000000000000000000000000000000000600052601160045260246000fd5b600061127482610af3565b91507fffffffffffffffffffffffffffffffffffffffffffffffffffffffffffffffff82036112a6576112a561123a565b5b600182019050919050565b60008190508160005260206000209050919050565b60006020601f8301049050919050565b600082821b905092915050565b6000600883026113137fffffffffffffffffffffffffffffffffffffffffffffffffffffffffffffffff826112d6565b61131d86836112d6565b95508019841693508086168417925050509392505050565b6000819050919050565b600061135a61135561135084610af3565b611335565b610af3565b9050919050565b6000819050919050565b6113748361133f565b61138861138082611361565b8484546112e3565b825550505050565b600090565b61139d611390565b6113a881848461136b565b505050565b5b818110156113cc576113c1600082611395565b6001810190506113ae565b5050565b601f821115611411576113e2816112b1565b6113eb846112c6565b810160208510156113fa578190505b61140e611406856112c6565b8301826113ad565b50505b505050565b600082821c905092915050565b600061143460001984600802611416565b1980831691505092915050565b600061144d8383611423565b9150826002028217905092915050565b61146682610b65565b67ffffffffffffffff81111561147f5761147e610cd0565b5b6114898254611177565b6114948282856113d0565b600060209050601f8311600181146114c757600084156114b5578287015190505b6114bf8582611441565b865550611527565b601f1984166114d5866112b1565b60005b828110156114fd578489015182556001820191506020850194506020810190506114d8565b8683101561151a5784890151611516601f891682611423565b8355505b6001600288020188555050505b505050505050565b60006080820190506115446000830187610b56565b6115516020830186610b56565b61155e6040830185610b56565b81810360608301526115708184610bbc565b905095945050505050565b600061158682610af3565b915061159183610af3565b92508282039050818111156115a9576115a861123a565b5b92915050565b7f4e487b7100000000000000000000000000000000000000000000000000000000600052603260045260246000fd5b600080fd5b600080fd5b6000815190506115f781610afd565b92915050565b600061161061160b84610d4b565b610d30565b90508281526020810184848401111561162c5761162b610ccb565b5b611637848285610b81565b509392505050565b600082601f83011261165457611653610cc6565b5b81516116648482602086016115fd565b91505092915050565b600060c08284031215611683576116826115de565b5b61168d60c0610d30565b9050600061169d848285016115e8565b60008301525060206116b1848285016115e8565b60208301525060406116c5848285016115e8565b60408301525060606116d9848285016115e8565b60608301525060806116ed848285016115e8565b60808301525060a082015167ffffffffffffffff811115611711576117106115e3565b5b61171d8482850161163f565b60a08301525092915050565b60006020828403121561173f5761173e610ae9565b5b600082015167ffffffffffffffff81111561175d5761175c610aee565b5b6117698482850161166d565b91505092915050565b7f517565737420646f6573206e6f74206578697374000000000000000000000000600082015250565b60006117a8601483610b70565b91506117b382611772565b602082019050919050565b600060208201905081810360008301526117d78161179b565b9050919050565b7f4576656e7420646f6573206e6f74206578697374000000000000000000000000600082015250565b6000611814601483610b70565b915061181f826117de565b602082019050919050565b6000602082019050818103600083015261184381611807565b905091905056fea2646970667358221220d3c5fd5f00ab1203060cd3af5f7a59cdfe2468654f5cafc4939dc3bc2345dfb664736f6c63430008170033",
  "linkReferences": {},
  "deployedLinkReferences": {}
}