{
  "_format": "hh-sol-artifact-1",
  "contractName": "Events",
  "sourceName": "contracts/Events.sol",
  "abi": [
    {
      "inputs": [
        {
          "internalType": "string",
          "name": "name",
          "type": "string"
        },
        {
          "internalType": "string",
          "name": "description",
          "type": "string"
        },
        {
          "internalType": "uint256",
          "name": "startDate",
          "type": "uint256"
        },
        {
          "internalType": "uint256",
          "name": "endDate",
          "type": "uint256"
        }
      ],
      "name": "createEvent",
      "outputs": [
        {
          "internalType": "uint256",
          "name": "",
          "type": "uint256"
        }
      ],
      "stateMutability": "nonpayable",
      "type": "function"
    },
    {
      "inputs": [
        {
          "internalType": "uint256",
          "name": "eventId",
          "type": "uint256"
        }
      ],
      "name": "deleteEvent",
      "outputs": [],
      "stateMutability": "nonpayable",
      "type": "function"
    },
    {
      "inputs": [
        {
          "internalType": "uint256",
          "name": "",
          "type": "uint256"
        }
      ],
      "name": "events",
      "outputs": [
        {
          "internalType": "uint256",
          "name": "eventId",
          "type": "uint256"
        },
        {
          "internalType": "string",
          "name": "name",
          "type": "string"
        },
        {
          "internalType": "string",
          "name": "description",
          "type": "string"
        },
        {
          "internalType": "uint256",
          "name": "startDate",
          "type": "uint256"
        },
        {
          "internalType": "uint256",
          "name": "endDate",
          "type": "uint256"
        },
        {
          "internalType": "enum Events.Status",
          "name": "status",
          "type": "uint8"
        }
      ],
      "stateMutability": "view",
      "type": "function"
    },
    {
      "inputs": [
        {
          "internalType": "uint256",
          "name": "index",
          "type": "uint256"
        }
      ],
      "name": "getEventByIndex",
      "outputs": [
        {
          "components": [
            {
              "internalType": "uint256",
              "name": "eventId",
              "type": "uint256"
            },
            {
              "internalType": "string",
              "name": "name",
              "type": "string"
            },
            {
              "internalType": "string",
              "name": "description",
              "type": "string"
            },
            {
              "internalType": "uint256",
              "name": "startDate",
              "type": "uint256"
            },
            {
              "internalType": "uint256",
              "name": "endDate",
              "type": "uint256"
            },
            {
              "internalType": "enum Events.Status",
              "name": "status",
              "type": "uint8"
            }
          ],
          "internalType": "struct Events.Event",
          "name": "",
          "type": "tuple"
        }
      ],
      "stateMutability": "view",
      "type": "function"
    },
    {
      "inputs": [],
      "name": "getEventCount",
      "outputs": [
        {
          "internalType": "uint256",
          "name": "",
          "type": "uint256"
        }
      ],
      "stateMutability": "view",
      "type": "function"
    },
    {
      "inputs": [],
      "name": "listEvents",
      "outputs": [
        {
          "components": [
            {
              "internalType": "uint256",
              "name": "eventId",
              "type": "uint256"
            },
            {
              "internalType": "string",
              "name": "name",
              "type": "string"
            },
            {
              "internalType": "string",
              "name": "description",
              "type": "string"
            },
            {
              "internalType": "uint256",
              "name": "startDate",
              "type": "uint256"
            },
            {
              "internalType": "uint256",
              "name": "endDate",
              "type": "uint256"
            },
            {
              "internalType": "enum Events.Status",
              "name": "status",
              "type": "uint8"
            }
          ],
          "internalType": "struct Events.Event[]",
          "name": "",
          "type": "tuple[]"
        }
      ],
      "stateMutability": "view",
      "type": "function"
    },
    {
      "inputs": [
        {
          "internalType": "uint256",
          "name": "eventId",
          "type": "uint256"
        }
      ],
      "name": "readEvent",
      "outputs": [
        {
          "components": [
            {
              "internalType": "uint256",
              "name": "eventId",
              "type": "uint256"
            },
            {
              "internalType": "string",
              "name": "name",
              "type": "string"
            },
            {
              "internalType": "string",
              "name": "description",
              "type": "string"
            },
            {
              "internalType": "uint256",
              "name": "startDate",
              "type": "uint256"
            },
            {
              "internalType": "uint256",
              "name": "endDate",
              "type": "uint256"
            },
            {
              "internalType": "enum Events.Status",
              "name": "status",
              "type": "uint8"
            }
          ],
          "internalType": "struct Events.Event",
          "name": "",
          "type": "tuple"
        }
      ],
      "stateMutability": "view",
      "type": "function"
    },
    {
      "inputs": [
        {
          "internalType": "uint256",
          "name": "eventId",
          "type": "uint256"
        },
        {
          "internalType": "string",
          "name": "name",
          "type": "string"
        },
        {
          "internalType": "string",
          "name": "description",
          "type": "string"
        },
        {
          "internalType": "uint256",
          "name": "startDate",
          "type": "uint256"
        },
        {
          "internalType": "uint256",
          "name": "endDate",
          "type": "uint256"
        },
        {
          "internalType": "enum Events.Status",
          "name": "status",
          "type": "uint8"
        }
      ],
      "name": "updateEvent",
      "outputs": [],
      "stateMutability": "nonpayable",
      "type": "function"
    }
  ],
  "bytecode": "0x608060405234801561001057600080fd5b506118dc806100206000396000f3fe608060405234801561001057600080fd5b50600436106100885760003560e01c8063bce062b91161005b578063bce062b91461012c578063d9e48f5c1461015c578063e1ba30a91461017a578063f8749a58146101aa57610088565b80630b7914301461008d57806355d27a5c146100c257806396dd7228146100e05780639b6b6d3e146100fc575b600080fd5b6100a760048036038101906100a29190610cfd565b6101c6565b6040516100b996959493929190610e40565b60405180910390f35b6100ca61031f565b6040516100d79190611069565b60405180910390f35b6100fa60048036038101906100f591906111e5565b61058c565b005b61011660048036038101906101119190610cfd565b610654565b604051610123919061133a565b60405180910390f35b6101466004803603810190610141919061135c565b61084d565b60405161015391906113fb565b60405180910390f35b610164610947565b60405161017191906113fb565b60405180910390f35b610194600480360381019061018f9190610cfd565b610951565b6040516101a1919061133a565b60405180910390f35b6101c460048036038101906101bf9190610cfd565b610b52565b005b60006020528060005260406000206000915090508060000154908060010180546101ef90611445565b80601f016020809104026020016040519081016040528092919081815260200182805461021b90611445565b80156102685780601f1061023d57610100808354040283529160200191610268565b820191906000526020600020905b81548152906001019060200180831161024b57829003601f168201915b50505050509080600201805461027d90611445565b80601f01602080910402602001604051908101604052809291908181526020018280546102a990611445565b80156102f65780601f106102cb576101008083540402835291602001916102f6565b820191906000526020600020905b8154815290600101906020018083116102d957829003601f168201915b5050505050908060030154908060040154908060050160009054906101000a900460ff16905086565b6060600060015467ffffffffffffffff81111561033f5761033e611095565b5b60405190808252806020026020018201604052801561037857816020015b610365610c0e565b81526020019060019003908161035d5790505b509050600080600190505b60015481116105835760008060008381526020019081526020016000206000015414610570576000808281526020019081526020016000206040518060c0016040529081600082015481526020016001820180546103e090611445565b80601f016020809104026020016040519081016040528092919081815260200182805461040c90611445565b80156104595780601f1061042e57610100808354040283529160200191610459565b820191906000526020600020905b81548152906001019060200180831161043c57829003601f168201915b5050505050815260200160028201805461047290611445565b80601f016020809104026020016040519081016040528092919081815260200182805461049e90611445565b80156104eb5780601f106104c0576101008083540402835291602001916104eb565b820191906000526020600020905b8154815290600101906020018083116104ce57829003601f168201915b5050505050815260200160038201548152602001600482015481526020016005820160009054906101000a900460ff16600181111561052d5761052c610dc9565b5b600181111561053f5761053e610dc9565b5b8152505083838151811061055657610555611476565b5b6020026020010181905250818061056c906114d4565b9250505b808061057b906114d4565b915050610383565b50819250505090565b6000806000888152602001908152602001600020905060008160000154036105e9576040517f08c379a00000000000000000000000000000000000000000000000000000000081526004016105e090611568565b60405180910390fd5b858160010190816105fa9190611734565b508481600201908161060c9190611734565b50838160030181905550828160040181905550818160050160006101000a81548160ff0219169083600181111561064657610645610dc9565b5b021790555050505050505050565b61065c610c0e565b60015482106106a0576040517f08c379a000000000000000000000000000000000000000000000000000000000815260040161069790611852565b60405180910390fd5b6000806001846106b09190611872565b81526020019081526020016000206040518060c0016040529081600082015481526020016001820180546106e390611445565b80601f016020809104026020016040519081016040528092919081815260200182805461070f90611445565b801561075c5780601f106107315761010080835404028352916020019161075c565b820191906000526020600020905b81548152906001019060200180831161073f57829003601f168201915b5050505050815260200160028201805461077590611445565b80601f01602080910402602001604051908101604052809291908181526020018280546107a190611445565b80156107ee5780601f106107c3576101008083540402835291602001916107ee565b820191906000526020600020905b8154815290600101906020018083116107d157829003601f168201915b5050505050815260200160038201548152602001600482015481526020016005820160009054906101000a900460ff1660018111156108305761082f610dc9565b5b600181111561084257610841610dc9565b5b815250509050919050565b600060016000815480929190610862906114d4565b91905055506040518060c001604052806001548152602001868152602001858152602001848152602001838152602001600060018111156108a6576108a5610dc9565b5b81525060008060015481526020019081526020016000206000820151816000015560208201518160010190816108dc9190611734565b5060408201518160020190816108f29190611734565b50606082015181600301556080820151816004015560a08201518160050160006101000a81548160ff0219169083600181111561093257610931610dc9565b5b02179055509050506001549050949350505050565b6000600154905090565b610959610c0e565b600080600084815260200190815260200160002060000154036109b1576040517f08c379a00000000000000000000000000000000000000000000000000000000081526004016109a890611568565b60405180910390fd5b6000808381526020019081526020016000206040518060c0016040529081600082015481526020016001820180546109e890611445565b80601f0160208091040260200160405190810160405280929190818152602001828054610a1490611445565b8015610a615780601f10610a3657610100808354040283529160200191610a61565b820191906000526020600020905b815481529060010190602001808311610a4457829003601f168201915b50505050508152602001600282018054610a7a90611445565b80601f0160208091040260200160405190810160405280929190818152602001828054610aa690611445565b8015610af35780601f10610ac857610100808354040283529160200191610af3565b820191906000526020600020905b815481529060010190602001808311610ad657829003601f168201915b5050505050815260200160038201548152602001600482015481526020016005820160009054906101000a900460ff166001811115610b3557610b34610dc9565b5b6001811115610b4757610b46610dc9565b5b815250509050919050565b60008060008381526020019081526020016000206000015403610baa576040517f08c379a0000000000000000000000000000000000000000000000000000000008152600401610ba190611568565b60405180910390fd5b600080828152602001908152602001600020600080820160009055600182016000610bd59190610c56565b600282016000610be59190610c56565b600382016000905560048201600090556005820160006101000a81549060ff0219169055505050565b6040518060c00160405280600081526020016060815260200160608152602001600081526020016000815260200160006001811115610c5057610c4f610dc9565b5b81525090565b508054610c6290611445565b6000825580601f10610c745750610c93565b601f016020900490600052602060002090810190610c929190610c96565b5b50565b5b80821115610caf576000816000905550600101610c97565b5090565b6000604051905090565b600080fd5b600080fd5b6000819050919050565b610cda81610cc7565b8114610ce557600080fd5b50565b600081359050610cf781610cd1565b92915050565b600060208284031215610d1357610d12610cbd565b5b6000610d2184828501610ce8565b91505092915050565b610d3381610cc7565b82525050565b600081519050919050565b600082825260208201905092915050565b60005b83811015610d73578082015181840152602081019050610d58565b60008484015250505050565b6000601f19601f8301169050919050565b6000610d9b82610d39565b610da58185610d44565b9350610db5818560208601610d55565b610dbe81610d7f565b840191505092915050565b7f4e487b7100000000000000000000000000000000000000000000000000000000600052602160045260246000fd5b60028110610e0957610e08610dc9565b5b50565b6000819050610e1a82610df8565b919050565b6000610e2a82610e0c565b9050919050565b610e3a81610e1f565b82525050565b600060c082019050610e556000830189610d2a565b8181036020830152610e678188610d90565b90508181036040830152610e7b8187610d90565b9050610e8a6060830186610d2a565b610e976080830185610d2a565b610ea460a0830184610e31565b979650505050505050565b600081519050919050565b600082825260208201905092915050565b6000819050602082019050919050565b610ee481610cc7565b82525050565b600082825260208201905092915050565b6000610f0682610d39565b610f108185610eea565b9350610f20818560208601610d55565b610f2981610d7f565b840191505092915050565b610f3d81610e1f565b82525050565b600060c083016000830151610f5b6000860182610edb565b5060208301518482036020860152610f738282610efb565b91505060408301518482036040860152610f8d8282610efb565b9150506060830151610fa26060860182610edb565b506080830151610fb56080860182610edb565b5060a0830151610fc860a0860182610f34565b508091505092915050565b6000610fdf8383610f43565b905092915050565b6000602082019050919050565b6000610fff82610eaf565b6110098185610eba565b93508360208202850161101b85610ecb565b8060005b8581101561105757848403895281516110388582610fd3565b945061104383610fe7565b925060208a0199505060018101905061101f565b50829750879550505050505092915050565b600060208201905081810360008301526110838184610ff4565b905092915050565b600080fd5b600080fd5b7f4e487b7100000000000000000000000000000000000000000000000000000000600052604160045260246000fd5b6110cd82610d7f565b810181811067ffffffffffffffff821117156110ec576110eb611095565b5b80604052505050565b60006110ff610cb3565b905061110b82826110c4565b919050565b600067ffffffffffffffff82111561112b5761112a611095565b5b61113482610d7f565b9050602081019050919050565b82818337600083830152505050565b600061116361115e84611110565b6110f5565b90508281526020810184848401111561117f5761117e611090565b5b61118a848285611141565b509392505050565b600082601f8301126111a7576111a661108b565b5b81356111b7848260208601611150565b91505092915050565b600281106111cd57600080fd5b50565b6000813590506111df816111c0565b92915050565b60008060008060008060c0878903121561120257611201610cbd565b5b600061121089828a01610ce8565b965050602087013567ffffffffffffffff81111561123157611230610cc2565b5b61123d89828a01611192565b955050604087013567ffffffffffffffff81111561125e5761125d610cc2565b5b61126a89828a01611192565b945050606061127b89828a01610ce8565b935050608061128c89828a01610ce8565b92505060a061129d89828a016111d0565b9150509295509295509295565b600060c0830160008301516112c26000860182610edb565b50602083015184820360208601526112da8282610efb565b915050604083015184820360408601526112f48282610efb565b91505060608301516113096060860182610edb565b50608083015161131c6080860182610edb565b5060a083015161132f60a0860182610f34565b508091505092915050565b6000602082019050818103600083015261135481846112aa565b905092915050565b6000806000806080858703121561137657611375610cbd565b5b600085013567ffffffffffffffff81111561139457611393610cc2565b5b6113a087828801611192565b945050602085013567ffffffffffffffff8111156113c1576113c0610cc2565b5b6113cd87828801611192565b93505060406113de87828801610ce8565b92505060606113ef87828801610ce8565b91505092959194509250565b60006020820190506114106000830184610d2a565b92915050565b7f4e487b7100000000000000000000000000000000000000000000000000000000600052602260045260246000fd5b6000600282049050600182168061145d57607f821691505b6020821081036114705761146f611416565b5b50919050565b7f4e487b7100000000000000000000000000000000000000000000000000000000600052603260045260246000fd5b7f4e487b7100000000000000000000000000000000000000000000000000000000600052601160045260246000fd5b60006114df82610cc7565b91507fffffffffffffffffffffffffffffffffffffffffffffffffffffffffffffffff8203611511576115106114a5565b5b600182019050919050565b7f4576656e7420646f6573206e6f74206578697374000000000000000000000000600082015250565b6000611552601483610d44565b915061155d8261151c565b602082019050919050565b6000602082019050818103600083015261158181611545565b9050919050565b60008190508160005260206000209050919050565b60006020601f8301049050919050565b600082821b905092915050565b6000600883026115ea7fffffffffffffffffffffffffffffffffffffffffffffffffffffffffffffffff826115ad565b6115f486836115ad565b95508019841693508086168417925050509392505050565b6000819050919050565b600061163161162c61162784610cc7565b61160c565b610cc7565b9050919050565b6000819050919050565b61164b83611616565b61165f61165782611638565b8484546115ba565b825550505050565b600090565b611674611667565b61167f818484611642565b505050565b5b818110156116a35761169860008261166c565b600181019050611685565b5050565b601f8211156116e8576116b981611588565b6116c28461159d565b810160208510156116d1578190505b6116e56116dd8561159d565b830182611684565b50505b505050565b600082821c905092915050565b600061170b600019846008026116ed565b1980831691505092915050565b600061172483836116fa565b9150826002028217905092915050565b61173d82610d39565b67ffffffffffffffff81111561175657611755611095565b5b6117608254611445565b61176b8282856116a7565b600060209050601f83116001811461179e576000841561178c578287015190505b6117968582611718565b8655506117fe565b601f1984166117ac86611588565b60005b828110156117d4578489015182556001820191506020850194506020810190506117af565b868310156117f157848901516117ed601f8916826116fa565b8355505b6001600288020188555050505b505050505050565b7f496e646578206f7574206f6620626f756e647300000000000000000000000000600082015250565b600061183c601383610d44565b915061184782611806565b602082019050919050565b6000602082019050818103600083015261186b8161182f565b9050919050565b600061187d82610cc7565b915061188883610cc7565b92508282019050808211156118a05761189f6114a5565b5b9291505056fea26469706673582212209efb649958670624ecdcdf4b36af16420284cce1c8ff196d82b0b0c88728f00364736f6c63430008170033",
  "linkReferences": {},
  "deployedLinkReferences": {}
}