{
  "_format": "hh-sol-artifact-1",
  "contractName": "QuestEvents",
  "sourceName": "contracts/QuestEvents.sol",
  "abi": [
    {
      "inputs": [
        {
          "internalType": "uint256",
          "name": "eventId",
          "type": "uint256"
        },
        {
          "internalType": "uint256",
          "name": "questId",
          "type": "uint256"
        },
        {
          "internalType": "uint256",
          "name": "minimumInteractions",
          "type": "uint256"
        },
        {
          "internalType": "uint256",
          "name": "startDate",
          "type": "uint256"
        },
        {
          "internalType": "uint256",
          "name": "endDate",
          "type": "uint256"
        },
        {
          "internalType": "uint256",
          "name": "rewardAmount",
          "type": "uint256"
        },
        {
          "internalType": "string",
          "name": "urlHashTags",
          "type": "string"
        }
      ],
      "name": "createQuestEvent",
      "outputs": [
        {
          "internalType": "uint256",
          "name": "",
          "type": "uint256"
        }
      ],
      "stateMutability": "nonpayable",
      "type": "function"
    },
    {
      "inputs": [
        {
          "internalType": "uint256",
          "name": "questEventId",
          "type": "uint256"
        }
      ],
      "name": "deleteQuestEvent",
      "outputs": [],
      "stateMutability": "nonpayable",
      "type": "function"
    },
    {
      "inputs": [],
      "name": "getQuestEventCount",
      "outputs": [
        {
          "internalType": "uint256",
          "name": "",
          "type": "uint256"
        }
      ],
      "stateMutability": "view",
      "type": "function"
    },
    {
      "inputs": [],
      "name": "listQuestEvents",
      "outputs": [
        {
          "components": [
            {
              "internalType": "uint256",
              "name": "questEventId",
              "type": "uint256"
            },
            {
              "internalType": "uint256",
              "name": "eventId",
              "type": "uint256"
            },
            {
              "internalType": "uint256",
              "name": "questId",
              "type": "uint256"
            },
            {
              "internalType": "uint256",
              "name": "minimumInteractions",
              "type": "uint256"
            },
            {
              "internalType": "uint256",
              "name": "startDate",
              "type": "uint256"
            },
            {
              "internalType": "uint256",
              "name": "endDate",
              "type": "uint256"
            },
            {
              "internalType": "uint256",
              "name": "rewardAmount",
              "type": "uint256"
            },
            {
              "internalType": "string",
              "name": "urlHashTags",
              "type": "string"
            }
          ],
          "internalType": "struct QuestEvents.QuestEvent[]",
          "name": "",
          "type": "tuple[]"
        }
      ],
      "stateMutability": "view",
      "type": "function"
    },
    {
      "inputs": [
        {
          "internalType": "uint256",
          "name": "",
          "type": "uint256"
        }
      ],
      "name": "questEvents",
      "outputs": [
        {
          "internalType": "uint256",
          "name": "questEventId",
          "type": "uint256"
        },
        {
          "internalType": "uint256",
          "name": "eventId",
          "type": "uint256"
        },
        {
          "internalType": "uint256",
          "name": "questId",
          "type": "uint256"
        },
        {
          "internalType": "uint256",
          "name": "minimumInteractions",
          "type": "uint256"
        },
        {
          "internalType": "uint256",
          "name": "startDate",
          "type": "uint256"
        },
        {
          "internalType": "uint256",
          "name": "endDate",
          "type": "uint256"
        },
        {
          "internalType": "uint256",
          "name": "rewardAmount",
          "type": "uint256"
        },
        {
          "internalType": "string",
          "name": "urlHashTags",
          "type": "string"
        }
      ],
      "stateMutability": "view",
      "type": "function"
    },
    {
      "inputs": [
        {
          "internalType": "uint256",
          "name": "questEventId",
          "type": "uint256"
        }
      ],
      "name": "readQuestEvent",
      "outputs": [
        {
          "components": [
            {
              "internalType": "uint256",
              "name": "questEventId",
              "type": "uint256"
            },
            {
              "internalType": "uint256",
              "name": "eventId",
              "type": "uint256"
            },
            {
              "internalType": "uint256",
              "name": "questId",
              "type": "uint256"
            },
            {
              "internalType": "uint256",
              "name": "minimumInteractions",
              "type": "uint256"
            },
            {
              "internalType": "uint256",
              "name": "startDate",
              "type": "uint256"
            },
            {
              "internalType": "uint256",
              "name": "endDate",
              "type": "uint256"
            },
            {
              "internalType": "uint256",
              "name": "rewardAmount",
              "type": "uint256"
            },
            {
              "internalType": "string",
              "name": "urlHashTags",
              "type": "string"
            }
          ],
          "internalType": "struct QuestEvents.QuestEvent",
          "name": "",
          "type": "tuple"
        }
      ],
      "stateMutability": "view",
      "type": "function"
    },
    {
      "inputs": [
        {
          "internalType": "uint256",
          "name": "questEventId",
          "type": "uint256"
        },
        {
          "internalType": "uint256",
          "name": "eventId",
          "type": "uint256"
        },
        {
          "internalType": "uint256",
          "name": "questId",
          "type": "uint256"
        },
        {
          "internalType": "uint256",
          "name": "minimumInteractions",
          "type": "uint256"
        },
        {
          "internalType": "uint256",
          "name": "startDate",
          "type": "uint256"
        },
        {
          "internalType": "uint256",
          "name": "endDate",
          "type": "uint256"
        },
        {
          "internalType": "uint256",
          "name": "rewardAmount",
          "type": "uint256"
        },
        {
          "internalType": "string",
          "name": "urlHashTags",
          "type": "string"
        }
      ],
      "name": "updateQuestEvent",
      "outputs": [],
      "stateMutability": "nonpayable",
      "type": "function"
    }
  ],
  "bytecode": "0x608060405234801561001057600080fd5b506113cc806100206000396000f3fe608060405234801561001057600080fd5b506004361061007d5760003560e01c806362bd18641161005b57806362bd1864146100f157806381982ab71461010f57806397c4e95c1461013f578063b328fd8e1461016f5761007d565b80631b719189146100825780634e1b7c33146100b957806361e7bfe7146100d5575b600080fd5b61009c600480360381019061009791906108b6565b61018d565b6040516100b0989796959493929190610982565b60405180910390f35b6100d360048036038101906100ce9190610b3c565b61025d565b005b6100ef60048036038101906100ea91906108b6565b610309565b005b6100f96103c1565b6040516101069190610c0e565b60405180910390f35b610129600480360381019061012491906108b6565b6103cb565b6040516101369190610d32565b60405180910390f35b61015960048036038101906101549190610d54565b610528565b6040516101669190610c0e565b60405180910390f35b610177610601565b6040516101849190610f84565b60405180910390f35b60006020528060005260406000206000915090508060000154908060010154908060020154908060030154908060040154908060050154908060060154908060070180546101da90610fd5565b80601f016020809104026020016040519081016040528092919081815260200182805461020690610fd5565b80156102535780601f1061022857610100808354040283529160200191610253565b820191906000526020600020905b81548152906001019060200180831161023657829003601f168201915b5050505050905088565b600088036102a0576040517f08c379a000000000000000000000000000000000000000000000000000000000815260040161029790611052565b60405180910390fd5b60008060008a81526020019081526020016000209050878160010181905550868160020181905550858160030181905550848160040181905550838160050181905550828160060181905550818160070190816102fd919061121e565b50505050505050505050565b60008060008381526020019081526020016000206000015403610361576040517f08c379a000000000000000000000000000000000000000000000000000000000815260040161035890611052565b60405180910390fd5b6000808281526020019081526020016000206000808201600090556001820160009055600282016000905560038201600090556004820160009055600582016000905560068201600090556007820160006103bc91906107ca565b505050565b6000600154905090565b6103d361080a565b6000806000848152602001908152602001600020600001540361042b576040517f08c379a000000000000000000000000000000000000000000000000000000000815260040161042290611052565b60405180910390fd5b600080838152602001908152602001600020604051806101000160405290816000820154815260200160018201548152602001600282015481526020016003820154815260200160048201548152602001600582015481526020016006820154815260200160078201805461049f90610fd5565b80601f01602080910402602001604051908101604052809291908181526020018280546104cb90610fd5565b80156105185780601f106104ed57610100808354040283529160200191610518565b820191906000526020600020905b8154815290600101906020018083116104fb57829003601f168201915b5050505050815250509050919050565b60006001600081548092919061053d9061131f565b91905055506040518061010001604052806001548152602001898152602001888152602001878152602001868152602001858152602001848152602001838152506000806001548152602001908152602001600020600082015181600001556020820151816001015560408201518160020155606082015181600301556080820151816004015560a0820151816005015560c0820151816006015560e08201518160070190816105ed919061121e565b509050506001549050979650505050505050565b6060600060015467ffffffffffffffff81111561062157610620610a11565b5b60405190808252806020026020018201604052801561065a57816020015b61064761080a565b81526020019060019003908161063f5790505b509050600080600190505b60015481116107c157600080600083815260200190815260200160002060000154146107ae5760008082815260200190815260200160002060405180610100016040529081600082015481526020016001820154815260200160028201548152602001600382015481526020016004820154815260200160058201548152602001600682015481526020016007820180546106ff90610fd5565b80601f016020809104026020016040519081016040528092919081815260200182805461072b90610fd5565b80156107785780601f1061074d57610100808354040283529160200191610778565b820191906000526020600020905b81548152906001019060200180831161075b57829003601f168201915b50505050508152505083838151811061079457610793611367565b5b602002602001018190525081806107aa9061131f565b9250505b80806107b99061131f565b915050610665565b50819250505090565b5080546107d690610fd5565b6000825580601f106107e85750610807565b601f016020900490600052602060002090810190610806919061084f565b5b50565b60405180610100016040528060008152602001600081526020016000815260200160008152602001600081526020016000815260200160008152602001606081525090565b5b80821115610868576000816000905550600101610850565b5090565b6000604051905090565b600080fd5b600080fd5b6000819050919050565b61089381610880565b811461089e57600080fd5b50565b6000813590506108b08161088a565b92915050565b6000602082840312156108cc576108cb610876565b5b60006108da848285016108a1565b91505092915050565b6108ec81610880565b82525050565b600081519050919050565b600082825260208201905092915050565b60005b8381101561092c578082015181840152602081019050610911565b60008484015250505050565b6000601f19601f8301169050919050565b6000610954826108f2565b61095e81856108fd565b935061096e81856020860161090e565b61097781610938565b840191505092915050565b600061010082019050610998600083018b6108e3565b6109a5602083018a6108e3565b6109b260408301896108e3565b6109bf60608301886108e3565b6109cc60808301876108e3565b6109d960a08301866108e3565b6109e660c08301856108e3565b81810360e08301526109f88184610949565b90509998505050505050505050565b600080fd5b600080fd5b7f4e487b7100000000000000000000000000000000000000000000000000000000600052604160045260246000fd5b610a4982610938565b810181811067ffffffffffffffff82111715610a6857610a67610a11565b5b80604052505050565b6000610a7b61086c565b9050610a878282610a40565b919050565b600067ffffffffffffffff821115610aa757610aa6610a11565b5b610ab082610938565b9050602081019050919050565b82818337600083830152505050565b6000610adf610ada84610a8c565b610a71565b905082815260208101848484011115610afb57610afa610a0c565b5b610b06848285610abd565b509392505050565b600082601f830112610b2357610b22610a07565b5b8135610b33848260208601610acc565b91505092915050565b600080600080600080600080610100898b031215610b5d57610b5c610876565b5b6000610b6b8b828c016108a1565b9850506020610b7c8b828c016108a1565b9750506040610b8d8b828c016108a1565b9650506060610b9e8b828c016108a1565b9550506080610baf8b828c016108a1565b94505060a0610bc08b828c016108a1565b93505060c0610bd18b828c016108a1565b92505060e089013567ffffffffffffffff811115610bf257610bf161087b565b5b610bfe8b828c01610b0e565b9150509295985092959890939650565b6000602082019050610c2360008301846108e3565b92915050565b610c3281610880565b82525050565b600082825260208201905092915050565b6000610c54826108f2565b610c5e8185610c38565b9350610c6e81856020860161090e565b610c7781610938565b840191505092915050565b600061010083016000830151610c9b6000860182610c29565b506020830151610cae6020860182610c29565b506040830151610cc16040860182610c29565b506060830151610cd46060860182610c29565b506080830151610ce76080860182610c29565b5060a0830151610cfa60a0860182610c29565b5060c0830151610d0d60c0860182610c29565b5060e083015184820360e0860152610d258282610c49565b9150508091505092915050565b60006020820190508181036000830152610d4c8184610c82565b905092915050565b600080600080600080600060e0888a031215610d7357610d72610876565b5b6000610d818a828b016108a1565b9750506020610d928a828b016108a1565b9650506040610da38a828b016108a1565b9550506060610db48a828b016108a1565b9450506080610dc58a828b016108a1565b93505060a0610dd68a828b016108a1565b92505060c088013567ffffffffffffffff811115610df757610df661087b565b5b610e038a828b01610b0e565b91505092959891949750929550565b600081519050919050565b600082825260208201905092915050565b6000819050602082019050919050565b600061010083016000830151610e576000860182610c29565b506020830151610e6a6020860182610c29565b506040830151610e7d6040860182610c29565b506060830151610e906060860182610c29565b506080830151610ea36080860182610c29565b5060a0830151610eb660a0860182610c29565b5060c0830151610ec960c0860182610c29565b5060e083015184820360e0860152610ee18282610c49565b9150508091505092915050565b6000610efa8383610e3e565b905092915050565b6000602082019050919050565b6000610f1a82610e12565b610f248185610e1d565b935083602082028501610f3685610e2e565b8060005b85811015610f725784840389528151610f538582610eee565b9450610f5e83610f02565b925060208a01995050600181019050610f3a565b50829750879550505050505092915050565b60006020820190508181036000830152610f9e8184610f0f565b905092915050565b7f4e487b7100000000000000000000000000000000000000000000000000000000600052602260045260246000fd5b60006002820490506001821680610fed57607f821691505b60208210810361100057610fff610fa6565b5b50919050565b7f51756573744576656e7420646f6573206e6f7420657869737400000000000000600082015250565b600061103c6019836108fd565b915061104782611006565b602082019050919050565b6000602082019050818103600083015261106b8161102f565b9050919050565b60008190508160005260206000209050919050565b60006020601f8301049050919050565b600082821b905092915050565b6000600883026110d47fffffffffffffffffffffffffffffffffffffffffffffffffffffffffffffffff82611097565b6110de8683611097565b95508019841693508086168417925050509392505050565b6000819050919050565b600061111b61111661111184610880565b6110f6565b610880565b9050919050565b6000819050919050565b61113583611100565b61114961114182611122565b8484546110a4565b825550505050565b600090565b61115e611151565b61116981848461112c565b505050565b5b8181101561118d57611182600082611156565b60018101905061116f565b5050565b601f8211156111d2576111a381611072565b6111ac84611087565b810160208510156111bb578190505b6111cf6111c785611087565b83018261116e565b50505b505050565b600082821c905092915050565b60006111f5600019846008026111d7565b1980831691505092915050565b600061120e83836111e4565b9150826002028217905092915050565b611227826108f2565b67ffffffffffffffff8111156112405761123f610a11565b5b61124a8254610fd5565b611255828285611191565b600060209050601f8311600181146112885760008415611276578287015190505b6112808582611202565b8655506112e8565b601f19841661129686611072565b60005b828110156112be57848901518255600182019150602085019450602081019050611299565b868310156112db57848901516112d7601f8916826111e4565b8355505b6001600288020188555050505b505050505050565b7f4e487b7100000000000000000000000000000000000000000000000000000000600052601160045260246000fd5b600061132a82610880565b91507fffffffffffffffffffffffffffffffffffffffffffffffffffffffffffffffff820361135c5761135b6112f0565b5b600182019050919050565b7f4e487b7100000000000000000000000000000000000000000000000000000000600052603260045260246000fdfea2646970667358221220c8ebf310bb1088d5ff43bc64a39d3942bdeb622abe2e41598c72c17051ee870e64736f6c63430008170033",
  "linkReferences": {},
  "deployedLinkReferences": {}
}