{
  "_format": "hh-sol-artifact-1",
  "contractName": "QuestTypeEvent",
  "sourceName": "contracts/QuestTypeEvent.sol",
  "abi": [
    {
      "anonymous": false,
      "inputs": [
        {
          "indexed": false,
          "internalType": "uint256",
          "name": "questTypeEventId",
          "type": "uint256"
        }
      ],
      "name": "QuestTypeEventCreated",
      "type": "event"
    },
    {
      "anonymous": false,
      "inputs": [
        {
          "indexed": false,
          "internalType": "uint256",
          "name": "questTypeEventId",
          "type": "uint256"
        }
      ],
      "name": "QuestTypeEventDeleted",
      "type": "event"
    },
    {
      "anonymous": false,
      "inputs": [
        {
          "indexed": false,
          "internalType": "uint256",
          "name": "questTypeEventId",
          "type": "uint256"
        }
      ],
      "name": "QuestTypeEventUpdated",
      "type": "event"
    },
    {
      "inputs": [
        {
          "internalType": "uint256",
          "name": "eventId",
          "type": "uint256"
        },
        {
          "internalType": "uint256",
          "name": "questTypeId",
          "type": "uint256"
        },
        {
          "internalType": "uint256",
          "name": "reward",
          "type": "uint256"
        },
        {
          "internalType": "string",
          "name": "name",
          "type": "string"
        },
        {
          "internalType": "string",
          "name": "description",
          "type": "string"
        },
        {
          "internalType": "uint256",
          "name": "requiredInteractions",
          "type": "uint256"
        },
        {
          "internalType": "uint256",
          "name": "questEventStartDate",
          "type": "uint256"
        },
        {
          "internalType": "uint256",
          "name": "questEventEndDate",
          "type": "uint256"
        }
      ],
      "name": "createQuestTypeEvent",
      "outputs": [
        {
          "internalType": "uint256",
          "name": "",
          "type": "uint256"
        }
      ],
      "stateMutability": "nonpayable",
      "type": "function"
    },
    {
      "inputs": [
        {
          "internalType": "uint256",
          "name": "questTypeEventId",
          "type": "uint256"
        }
      ],
      "name": "deleteQuestTypeEvent",
      "outputs": [],
      "stateMutability": "nonpayable",
      "type": "function"
    },
    {
      "inputs": [
        {
          "internalType": "uint256",
          "name": "index",
          "type": "uint256"
        }
      ],
      "name": "getQuestTypeEventByIndex",
      "outputs": [
        {
          "components": [
            {
              "internalType": "uint256",
              "name": "eventId",
              "type": "uint256"
            },
            {
              "internalType": "uint256",
              "name": "questTypeId",
              "type": "uint256"
            },
            {
              "internalType": "uint256",
              "name": "questTypeEventId",
              "type": "uint256"
            },
            {
              "internalType": "uint256",
              "name": "reward",
              "type": "uint256"
            },
            {
              "internalType": "string",
              "name": "name",
              "type": "string"
            },
            {
              "internalType": "string",
              "name": "description",
              "type": "string"
            },
            {
              "internalType": "uint256",
              "name": "requiredInteractions",
              "type": "uint256"
            },
            {
              "internalType": "uint256",
              "name": "questEventStartDate",
              "type": "uint256"
            },
            {
              "internalType": "uint256",
              "name": "questEventEndDate",
              "type": "uint256"
            }
          ],
          "internalType": "struct QuestTypeEvent.QuestTypeEventStruct",
          "name": "",
          "type": "tuple"
        }
      ],
      "stateMutability": "view",
      "type": "function"
    },
    {
      "inputs": [],
      "name": "getQuestTypeEventCount",
      "outputs": [
        {
          "internalType": "uint256",
          "name": "",
          "type": "uint256"
        }
      ],
      "stateMutability": "view",
      "type": "function"
    },
    {
      "inputs": [],
      "name": "listQuestTypeEvents",
      "outputs": [
        {
          "components": [
            {
              "internalType": "uint256",
              "name": "eventId",
              "type": "uint256"
            },
            {
              "internalType": "uint256",
              "name": "questTypeId",
              "type": "uint256"
            },
            {
              "internalType": "uint256",
              "name": "questTypeEventId",
              "type": "uint256"
            },
            {
              "internalType": "uint256",
              "name": "reward",
              "type": "uint256"
            },
            {
              "internalType": "string",
              "name": "name",
              "type": "string"
            },
            {
              "internalType": "string",
              "name": "description",
              "type": "string"
            },
            {
              "internalType": "uint256",
              "name": "requiredInteractions",
              "type": "uint256"
            },
            {
              "internalType": "uint256",
              "name": "questEventStartDate",
              "type": "uint256"
            },
            {
              "internalType": "uint256",
              "name": "questEventEndDate",
              "type": "uint256"
            }
          ],
          "internalType": "struct QuestTypeEvent.QuestTypeEventStruct[]",
          "name": "",
          "type": "tuple[]"
        }
      ],
      "stateMutability": "view",
      "type": "function"
    },
    {
      "inputs": [
        {
          "internalType": "uint256",
          "name": "",
          "type": "uint256"
        }
      ],
      "name": "questTypeEvents",
      "outputs": [
        {
          "internalType": "uint256",
          "name": "eventId",
          "type": "uint256"
        },
        {
          "internalType": "uint256",
          "name": "questTypeId",
          "type": "uint256"
        },
        {
          "internalType": "uint256",
          "name": "questTypeEventId",
          "type": "uint256"
        },
        {
          "internalType": "uint256",
          "name": "reward",
          "type": "uint256"
        },
        {
          "internalType": "string",
          "name": "name",
          "type": "string"
        },
        {
          "internalType": "string",
          "name": "description",
          "type": "string"
        },
        {
          "internalType": "uint256",
          "name": "requiredInteractions",
          "type": "uint256"
        },
        {
          "internalType": "uint256",
          "name": "questEventStartDate",
          "type": "uint256"
        },
        {
          "internalType": "uint256",
          "name": "questEventEndDate",
          "type": "uint256"
        }
      ],
      "stateMutability": "view",
      "type": "function"
    },
    {
      "inputs": [
        {
          "internalType": "uint256",
          "name": "questTypeEventId",
          "type": "uint256"
        }
      ],
      "name": "readQuestTypeEvent",
      "outputs": [
        {
          "components": [
            {
              "internalType": "uint256",
              "name": "eventId",
              "type": "uint256"
            },
            {
              "internalType": "uint256",
              "name": "questTypeId",
              "type": "uint256"
            },
            {
              "internalType": "uint256",
              "name": "questTypeEventId",
              "type": "uint256"
            },
            {
              "internalType": "uint256",
              "name": "reward",
              "type": "uint256"
            },
            {
              "internalType": "string",
              "name": "name",
              "type": "string"
            },
            {
              "internalType": "string",
              "name": "description",
              "type": "string"
            },
            {
              "internalType": "uint256",
              "name": "requiredInteractions",
              "type": "uint256"
            },
            {
              "internalType": "uint256",
              "name": "questEventStartDate",
              "type": "uint256"
            },
            {
              "internalType": "uint256",
              "name": "questEventEndDate",
              "type": "uint256"
            }
          ],
          "internalType": "struct QuestTypeEvent.QuestTypeEventStruct",
          "name": "",
          "type": "tuple"
        }
      ],
      "stateMutability": "view",
      "type": "function"
    },
    {
      "inputs": [
        {
          "internalType": "uint256",
          "name": "questTypeEventId",
          "type": "uint256"
        },
        {
          "internalType": "uint256",
          "name": "eventId",
          "type": "uint256"
        },
        {
          "internalType": "uint256",
          "name": "questTypeId",
          "type": "uint256"
        },
        {
          "internalType": "uint256",
          "name": "reward",
          "type": "uint256"
        },
        {
          "internalType": "string",
          "name": "name",
          "type": "string"
        },
        {
          "internalType": "string",
          "name": "description",
          "type": "string"
        },
        {
          "internalType": "uint256",
          "name": "requiredInteractions",
          "type": "uint256"
        },
        {
          "internalType": "uint256",
          "name": "questEventStartDate",
          "type": "uint256"
        },
        {
          "internalType": "uint256",
          "name": "questEventEndDate",
          "type": "uint256"
        }
      ],
      "name": "updateQuestTypeEvent",
      "outputs": [],
      "stateMutability": "nonpayable",
      "type": "function"
    }
  ],
  "bytecode": "0x608060405234801561001057600080fd5b506119f3806100206000396000f3fe608060405234801561001057600080fd5b50600436106100885760003560e01c80637ffe2ba71161005b5780637ffe2ba71461012f5780639a74e8301461014b578063c3707f841461017b578063d8d59a721461019957610088565b806345b891cb1461008d57806358c5acc7146100a95780636a7b668b146100c7578063710b869e146100ff575b600080fd5b6100a760048036038101906100a29190610d8f565b6101c9565b005b6100b16102c8565b6040516100be9190610fe9565b60405180910390f35b6100e160048036038101906100dc9190610d8f565b610523565b6040516100f699989796959493929190611064565b60405180910390f35b61011960048036038101906101149190610d8f565b610681565b60405161012691906111cb565b60405180910390f35b61014960048036038101906101449190611322565b610870565b005b61016560048036038101906101609190611424565b61097b565b6040516101729190611512565b60405180910390f35b610183610aab565b6040516101909190611512565b60405180910390f35b6101b360048036038101906101ae9190610d8f565b610ab5565b6040516101c091906111cb565b60405180910390f35b60008060008381526020019081526020016000206002015403610221576040517f08c379a000000000000000000000000000000000000000000000000000000000815260040161021890611579565b60405180910390fd5b6000808281526020019081526020016000206000808201600090556001820160009055600282016000905560038201600090556004820160006102649190610c9c565b6005820160006102749190610c9c565b60068201600090556007820160009055600882016000905550507f0109f3cdd15f8ad2473493a0760b3f439fc6ab5787ab063ed21e46588755a19b816040516102bd9190611512565b60405180910390a150565b6060600060015467ffffffffffffffff8111156102e8576102e76111f7565b5b60405190808252806020026020018201604052801561032157816020015b61030e610cdc565b8152602001906001900390816103065790505b509050600080600190505b600154811161051a57600080600083815260200190815260200160002060020154146105075760008082815260200190815260200160002060405180610120016040529081600082015481526020016001820154815260200160028201548152602001600382015481526020016004820180546103a8906115c8565b80601f01602080910402602001604051908101604052809291908181526020018280546103d4906115c8565b80156104215780601f106103f657610100808354040283529160200191610421565b820191906000526020600020905b81548152906001019060200180831161040457829003601f168201915b5050505050815260200160058201805461043a906115c8565b80601f0160208091040260200160405190810160405280929190818152602001828054610466906115c8565b80156104b35780601f10610488576101008083540402835291602001916104b3565b820191906000526020600020905b81548152906001019060200180831161049657829003601f168201915b5050505050815260200160068201548152602001600782015481526020016008820154815250508383815181106104ed576104ec6115f9565b5b6020026020010181905250818061050390611657565b9250505b808061051290611657565b91505061032c565b50819250505090565b600060205280600052604060002060009150905080600001549080600101549080600201549080600301549080600401805461055e906115c8565b80601f016020809104026020016040519081016040528092919081815260200182805461058a906115c8565b80156105d75780601f106105ac576101008083540402835291602001916105d7565b820191906000526020600020905b8154815290600101906020018083116105ba57829003601f168201915b5050505050908060050180546105ec906115c8565b80601f0160208091040260200160405190810160405280929190818152602001828054610618906115c8565b80156106655780601f1061063a57610100808354040283529160200191610665565b820191906000526020600020905b81548152906001019060200180831161064857829003601f168201915b5050505050908060060154908060070154908060080154905089565b610689610cdc565b600080600084815260200190815260200160002060020154036106e1576040517f08c379a00000000000000000000000000000000000000000000000000000000081526004016106d890611579565b60405180910390fd5b6000808381526020019081526020016000206040518061012001604052908160008201548152602001600182015481526020016002820154815260200160038201548152602001600482018054610737906115c8565b80601f0160208091040260200160405190810160405280929190818152602001828054610763906115c8565b80156107b05780601f10610785576101008083540402835291602001916107b0565b820191906000526020600020905b81548152906001019060200180831161079357829003601f168201915b505050505081526020016005820180546107c9906115c8565b80601f01602080910402602001604051908101604052809291908181526020018280546107f5906115c8565b80156108425780601f1061081757610100808354040283529160200191610842565b820191906000526020600020905b81548152906001019060200180831161082557829003601f168201915b5050505050815260200160068201548152602001600782015481526020016008820154815250509050919050565b60008060008b815260200190815260200160002060020154036108c8576040517f08c379a00000000000000000000000000000000000000000000000000000000081526004016108bf90611579565b60405180910390fd5b60008060008b815260200190815260200160002090508881600001819055508781600101819055508681600301819055508581600401908161090a919061184b565b508481600501908161091c919061184b565b508381600601819055508281600701819055508181600801819055507f6607973f0ecc284bf9718b4e9718a4ee97d8af623a3fbd7fca53e7b209f779a38a6040516109679190611512565b60405180910390a150505050505050505050565b60006001600081548092919061099090611657565b91905055506040518061012001604052808a81526020018981526020016001548152602001888152602001878152602001868152602001858152602001848152602001838152506000806001548152602001908152602001600020600082015181600001556020820151816001015560408201518160020155606082015181600301556080820151816004019081610a28919061184b565b5060a0820151816005019081610a3e919061184b565b5060c0820151816006015560e0820151816007015561010082015181600801559050507ff40dc7470b0204a2afb92c514c95dbef4dda56d14fb9ffb73593b51d63246efe600154604051610a929190611512565b60405180910390a1600154905098975050505050505050565b6000600154905090565b610abd610cdc565b6001548210610b01576040517f08c379a0000000000000000000000000000000000000000000000000000000008152600401610af890611969565b60405180910390fd5b600080600184610b119190611989565b81526020019081526020016000206040518061012001604052908160008201548152602001600182015481526020016002820154815260200160038201548152602001600482018054610b63906115c8565b80601f0160208091040260200160405190810160405280929190818152602001828054610b8f906115c8565b8015610bdc5780601f10610bb157610100808354040283529160200191610bdc565b820191906000526020600020905b815481529060010190602001808311610bbf57829003601f168201915b50505050508152602001600582018054610bf5906115c8565b80601f0160208091040260200160405190810160405280929190818152602001828054610c21906115c8565b8015610c6e5780601f10610c4357610100808354040283529160200191610c6e565b820191906000526020600020905b815481529060010190602001808311610c5157829003601f168201915b5050505050815260200160068201548152602001600782015481526020016008820154815250509050919050565b508054610ca8906115c8565b6000825580601f10610cba5750610cd9565b601f016020900490600052602060002090810190610cd89190610d28565b5b50565b6040518061012001604052806000815260200160008152602001600081526020016000815260200160608152602001606081526020016000815260200160008152602001600081525090565b5b80821115610d41576000816000905550600101610d29565b5090565b6000604051905090565b600080fd5b600080fd5b6000819050919050565b610d6c81610d59565b8114610d7757600080fd5b50565b600081359050610d8981610d63565b92915050565b600060208284031215610da557610da4610d4f565b5b6000610db384828501610d7a565b91505092915050565b600081519050919050565b600082825260208201905092915050565b6000819050602082019050919050565b610df181610d59565b82525050565b600081519050919050565b600082825260208201905092915050565b60005b83811015610e31578082015181840152602081019050610e16565b60008484015250505050565b6000601f19601f8301169050919050565b6000610e5982610df7565b610e638185610e02565b9350610e73818560208601610e13565b610e7c81610e3d565b840191505092915050565b600061012083016000830151610ea06000860182610de8565b506020830151610eb36020860182610de8565b506040830151610ec66040860182610de8565b506060830151610ed96060860182610de8565b5060808301518482036080860152610ef18282610e4e565b91505060a083015184820360a0860152610f0b8282610e4e565b91505060c0830151610f2060c0860182610de8565b5060e0830151610f3360e0860182610de8565b50610100830151610f48610100860182610de8565b508091505092915050565b6000610f5f8383610e87565b905092915050565b6000602082019050919050565b6000610f7f82610dbc565b610f898185610dc7565b935083602082028501610f9b85610dd8565b8060005b85811015610fd75784840389528151610fb88582610f53565b9450610fc383610f67565b925060208a01995050600181019050610f9f565b50829750879550505050505092915050565b600060208201905081810360008301526110038184610f74565b905092915050565b61101481610d59565b82525050565b600082825260208201905092915050565b600061103682610df7565b611040818561101a565b9350611050818560208601610e13565b61105981610e3d565b840191505092915050565b60006101208201905061107a600083018c61100b565b611087602083018b61100b565b611094604083018a61100b565b6110a1606083018961100b565b81810360808301526110b3818861102b565b905081810360a08301526110c7818761102b565b90506110d660c083018661100b565b6110e360e083018561100b565b6110f161010083018461100b565b9a9950505050505050505050565b6000610120830160008301516111186000860182610de8565b50602083015161112b6020860182610de8565b50604083015161113e6040860182610de8565b5060608301516111516060860182610de8565b50608083015184820360808601526111698282610e4e565b91505060a083015184820360a08601526111838282610e4e565b91505060c083015161119860c0860182610de8565b5060e08301516111ab60e0860182610de8565b506101008301516111c0610100860182610de8565b508091505092915050565b600060208201905081810360008301526111e581846110ff565b905092915050565b600080fd5b600080fd5b7f4e487b7100000000000000000000000000000000000000000000000000000000600052604160045260246000fd5b61122f82610e3d565b810181811067ffffffffffffffff8211171561124e5761124d6111f7565b5b80604052505050565b6000611261610d45565b905061126d8282611226565b919050565b600067ffffffffffffffff82111561128d5761128c6111f7565b5b61129682610e3d565b9050602081019050919050565b82818337600083830152505050565b60006112c56112c084611272565b611257565b9050828152602081018484840111156112e1576112e06111f2565b5b6112ec8482856112a3565b509392505050565b600082601f830112611309576113086111ed565b5b81356113198482602086016112b2565b91505092915050565b60008060008060008060008060006101208a8c03121561134557611344610d4f565b5b60006113538c828d01610d7a565b99505060206113648c828d01610d7a565b98505060406113758c828d01610d7a565b97505060606113868c828d01610d7a565b96505060808a013567ffffffffffffffff8111156113a7576113a6610d54565b5b6113b38c828d016112f4565b95505060a08a013567ffffffffffffffff8111156113d4576113d3610d54565b5b6113e08c828d016112f4565b94505060c06113f18c828d01610d7a565b93505060e06114028c828d01610d7a565b9250506101006114148c828d01610d7a565b9150509295985092959850929598565b600080600080600080600080610100898b03121561144557611444610d4f565b5b60006114538b828c01610d7a565b98505060206114648b828c01610d7a565b97505060406114758b828c01610d7a565b965050606089013567ffffffffffffffff81111561149657611495610d54565b5b6114a28b828c016112f4565b955050608089013567ffffffffffffffff8111156114c3576114c2610d54565b5b6114cf8b828c016112f4565b94505060a06114e08b828c01610d7a565b93505060c06114f18b828c01610d7a565b92505060e06115028b828c01610d7a565b9150509295985092959890939650565b6000602082019050611527600083018461100b565b92915050565b7f5175657374547970654576656e7420646f6573206e6f74206578697374000000600082015250565b6000611563601d8361101a565b915061156e8261152d565b602082019050919050565b6000602082019050818103600083015261159281611556565b9050919050565b7f4e487b7100000000000000000000000000000000000000000000000000000000600052602260045260246000fd5b600060028204905060018216806115e057607f821691505b6020821081036115f3576115f2611599565b5b50919050565b7f4e487b7100000000000000000000000000000000000000000000000000000000600052603260045260246000fd5b7f4e487b7100000000000000000000000000000000000000000000000000000000600052601160045260246000fd5b600061166282610d59565b91507fffffffffffffffffffffffffffffffffffffffffffffffffffffffffffffffff820361169457611693611628565b5b600182019050919050565b60008190508160005260206000209050919050565b60006020601f8301049050919050565b600082821b905092915050565b6000600883026117017fffffffffffffffffffffffffffffffffffffffffffffffffffffffffffffffff826116c4565b61170b86836116c4565b95508019841693508086168417925050509392505050565b6000819050919050565b600061174861174361173e84610d59565b611723565b610d59565b9050919050565b6000819050919050565b6117628361172d565b61177661176e8261174f565b8484546116d1565b825550505050565b600090565b61178b61177e565b611796818484611759565b505050565b5b818110156117ba576117af600082611783565b60018101905061179c565b5050565b601f8211156117ff576117d08161169f565b6117d9846116b4565b810160208510156117e8578190505b6117fc6117f4856116b4565b83018261179b565b50505b505050565b600082821c905092915050565b600061182260001984600802611804565b1980831691505092915050565b600061183b8383611811565b9150826002028217905092915050565b61185482610df7565b67ffffffffffffffff81111561186d5761186c6111f7565b5b61187782546115c8565b6118828282856117be565b600060209050601f8311600181146118b557600084156118a3578287015190505b6118ad858261182f565b865550611915565b601f1984166118c38661169f565b60005b828110156118eb578489015182556001820191506020850194506020810190506118c6565b868310156119085784890151611904601f891682611811565b8355505b6001600288020188555050505b505050505050565b7f496e646578206f7574206f6620626f756e647300000000000000000000000000600082015250565b600061195360138361101a565b915061195e8261191d565b602082019050919050565b6000602082019050818103600083015261198281611946565b9050919050565b600061199482610d59565b915061199f83610d59565b92508282019050808211156119b7576119b6611628565b5b9291505056fea26469706673582212202c76a49f072e1c29bec9c6597edf8135df65fa4e72232b6bb72aee2706d38fac64736f6c63430008170033",
  "linkReferences": {},
  "deployedLinkReferences": {}
}