{
  "_format": "hh-sol-artifact-1",
  "contractName": "QuestTypes",
  "sourceName": "contracts/QuestType.sol",
  "abi": [
    {
      "inputs": [
        {
          "internalType": "string",
          "name": "name",
          "type": "string"
        },
        {
          "internalType": "string",
          "name": "description",
          "type": "string"
        },
        {
          "internalType": "string",
          "name": "screenName",
          "type": "string"
        },
        {
          "internalType": "string",
          "name": "questContractName",
          "type": "string"
        },
        {
          "internalType": "address",
          "name": "questContractAddress",
          "type": "address"
        },
        {
          "internalType": "string",
          "name": "sponsorRequirementsContractName",
          "type": "string"
        },
        {
          "internalType": "address",
          "name": "sponsorRequirementsAddress",
          "type": "address"
        }
      ],
      "name": "createQuestType",
      "outputs": [
        {
          "internalType": "uint256",
          "name": "",
          "type": "uint256"
        }
      ],
      "stateMutability": "nonpayable",
      "type": "function"
    },
    {
      "inputs": [
        {
          "internalType": "uint256",
          "name": "questTypeId",
          "type": "uint256"
        }
      ],
      "name": "deleteQuestType",
      "outputs": [],
      "stateMutability": "nonpayable",
      "type": "function"
    },
    {
      "inputs": [
        {
          "internalType": "uint256",
          "name": "index",
          "type": "uint256"
        }
      ],
      "name": "getQuestTypeByIndex",
      "outputs": [
        {
          "components": [
            {
              "internalType": "uint256",
              "name": "questTypeId",
              "type": "uint256"
            },
            {
              "internalType": "string",
              "name": "name",
              "type": "string"
            },
            {
              "internalType": "string",
              "name": "description",
              "type": "string"
            },
            {
              "internalType": "string",
              "name": "screenName",
              "type": "string"
            },
            {
              "internalType": "string",
              "name": "questContractName",
              "type": "string"
            },
            {
              "internalType": "address",
              "name": "questContractAddress",
              "type": "address"
            },
            {
              "internalType": "string",
              "name": "sponsorRequirementsContractName",
              "type": "string"
            },
            {
              "internalType": "address",
              "name": "sponsorRequirementsAddress",
              "type": "address"
            }
          ],
          "internalType": "struct QuestTypes.QuestType",
          "name": "",
          "type": "tuple"
        }
      ],
      "stateMutability": "view",
      "type": "function"
    },
    {
      "inputs": [],
      "name": "getQuestTypeCount",
      "outputs": [
        {
          "internalType": "uint256",
          "name": "",
          "type": "uint256"
        }
      ],
      "stateMutability": "view",
      "type": "function"
    },
    {
      "inputs": [],
      "name": "listQuestTypes",
      "outputs": [
        {
          "components": [
            {
              "internalType": "uint256",
              "name": "questTypeId",
              "type": "uint256"
            },
            {
              "internalType": "string",
              "name": "name",
              "type": "string"
            },
            {
              "internalType": "string",
              "name": "description",
              "type": "string"
            },
            {
              "internalType": "string",
              "name": "screenName",
              "type": "string"
            },
            {
              "internalType": "string",
              "name": "questContractName",
              "type": "string"
            },
            {
              "internalType": "address",
              "name": "questContractAddress",
              "type": "address"
            },
            {
              "internalType": "string",
              "name": "sponsorRequirementsContractName",
              "type": "string"
            },
            {
              "internalType": "address",
              "name": "sponsorRequirementsAddress",
              "type": "address"
            }
          ],
          "internalType": "struct QuestTypes.QuestType[]",
          "name": "",
          "type": "tuple[]"
        }
      ],
      "stateMutability": "view",
      "type": "function"
    },
    {
      "inputs": [
        {
          "internalType": "uint256",
          "name": "",
          "type": "uint256"
        }
      ],
      "name": "questTypes",
      "outputs": [
        {
          "internalType": "uint256",
          "name": "questTypeId",
          "type": "uint256"
        },
        {
          "internalType": "string",
          "name": "name",
          "type": "string"
        },
        {
          "internalType": "string",
          "name": "description",
          "type": "string"
        },
        {
          "internalType": "string",
          "name": "screenName",
          "type": "string"
        },
        {
          "internalType": "string",
          "name": "questContractName",
          "type": "string"
        },
        {
          "internalType": "address",
          "name": "questContractAddress",
          "type": "address"
        },
        {
          "internalType": "string",
          "name": "sponsorRequirementsContractName",
          "type": "string"
        },
        {
          "internalType": "address",
          "name": "sponsorRequirementsAddress",
          "type": "address"
        }
      ],
      "stateMutability": "view",
      "type": "function"
    },
    {
      "inputs": [
        {
          "internalType": "uint256",
          "name": "questTypeId",
          "type": "uint256"
        }
      ],
      "name": "readQuestType",
      "outputs": [
        {
          "components": [
            {
              "internalType": "uint256",
              "name": "questTypeId",
              "type": "uint256"
            },
            {
              "internalType": "string",
              "name": "name",
              "type": "string"
            },
            {
              "internalType": "string",
              "name": "description",
              "type": "string"
            },
            {
              "internalType": "string",
              "name": "screenName",
              "type": "string"
            },
            {
              "internalType": "string",
              "name": "questContractName",
              "type": "string"
            },
            {
              "internalType": "address",
              "name": "questContractAddress",
              "type": "address"
            },
            {
              "internalType": "string",
              "name": "sponsorRequirementsContractName",
              "type": "string"
            },
            {
              "internalType": "address",
              "name": "sponsorRequirementsAddress",
              "type": "address"
            }
          ],
          "internalType": "struct QuestTypes.QuestType",
          "name": "",
          "type": "tuple"
        }
      ],
      "stateMutability": "view",
      "type": "function"
    },
    {
      "inputs": [
        {
          "internalType": "uint256",
          "name": "questTypeId",
          "type": "uint256"
        },
        {
          "internalType": "string",
          "name": "name",
          "type": "string"
        },
        {
          "internalType": "string",
          "name": "description",
          "type": "string"
        },
        {
          "internalType": "string",
          "name": "screenName",
          "type": "string"
        },
        {
          "internalType": "string",
          "name": "questContractName",
          "type": "string"
        },
        {
          "internalType": "address",
          "name": "questContractAddress",
          "type": "address"
        },
        {
          "internalType": "string",
          "name": "sponsorRequirementsContractName",
          "type": "string"
        },
        {
          "internalType": "address",
          "name": "sponsorRequirementsAddress",
          "type": "address"
        }
      ],
      "name": "updateQuestType",
      "outputs": [],
      "stateMutability": "nonpayable",
      "type": "function"
    }
  ],
  "bytecode": "0x608060405234801561001057600080fd5b506124a8806100206000396000f3fe608060405234801561001057600080fd5b50600436106100885760003560e01c80639cfdb8f01161005b5780639cfdb8f014610129578063b7a7248314610145578063bbeeb7b114610175578063be9f1860146101ac57610088565b806311cec6c51461008d57806322f2d3e3146100ab5780633badf9f7146100db57806375256de21461010b575b600080fd5b6100956101c8565b6040516100a291906119a4565b60405180910390f35b6100c560048036038101906100c09190611a06565b610649565b6040516100d29190611aff565b60405180910390f35b6100f560048036038101906100f09190611a06565b610af1565b6040516101029190611aff565b60405180910390f35b610113610f06565b6040516101209190611b30565b60405180910390f35b610143600480360381019061013e9190611a06565b610f10565b005b61015f600480360381019061015a9190611cac565b611026565b60405161016c9190611b30565b60405180910390f35b61018f600480360381019061018a9190611a06565b6111d5565b6040516101a3989796959493929190611e33565b60405180910390f35b6101c660048036038101906101c19190611ed4565b611505565b005b6060600060015467ffffffffffffffff8111156101e8576101e7611b55565b5b60405190808252806020026020018201604052801561022157816020015b61020e61165e565b8152602001906001900390816102065790505b509050600080600190505b6001548111610640576000806000838152602001908152602001600020600001541461062d57600080828152602001908152602001600020604051806101000160405290816000820154815260200160018201805461028a90612045565b80601f01602080910402602001604051908101604052809291908181526020018280546102b690612045565b80156103035780601f106102d857610100808354040283529160200191610303565b820191906000526020600020905b8154815290600101906020018083116102e657829003601f168201915b5050505050815260200160028201805461031c90612045565b80601f016020809104026020016040519081016040528092919081815260200182805461034890612045565b80156103955780601f1061036a57610100808354040283529160200191610395565b820191906000526020600020905b81548152906001019060200180831161037857829003601f168201915b505050505081526020016003820180546103ae90612045565b80601f01602080910402602001604051908101604052809291908181526020018280546103da90612045565b80156104275780601f106103fc57610100808354040283529160200191610427565b820191906000526020600020905b81548152906001019060200180831161040a57829003601f168201915b5050505050815260200160048201805461044090612045565b80601f016020809104026020016040519081016040528092919081815260200182805461046c90612045565b80156104b95780601f1061048e576101008083540402835291602001916104b9565b820191906000526020600020905b81548152906001019060200180831161049c57829003601f168201915b505050505081526020016005820160009054906101000a900473ffffffffffffffffffffffffffffffffffffffff1673ffffffffffffffffffffffffffffffffffffffff1673ffffffffffffffffffffffffffffffffffffffff16815260200160068201805461052890612045565b80601f016020809104026020016040519081016040528092919081815260200182805461055490612045565b80156105a15780601f10610576576101008083540402835291602001916105a1565b820191906000526020600020905b81548152906001019060200180831161058457829003601f168201915b505050505081526020016007820160009054906101000a900473ffffffffffffffffffffffffffffffffffffffff1673ffffffffffffffffffffffffffffffffffffffff1673ffffffffffffffffffffffffffffffffffffffff168152505083838151811061061357610612612076565b5b60200260200101819052508180610629906120d4565b9250505b8080610638906120d4565b91505061022c565b50819250505090565b61065161165e565b60008210158015610663575060015482105b6106a2576040517f08c379a000000000000000000000000000000000000000000000000000000000815260040161069990612168565b60405180910390fd5b600080600190505b6001548111610ab05760008060008381526020019081526020016000206000015414610a9d57838203610a8e57600080828152602001908152602001600020604051806101000160405290816000820154815260200160018201805461070f90612045565b80601f016020809104026020016040519081016040528092919081815260200182805461073b90612045565b80156107885780601f1061075d57610100808354040283529160200191610788565b820191906000526020600020905b81548152906001019060200180831161076b57829003601f168201915b505050505081526020016002820180546107a190612045565b80601f01602080910402602001604051908101604052809291908181526020018280546107cd90612045565b801561081a5780601f106107ef5761010080835404028352916020019161081a565b820191906000526020600020905b8154815290600101906020018083116107fd57829003601f168201915b5050505050815260200160038201805461083390612045565b80601f016020809104026020016040519081016040528092919081815260200182805461085f90612045565b80156108ac5780601f10610881576101008083540402835291602001916108ac565b820191906000526020600020905b81548152906001019060200180831161088f57829003601f168201915b505050505081526020016004820180546108c590612045565b80601f01602080910402602001604051908101604052809291908181526020018280546108f190612045565b801561093e5780601f106109135761010080835404028352916020019161093e565b820191906000526020600020905b81548152906001019060200180831161092157829003601f168201915b505050505081526020016005820160009054906101000a900473ffffffffffffffffffffffffffffffffffffffff1673ffffffffffffffffffffffffffffffffffffffff1673ffffffffffffffffffffffffffffffffffffffff1681526020016006820180546109ad90612045565b80601f01602080910402602001604051908101604052809291908181526020018280546109d990612045565b8015610a265780601f106109fb57610100808354040283529160200191610a26565b820191906000526020600020905b815481529060010190602001808311610a0957829003601f168201915b505050505081526020016007820160009054906101000a900473ffffffffffffffffffffffffffffffffffffffff1673ffffffffffffffffffffffffffffffffffffffff1673ffffffffffffffffffffffffffffffffffffffff168152505092505050610aec565b8180610a99906120d4565b9250505b8080610aa8906120d4565b9150506106aa565b506040517f08c379a0000000000000000000000000000000000000000000000000000000008152600401610ae390612168565b60405180910390fd5b919050565b610af961165e565b60008060008481526020019081526020016000206000015403610b51576040517f08c379a0000000000000000000000000000000000000000000000000000000008152600401610b48906121d4565b60405180910390fd5b6000808381526020019081526020016000206040518061010001604052908160008201548152602001600182018054610b8990612045565b80601f0160208091040260200160405190810160405280929190818152602001828054610bb590612045565b8015610c025780601f10610bd757610100808354040283529160200191610c02565b820191906000526020600020905b815481529060010190602001808311610be557829003601f168201915b50505050508152602001600282018054610c1b90612045565b80601f0160208091040260200160405190810160405280929190818152602001828054610c4790612045565b8015610c945780601f10610c6957610100808354040283529160200191610c94565b820191906000526020600020905b815481529060010190602001808311610c7757829003601f168201915b50505050508152602001600382018054610cad90612045565b80601f0160208091040260200160405190810160405280929190818152602001828054610cd990612045565b8015610d265780601f10610cfb57610100808354040283529160200191610d26565b820191906000526020600020905b815481529060010190602001808311610d0957829003601f168201915b50505050508152602001600482018054610d3f90612045565b80601f0160208091040260200160405190810160405280929190818152602001828054610d6b90612045565b8015610db85780601f10610d8d57610100808354040283529160200191610db8565b820191906000526020600020905b815481529060010190602001808311610d9b57829003601f168201915b505050505081526020016005820160009054906101000a900473ffffffffffffffffffffffffffffffffffffffff1673ffffffffffffffffffffffffffffffffffffffff1673ffffffffffffffffffffffffffffffffffffffff168152602001600682018054610e2790612045565b80601f0160208091040260200160405190810160405280929190818152602001828054610e5390612045565b8015610ea05780601f10610e7557610100808354040283529160200191610ea0565b820191906000526020600020905b815481529060010190602001808311610e8357829003601f168201915b505050505081526020016007820160009054906101000a900473ffffffffffffffffffffffffffffffffffffffff1673ffffffffffffffffffffffffffffffffffffffff1673ffffffffffffffffffffffffffffffffffffffff16815250509050919050565b6000600154905090565b60008060008381526020019081526020016000206000015403610f68576040517f08c379a0000000000000000000000000000000000000000000000000000000008152600401610f5f906121d4565b60405180910390fd5b600080828152602001908152602001600020600080820160009055600182016000610f9391906116cf565b600282016000610fa391906116cf565b600382016000610fb391906116cf565b600482016000610fc391906116cf565b6005820160006101000a81549073ffffffffffffffffffffffffffffffffffffffff0219169055600682016000610ffa91906116cf565b6007820160006101000a81549073ffffffffffffffffffffffffffffffffffffffff0219169055505050565b60006001600081548092919061103b906120d4565b919050555060405180610100016040528060015481526020018981526020018881526020018781526020018681526020018573ffffffffffffffffffffffffffffffffffffffff1681526020018481526020018373ffffffffffffffffffffffffffffffffffffffff1681525060008060015481526020019081526020016000206000820151816000015560208201518160010190816110db91906123a0565b5060408201518160020190816110f191906123a0565b50606082015181600301908161110791906123a0565b50608082015181600401908161111d91906123a0565b5060a08201518160050160006101000a81548173ffffffffffffffffffffffffffffffffffffffff021916908373ffffffffffffffffffffffffffffffffffffffff16021790555060c082015181600601908161117a91906123a0565b5060e08201518160070160006101000a81548173ffffffffffffffffffffffffffffffffffffffff021916908373ffffffffffffffffffffffffffffffffffffffff1602179055509050506001549050979650505050505050565b60006020528060005260406000206000915090508060000154908060010180546111fe90612045565b80601f016020809104026020016040519081016040528092919081815260200182805461122a90612045565b80156112775780601f1061124c57610100808354040283529160200191611277565b820191906000526020600020905b81548152906001019060200180831161125a57829003601f168201915b50505050509080600201805461128c90612045565b80601f01602080910402602001604051908101604052809291908181526020018280546112b890612045565b80156113055780601f106112da57610100808354040283529160200191611305565b820191906000526020600020905b8154815290600101906020018083116112e857829003601f168201915b50505050509080600301805461131a90612045565b80601f016020809104026020016040519081016040528092919081815260200182805461134690612045565b80156113935780601f1061136857610100808354040283529160200191611393565b820191906000526020600020905b81548152906001019060200180831161137657829003601f168201915b5050505050908060040180546113a890612045565b80601f01602080910402602001604051908101604052809291908181526020018280546113d490612045565b80156114215780601f106113f657610100808354040283529160200191611421565b820191906000526020600020905b81548152906001019060200180831161140457829003601f168201915b5050505050908060050160009054906101000a900473ffffffffffffffffffffffffffffffffffffffff169080600601805461145c90612045565b80601f016020809104026020016040519081016040528092919081815260200182805461148890612045565b80156114d55780601f106114aa576101008083540402835291602001916114d5565b820191906000526020600020905b8154815290600101906020018083116114b857829003601f168201915b5050505050908060070160009054906101000a900473ffffffffffffffffffffffffffffffffffffffff16905088565b60008060008a8152602001908152602001600020600001540361155d576040517f08c379a0000000000000000000000000000000000000000000000000000000008152600401611554906121d4565b60405180910390fd5b60008060008a815260200190815260200160002090508781600101908161158491906123a0565b508681600201908161159691906123a0565b50858160030190816115a891906123a0565b50848160040190816115ba91906123a0565b50838160050160006101000a81548173ffffffffffffffffffffffffffffffffffffffff021916908373ffffffffffffffffffffffffffffffffffffffff1602179055508281600601908161160f91906123a0565b50818160070160006101000a81548173ffffffffffffffffffffffffffffffffffffffff021916908373ffffffffffffffffffffffffffffffffffffffff160217905550505050505050505050565b6040518061010001604052806000815260200160608152602001606081526020016060815260200160608152602001600073ffffffffffffffffffffffffffffffffffffffff16815260200160608152602001600073ffffffffffffffffffffffffffffffffffffffff1681525090565b5080546116db90612045565b6000825580601f106116ed575061170c565b601f01602090049060005260206000209081019061170b919061170f565b5b50565b5b80821115611728576000816000905550600101611710565b5090565b600081519050919050565b600082825260208201905092915050565b6000819050602082019050919050565b6000819050919050565b61176b81611758565b82525050565b600081519050919050565b600082825260208201905092915050565b60005b838110156117ab578082015181840152602081019050611790565b60008484015250505050565b6000601f19601f8301169050919050565b60006117d382611771565b6117dd818561177c565b93506117ed81856020860161178d565b6117f6816117b7565b840191505092915050565b600073ffffffffffffffffffffffffffffffffffffffff82169050919050565b600061182c82611801565b9050919050565b61183c81611821565b82525050565b60006101008301600083015161185b6000860182611762565b506020830151848203602086015261187382826117c8565b9150506040830151848203604086015261188d82826117c8565b915050606083015184820360608601526118a782826117c8565b915050608083015184820360808601526118c182826117c8565b91505060a08301516118d660a0860182611833565b5060c083015184820360c08601526118ee82826117c8565b91505060e083015161190360e0860182611833565b508091505092915050565b600061191a8383611842565b905092915050565b6000602082019050919050565b600061193a8261172c565b6119448185611737565b93508360208202850161195685611748565b8060005b858110156119925784840389528151611973858261190e565b945061197e83611922565b925060208a0199505060018101905061195a565b50829750879550505050505092915050565b600060208201905081810360008301526119be818461192f565b905092915050565b6000604051905090565b600080fd5b600080fd5b6119e381611758565b81146119ee57600080fd5b50565b600081359050611a00816119da565b92915050565b600060208284031215611a1c57611a1b6119d0565b5b6000611a2a848285016119f1565b91505092915050565b600061010083016000830151611a4c6000860182611762565b5060208301518482036020860152611a6482826117c8565b91505060408301518482036040860152611a7e82826117c8565b91505060608301518482036060860152611a9882826117c8565b91505060808301518482036080860152611ab282826117c8565b91505060a0830151611ac760a0860182611833565b5060c083015184820360c0860152611adf82826117c8565b91505060e0830151611af460e0860182611833565b508091505092915050565b60006020820190508181036000830152611b198184611a33565b905092915050565b611b2a81611758565b82525050565b6000602082019050611b456000830184611b21565b92915050565b600080fd5b600080fd5b7f4e487b7100000000000000000000000000000000000000000000000000000000600052604160045260246000fd5b611b8d826117b7565b810181811067ffffffffffffffff82111715611bac57611bab611b55565b5b80604052505050565b6000611bbf6119c6565b9050611bcb8282611b84565b919050565b600067ffffffffffffffff821115611beb57611bea611b55565b5b611bf4826117b7565b9050602081019050919050565b82818337600083830152505050565b6000611c23611c1e84611bd0565b611bb5565b905082815260208101848484011115611c3f57611c3e611b50565b5b611c4a848285611c01565b509392505050565b600082601f830112611c6757611c66611b4b565b5b8135611c77848260208601611c10565b91505092915050565b611c8981611821565b8114611c9457600080fd5b50565b600081359050611ca681611c80565b92915050565b600080600080600080600060e0888a031215611ccb57611cca6119d0565b5b600088013567ffffffffffffffff811115611ce957611ce86119d5565b5b611cf58a828b01611c52565b975050602088013567ffffffffffffffff811115611d1657611d156119d5565b5b611d228a828b01611c52565b965050604088013567ffffffffffffffff811115611d4357611d426119d5565b5b611d4f8a828b01611c52565b955050606088013567ffffffffffffffff811115611d7057611d6f6119d5565b5b611d7c8a828b01611c52565b9450506080611d8d8a828b01611c97565b93505060a088013567ffffffffffffffff811115611dae57611dad6119d5565b5b611dba8a828b01611c52565b92505060c0611dcb8a828b01611c97565b91505092959891949750929550565b600082825260208201905092915050565b6000611df682611771565b611e008185611dda565b9350611e1081856020860161178d565b611e19816117b7565b840191505092915050565b611e2d81611821565b82525050565b600061010082019050611e49600083018b611b21565b8181036020830152611e5b818a611deb565b90508181036040830152611e6f8189611deb565b90508181036060830152611e838188611deb565b90508181036080830152611e978187611deb565b9050611ea660a0830186611e24565b81810360c0830152611eb88185611deb565b9050611ec760e0830184611e24565b9998505050505050505050565b600080600080600080600080610100898b031215611ef557611ef46119d0565b5b6000611f038b828c016119f1565b985050602089013567ffffffffffffffff811115611f2457611f236119d5565b5b611f308b828c01611c52565b975050604089013567ffffffffffffffff811115611f5157611f506119d5565b5b611f5d8b828c01611c52565b965050606089013567ffffffffffffffff811115611f7e57611f7d6119d5565b5b611f8a8b828c01611c52565b955050608089013567ffffffffffffffff811115611fab57611faa6119d5565b5b611fb78b828c01611c52565b94505060a0611fc88b828c01611c97565b93505060c089013567ffffffffffffffff811115611fe957611fe86119d5565b5b611ff58b828c01611c52565b92505060e06120068b828c01611c97565b9150509295985092959890939650565b7f4e487b7100000000000000000000000000000000000000000000000000000000600052602260045260246000fd5b6000600282049050600182168061205d57607f821691505b6020821081036120705761206f612016565b5b50919050565b7f4e487b7100000000000000000000000000000000000000000000000000000000600052603260045260246000fd5b7f4e487b7100000000000000000000000000000000000000000000000000000000600052601160045260246000fd5b60006120df82611758565b91507fffffffffffffffffffffffffffffffffffffffffffffffffffffffffffffffff8203612111576121106120a5565b5b600182019050919050565b7f496e646578206f7574206f6620626f756e647300000000000000000000000000600082015250565b6000612152601383611dda565b915061215d8261211c565b602082019050919050565b6000602082019050818103600083015261218181612145565b9050919050565b7f51756573745479706520646f6573206e6f742065786973740000000000000000600082015250565b60006121be601883611dda565b91506121c982612188565b602082019050919050565b600060208201905081810360008301526121ed816121b1565b9050919050565b60008190508160005260206000209050919050565b60006020601f8301049050919050565b600082821b905092915050565b6000600883026122567fffffffffffffffffffffffffffffffffffffffffffffffffffffffffffffffff82612219565b6122608683612219565b95508019841693508086168417925050509392505050565b6000819050919050565b600061229d61229861229384611758565b612278565b611758565b9050919050565b6000819050919050565b6122b783612282565b6122cb6122c3826122a4565b848454612226565b825550505050565b600090565b6122e06122d3565b6122eb8184846122ae565b505050565b5b8181101561230f576123046000826122d8565b6001810190506122f1565b5050565b601f82111561235457612325816121f4565b61232e84612209565b8101602085101561233d578190505b61235161234985612209565b8301826122f0565b50505b505050565b600082821c905092915050565b600061237760001984600802612359565b1980831691505092915050565b60006123908383612366565b9150826002028217905092915050565b6123a982611771565b67ffffffffffffffff8111156123c2576123c1611b55565b5b6123cc8254612045565b6123d7828285612313565b600060209050601f83116001811461240a57600084156123f8578287015190505b6124028582612384565b86555061246a565b601f198416612418866121f4565b60005b828110156124405784890151825560018201915060208501945060208101905061241b565b8683101561245d5784890151612459601f891682612366565b8355505b6001600288020188555050505b50505050505056fea26469706673582212208a51f67154970069b07f918a7867dfa8f02b370434211a5bf2e23c9421f85fa964736f6c63430008170033",
  "linkReferences": {},
  "deployedLinkReferences": {}
}