{
  "_format": "hh-sol-artifact-1",
  "contractName": "QuestManager",
  "sourceName": "contracts/QuestManager.sol",
  "abi": [
    {
      "inputs": [],
      "stateMutability": "nonpayable",
      "type": "constructor"
    },
    {
      "anonymous": false,
      "inputs": [
        {
          "indexed": false,
          "internalType": "uint256",
          "name": "questId",
          "type": "uint256"
        },
        {
          "indexed": false,
          "internalType": "uint256",
          "name": "eventId",
          "type": "uint256"
        },
        {
          "indexed": false,
          "internalType": "uint256",
          "name": "startDate",
          "type": "uint256"
        },
        {
          "indexed": false,
          "internalType": "uint256",
          "name": "endDate",
          "type": "uint256"
        },
        {
          "indexed": false,
          "internalType": "uint256",
          "name": "requiredInteractions",
          "type": "uint256"
        },
        {
          "indexed": false,
          "internalType": "string",
          "name": "rewardType",
          "type": "string"
        }
      ],
      "name": "QuestCreated",
      "type": "event"
    },
    {
      "anonymous": false,
      "inputs": [
        {
          "indexed": true,
          "internalType": "uint256",
          "name": "eventId",
          "type": "uint256"
        }
      ],
      "name": "QuestDeleted",
      "type": "event"
    },
    {
      "anonymous": false,
      "inputs": [
        {
          "indexed": true,
          "internalType": "uint256",
          "name": "eventId",
          "type": "uint256"
        },
        {
          "indexed": false,
          "internalType": "uint256",
          "name": "startDate",
          "type": "uint256"
        },
        {
          "indexed": false,
          "internalType": "uint256",
          "name": "endDate",
          "type": "uint256"
        },
        {
          "indexed": false,
          "internalType": "uint256",
          "name": "requiredInteractions",
          "type": "uint256"
        },
        {
          "indexed": false,
          "internalType": "string",
          "name": "rewardType",
          "type": "string"
        }
      ],
      "name": "QuestUpdated",
      "type": "event"
    },
    {
      "inputs": [],
      "name": "admin",
      "outputs": [
        {
          "internalType": "address",
          "name": "",
          "type": "address"
        }
      ],
      "stateMutability": "view",
      "type": "function"
    },
    {
      "inputs": [
        {
          "internalType": "uint256",
          "name": "_eventId",
          "type": "uint256"
        },
        {
          "internalType": "uint256",
          "name": "_startDate",
          "type": "uint256"
        },
        {
          "internalType": "uint256",
          "name": "_endDate",
          "type": "uint256"
        },
        {
          "internalType": "uint256",
          "name": "_requiredInteractions",
          "type": "uint256"
        },
        {
          "internalType": "string",
          "name": "_rewardType",
          "type": "string"
        }
      ],
      "name": "createQuest",
      "outputs": [],
      "stateMutability": "nonpayable",
      "type": "function"
    },
    {
      "inputs": [
        {
          "internalType": "uint256",
          "name": "_eventId",
          "type": "uint256"
        }
      ],
      "name": "deleteQuest",
      "outputs": [],
      "stateMutability": "nonpayable",
      "type": "function"
    },
    {
      "inputs": [
        {
          "internalType": "uint256",
          "name": "_eventId",
          "type": "uint256"
        }
      ],
      "name": "getQuest",
      "outputs": [
        {
          "components": [
            {
              "internalType": "uint256",
              "name": "questId",
              "type": "uint256"
            },
            {
              "internalType": "uint256",
              "name": "eventId",
              "type": "uint256"
            },
            {
              "internalType": "uint256",
              "name": "startDate",
              "type": "uint256"
            },
            {
              "internalType": "uint256",
              "name": "endDate",
              "type": "uint256"
            },
            {
              "internalType": "uint256",
              "name": "requiredInteractions",
              "type": "uint256"
            },
            {
              "internalType": "string",
              "name": "rewardType",
              "type": "string"
            }
          ],
          "internalType": "struct QuestManager.Quest",
          "name": "",
          "type": "tuple"
        }
      ],
      "stateMutability": "view",
      "type": "function"
    },
    {
      "inputs": [
        {
          "internalType": "uint256",
          "name": "index",
          "type": "uint256"
        }
      ],
      "name": "getQuestByIndex",
      "outputs": [
        {
          "components": [
            {
              "internalType": "uint256",
              "name": "questId",
              "type": "uint256"
            },
            {
              "internalType": "uint256",
              "name": "eventId",
              "type": "uint256"
            },
            {
              "internalType": "uint256",
              "name": "startDate",
              "type": "uint256"
            },
            {
              "internalType": "uint256",
              "name": "endDate",
              "type": "uint256"
            },
            {
              "internalType": "uint256",
              "name": "requiredInteractions",
              "type": "uint256"
            },
            {
              "internalType": "string",
              "name": "rewardType",
              "type": "string"
            }
          ],
          "internalType": "struct QuestManager.Quest",
          "name": "",
          "type": "tuple"
        }
      ],
      "stateMutability": "view",
      "type": "function"
    },
    {
      "inputs": [],
      "name": "getQuestCount",
      "outputs": [
        {
          "internalType": "uint256",
          "name": "",
          "type": "uint256"
        }
      ],
      "stateMutability": "view",
      "type": "function"
    },
    {
      "inputs": [
        {
          "internalType": "uint256",
          "name": "",
          "type": "uint256"
        }
      ],
      "name": "quests",
      "outputs": [
        {
          "internalType": "uint256",
          "name": "questId",
          "type": "uint256"
        },
        {
          "internalType": "uint256",
          "name": "eventId",
          "type": "uint256"
        },
        {
          "internalType": "uint256",
          "name": "startDate",
          "type": "uint256"
        },
        {
          "internalType": "uint256",
          "name": "endDate",
          "type": "uint256"
        },
        {
          "internalType": "uint256",
          "name": "requiredInteractions",
          "type": "uint256"
        },
        {
          "internalType": "string",
          "name": "rewardType",
          "type": "string"
        }
      ],
      "stateMutability": "view",
      "type": "function"
    },
    {
      "inputs": [
        {
          "internalType": "uint256",
          "name": "_eventId",
          "type": "uint256"
        },
        {
          "internalType": "uint256",
          "name": "_startDate",
          "type": "uint256"
        },
        {
          "internalType": "uint256",
          "name": "_endDate",
          "type": "uint256"
        },
        {
          "internalType": "uint256",
          "name": "_requiredInteractions",
          "type": "uint256"
        },
        {
          "internalType": "string",
          "name": "_rewardType",
          "type": "string"
        }
      ],
      "name": "updateQuest",
      "outputs": [],
      "stateMutability": "nonpayable",
      "type": "function"
    }
  ],
  "bytecode": "0x60806040526001805534801561001457600080fd5b50336000806101000a81548173ffffffffffffffffffffffffffffffffffffffff021916908373ffffffffffffffffffffffffffffffffffffffff160217905550611755806100646000396000f3fe608060405234801561001057600080fd5b50600436106100885760003560e01c8063639717811161005b5780636397178114610111578063874af0621461012f578063e085f9801461015f578063f851a4401461019457610088565b8063103d36b81461008d5780633919c9c7146100a957806349f86f34146100c55780634fba1113146100f5575b600080fd5b6100a760048036038101906100a29190610c09565b6101b2565b005b6100c360048036038101906100be9190610d7c565b6103b5565b005b6100df60048036038101906100da9190610c09565b6105e5565b6040516100ec9190610f2a565b60405180910390f35b61010f600480360381019061010a9190610d7c565b6106d6565b005b6101196108db565b6040516101269190610f5b565b60405180910390f35b61014960048036038101906101449190610c09565b6108e8565b6040516101569190610f2a565b60405180910390f35b61017960048036038101906101749190610c09565b610a44565b60405161018b96959493929190610fc0565b60405180910390f35b61019c610b08565b6040516101a99190611069565b60405180910390f35b60008054906101000a900473ffffffffffffffffffffffffffffffffffffffff1673ffffffffffffffffffffffffffffffffffffffff163373ffffffffffffffffffffffffffffffffffffffff1614610240576040517f08c379a0000000000000000000000000000000000000000000000000000000008152600401610237906110f6565b60405180910390fd5b600060026000838152602001908152602001600020600501805461026390611145565b9050116102a5576040517f08c379a000000000000000000000000000000000000000000000000000000000815260040161029c906111c2565b60405180910390fd5b600060016003805490506102b99190611211565b905060006001836102ca9190611211565b9050600382815481106102e0576102df611245565b5b9060005260206000200154600382815481106102ff576102fe611245565b5b9060005260206000200181905550600380548061031f5761031e611274565b5b600190038181906000526020600020016000905590556002600084815260200190815260200160002060008082016000905560018201600090556002820160009055600382016000905560048201600090556005820160006103819190610b2c565b5050827fcbe2e2b576d488acbd141580ea0928b24300831852f56c7eb39330a9a35e1e6d60405160405180910390a2505050565b60008054906101000a900473ffffffffffffffffffffffffffffffffffffffff1673ffffffffffffffffffffffffffffffffffffffff163373ffffffffffffffffffffffffffffffffffffffff1614610443576040517f08c379a000000000000000000000000000000000000000000000000000000000815260040161043a906110f6565b60405180910390fd5b6003821015610487576040517f08c379a000000000000000000000000000000000000000000000000000000000815260040161047e90611315565b60405180910390fd5b60008151116104cb576040517f08c379a00000000000000000000000000000000000000000000000000000000081526004016104c290611381565b60405180910390fd5b6040518060c0016040528060015481526020018681526020018581526020018481526020018381526020018281525060026000878152602001908152602001600020600082015181600001556020820151816001015560408201518160020155606082015181600301556080820151816004015560a0820151816005019081610554919061154d565b50905050600360015490806001815401808255809150506001900390600052602060002001600090919091909150557f4a0d9ccba5327a408814e0e437fc017181ea4f4f15c657756ca4d44c42fd457a60015486868686866040516105be96959493929190610fc0565b60405180910390a1600160008154809291906105d99061161f565b91905055505050505050565b6105ed610b6c565b600260008381526020019081526020016000206040518060c0016040529081600082015481526020016001820154815260200160028201548152602001600382015481526020016004820154815260200160058201805461064d90611145565b80601f016020809104026020016040519081016040528092919081815260200182805461067990611145565b80156106c65780601f1061069b576101008083540402835291602001916106c6565b820191906000526020600020905b8154815290600101906020018083116106a957829003601f168201915b5050505050815250509050919050565b60008054906101000a900473ffffffffffffffffffffffffffffffffffffffff1673ffffffffffffffffffffffffffffffffffffffff163373ffffffffffffffffffffffffffffffffffffffff1614610764576040517f08c379a000000000000000000000000000000000000000000000000000000000815260040161075b906110f6565b60405180910390fd5b600060026000878152602001908152602001600020600501805461078790611145565b9050116107c9576040517f08c379a00000000000000000000000000000000000000000000000000000000081526004016107c0906111c2565b60405180910390fd5b600382101561080d576040517f08c379a000000000000000000000000000000000000000000000000000000000815260040161080490611315565b60405180910390fd5b6000815111610851576040517f08c379a000000000000000000000000000000000000000000000000000000000815260040161084890611381565b60405180910390fd5b600060026000878152602001908152602001600020905084816002018190555083816003018190555082816004018190555081816005019081610894919061154d565b50857f5868c18b59454ba8395b928cc2d67ac4f7ee6310e14c93ff86a9a28f6e7b95aa868686866040516108cb9493929190611667565b60405180910390a2505050505050565b6000600380549050905090565b6108f0610b6c565b6003805490508210610937576040517f08c379a000000000000000000000000000000000000000000000000000000000815260040161092e906116ff565b60405180910390fd5b60006003838154811061094d5761094c611245565b5b90600052602060002001549050600260008281526020019081526020016000206040518060c001604052908160008201548152602001600182015481526020016002820154815260200160038201548152602001600482015481526020016005820180546109ba90611145565b80601f01602080910402602001604051908101604052809291908181526020018280546109e690611145565b8015610a335780601f10610a0857610100808354040283529160200191610a33565b820191906000526020600020905b815481529060010190602001808311610a1657829003601f168201915b505050505081525050915050919050565b6002602052806000526040600020600091509050806000015490806001015490806002015490806003015490806004015490806005018054610a8590611145565b80601f0160208091040260200160405190810160405280929190818152602001828054610ab190611145565b8015610afe5780601f10610ad357610100808354040283529160200191610afe565b820191906000526020600020905b815481529060010190602001808311610ae157829003601f168201915b5050505050905086565b60008054906101000a900473ffffffffffffffffffffffffffffffffffffffff1681565b508054610b3890611145565b6000825580601f10610b4a5750610b69565b601f016020900490600052602060002090810190610b689190610ba2565b5b50565b6040518060c001604052806000815260200160008152602001600081526020016000815260200160008152602001606081525090565b5b80821115610bbb576000816000905550600101610ba3565b5090565b6000604051905090565b600080fd5b600080fd5b6000819050919050565b610be681610bd3565b8114610bf157600080fd5b50565b600081359050610c0381610bdd565b92915050565b600060208284031215610c1f57610c1e610bc9565b5b6000610c2d84828501610bf4565b91505092915050565b600080fd5b600080fd5b6000601f19601f8301169050919050565b7f4e487b7100000000000000000000000000000000000000000000000000000000600052604160045260246000fd5b610c8982610c40565b810181811067ffffffffffffffff82111715610ca857610ca7610c51565b5b80604052505050565b6000610cbb610bbf565b9050610cc78282610c80565b919050565b600067ffffffffffffffff821115610ce757610ce6610c51565b5b610cf082610c40565b9050602081019050919050565b82818337600083830152505050565b6000610d1f610d1a84610ccc565b610cb1565b905082815260208101848484011115610d3b57610d3a610c3b565b5b610d46848285610cfd565b509392505050565b600082601f830112610d6357610d62610c36565b5b8135610d73848260208601610d0c565b91505092915050565b600080600080600060a08688031215610d9857610d97610bc9565b5b6000610da688828901610bf4565b9550506020610db788828901610bf4565b9450506040610dc888828901610bf4565b9350506060610dd988828901610bf4565b925050608086013567ffffffffffffffff811115610dfa57610df9610bce565b5b610e0688828901610d4e565b9150509295509295909350565b610e1c81610bd3565b82525050565b600081519050919050565b600082825260208201905092915050565b60005b83811015610e5c578082015181840152602081019050610e41565b60008484015250505050565b6000610e7382610e22565b610e7d8185610e2d565b9350610e8d818560208601610e3e565b610e9681610c40565b840191505092915050565b600060c083016000830151610eb96000860182610e13565b506020830151610ecc6020860182610e13565b506040830151610edf6040860182610e13565b506060830151610ef26060860182610e13565b506080830151610f056080860182610e13565b5060a083015184820360a0860152610f1d8282610e68565b9150508091505092915050565b60006020820190508181036000830152610f448184610ea1565b905092915050565b610f5581610bd3565b82525050565b6000602082019050610f706000830184610f4c565b92915050565b600082825260208201905092915050565b6000610f9282610e22565b610f9c8185610f76565b9350610fac818560208601610e3e565b610fb581610c40565b840191505092915050565b600060c082019050610fd56000830189610f4c565b610fe26020830188610f4c565b610fef6040830187610f4c565b610ffc6060830186610f4c565b6110096080830185610f4c565b81810360a083015261101b8184610f87565b9050979650505050505050565b600073ffffffffffffffffffffffffffffffffffffffff82169050919050565b600061105382611028565b9050919050565b61106381611048565b82525050565b600060208201905061107e600083018461105a565b92915050565b7f4f6e6c792061646d696e2063616e20706572666f726d2074686973206163746960008201527f6f6e000000000000000000000000000000000000000000000000000000000000602082015250565b60006110e0602283610f76565b91506110eb82611084565b604082019050919050565b6000602082019050818103600083015261110f816110d3565b9050919050565b7f4e487b7100000000000000000000000000000000000000000000000000000000600052602260045260246000fd5b6000600282049050600182168061115d57607f821691505b6020821081036111705761116f611116565b5b50919050565b7f517565737420646f6573206e6f74206578697374000000000000000000000000600082015250565b60006111ac601483610f76565b91506111b782611176565b602082019050919050565b600060208201905081810360008301526111db8161119f565b9050919050565b7f4e487b7100000000000000000000000000000000000000000000000000000000600052601160045260246000fd5b600061121c82610bd3565b915061122783610bd3565b925082820390508181111561123f5761123e6111e2565b5b92915050565b7f4e487b7100000000000000000000000000000000000000000000000000000000600052603260045260246000fd5b7f4e487b7100000000000000000000000000000000000000000000000000000000600052603160045260246000fd5b7f526571756972656420696e746572616374696f6e73206d75737420626520617460008201527f206c656173742074687265650000000000000000000000000000000000000000602082015250565b60006112ff602c83610f76565b915061130a826112a3565b604082019050919050565b6000602082019050818103600083015261132e816112f2565b9050919050565b7f5265776172642074797065206d75737420626520737065636966696564000000600082015250565b600061136b601d83610f76565b915061137682611335565b602082019050919050565b6000602082019050818103600083015261139a8161135e565b9050919050565b60008190508160005260206000209050919050565b60006020601f8301049050919050565b600082821b905092915050565b6000600883026114037fffffffffffffffffffffffffffffffffffffffffffffffffffffffffffffffff826113c6565b61140d86836113c6565b95508019841693508086168417925050509392505050565b6000819050919050565b600061144a61144561144084610bd3565b611425565b610bd3565b9050919050565b6000819050919050565b6114648361142f565b61147861147082611451565b8484546113d3565b825550505050565b600090565b61148d611480565b61149881848461145b565b505050565b5b818110156114bc576114b1600082611485565b60018101905061149e565b5050565b601f821115611501576114d2816113a1565b6114db846113b6565b810160208510156114ea578190505b6114fe6114f6856113b6565b83018261149d565b50505b505050565b600082821c905092915050565b600061152460001984600802611506565b1980831691505092915050565b600061153d8383611513565b9150826002028217905092915050565b61155682610e22565b67ffffffffffffffff81111561156f5761156e610c51565b5b6115798254611145565b6115848282856114c0565b600060209050601f8311600181146115b757600084156115a5578287015190505b6115af8582611531565b865550611617565b601f1984166115c5866113a1565b60005b828110156115ed578489015182556001820191506020850194506020810190506115c8565b8683101561160a5784890151611606601f891682611513565b8355505b6001600288020188555050505b505050505050565b600061162a82610bd3565b91507fffffffffffffffffffffffffffffffffffffffffffffffffffffffffffffffff820361165c5761165b6111e2565b5b600182019050919050565b600060808201905061167c6000830187610f4c565b6116896020830186610f4c565b6116966040830185610f4c565b81810360608301526116a88184610f87565b905095945050505050565b7f496e646578206f7574206f6620626f756e647300000000000000000000000000600082015250565b60006116e9601383610f76565b91506116f4826116b3565b602082019050919050565b60006020820190508181036000830152611718816116dc565b905091905056fea2646970667358221220a3b12c694d4c53e3566c3cba7cc2eb847d0c8ed54e171d640d4b5061cef34bfb64736f6c63430008170033",
  "linkReferences": {},
  "deployedLinkReferences": {}
}