{
  "_format": "hh-sol-artifact-1",
  "contractName": "Quests",
  "sourceName": "contracts/Quests.sol",
  "abi": [
    {
      "inputs": [
        {
          "internalType": "string",
          "name": "name",
          "type": "string"
        },
        {
          "internalType": "string",
          "name": "description",
          "type": "string"
        },
        {
          "internalType": "uint256",
          "name": "defaultInteractions",
          "type": "uint256"
        },
        {
          "internalType": "uint256",
          "name": "defaultStartDate",
          "type": "uint256"
        },
        {
          "internalType": "uint256",
          "name": "defaultEndDate",
          "type": "uint256"
        },
        {
          "internalType": "uint256",
          "name": "defaultRewardAmount",
          "type": "uint256"
        }
      ],
      "name": "createQuest",
      "outputs": [
        {
          "internalType": "uint256",
          "name": "",
          "type": "uint256"
        }
      ],
      "stateMutability": "nonpayable",
      "type": "function"
    },
    {
      "inputs": [
        {
          "internalType": "uint256",
          "name": "questId",
          "type": "uint256"
        }
      ],
      "name": "deleteQuest",
      "outputs": [],
      "stateMutability": "nonpayable",
      "type": "function"
    },
    {
      "inputs": [
        {
          "internalType": "uint256",
          "name": "index",
          "type": "uint256"
        }
      ],
      "name": "getQuestByIndex",
      "outputs": [
        {
          "components": [
            {
              "internalType": "uint256",
              "name": "questId",
              "type": "uint256"
            },
            {
              "internalType": "string",
              "name": "name",
              "type": "string"
            },
            {
              "internalType": "string",
              "name": "description",
              "type": "string"
            },
            {
              "internalType": "uint256",
              "name": "defaultInteractions",
              "type": "uint256"
            },
            {
              "internalType": "uint256",
              "name": "defaultStartDate",
              "type": "uint256"
            },
            {
              "internalType": "uint256",
              "name": "defaultEndDate",
              "type": "uint256"
            },
            {
              "internalType": "uint256",
              "name": "defaultRewardAmount",
              "type": "uint256"
            },
            {
              "internalType": "enum Quests.Status",
              "name": "status",
              "type": "uint8"
            }
          ],
          "internalType": "struct Quests.Quest",
          "name": "",
          "type": "tuple"
        }
      ],
      "stateMutability": "view",
      "type": "function"
    },
    {
      "inputs": [],
      "name": "getQuestCount",
      "outputs": [
        {
          "internalType": "uint256",
          "name": "",
          "type": "uint256"
        }
      ],
      "stateMutability": "view",
      "type": "function"
    },
    {
      "inputs": [],
      "name": "listQuests",
      "outputs": [
        {
          "components": [
            {
              "internalType": "uint256",
              "name": "questId",
              "type": "uint256"
            },
            {
              "internalType": "string",
              "name": "name",
              "type": "string"
            },
            {
              "internalType": "string",
              "name": "description",
              "type": "string"
            },
            {
              "internalType": "uint256",
              "name": "defaultInteractions",
              "type": "uint256"
            },
            {
              "internalType": "uint256",
              "name": "defaultStartDate",
              "type": "uint256"
            },
            {
              "internalType": "uint256",
              "name": "defaultEndDate",
              "type": "uint256"
            },
            {
              "internalType": "uint256",
              "name": "defaultRewardAmount",
              "type": "uint256"
            },
            {
              "internalType": "enum Quests.Status",
              "name": "status",
              "type": "uint8"
            }
          ],
          "internalType": "struct Quests.Quest[]",
          "name": "",
          "type": "tuple[]"
        }
      ],
      "stateMutability": "view",
      "type": "function"
    },
    {
      "inputs": [
        {
          "internalType": "uint256",
          "name": "",
          "type": "uint256"
        }
      ],
      "name": "quests",
      "outputs": [
        {
          "internalType": "uint256",
          "name": "questId",
          "type": "uint256"
        },
        {
          "internalType": "string",
          "name": "name",
          "type": "string"
        },
        {
          "internalType": "string",
          "name": "description",
          "type": "string"
        },
        {
          "internalType": "uint256",
          "name": "defaultInteractions",
          "type": "uint256"
        },
        {
          "internalType": "uint256",
          "name": "defaultStartDate",
          "type": "uint256"
        },
        {
          "internalType": "uint256",
          "name": "defaultEndDate",
          "type": "uint256"
        },
        {
          "internalType": "uint256",
          "name": "defaultRewardAmount",
          "type": "uint256"
        },
        {
          "internalType": "enum Quests.Status",
          "name": "status",
          "type": "uint8"
        }
      ],
      "stateMutability": "view",
      "type": "function"
    },
    {
      "inputs": [
        {
          "internalType": "uint256",
          "name": "questId",
          "type": "uint256"
        }
      ],
      "name": "readQuest",
      "outputs": [
        {
          "components": [
            {
              "internalType": "uint256",
              "name": "questId",
              "type": "uint256"
            },
            {
              "internalType": "string",
              "name": "name",
              "type": "string"
            },
            {
              "internalType": "string",
              "name": "description",
              "type": "string"
            },
            {
              "internalType": "uint256",
              "name": "defaultInteractions",
              "type": "uint256"
            },
            {
              "internalType": "uint256",
              "name": "defaultStartDate",
              "type": "uint256"
            },
            {
              "internalType": "uint256",
              "name": "defaultEndDate",
              "type": "uint256"
            },
            {
              "internalType": "uint256",
              "name": "defaultRewardAmount",
              "type": "uint256"
            },
            {
              "internalType": "enum Quests.Status",
              "name": "status",
              "type": "uint8"
            }
          ],
          "internalType": "struct Quests.Quest",
          "name": "",
          "type": "tuple"
        }
      ],
      "stateMutability": "view",
      "type": "function"
    },
    {
      "inputs": [
        {
          "internalType": "uint256",
          "name": "questId",
          "type": "uint256"
        },
        {
          "internalType": "string",
          "name": "name",
          "type": "string"
        },
        {
          "internalType": "string",
          "name": "description",
          "type": "string"
        },
        {
          "internalType": "uint256",
          "name": "defaultInteractions",
          "type": "uint256"
        },
        {
          "internalType": "uint256",
          "name": "defaultStartDate",
          "type": "uint256"
        },
        {
          "internalType": "uint256",
          "name": "defaultEndDate",
          "type": "uint256"
        },
        {
          "internalType": "uint256",
          "name": "defaultRewardAmount",
          "type": "uint256"
        },
        {
          "internalType": "enum Quests.Status",
          "name": "status",
          "type": "uint8"
        }
      ],
      "name": "updateQuest",
      "outputs": [],
      "stateMutability": "nonpayable",
      "type": "function"
    }
  ],
  "bytecode": "0x608060405234801561001057600080fd5b50611af3806100206000396000f3fe608060405234801561001057600080fd5b50600436106100885760003560e01c8063874af0621161005b578063874af06214610127578063aca0d13414610157578063e085f98014610173578063ec7c263d146101aa57610088565b8063103d36b81461008d57806318d8b97a146100a95780635d78b06f146100d95780636397178114610109575b600080fd5b6100a760048036038101906100a29190610e8e565b6101c8565b005b6100c360048036038101906100be9190610e8e565b610294565b6040516100d09190611088565b60405180910390f35b6100f360048036038101906100ee91906111df565b6104aa565b60405161010091906112b3565b60405180910390f35b6101116105c7565b60405161011e91906112b3565b60405180910390f35b610141600480360381019061013c9190610e8e565b610625565b60405161014e9190611088565b60405180910390f35b610171600480360381019061016c91906112f3565b61087d565b005b61018d60048036038101906101889190610e8e565b610959565b6040516101a198979695949392919061143a565b60405180910390f35b6101b2610abe565b6040516101bf919061163f565b60405180910390f35b60008060008381526020019081526020016000206000015403610220576040517f08c379a0000000000000000000000000000000000000000000000000000000008152600401610217906116ad565b60405180910390fd5b60008082815260200190815260200160002060008082016000905560018201600061024b9190610d90565b60028201600061025b9190610d90565b60038201600090556004820160009055600582016000905560068201600090556007820160006101000a81549060ff0219169055505050565b61029c610dd0565b600080600084815260200190815260200160002060000154036102f4576040517f08c379a00000000000000000000000000000000000000000000000000000000081526004016102eb906116ad565b60405180910390fd5b600080838152602001908152602001600020604051806101000160405290816000820154815260200160018201805461032c906116fc565b80601f0160208091040260200160405190810160405280929190818152602001828054610358906116fc565b80156103a55780601f1061037a576101008083540402835291602001916103a5565b820191906000526020600020905b81548152906001019060200180831161038857829003601f168201915b505050505081526020016002820180546103be906116fc565b80601f01602080910402602001604051908101604052809291908181526020018280546103ea906116fc565b80156104375780601f1061040c57610100808354040283529160200191610437565b820191906000526020600020905b81548152906001019060200180831161041a57829003601f168201915b50505050508152602001600382015481526020016004820154815260200160058201548152602001600682015481526020016007820160009054906101000a900460ff16600181111561048d5761048c610f5a565b5b600181111561049f5761049e610f5a565b5b815250509050919050565b6000600160008154809291906104bf9061175c565b91905055506040518061010001604052806001548152602001888152602001878152602001868152602001858152602001848152602001838152602001600060018111156105105761050f610f5a565b5b81525060008060015481526020019081526020016000206000820151816000015560208201518160010190816105469190611950565b50604082015181600201908161055c9190611950565b50606082015181600301556080820151816004015560a0820151816005015560c0820151816006015560e08201518160070160006101000a81548160ff021916908360018111156105b0576105af610f5a565b5b021790555090505060015490509695505050505050565b600080600090506000600190505b600154811161061d576000806000838152602001908152602001600020600001541461060a5781806106069061175c565b9250505b80806106159061175c565b9150506105d5565b508091505090565b61062d610dd0565b600080600190505b600154811161083c57600080600083815260200190815260200160002060000154146108295783820361081a57600080828152602001908152602001600020604051806101000160405290816000820154815260200160018201805461069a906116fc565b80601f01602080910402602001604051908101604052809291908181526020018280546106c6906116fc565b80156107135780601f106106e857610100808354040283529160200191610713565b820191906000526020600020905b8154815290600101906020018083116106f657829003601f168201915b5050505050815260200160028201805461072c906116fc565b80601f0160208091040260200160405190810160405280929190818152602001828054610758906116fc565b80156107a55780601f1061077a576101008083540402835291602001916107a5565b820191906000526020600020905b81548152906001019060200180831161078857829003601f168201915b50505050508152602001600382015481526020016004820154815260200160058201548152602001600682015481526020016007820160009054906101000a900460ff1660018111156107fb576107fa610f5a565b5b600181111561080d5761080c610f5a565b5b8152505092505050610878565b81806108259061175c565b9250505b80806108349061175c565b915050610635565b506040517f08c379a000000000000000000000000000000000000000000000000000000000815260040161086f90611a6e565b60405180910390fd5b919050565b60008060008a8152602001908152602001600020905060008160000154036108da576040517f08c379a00000000000000000000000000000000000000000000000000000000081526004016108d1906116ad565b60405180910390fd5b878160010190816108eb9190611950565b50868160020190816108fd9190611950565b50858160030181905550848160040181905550838160050181905550828160060181905550818160070160006101000a81548160ff0219169083600181111561094957610948610f5a565b5b0217905550505050505050505050565b6000602052806000526040600020600091509050806000015490806001018054610982906116fc565b80601f01602080910402602001604051908101604052809291908181526020018280546109ae906116fc565b80156109fb5780601f106109d0576101008083540402835291602001916109fb565b820191906000526020600020905b8154815290600101906020018083116109de57829003601f168201915b505050505090806002018054610a10906116fc565b80601f0160208091040260200160405190810160405280929190818152602001828054610a3c906116fc565b8015610a895780601f10610a5e57610100808354040283529160200191610a89565b820191906000526020600020905b815481529060010190602001808311610a6c57829003601f168201915b5050505050908060030154908060040154908060050154908060060154908060070160009054906101000a900460ff16905088565b6060600080600190505b6001548111610b105760008060008381526020019081526020016000206000015414610afd578180610af99061175c565b9250505b8080610b089061175c565b915050610ac8565b5060008167ffffffffffffffff811115610b2d57610b2c6110b4565b5b604051908082528060200260200182016040528015610b6657816020015b610b53610dd0565b815260200190600190039081610b4b5790505b509050600080600190505b6001548111610d865760008060008381526020019081526020016000206000015414610d73576000808281526020019081526020016000206040518061010001604052908160008201548152602001600182018054610bcf906116fc565b80601f0160208091040260200160405190810160405280929190818152602001828054610bfb906116fc565b8015610c485780601f10610c1d57610100808354040283529160200191610c48565b820191906000526020600020905b815481529060010190602001808311610c2b57829003601f168201915b50505050508152602001600282018054610c61906116fc565b80601f0160208091040260200160405190810160405280929190818152602001828054610c8d906116fc565b8015610cda5780601f10610caf57610100808354040283529160200191610cda565b820191906000526020600020905b815481529060010190602001808311610cbd57829003601f168201915b50505050508152602001600382015481526020016004820154815260200160058201548152602001600682015481526020016007820160009054906101000a900460ff166001811115610d3057610d2f610f5a565b5b6001811115610d4257610d41610f5a565b5b81525050838381518110610d5957610d58611a8e565b5b60200260200101819052508180610d6f9061175c565b9250505b8080610d7e9061175c565b915050610b71565b5081935050505090565b508054610d9c906116fc565b6000825580601f10610dae5750610dcd565b601f016020900490600052602060002090810190610dcc9190610e27565b5b50565b6040518061010001604052806000815260200160608152602001606081526020016000815260200160008152602001600081526020016000815260200160006001811115610e2157610e20610f5a565b5b81525090565b5b80821115610e40576000816000905550600101610e28565b5090565b6000604051905090565b600080fd5b600080fd5b6000819050919050565b610e6b81610e58565b8114610e7657600080fd5b50565b600081359050610e8881610e62565b92915050565b600060208284031215610ea457610ea3610e4e565b5b6000610eb284828501610e79565b91505092915050565b610ec481610e58565b82525050565b600081519050919050565b600082825260208201905092915050565b60005b83811015610f04578082015181840152602081019050610ee9565b60008484015250505050565b6000601f19601f8301169050919050565b6000610f2c82610eca565b610f368185610ed5565b9350610f46818560208601610ee6565b610f4f81610f10565b840191505092915050565b7f4e487b7100000000000000000000000000000000000000000000000000000000600052602160045260246000fd5b60028110610f9a57610f99610f5a565b5b50565b6000819050610fab82610f89565b919050565b6000610fbb82610f9d565b9050919050565b610fcb81610fb0565b82525050565b600061010083016000830151610fea6000860182610ebb565b50602083015184820360208601526110028282610f21565b9150506040830151848203604086015261101c8282610f21565b91505060608301516110316060860182610ebb565b5060808301516110446080860182610ebb565b5060a083015161105760a0860182610ebb565b5060c083015161106a60c0860182610ebb565b5060e083015161107d60e0860182610fc2565b508091505092915050565b600060208201905081810360008301526110a28184610fd1565b905092915050565b600080fd5b600080fd5b7f4e487b7100000000000000000000000000000000000000000000000000000000600052604160045260246000fd5b6110ec82610f10565b810181811067ffffffffffffffff8211171561110b5761110a6110b4565b5b80604052505050565b600061111e610e44565b905061112a82826110e3565b919050565b600067ffffffffffffffff82111561114a576111496110b4565b5b61115382610f10565b9050602081019050919050565b82818337600083830152505050565b600061118261117d8461112f565b611114565b90508281526020810184848401111561119e5761119d6110af565b5b6111a9848285611160565b509392505050565b600082601f8301126111c6576111c56110aa565b5b81356111d684826020860161116f565b91505092915050565b60008060008060008060c087890312156111fc576111fb610e4e565b5b600087013567ffffffffffffffff81111561121a57611219610e53565b5b61122689828a016111b1565b965050602087013567ffffffffffffffff81111561124757611246610e53565b5b61125389828a016111b1565b955050604061126489828a01610e79565b945050606061127589828a01610e79565b935050608061128689828a01610e79565b92505060a061129789828a01610e79565b9150509295509295509295565b6112ad81610e58565b82525050565b60006020820190506112c860008301846112a4565b92915050565b600281106112db57600080fd5b50565b6000813590506112ed816112ce565b92915050565b600080600080600080600080610100898b03121561131457611313610e4e565b5b60006113228b828c01610e79565b985050602089013567ffffffffffffffff81111561134357611342610e53565b5b61134f8b828c016111b1565b975050604089013567ffffffffffffffff8111156113705761136f610e53565b5b61137c8b828c016111b1565b965050606061138d8b828c01610e79565b955050608061139e8b828c01610e79565b94505060a06113af8b828c01610e79565b93505060c06113c08b828c01610e79565b92505060e06113d18b828c016112de565b9150509295985092959890939650565b600082825260208201905092915050565b60006113fd82610eca565b61140781856113e1565b9350611417818560208601610ee6565b61142081610f10565b840191505092915050565b61143481610fb0565b82525050565b600061010082019050611450600083018b6112a4565b8181036020830152611462818a6113f2565b9050818103604083015261147681896113f2565b905061148560608301886112a4565b61149260808301876112a4565b61149f60a08301866112a4565b6114ac60c08301856112a4565b6114b960e083018461142b565b9998505050505050505050565b600081519050919050565b600082825260208201905092915050565b6000819050602082019050919050565b60006101008301600083015161150b6000860182610ebb565b50602083015184820360208601526115238282610f21565b9150506040830151848203604086015261153d8282610f21565b91505060608301516115526060860182610ebb565b5060808301516115656080860182610ebb565b5060a083015161157860a0860182610ebb565b5060c083015161158b60c0860182610ebb565b5060e083015161159e60e0860182610fc2565b508091505092915050565b60006115b583836114f2565b905092915050565b6000602082019050919050565b60006115d5826114c6565b6115df81856114d1565b9350836020820285016115f1856114e2565b8060005b8581101561162d578484038952815161160e85826115a9565b9450611619836115bd565b925060208a019950506001810190506115f5565b50829750879550505050505092915050565b6000602082019050818103600083015261165981846115ca565b905092915050565b7f517565737420646f6573206e6f74206578697374000000000000000000000000600082015250565b60006116976014836113e1565b91506116a282611661565b602082019050919050565b600060208201905081810360008301526116c68161168a565b9050919050565b7f4e487b7100000000000000000000000000000000000000000000000000000000600052602260045260246000fd5b6000600282049050600182168061171457607f821691505b602082108103611727576117266116cd565b5b50919050565b7f4e487b7100000000000000000000000000000000000000000000000000000000600052601160045260246000fd5b600061176782610e58565b91507fffffffffffffffffffffffffffffffffffffffffffffffffffffffffffffffff82036117995761179861172d565b5b600182019050919050565b60008190508160005260206000209050919050565b60006020601f8301049050919050565b600082821b905092915050565b6000600883026118067fffffffffffffffffffffffffffffffffffffffffffffffffffffffffffffffff826117c9565b61181086836117c9565b95508019841693508086168417925050509392505050565b6000819050919050565b600061184d61184861184384610e58565b611828565b610e58565b9050919050565b6000819050919050565b61186783611832565b61187b61187382611854565b8484546117d6565b825550505050565b600090565b611890611883565b61189b81848461185e565b505050565b5b818110156118bf576118b4600082611888565b6001810190506118a1565b5050565b601f821115611904576118d5816117a4565b6118de846117b9565b810160208510156118ed578190505b6119016118f9856117b9565b8301826118a0565b50505b505050565b600082821c905092915050565b600061192760001984600802611909565b1980831691505092915050565b60006119408383611916565b9150826002028217905092915050565b61195982610eca565b67ffffffffffffffff811115611972576119716110b4565b5b61197c82546116fc565b6119878282856118c3565b600060209050601f8311600181146119ba57600084156119a8578287015190505b6119b28582611934565b865550611a1a565b601f1984166119c8866117a4565b60005b828110156119f0578489015182556001820191506020850194506020810190506119cb565b86831015611a0d5784890151611a09601f891682611916565b8355505b6001600288020188555050505b505050505050565b7f496e646578206f7574206f6620626f756e647300000000000000000000000000600082015250565b6000611a586013836113e1565b9150611a6382611a22565b602082019050919050565b60006020820190508181036000830152611a8781611a4b565b9050919050565b7f4e487b7100000000000000000000000000000000000000000000000000000000600052603260045260246000fdfea26469706673582212202dd7518a1da5cbea8bf606c5167b2a041c09a04b1982618b12778a839260de1e64736f6c63430008170033",
  "linkReferences": {},
  "deployedLinkReferences": {}
}