{
  "_format": "hh-sol-artifact-1",
  "contractName": "QuestManager",
  "sourceName": "contracts/Quest.sol",
  "abi": [
    {
      "inputs": [],
      "stateMutability": "nonpayable",
      "type": "constructor"
    },
    {
      "anonymous": false,
      "inputs": [
        {
          "indexed": false,
          "internalType": "uint256",
          "name": "eventId",
          "type": "uint256"
        },
        {
          "indexed": false,
          "internalType": "uint256",
          "name": "startDate",
          "type": "uint256"
        },
        {
          "indexed": false,
          "internalType": "uint256",
          "name": "endDate",
          "type": "uint256"
        },
        {
          "indexed": false,
          "internalType": "uint256",
          "name": "requiredInteractions",
          "type": "uint256"
        },
        {
          "indexed": false,
          "internalType": "string",
          "name": "rewardType",
          "type": "string"
        }
      ],
      "name": "QuestCreated",
      "type": "event"
    },
    {
      "inputs": [],
      "name": "admin",
      "outputs": [
        {
          "internalType": "address",
          "name": "",
          "type": "address"
        }
      ],
      "stateMutability": "view",
      "type": "function"
    },
    {
      "inputs": [
        {
          "internalType": "uint256",
          "name": "_eventId",
          "type": "uint256"
        },
        {
          "internalType": "uint256",
          "name": "_startDate",
          "type": "uint256"
        },
        {
          "internalType": "uint256",
          "name": "_endDate",
          "type": "uint256"
        },
        {
          "internalType": "uint256",
          "name": "_requiredInteractions",
          "type": "uint256"
        },
        {
          "internalType": "string",
          "name": "_rewardType",
          "type": "string"
        }
      ],
      "name": "createQuest",
      "outputs": [],
      "stateMutability": "nonpayable",
      "type": "function"
    },
    {
      "inputs": [
        {
          "internalType": "uint256",
          "name": "_eventId",
          "type": "uint256"
        }
      ],
      "name": "getQuest",
      "outputs": [
        {
          "components": [
            {
              "internalType": "uint256",
              "name": "eventId",
              "type": "uint256"
            },
            {
              "internalType": "uint256",
              "name": "startDate",
              "type": "uint256"
            },
            {
              "internalType": "uint256",
              "name": "endDate",
              "type": "uint256"
            },
            {
              "internalType": "uint256",
              "name": "requiredInteractions",
              "type": "uint256"
            },
            {
              "internalType": "string",
              "name": "rewardType",
              "type": "string"
            }
          ],
          "internalType": "struct QuestManager.Quest",
          "name": "",
          "type": "tuple"
        }
      ],
      "stateMutability": "view",
      "type": "function"
    },
    {
      "inputs": [
        {
          "internalType": "uint256",
          "name": "",
          "type": "uint256"
        }
      ],
      "name": "quests",
      "outputs": [
        {
          "internalType": "uint256",
          "name": "eventId",
          "type": "uint256"
        },
        {
          "internalType": "uint256",
          "name": "startDate",
          "type": "uint256"
        },
        {
          "internalType": "uint256",
          "name": "endDate",
          "type": "uint256"
        },
        {
          "internalType": "uint256",
          "name": "requiredInteractions",
          "type": "uint256"
        },
        {
          "internalType": "string",
          "name": "rewardType",
          "type": "string"
        }
      ],
      "stateMutability": "view",
      "type": "function"
    }
  ],
  "bytecode": "0x608060405234801561001057600080fd5b50336000806101000a81548173ffffffffffffffffffffffffffffffffffffffff021916908373ffffffffffffffffffffffffffffffffffffffff160217905550610deb806100606000396000f3fe608060405234801561001057600080fd5b506004361061004c5760003560e01c80633919c9c71461005157806349f86f341461006d578063e085f9801461009d578063f851a440146100d1575b600080fd5b61006b6004803603810190610066919061064e565b6100ef565b005b610087600480360381019061008291906106e5565b6102c6565b6040516100949190610816565b60405180910390f35b6100b760048036038101906100b291906106e5565b6103ad565b6040516100c8959493929190610891565b60405180910390f35b6100d961046b565b6040516100e6919061092c565b60405180910390f35b60008054906101000a900473ffffffffffffffffffffffffffffffffffffffff1673ffffffffffffffffffffffffffffffffffffffff163373ffffffffffffffffffffffffffffffffffffffff161461017d576040517f08c379a0000000000000000000000000000000000000000000000000000000008152600401610174906109b9565b60405180910390fd5b60038210156101c1576040517f08c379a00000000000000000000000000000000000000000000000000000000081526004016101b890610a4b565b60405180910390fd5b6000815111610205576040517f08c379a00000000000000000000000000000000000000000000000000000000081526004016101fc90610ab7565b60405180910390fd5b6040518060a00160405280868152602001858152602001848152602001838152602001828152506001600087815260200190815260200160002060008201518160000155602082015181600101556040820151816002015560608201518160030155608082015181600401908161027c9190610ce3565b509050507f092604b2c230892325c2e362df3fd8917b3c908552d96c35983104aba19459d685858585856040516102b7959493929190610891565b60405180910390a15050505050565b6102ce61048f565b600160008381526020019081526020016000206040518060a00160405290816000820154815260200160018201548152602001600282015481526020016003820154815260200160048201805461032490610b06565b80601f016020809104026020016040519081016040528092919081815260200182805461035090610b06565b801561039d5780601f106103725761010080835404028352916020019161039d565b820191906000526020600020905b81548152906001019060200180831161038057829003601f168201915b5050505050815250509050919050565b60016020528060005260406000206000915090508060000154908060010154908060020154908060030154908060040180546103e890610b06565b80601f016020809104026020016040519081016040528092919081815260200182805461041490610b06565b80156104615780601f1061043657610100808354040283529160200191610461565b820191906000526020600020905b81548152906001019060200180831161044457829003601f168201915b5050505050905085565b60008054906101000a900473ffffffffffffffffffffffffffffffffffffffff1681565b6040518060a0016040528060008152602001600081526020016000815260200160008152602001606081525090565b6000604051905090565b600080fd5b600080fd5b6000819050919050565b6104e5816104d2565b81146104f057600080fd5b50565b600081359050610502816104dc565b92915050565b600080fd5b600080fd5b6000601f19601f8301169050919050565b7f4e487b7100000000000000000000000000000000000000000000000000000000600052604160045260246000fd5b61055b82610512565b810181811067ffffffffffffffff8211171561057a57610579610523565b5b80604052505050565b600061058d6104be565b90506105998282610552565b919050565b600067ffffffffffffffff8211156105b9576105b8610523565b5b6105c282610512565b9050602081019050919050565b82818337600083830152505050565b60006105f16105ec8461059e565b610583565b90508281526020810184848401111561060d5761060c61050d565b5b6106188482856105cf565b509392505050565b600082601f83011261063557610634610508565b5b81356106458482602086016105de565b91505092915050565b600080600080600060a0868803121561066a576106696104c8565b5b6000610678888289016104f3565b9550506020610689888289016104f3565b945050604061069a888289016104f3565b93505060606106ab888289016104f3565b925050608086013567ffffffffffffffff8111156106cc576106cb6104cd565b5b6106d888828901610620565b9150509295509295909350565b6000602082840312156106fb576106fa6104c8565b5b6000610709848285016104f3565b91505092915050565b61071b816104d2565b82525050565b600081519050919050565b600082825260208201905092915050565b60005b8381101561075b578082015181840152602081019050610740565b60008484015250505050565b600061077282610721565b61077c818561072c565b935061078c81856020860161073d565b61079581610512565b840191505092915050565b600060a0830160008301516107b86000860182610712565b5060208301516107cb6020860182610712565b5060408301516107de6040860182610712565b5060608301516107f16060860182610712565b50608083015184820360808601526108098282610767565b9150508091505092915050565b6000602082019050818103600083015261083081846107a0565b905092915050565b610841816104d2565b82525050565b600082825260208201905092915050565b600061086382610721565b61086d8185610847565b935061087d81856020860161073d565b61088681610512565b840191505092915050565b600060a0820190506108a66000830188610838565b6108b36020830187610838565b6108c06040830186610838565b6108cd6060830185610838565b81810360808301526108df8184610858565b90509695505050505050565b600073ffffffffffffffffffffffffffffffffffffffff82169050919050565b6000610916826108eb565b9050919050565b6109268161090b565b82525050565b6000602082019050610941600083018461091d565b92915050565b7f4f6e6c792061646d696e2063616e20706572666f726d2074686973206163746960008201527f6f6e000000000000000000000000000000000000000000000000000000000000602082015250565b60006109a3602283610847565b91506109ae82610947565b604082019050919050565b600060208201905081810360008301526109d281610996565b9050919050565b7f526571756972656420696e746572616374696f6e73206d75737420626520617460008201527f206c656173742074687265650000000000000000000000000000000000000000602082015250565b6000610a35602c83610847565b9150610a40826109d9565b604082019050919050565b60006020820190508181036000830152610a6481610a28565b9050919050565b7f5265776172642074797065206d75737420626520737065636966696564000000600082015250565b6000610aa1601d83610847565b9150610aac82610a6b565b602082019050919050565b60006020820190508181036000830152610ad081610a94565b9050919050565b7f4e487b7100000000000000000000000000000000000000000000000000000000600052602260045260246000fd5b60006002820490506001821680610b1e57607f821691505b602082108103610b3157610b30610ad7565b5b50919050565b60008190508160005260206000209050919050565b60006020601f8301049050919050565b600082821b905092915050565b600060088302610b997fffffffffffffffffffffffffffffffffffffffffffffffffffffffffffffffff82610b5c565b610ba38683610b5c565b95508019841693508086168417925050509392505050565b6000819050919050565b6000610be0610bdb610bd6846104d2565b610bbb565b6104d2565b9050919050565b6000819050919050565b610bfa83610bc5565b610c0e610c0682610be7565b848454610b69565b825550505050565b600090565b610c23610c16565b610c2e818484610bf1565b505050565b5b81811015610c5257610c47600082610c1b565b600181019050610c34565b5050565b601f821115610c9757610c6881610b37565b610c7184610b4c565b81016020851015610c80578190505b610c94610c8c85610b4c565b830182610c33565b50505b505050565b600082821c905092915050565b6000610cba60001984600802610c9c565b1980831691505092915050565b6000610cd38383610ca9565b9150826002028217905092915050565b610cec82610721565b67ffffffffffffffff811115610d0557610d04610523565b5b610d0f8254610b06565b610d1a828285610c56565b600060209050601f831160018114610d4d5760008415610d3b578287015190505b610d458582610cc7565b865550610dad565b601f198416610d5b86610b37565b60005b82811015610d8357848901518255600182019150602085019450602081019050610d5e565b86831015610da05784890151610d9c601f891682610ca9565b8355505b6001600288020188555050505b50505050505056fea264697066735822122095d99dcdf8480e78fbf5b16d906ba70322ca547c2a02a349cd43447a9bebfce264736f6c63430008170033",
  "linkReferences": {},
  "deployedLinkReferences": {}
}