{
  "_format": "hh-sol-artifact-1",
  "contractName": "QuestManager",
  "sourceName": "contracts/QuestManager.sol",
  "abi": [
    {
      "inputs": [],
      "stateMutability": "nonpayable",
      "type": "constructor"
    },
    {
      "anonymous": false,
      "inputs": [
        {
          "indexed": false,
          "internalType": "uint256",
          "name": "questId",
          "type": "uint256"
        },
        {
          "indexed": false,
          "internalType": "uint256",
          "name": "eventId",
          "type": "uint256"
        },
        {
          "indexed": false,
          "internalType": "uint256",
          "name": "startDate",
          "type": "uint256"
        },
        {
          "indexed": false,
          "internalType": "uint256",
          "name": "endDate",
          "type": "uint256"
        },
        {
          "indexed": false,
          "internalType": "uint256",
          "name": "requiredInteractions",
          "type": "uint256"
        },
        {
          "indexed": false,
          "internalType": "string",
          "name": "rewardType",
          "type": "string"
        }
      ],
      "name": "QuestCreated",
      "type": "event"
    },
    {
      "inputs": [],
      "name": "admin",
      "outputs": [
        {
          "internalType": "address",
          "name": "",
          "type": "address"
        }
      ],
      "stateMutability": "view",
      "type": "function"
    },
    {
      "inputs": [
        {
          "internalType": "uint256",
          "name": "_eventId",
          "type": "uint256"
        },
        {
          "internalType": "uint256",
          "name": "_startDate",
          "type": "uint256"
        },
        {
          "internalType": "uint256",
          "name": "_endDate",
          "type": "uint256"
        },
        {
          "internalType": "uint256",
          "name": "_requiredInteractions",
          "type": "uint256"
        },
        {
          "internalType": "string",
          "name": "_rewardType",
          "type": "string"
        }
      ],
      "name": "createQuest",
      "outputs": [],
      "stateMutability": "nonpayable",
      "type": "function"
    },
    {
      "inputs": [
        {
          "internalType": "uint256",
          "name": "_eventId",
          "type": "uint256"
        }
      ],
      "name": "getQuest",
      "outputs": [
        {
          "components": [
            {
              "internalType": "uint256",
              "name": "questId",
              "type": "uint256"
            },
            {
              "internalType": "uint256",
              "name": "eventId",
              "type": "uint256"
            },
            {
              "internalType": "uint256",
              "name": "startDate",
              "type": "uint256"
            },
            {
              "internalType": "uint256",
              "name": "endDate",
              "type": "uint256"
            },
            {
              "internalType": "uint256",
              "name": "requiredInteractions",
              "type": "uint256"
            },
            {
              "internalType": "string",
              "name": "rewardType",
              "type": "string"
            }
          ],
          "internalType": "struct QuestManager.Quest",
          "name": "",
          "type": "tuple"
        }
      ],
      "stateMutability": "view",
      "type": "function"
    },
    {
      "inputs": [
        {
          "internalType": "uint256",
          "name": "",
          "type": "uint256"
        }
      ],
      "name": "quests",
      "outputs": [
        {
          "internalType": "uint256",
          "name": "questId",
          "type": "uint256"
        },
        {
          "internalType": "uint256",
          "name": "eventId",
          "type": "uint256"
        },
        {
          "internalType": "uint256",
          "name": "startDate",
          "type": "uint256"
        },
        {
          "internalType": "uint256",
          "name": "endDate",
          "type": "uint256"
        },
        {
          "internalType": "uint256",
          "name": "requiredInteractions",
          "type": "uint256"
        },
        {
          "internalType": "string",
          "name": "rewardType",
          "type": "string"
        }
      ],
      "stateMutability": "view",
      "type": "function"
    }
  ],
  "bytecode": "0x60806040526001805534801561001457600080fd5b50336000806101000a81548173ffffffffffffffffffffffffffffffffffffffff021916908373ffffffffffffffffffffffffffffffffffffffff160217905550610ec9806100646000396000f3fe608060405234801561001057600080fd5b506004361061004c5760003560e01c80633919c9c71461005157806349f86f341461006d578063e085f9801461009d578063f851a440146100d2575b600080fd5b61006b60048036038101906100669190610694565b6100f0565b005b6100876004803603810190610082919061072b565b6102f5565b604051610094919061086f565b60405180910390f35b6100b760048036038101906100b2919061072b565b6103e6565b6040516100c9969594939291906108ea565b60405180910390f35b6100da6104aa565b6040516100e79190610993565b60405180910390f35b60008054906101000a900473ffffffffffffffffffffffffffffffffffffffff1673ffffffffffffffffffffffffffffffffffffffff163373ffffffffffffffffffffffffffffffffffffffff161461017e576040517f08c379a000000000000000000000000000000000000000000000000000000000815260040161017590610a20565b60405180910390fd5b60038210156101c2576040517f08c379a00000000000000000000000000000000000000000000000000000000081526004016101b990610ab2565b60405180910390fd5b6000815111610206576040517f08c379a00000000000000000000000000000000000000000000000000000000081526004016101fd90610b1e565b60405180910390fd5b6040518060c0016040528060015481526020018681526020018581526020018481526020018381526020018281525060026000878152602001908152602001600020600082015181600001556020820151816001015560408201518160020155606082015181600301556080820151816004015560a082015181600501908161028f9190610d4a565b509050507f4a0d9ccba5327a408814e0e437fc017181ea4f4f15c657756ca4d44c42fd457a60015486868686866040516102ce969594939291906108ea565b60405180910390a1600160008154809291906102e990610e4b565b91905055505050505050565b6102fd6104ce565b600260008381526020019081526020016000206040518060c0016040529081600082015481526020016001820154815260200160028201548152602001600382015481526020016004820154815260200160058201805461035d90610b6d565b80601f016020809104026020016040519081016040528092919081815260200182805461038990610b6d565b80156103d65780601f106103ab576101008083540402835291602001916103d6565b820191906000526020600020905b8154815290600101906020018083116103b957829003601f168201915b5050505050815250509050919050565b600260205280600052604060002060009150905080600001549080600101549080600201549080600301549080600401549080600501805461042790610b6d565b80601f016020809104026020016040519081016040528092919081815260200182805461045390610b6d565b80156104a05780601f10610475576101008083540402835291602001916104a0565b820191906000526020600020905b81548152906001019060200180831161048357829003601f168201915b5050505050905086565b60008054906101000a900473ffffffffffffffffffffffffffffffffffffffff1681565b6040518060c001604052806000815260200160008152602001600081526020016000815260200160008152602001606081525090565b6000604051905090565b600080fd5b600080fd5b6000819050919050565b61052b81610518565b811461053657600080fd5b50565b60008135905061054881610522565b92915050565b600080fd5b600080fd5b6000601f19601f8301169050919050565b7f4e487b7100000000000000000000000000000000000000000000000000000000600052604160045260246000fd5b6105a182610558565b810181811067ffffffffffffffff821117156105c0576105bf610569565b5b80604052505050565b60006105d3610504565b90506105df8282610598565b919050565b600067ffffffffffffffff8211156105ff576105fe610569565b5b61060882610558565b9050602081019050919050565b82818337600083830152505050565b6000610637610632846105e4565b6105c9565b90508281526020810184848401111561065357610652610553565b5b61065e848285610615565b509392505050565b600082601f83011261067b5761067a61054e565b5b813561068b848260208601610624565b91505092915050565b600080600080600060a086880312156106b0576106af61050e565b5b60006106be88828901610539565b95505060206106cf88828901610539565b94505060406106e088828901610539565b93505060606106f188828901610539565b925050608086013567ffffffffffffffff81111561071257610711610513565b5b61071e88828901610666565b9150509295509295909350565b6000602082840312156107415761074061050e565b5b600061074f84828501610539565b91505092915050565b61076181610518565b82525050565b600081519050919050565b600082825260208201905092915050565b60005b838110156107a1578082015181840152602081019050610786565b60008484015250505050565b60006107b882610767565b6107c28185610772565b93506107d2818560208601610783565b6107db81610558565b840191505092915050565b600060c0830160008301516107fe6000860182610758565b5060208301516108116020860182610758565b5060408301516108246040860182610758565b5060608301516108376060860182610758565b50608083015161084a6080860182610758565b5060a083015184820360a086015261086282826107ad565b9150508091505092915050565b6000602082019050818103600083015261088981846107e6565b905092915050565b61089a81610518565b82525050565b600082825260208201905092915050565b60006108bc82610767565b6108c681856108a0565b93506108d6818560208601610783565b6108df81610558565b840191505092915050565b600060c0820190506108ff6000830189610891565b61090c6020830188610891565b6109196040830187610891565b6109266060830186610891565b6109336080830185610891565b81810360a083015261094581846108b1565b9050979650505050505050565b600073ffffffffffffffffffffffffffffffffffffffff82169050919050565b600061097d82610952565b9050919050565b61098d81610972565b82525050565b60006020820190506109a86000830184610984565b92915050565b7f4f6e6c792061646d696e2063616e20706572666f726d2074686973206163746960008201527f6f6e000000000000000000000000000000000000000000000000000000000000602082015250565b6000610a0a6022836108a0565b9150610a15826109ae565b604082019050919050565b60006020820190508181036000830152610a39816109fd565b9050919050565b7f526571756972656420696e746572616374696f6e73206d75737420626520617460008201527f206c656173742074687265650000000000000000000000000000000000000000602082015250565b6000610a9c602c836108a0565b9150610aa782610a40565b604082019050919050565b60006020820190508181036000830152610acb81610a8f565b9050919050565b7f5265776172642074797065206d75737420626520737065636966696564000000600082015250565b6000610b08601d836108a0565b9150610b1382610ad2565b602082019050919050565b60006020820190508181036000830152610b3781610afb565b9050919050565b7f4e487b7100000000000000000000000000000000000000000000000000000000600052602260045260246000fd5b60006002820490506001821680610b8557607f821691505b602082108103610b9857610b97610b3e565b5b50919050565b60008190508160005260206000209050919050565b60006020601f8301049050919050565b600082821b905092915050565b600060088302610c007fffffffffffffffffffffffffffffffffffffffffffffffffffffffffffffffff82610bc3565b610c0a8683610bc3565b95508019841693508086168417925050509392505050565b6000819050919050565b6000610c47610c42610c3d84610518565b610c22565b610518565b9050919050565b6000819050919050565b610c6183610c2c565b610c75610c6d82610c4e565b848454610bd0565b825550505050565b600090565b610c8a610c7d565b610c95818484610c58565b505050565b5b81811015610cb957610cae600082610c82565b600181019050610c9b565b5050565b601f821115610cfe57610ccf81610b9e565b610cd884610bb3565b81016020851015610ce7578190505b610cfb610cf385610bb3565b830182610c9a565b50505b505050565b600082821c905092915050565b6000610d2160001984600802610d03565b1980831691505092915050565b6000610d3a8383610d10565b9150826002028217905092915050565b610d5382610767565b67ffffffffffffffff811115610d6c57610d6b610569565b5b610d768254610b6d565b610d81828285610cbd565b600060209050601f831160018114610db45760008415610da2578287015190505b610dac8582610d2e565b865550610e14565b601f198416610dc286610b9e565b60005b82811015610dea57848901518255600182019150602085019450602081019050610dc5565b86831015610e075784890151610e03601f891682610d10565b8355505b6001600288020188555050505b505050505050565b7f4e487b7100000000000000000000000000000000000000000000000000000000600052601160045260246000fd5b6000610e5682610518565b91507fffffffffffffffffffffffffffffffffffffffffffffffffffffffffffffffff8203610e8857610e87610e1c565b5b60018201905091905056fea2646970667358221220ec0d38ecfa537558cdbf757b70d20803fb3d36725a5c0c7a6581b1d6f979d1ed64736f6c63430008170033",
  "linkReferences": {},
  "deployedLinkReferences": {}
}