{
  "_format": "hh-sol-artifact-1",
  "contractName": "Rewards",
  "sourceName": "contracts/Rewards.sol",
  "abi": [
    {
      "inputs": [
        {
          "internalType": "uint256",
          "name": "attendeeId",
          "type": "uint256"
        },
        {
          "internalType": "uint256",
          "name": "rewardPoolId",
          "type": "uint256"
        },
        {
          "internalType": "uint256",
          "name": "amount",
          "type": "uint256"
        },
        {
          "internalType": "string",
          "name": "rewardType",
          "type": "string"
        },
        {
          "internalType": "address",
          "name": "poolWalletAddress",
          "type": "address"
        }
      ],
      "name": "createReward",
      "outputs": [
        {
          "internalType": "uint256",
          "name": "",
          "type": "uint256"
        }
      ],
      "stateMutability": "nonpayable",
      "type": "function"
    },
    {
      "inputs": [
        {
          "internalType": "uint256",
          "name": "rewardId",
          "type": "uint256"
        }
      ],
      "name": "deleteReward",
      "outputs": [],
      "stateMutability": "nonpayable",
      "type": "function"
    },
    {
      "inputs": [
        {
          "internalType": "uint256",
          "name": "index",
          "type": "uint256"
        }
      ],
      "name": "getRewardByIndex",
      "outputs": [
        {
          "components": [
            {
              "internalType": "uint256",
              "name": "rewardId",
              "type": "uint256"
            },
            {
              "internalType": "uint256",
              "name": "attendeeId",
              "type": "uint256"
            },
            {
              "internalType": "uint256",
              "name": "rewardPoolId",
              "type": "uint256"
            },
            {
              "internalType": "uint256",
              "name": "amount",
              "type": "uint256"
            },
            {
              "internalType": "string",
              "name": "rewardType",
              "type": "string"
            },
            {
              "internalType": "address",
              "name": "poolWalletAddress",
              "type": "address"
            }
          ],
          "internalType": "struct Rewards.Reward",
          "name": "",
          "type": "tuple"
        }
      ],
      "stateMutability": "view",
      "type": "function"
    },
    {
      "inputs": [],
      "name": "getRewardCount",
      "outputs": [
        {
          "internalType": "uint256",
          "name": "",
          "type": "uint256"
        }
      ],
      "stateMutability": "view",
      "type": "function"
    },
    {
      "inputs": [],
      "name": "listRewards",
      "outputs": [
        {
          "components": [
            {
              "internalType": "uint256",
              "name": "rewardId",
              "type": "uint256"
            },
            {
              "internalType": "uint256",
              "name": "attendeeId",
              "type": "uint256"
            },
            {
              "internalType": "uint256",
              "name": "rewardPoolId",
              "type": "uint256"
            },
            {
              "internalType": "uint256",
              "name": "amount",
              "type": "uint256"
            },
            {
              "internalType": "string",
              "name": "rewardType",
              "type": "string"
            },
            {
              "internalType": "address",
              "name": "poolWalletAddress",
              "type": "address"
            }
          ],
          "internalType": "struct Rewards.Reward[]",
          "name": "",
          "type": "tuple[]"
        }
      ],
      "stateMutability": "view",
      "type": "function"
    },
    {
      "inputs": [
        {
          "internalType": "uint256",
          "name": "rewardId",
          "type": "uint256"
        }
      ],
      "name": "readReward",
      "outputs": [
        {
          "components": [
            {
              "internalType": "uint256",
              "name": "rewardId",
              "type": "uint256"
            },
            {
              "internalType": "uint256",
              "name": "attendeeId",
              "type": "uint256"
            },
            {
              "internalType": "uint256",
              "name": "rewardPoolId",
              "type": "uint256"
            },
            {
              "internalType": "uint256",
              "name": "amount",
              "type": "uint256"
            },
            {
              "internalType": "string",
              "name": "rewardType",
              "type": "string"
            },
            {
              "internalType": "address",
              "name": "poolWalletAddress",
              "type": "address"
            }
          ],
          "internalType": "struct Rewards.Reward",
          "name": "",
          "type": "tuple"
        }
      ],
      "stateMutability": "view",
      "type": "function"
    },
    {
      "inputs": [
        {
          "internalType": "uint256",
          "name": "",
          "type": "uint256"
        }
      ],
      "name": "rewards",
      "outputs": [
        {
          "internalType": "uint256",
          "name": "rewardId",
          "type": "uint256"
        },
        {
          "internalType": "uint256",
          "name": "attendeeId",
          "type": "uint256"
        },
        {
          "internalType": "uint256",
          "name": "rewardPoolId",
          "type": "uint256"
        },
        {
          "internalType": "uint256",
          "name": "amount",
          "type": "uint256"
        },
        {
          "internalType": "string",
          "name": "rewardType",
          "type": "string"
        },
        {
          "internalType": "address",
          "name": "poolWalletAddress",
          "type": "address"
        }
      ],
      "stateMutability": "view",
      "type": "function"
    },
    {
      "inputs": [
        {
          "internalType": "uint256",
          "name": "rewardId",
          "type": "uint256"
        },
        {
          "internalType": "uint256",
          "name": "attendeeId",
          "type": "uint256"
        },
        {
          "internalType": "uint256",
          "name": "rewardPoolId",
          "type": "uint256"
        },
        {
          "internalType": "uint256",
          "name": "amount",
          "type": "uint256"
        },
        {
          "internalType": "string",
          "name": "rewardType",
          "type": "string"
        },
        {
          "internalType": "address",
          "name": "poolWalletAddress",
          "type": "address"
        }
      ],
      "name": "updateReward",
      "outputs": [],
      "stateMutability": "nonpayable",
      "type": "function"
    }
  ],
  "bytecode": "0x608060405234801561001057600080fd5b506117aa806100206000396000f3fe608060405234801561001057600080fd5b50600436106100885760003560e01c80637e7e8eec1161005b5780637e7e8eec1461013b578063cb1d2d4614610159578063e7cf1ab714610175578063f301af421461019157610088565b806306ba6c761461008d578063334d0355146100ab578063341684a0146100db5780634eef65261461010b575b600080fd5b6100956101c6565b6040516100a29190610de6565b60405180910390f35b6100c560048036038101906100c09190610fa9565b6103c6565b6040516100d2919061104f565b60405180910390f35b6100f560048036038101906100f0919061106a565b6104cf565b6040516101029190611120565b60405180910390f35b6101256004803603810190610120919061106a565b610663565b6040516101329190611120565b60405180910390f35b61014361087d565b604051610150919061104f565b60405180910390f35b610173600480360381019061016e9190611142565b610887565b005b61018f600480360381019061018a919061106a565b61095d565b005b6101ab60048036038101906101a6919061106a565b610a24565b6040516101bd96959493929190611244565b60405180910390f35b6060600060015467ffffffffffffffff8111156101e6576101e5610e52565b5b60405190808252806020026020018201604052801561021f57816020015b61020c610b08565b8152602001906001900390816102045790505b509050600080600190505b60015481116103bd57600080600083815260200190815260200160002060000154146103aa576000808281526020019081526020016000206040518060c0016040529081600082015481526020016001820154815260200160028201548152602001600382015481526020016004820180546102a5906112db565b80601f01602080910402602001604051908101604052809291908181526020018280546102d1906112db565b801561031e5780601f106102f35761010080835404028352916020019161031e565b820191906000526020600020905b81548152906001019060200180831161030157829003601f168201915b505050505081526020016005820160009054906101000a900473ffffffffffffffffffffffffffffffffffffffff1673ffffffffffffffffffffffffffffffffffffffff1673ffffffffffffffffffffffffffffffffffffffff16815250508383815181106103905761038f61130c565b5b602002602001018190525081806103a69061136a565b9250505b80806103b59061136a565b91505061022a565b50819250505090565b6000600160008154809291906103db9061136a565b91905055506040518060c0016040528060015481526020018781526020018681526020018581526020018481526020018373ffffffffffffffffffffffffffffffffffffffff168152506000806001548152602001908152602001600020600082015181600001556020820151816001015560408201518160020155606082015181600301556080820151816004019081610476919061155e565b5060a08201518160050160006101000a81548173ffffffffffffffffffffffffffffffffffffffff021916908373ffffffffffffffffffffffffffffffffffffffff160217905550905050600154905095945050505050565b6104d7610b08565b6000806000848152602001908152602001600020600001540361052f576040517f08c379a00000000000000000000000000000000000000000000000000000000081526004016105269061167c565b60405180910390fd5b6000808381526020019081526020016000206040518060c001604052908160008201548152602001600182015481526020016002820154815260200160038201548152602001600482018054610584906112db565b80601f01602080910402602001604051908101604052809291908181526020018280546105b0906112db565b80156105fd5780601f106105d2576101008083540402835291602001916105fd565b820191906000526020600020905b8154815290600101906020018083116105e057829003601f168201915b505050505081526020016005820160009054906101000a900473ffffffffffffffffffffffffffffffffffffffff1673ffffffffffffffffffffffffffffffffffffffff1673ffffffffffffffffffffffffffffffffffffffff16815250509050919050565b61066b610b08565b60015482106106af576040517f08c379a00000000000000000000000000000000000000000000000000000000081526004016106a6906116e8565b60405180910390fd5b600080600190505b600154811161083c57600080600083815260200190815260200160002060000154146108295783820361081a576000808281526020019081526020016000206040518060c001604052908160008201548152602001600182015481526020016002820154815260200160038201548152602001600482018054610739906112db565b80601f0160208091040260200160405190810160405280929190818152602001828054610765906112db565b80156107b25780601f10610787576101008083540402835291602001916107b2565b820191906000526020600020905b81548152906001019060200180831161079557829003601f168201915b505050505081526020016005820160009054906101000a900473ffffffffffffffffffffffffffffffffffffffff1673ffffffffffffffffffffffffffffffffffffffff1673ffffffffffffffffffffffffffffffffffffffff168152505092505050610878565b81806108259061136a565b9250505b80806108349061136a565b9150506106b7565b506040517f08c379a000000000000000000000000000000000000000000000000000000000815260040161086f90611754565b60405180910390fd5b919050565b6000600154905090565b6000806000888152602001908152602001600020905060008160000154036108e4576040517f08c379a00000000000000000000000000000000000000000000000000000000081526004016108db9061167c565b60405180910390fd5b85816001018190555084816002018190555083816003018190555082816004019081610910919061155e565b50818160050160006101000a81548173ffffffffffffffffffffffffffffffffffffffff021916908373ffffffffffffffffffffffffffffffffffffffff16021790555050505050505050565b600080600083815260200190815260200160002060000154036109b5576040517f08c379a00000000000000000000000000000000000000000000000000000000081526004016109ac9061167c565b60405180910390fd5b6000808281526020019081526020016000206000808201600090556001820160009055600282016000905560038201600090556004820160006109f89190610b54565b6005820160006101000a81549073ffffffffffffffffffffffffffffffffffffffff0219169055505050565b6000602052806000526040600020600091509050806000015490806001015490806002015490806003015490806004018054610a5f906112db565b80601f0160208091040260200160405190810160405280929190818152602001828054610a8b906112db565b8015610ad85780601f10610aad57610100808354040283529160200191610ad8565b820191906000526020600020905b815481529060010190602001808311610abb57829003601f168201915b5050505050908060050160009054906101000a900473ffffffffffffffffffffffffffffffffffffffff16905086565b6040518060c001604052806000815260200160008152602001600081526020016000815260200160608152602001600073ffffffffffffffffffffffffffffffffffffffff1681525090565b508054610b60906112db565b6000825580601f10610b725750610b91565b601f016020900490600052602060002090810190610b909190610b94565b5b50565b5b80821115610bad576000816000905550600101610b95565b5090565b600081519050919050565b600082825260208201905092915050565b6000819050602082019050919050565b6000819050919050565b610bf081610bdd565b82525050565b600081519050919050565b600082825260208201905092915050565b60005b83811015610c30578082015181840152602081019050610c15565b60008484015250505050565b6000601f19601f8301169050919050565b6000610c5882610bf6565b610c628185610c01565b9350610c72818560208601610c12565b610c7b81610c3c565b840191505092915050565b600073ffffffffffffffffffffffffffffffffffffffff82169050919050565b6000610cb182610c86565b9050919050565b610cc181610ca6565b82525050565b600060c083016000830151610cdf6000860182610be7565b506020830151610cf26020860182610be7565b506040830151610d056040860182610be7565b506060830151610d186060860182610be7565b5060808301518482036080860152610d308282610c4d565b91505060a0830151610d4560a0860182610cb8565b508091505092915050565b6000610d5c8383610cc7565b905092915050565b6000602082019050919050565b6000610d7c82610bb1565b610d868185610bbc565b935083602082028501610d9885610bcd565b8060005b85811015610dd45784840389528151610db58582610d50565b9450610dc083610d64565b925060208a01995050600181019050610d9c565b50829750879550505050505092915050565b60006020820190508181036000830152610e008184610d71565b905092915050565b6000604051905090565b600080fd5b600080fd5b610e2581610bdd565b8114610e3057600080fd5b50565b600081359050610e4281610e1c565b92915050565b600080fd5b600080fd5b7f4e487b7100000000000000000000000000000000000000000000000000000000600052604160045260246000fd5b610e8a82610c3c565b810181811067ffffffffffffffff82111715610ea957610ea8610e52565b5b80604052505050565b6000610ebc610e08565b9050610ec88282610e81565b919050565b600067ffffffffffffffff821115610ee857610ee7610e52565b5b610ef182610c3c565b9050602081019050919050565b82818337600083830152505050565b6000610f20610f1b84610ecd565b610eb2565b905082815260208101848484011115610f3c57610f3b610e4d565b5b610f47848285610efe565b509392505050565b600082601f830112610f6457610f63610e48565b5b8135610f74848260208601610f0d565b91505092915050565b610f8681610ca6565b8114610f9157600080fd5b50565b600081359050610fa381610f7d565b92915050565b600080600080600060a08688031215610fc557610fc4610e12565b5b6000610fd388828901610e33565b9550506020610fe488828901610e33565b9450506040610ff588828901610e33565b935050606086013567ffffffffffffffff81111561101657611015610e17565b5b61102288828901610f4f565b925050608061103388828901610f94565b9150509295509295909350565b61104981610bdd565b82525050565b60006020820190506110646000830184611040565b92915050565b6000602082840312156110805761107f610e12565b5b600061108e84828501610e33565b91505092915050565b600060c0830160008301516110af6000860182610be7565b5060208301516110c26020860182610be7565b5060408301516110d56040860182610be7565b5060608301516110e86060860182610be7565b50608083015184820360808601526111008282610c4d565b91505060a083015161111560a0860182610cb8565b508091505092915050565b6000602082019050818103600083015261113a8184611097565b905092915050565b60008060008060008060c0878903121561115f5761115e610e12565b5b600061116d89828a01610e33565b965050602061117e89828a01610e33565b955050604061118f89828a01610e33565b94505060606111a089828a01610e33565b935050608087013567ffffffffffffffff8111156111c1576111c0610e17565b5b6111cd89828a01610f4f565b92505060a06111de89828a01610f94565b9150509295509295509295565b600082825260208201905092915050565b600061120782610bf6565b61121181856111eb565b9350611221818560208601610c12565b61122a81610c3c565b840191505092915050565b61123e81610ca6565b82525050565b600060c0820190506112596000830189611040565b6112666020830188611040565b6112736040830187611040565b6112806060830186611040565b818103608083015261129281856111fc565b90506112a160a0830184611235565b979650505050505050565b7f4e487b7100000000000000000000000000000000000000000000000000000000600052602260045260246000fd5b600060028204905060018216806112f357607f821691505b602082108103611306576113056112ac565b5b50919050565b7f4e487b7100000000000000000000000000000000000000000000000000000000600052603260045260246000fd5b7f4e487b7100000000000000000000000000000000000000000000000000000000600052601160045260246000fd5b600061137582610bdd565b91507fffffffffffffffffffffffffffffffffffffffffffffffffffffffffffffffff82036113a7576113a661133b565b5b600182019050919050565b60008190508160005260206000209050919050565b60006020601f8301049050919050565b600082821b905092915050565b6000600883026114147fffffffffffffffffffffffffffffffffffffffffffffffffffffffffffffffff826113d7565b61141e86836113d7565b95508019841693508086168417925050509392505050565b6000819050919050565b600061145b61145661145184610bdd565b611436565b610bdd565b9050919050565b6000819050919050565b61147583611440565b61148961148182611462565b8484546113e4565b825550505050565b600090565b61149e611491565b6114a981848461146c565b505050565b5b818110156114cd576114c2600082611496565b6001810190506114af565b5050565b601f821115611512576114e3816113b2565b6114ec846113c7565b810160208510156114fb578190505b61150f611507856113c7565b8301826114ae565b50505b505050565b600082821c905092915050565b600061153560001984600802611517565b1980831691505092915050565b600061154e8383611524565b9150826002028217905092915050565b61156782610bf6565b67ffffffffffffffff8111156115805761157f610e52565b5b61158a82546112db565b6115958282856114d1565b600060209050601f8311600181146115c857600084156115b6578287015190505b6115c08582611542565b865550611628565b601f1984166115d6866113b2565b60005b828110156115fe578489015182556001820191506020850194506020810190506115d9565b8683101561161b5784890151611617601f891682611524565b8355505b6001600288020188555050505b505050505050565b7f52657761726420646f6573206e6f742065786973740000000000000000000000600082015250565b60006116666015836111eb565b915061167182611630565b602082019050919050565b6000602082019050818103600083015261169581611659565b9050919050565b7f496e646578206f7574206f6620626f756e647300000000000000000000000000600082015250565b60006116d26013836111eb565b91506116dd8261169c565b602082019050919050565b60006020820190508181036000830152611701816116c5565b9050919050565b7f52657761726420617420696e646578206e6f7420666f756e6400000000000000600082015250565b600061173e6019836111eb565b915061174982611708565b602082019050919050565b6000602082019050818103600083015261176d81611731565b905091905056fea2646970667358221220f0797edb33c9424d07e70329acca0ed07a8f51ad714337d9324cfa2b74b99fbe64736f6c63430008170033",
  "linkReferences": {},
  "deployedLinkReferences": {}
}