{
  "_format": "hh-sol-artifact-1",
  "contractName": "Rewards",
  "sourceName": "contracts/Rewards.sol",
  "abi": [
    {
      "inputs": [
        {
          "internalType": "uint256",
          "name": "attendeeId",
          "type": "uint256"
        },
        {
          "internalType": "uint256",
          "name": "rewardPoolId",
          "type": "uint256"
        },
        {
          "internalType": "uint256",
          "name": "amount",
          "type": "uint256"
        },
        {
          "internalType": "string",
          "name": "rewardType",
          "type": "string"
        },
        {
          "internalType": "address",
          "name": "poolWalletAddress",
          "type": "address"
        }
      ],
      "name": "createReward",
      "outputs": [
        {
          "internalType": "uint256",
          "name": "",
          "type": "uint256"
        }
      ],
      "stateMutability": "nonpayable",
      "type": "function"
    },
    {
      "inputs": [
        {
          "internalType": "uint256",
          "name": "rewardId",
          "type": "uint256"
        }
      ],
      "name": "deleteReward",
      "outputs": [],
      "stateMutability": "nonpayable",
      "type": "function"
    },
    {
      "inputs": [],
      "name": "listRewards",
      "outputs": [
        {
          "components": [
            {
              "internalType": "uint256",
              "name": "rewardId",
              "type": "uint256"
            },
            {
              "internalType": "uint256",
              "name": "attendeeId",
              "type": "uint256"
            },
            {
              "internalType": "uint256",
              "name": "rewardPoolId",
              "type": "uint256"
            },
            {
              "internalType": "uint256",
              "name": "amount",
              "type": "uint256"
            },
            {
              "internalType": "string",
              "name": "rewardType",
              "type": "string"
            },
            {
              "internalType": "address",
              "name": "poolWalletAddress",
              "type": "address"
            }
          ],
          "internalType": "struct Rewards.Reward[]",
          "name": "",
          "type": "tuple[]"
        }
      ],
      "stateMutability": "view",
      "type": "function"
    },
    {
      "inputs": [
        {
          "internalType": "uint256",
          "name": "rewardId",
          "type": "uint256"
        }
      ],
      "name": "readReward",
      "outputs": [
        {
          "components": [
            {
              "internalType": "uint256",
              "name": "rewardId",
              "type": "uint256"
            },
            {
              "internalType": "uint256",
              "name": "attendeeId",
              "type": "uint256"
            },
            {
              "internalType": "uint256",
              "name": "rewardPoolId",
              "type": "uint256"
            },
            {
              "internalType": "uint256",
              "name": "amount",
              "type": "uint256"
            },
            {
              "internalType": "string",
              "name": "rewardType",
              "type": "string"
            },
            {
              "internalType": "address",
              "name": "poolWalletAddress",
              "type": "address"
            }
          ],
          "internalType": "struct Rewards.Reward",
          "name": "",
          "type": "tuple"
        }
      ],
      "stateMutability": "view",
      "type": "function"
    },
    {
      "inputs": [
        {
          "internalType": "uint256",
          "name": "",
          "type": "uint256"
        }
      ],
      "name": "rewards",
      "outputs": [
        {
          "internalType": "uint256",
          "name": "rewardId",
          "type": "uint256"
        },
        {
          "internalType": "uint256",
          "name": "attendeeId",
          "type": "uint256"
        },
        {
          "internalType": "uint256",
          "name": "rewardPoolId",
          "type": "uint256"
        },
        {
          "internalType": "uint256",
          "name": "amount",
          "type": "uint256"
        },
        {
          "internalType": "string",
          "name": "rewardType",
          "type": "string"
        },
        {
          "internalType": "address",
          "name": "poolWalletAddress",
          "type": "address"
        }
      ],
      "stateMutability": "view",
      "type": "function"
    },
    {
      "inputs": [
        {
          "internalType": "uint256",
          "name": "rewardId",
          "type": "uint256"
        },
        {
          "internalType": "uint256",
          "name": "attendeeId",
          "type": "uint256"
        },
        {
          "internalType": "uint256",
          "name": "rewardPoolId",
          "type": "uint256"
        },
        {
          "internalType": "uint256",
          "name": "amount",
          "type": "uint256"
        },
        {
          "internalType": "string",
          "name": "rewardType",
          "type": "string"
        },
        {
          "internalType": "address",
          "name": "poolWalletAddress",
          "type": "address"
        }
      ],
      "name": "updateReward",
      "outputs": [],
      "stateMutability": "nonpayable",
      "type": "function"
    }
  ],
  "bytecode": "0x608060405234801561001057600080fd5b5061143a806100206000396000f3fe608060405234801561001057600080fd5b50600436106100625760003560e01c806306ba6c7614610067578063334d035514610085578063341684a0146100b5578063cb1d2d46146100e5578063e7cf1ab714610101578063f301af421461011d575b600080fd5b61006f610152565b60405161007c9190610b4e565b60405180910390f35b61009f600480360381019061009a9190610d11565b610352565b6040516100ac9190610db7565b60405180910390f35b6100cf60048036038101906100ca9190610dd2565b61045b565b6040516100dc9190610e88565b60405180910390f35b6100ff60048036038101906100fa9190610eaa565b6105ef565b005b61011b60048036038101906101169190610dd2565b6106c5565b005b61013760048036038101906101329190610dd2565b61078c565b60405161014996959493929190610fac565b60405180910390f35b6060600060015467ffffffffffffffff81111561017257610171610bba565b5b6040519080825280602002602001820160405280156101ab57816020015b610198610870565b8152602001906001900390816101905790505b509050600080600190505b60015481116103495760008060008381526020019081526020016000206000015414610336576000808281526020019081526020016000206040518060c00160405290816000820154815260200160018201548152602001600282015481526020016003820154815260200160048201805461023190611043565b80601f016020809104026020016040519081016040528092919081815260200182805461025d90611043565b80156102aa5780601f1061027f576101008083540402835291602001916102aa565b820191906000526020600020905b81548152906001019060200180831161028d57829003601f168201915b505050505081526020016005820160009054906101000a900473ffffffffffffffffffffffffffffffffffffffff1673ffffffffffffffffffffffffffffffffffffffff1673ffffffffffffffffffffffffffffffffffffffff168152505083838151811061031c5761031b611074565b5b60200260200101819052508180610332906110d2565b9250505b8080610341906110d2565b9150506101b6565b50819250505090565b600060016000815480929190610367906110d2565b91905055506040518060c0016040528060015481526020018781526020018681526020018581526020018481526020018373ffffffffffffffffffffffffffffffffffffffff16815250600080600154815260200190815260200160002060008201518160000155602082015181600101556040820151816002015560608201518160030155608082015181600401908161040291906112c6565b5060a08201518160050160006101000a81548173ffffffffffffffffffffffffffffffffffffffff021916908373ffffffffffffffffffffffffffffffffffffffff160217905550905050600154905095945050505050565b610463610870565b600080600084815260200190815260200160002060000154036104bb576040517f08c379a00000000000000000000000000000000000000000000000000000000081526004016104b2906113e4565b60405180910390fd5b6000808381526020019081526020016000206040518060c00160405290816000820154815260200160018201548152602001600282015481526020016003820154815260200160048201805461051090611043565b80601f016020809104026020016040519081016040528092919081815260200182805461053c90611043565b80156105895780601f1061055e57610100808354040283529160200191610589565b820191906000526020600020905b81548152906001019060200180831161056c57829003601f168201915b505050505081526020016005820160009054906101000a900473ffffffffffffffffffffffffffffffffffffffff1673ffffffffffffffffffffffffffffffffffffffff1673ffffffffffffffffffffffffffffffffffffffff16815250509050919050565b60008060008881526020019081526020016000209050600081600001540361064c576040517f08c379a0000000000000000000000000000000000000000000000000000000008152600401610643906113e4565b60405180910390fd5b8581600101819055508481600201819055508381600301819055508281600401908161067891906112c6565b50818160050160006101000a81548173ffffffffffffffffffffffffffffffffffffffff021916908373ffffffffffffffffffffffffffffffffffffffff16021790555050505050505050565b6000806000838152602001908152602001600020600001540361071d576040517f08c379a0000000000000000000000000000000000000000000000000000000008152600401610714906113e4565b60405180910390fd5b60008082815260200190815260200160002060008082016000905560018201600090556002820160009055600382016000905560048201600061076091906108bc565b6005820160006101000a81549073ffffffffffffffffffffffffffffffffffffffff0219169055505050565b60006020528060005260406000206000915090508060000154908060010154908060020154908060030154908060040180546107c790611043565b80601f01602080910402602001604051908101604052809291908181526020018280546107f390611043565b80156108405780601f1061081557610100808354040283529160200191610840565b820191906000526020600020905b81548152906001019060200180831161082357829003601f168201915b5050505050908060050160009054906101000a900473ffffffffffffffffffffffffffffffffffffffff16905086565b6040518060c001604052806000815260200160008152602001600081526020016000815260200160608152602001600073ffffffffffffffffffffffffffffffffffffffff1681525090565b5080546108c890611043565b6000825580601f106108da57506108f9565b601f0160209004906000526020600020908101906108f891906108fc565b5b50565b5b808211156109155760008160009055506001016108fd565b5090565b600081519050919050565b600082825260208201905092915050565b6000819050602082019050919050565b6000819050919050565b61095881610945565b82525050565b600081519050919050565b600082825260208201905092915050565b60005b8381101561099857808201518184015260208101905061097d565b60008484015250505050565b6000601f19601f8301169050919050565b60006109c08261095e565b6109ca8185610969565b93506109da81856020860161097a565b6109e3816109a4565b840191505092915050565b600073ffffffffffffffffffffffffffffffffffffffff82169050919050565b6000610a19826109ee565b9050919050565b610a2981610a0e565b82525050565b600060c083016000830151610a47600086018261094f565b506020830151610a5a602086018261094f565b506040830151610a6d604086018261094f565b506060830151610a80606086018261094f565b5060808301518482036080860152610a9882826109b5565b91505060a0830151610aad60a0860182610a20565b508091505092915050565b6000610ac48383610a2f565b905092915050565b6000602082019050919050565b6000610ae482610919565b610aee8185610924565b935083602082028501610b0085610935565b8060005b85811015610b3c5784840389528151610b1d8582610ab8565b9450610b2883610acc565b925060208a01995050600181019050610b04565b50829750879550505050505092915050565b60006020820190508181036000830152610b688184610ad9565b905092915050565b6000604051905090565b600080fd5b600080fd5b610b8d81610945565b8114610b9857600080fd5b50565b600081359050610baa81610b84565b92915050565b600080fd5b600080fd5b7f4e487b7100000000000000000000000000000000000000000000000000000000600052604160045260246000fd5b610bf2826109a4565b810181811067ffffffffffffffff82111715610c1157610c10610bba565b5b80604052505050565b6000610c24610b70565b9050610c308282610be9565b919050565b600067ffffffffffffffff821115610c5057610c4f610bba565b5b610c59826109a4565b9050602081019050919050565b82818337600083830152505050565b6000610c88610c8384610c35565b610c1a565b905082815260208101848484011115610ca457610ca3610bb5565b5b610caf848285610c66565b509392505050565b600082601f830112610ccc57610ccb610bb0565b5b8135610cdc848260208601610c75565b91505092915050565b610cee81610a0e565b8114610cf957600080fd5b50565b600081359050610d0b81610ce5565b92915050565b600080600080600060a08688031215610d2d57610d2c610b7a565b5b6000610d3b88828901610b9b565b9550506020610d4c88828901610b9b565b9450506040610d5d88828901610b9b565b935050606086013567ffffffffffffffff811115610d7e57610d7d610b7f565b5b610d8a88828901610cb7565b9250506080610d9b88828901610cfc565b9150509295509295909350565b610db181610945565b82525050565b6000602082019050610dcc6000830184610da8565b92915050565b600060208284031215610de857610de7610b7a565b5b6000610df684828501610b9b565b91505092915050565b600060c083016000830151610e17600086018261094f565b506020830151610e2a602086018261094f565b506040830151610e3d604086018261094f565b506060830151610e50606086018261094f565b5060808301518482036080860152610e6882826109b5565b91505060a0830151610e7d60a0860182610a20565b508091505092915050565b60006020820190508181036000830152610ea28184610dff565b905092915050565b60008060008060008060c08789031215610ec757610ec6610b7a565b5b6000610ed589828a01610b9b565b9650506020610ee689828a01610b9b565b9550506040610ef789828a01610b9b565b9450506060610f0889828a01610b9b565b935050608087013567ffffffffffffffff811115610f2957610f28610b7f565b5b610f3589828a01610cb7565b92505060a0610f4689828a01610cfc565b9150509295509295509295565b600082825260208201905092915050565b6000610f6f8261095e565b610f798185610f53565b9350610f8981856020860161097a565b610f92816109a4565b840191505092915050565b610fa681610a0e565b82525050565b600060c082019050610fc16000830189610da8565b610fce6020830188610da8565b610fdb6040830187610da8565b610fe86060830186610da8565b8181036080830152610ffa8185610f64565b905061100960a0830184610f9d565b979650505050505050565b7f4e487b7100000000000000000000000000000000000000000000000000000000600052602260045260246000fd5b6000600282049050600182168061105b57607f821691505b60208210810361106e5761106d611014565b5b50919050565b7f4e487b7100000000000000000000000000000000000000000000000000000000600052603260045260246000fd5b7f4e487b7100000000000000000000000000000000000000000000000000000000600052601160045260246000fd5b60006110dd82610945565b91507fffffffffffffffffffffffffffffffffffffffffffffffffffffffffffffffff820361110f5761110e6110a3565b5b600182019050919050565b60008190508160005260206000209050919050565b60006020601f8301049050919050565b600082821b905092915050565b60006008830261117c7fffffffffffffffffffffffffffffffffffffffffffffffffffffffffffffffff8261113f565b611186868361113f565b95508019841693508086168417925050509392505050565b6000819050919050565b60006111c36111be6111b984610945565b61119e565b610945565b9050919050565b6000819050919050565b6111dd836111a8565b6111f16111e9826111ca565b84845461114c565b825550505050565b600090565b6112066111f9565b6112118184846111d4565b505050565b5b818110156112355761122a6000826111fe565b600181019050611217565b5050565b601f82111561127a5761124b8161111a565b6112548461112f565b81016020851015611263578190505b61127761126f8561112f565b830182611216565b50505b505050565b600082821c905092915050565b600061129d6000198460080261127f565b1980831691505092915050565b60006112b6838361128c565b9150826002028217905092915050565b6112cf8261095e565b67ffffffffffffffff8111156112e8576112e7610bba565b5b6112f28254611043565b6112fd828285611239565b600060209050601f831160018114611330576000841561131e578287015190505b61132885826112aa565b865550611390565b601f19841661133e8661111a565b60005b8281101561136657848901518255600182019150602085019450602081019050611341565b86831015611383578489015161137f601f89168261128c565b8355505b6001600288020188555050505b505050505050565b7f52657761726420646f6573206e6f742065786973740000000000000000000000600082015250565b60006113ce601583610f53565b91506113d982611398565b602082019050919050565b600060208201905081810360008301526113fd816113c1565b905091905056fea26469706673582212201d98f0b04e31e013d64cd013d374f64c03a72274cdff43a0704627e093ccc52164736f6c63430008170033",
  "linkReferences": {},
  "deployedLinkReferences": {}
}