{
  "_format": "hh-sol-artifact-1",
  "contractName": "SponsorQuestRequirements",
  "sourceName": "contracts/SponsorQuestRequirements.sol",
  "abi": [
    {
      "anonymous": false,
      "inputs": [
        {
          "indexed": false,
          "internalType": "uint256",
          "name": "sqrId",
          "type": "uint256"
        }
      ],
      "name": "SponsorQuestRequirementCreated",
      "type": "event"
    },
    {
      "anonymous": false,
      "inputs": [
        {
          "indexed": false,
          "internalType": "uint256",
          "name": "sqrId",
          "type": "uint256"
        }
      ],
      "name": "SponsorQuestRequirementDeleted",
      "type": "event"
    },
    {
      "anonymous": false,
      "inputs": [
        {
          "indexed": false,
          "internalType": "uint256",
          "name": "sqrId",
          "type": "uint256"
        }
      ],
      "name": "SponsorQuestRequirementUpdated",
      "type": "event"
    },
    {
      "inputs": [
        {
          "internalType": "uint256",
          "name": "questTypeEventId",
          "type": "uint256"
        },
        {
          "internalType": "string",
          "name": "sponsorHashtags",
          "type": "string"
        },
        {
          "internalType": "bool",
          "name": "sponsorHashtagsRequired",
          "type": "bool"
        }
      ],
      "name": "createSponsorQuestRequirement",
      "outputs": [
        {
          "internalType": "uint256",
          "name": "",
          "type": "uint256"
        }
      ],
      "stateMutability": "nonpayable",
      "type": "function"
    },
    {
      "inputs": [
        {
          "internalType": "uint256",
          "name": "sqrId",
          "type": "uint256"
        }
      ],
      "name": "deleteSponsorQuestRequirement",
      "outputs": [],
      "stateMutability": "nonpayable",
      "type": "function"
    },
    {
      "inputs": [
        {
          "internalType": "uint256",
          "name": "index",
          "type": "uint256"
        }
      ],
      "name": "getSponsorQuestRequirementByIndex",
      "outputs": [
        {
          "components": [
            {
              "internalType": "uint256",
              "name": "sqrId",
              "type": "uint256"
            },
            {
              "internalType": "uint256",
              "name": "questTypeEventId",
              "type": "uint256"
            },
            {
              "internalType": "string",
              "name": "sponsorHashtags",
              "type": "string"
            },
            {
              "internalType": "bool",
              "name": "sponsorHashtagsRequired",
              "type": "bool"
            }
          ],
          "internalType": "struct SponsorQuestRequirements.SponsorQuestRequirement",
          "name": "",
          "type": "tuple"
        }
      ],
      "stateMutability": "view",
      "type": "function"
    },
    {
      "inputs": [],
      "name": "getSponsorQuestRequirementCount",
      "outputs": [
        {
          "internalType": "uint256",
          "name": "",
          "type": "uint256"
        }
      ],
      "stateMutability": "view",
      "type": "function"
    },
    {
      "inputs": [],
      "name": "listSponsorQuestRequirements",
      "outputs": [
        {
          "components": [
            {
              "internalType": "uint256",
              "name": "sqrId",
              "type": "uint256"
            },
            {
              "internalType": "uint256",
              "name": "questTypeEventId",
              "type": "uint256"
            },
            {
              "internalType": "string",
              "name": "sponsorHashtags",
              "type": "string"
            },
            {
              "internalType": "bool",
              "name": "sponsorHashtagsRequired",
              "type": "bool"
            }
          ],
          "internalType": "struct SponsorQuestRequirements.SponsorQuestRequirement[]",
          "name": "",
          "type": "tuple[]"
        }
      ],
      "stateMutability": "view",
      "type": "function"
    },
    {
      "inputs": [
        {
          "internalType": "uint256",
          "name": "sqrId",
          "type": "uint256"
        }
      ],
      "name": "readSponsorQuestRequirement",
      "outputs": [
        {
          "components": [
            {
              "internalType": "uint256",
              "name": "sqrId",
              "type": "uint256"
            },
            {
              "internalType": "uint256",
              "name": "questTypeEventId",
              "type": "uint256"
            },
            {
              "internalType": "string",
              "name": "sponsorHashtags",
              "type": "string"
            },
            {
              "internalType": "bool",
              "name": "sponsorHashtagsRequired",
              "type": "bool"
            }
          ],
          "internalType": "struct SponsorQuestRequirements.SponsorQuestRequirement",
          "name": "",
          "type": "tuple"
        }
      ],
      "stateMutability": "view",
      "type": "function"
    },
    {
      "inputs": [
        {
          "internalType": "uint256",
          "name": "",
          "type": "uint256"
        }
      ],
      "name": "sponsorQuestRequirements",
      "outputs": [
        {
          "internalType": "uint256",
          "name": "sqrId",
          "type": "uint256"
        },
        {
          "internalType": "uint256",
          "name": "questTypeEventId",
          "type": "uint256"
        },
        {
          "internalType": "string",
          "name": "sponsorHashtags",
          "type": "string"
        },
        {
          "internalType": "bool",
          "name": "sponsorHashtagsRequired",
          "type": "bool"
        }
      ],
      "stateMutability": "view",
      "type": "function"
    },
    {
      "inputs": [
        {
          "internalType": "uint256",
          "name": "sqrId",
          "type": "uint256"
        },
        {
          "internalType": "uint256",
          "name": "questTypeEventId",
          "type": "uint256"
        },
        {
          "internalType": "string",
          "name": "sponsorHashtags",
          "type": "string"
        },
        {
          "internalType": "bool",
          "name": "sponsorHashtagsRequired",
          "type": "bool"
        }
      ],
      "name": "updateSponsorQuestRequirement",
      "outputs": [],
      "stateMutability": "nonpayable",
      "type": "function"
    }
  ],
  "bytecode": "0x608060405234801561001057600080fd5b506114fb806100206000396000f3fe608060405234801561001057600080fd5b50600436106100885760003560e01c8063635e44961161005b578063635e44961461012a578063735176dd14610146578063805d6d3a14610176578063d7c4fa051461019457610088565b80631fff7d2e1461008d57806344cf647e146100c0578063456375f1146100f05780634e02b8691461010c575b600080fd5b6100a760048036038101906100a29190610a3a565b6101c4565b6040516100b79493929190610b21565b60405180910390f35b6100da60048036038101906100d59190610cce565b610289565b6040516100e79190610d3d565b60405180910390f35b61010a60048036038101906101059190610a3a565b61036e565b005b610114610449565b6040516101219190610ee5565b60405180910390f35b610144600480360381019061013f9190610f07565b6105fa565b005b610160600480360381019061015b9190610a3a565b6106dd565b60405161016d9190610fed565b60405180910390f35b61017e610822565b60405161018b9190610d3d565b60405180910390f35b6101ae60048036038101906101a99190610a3a565b61082c565b6040516101bb9190610fed565b60405180910390f35b60006020528060005260406000206000915090508060000154908060010154908060020180546101f39061103e565b80601f016020809104026020016040519081016040528092919081815260200182805461021f9061103e565b801561026c5780601f106102415761010080835404028352916020019161026c565b820191906000526020600020905b81548152906001019060200180831161024f57829003601f168201915b5050505050908060030160009054906101000a900460ff16905084565b60006001600081548092919061029e9061109e565b9190505550604051806080016040528060015481526020018581526020018481526020018315158152506000806001548152602001908152602001600020600082015181600001556020820151816001015560408201518160020190816103059190611292565b5060608201518160030160006101000a81548160ff0219169083151502179055509050507ff4bf7da54a10a1619e9dc23a604c009ba80d50daaa124101453999693d400f5a60015460405161035a9190610d3d565b60405180910390a160015490509392505050565b600080600083815260200190815260200160002060000154036103c6576040517f08c379a00000000000000000000000000000000000000000000000000000000081526004016103bd906113d6565b60405180910390fd5b60008082815260200190815260200160002060008082016000905560018201600090556002820160006103f99190610969565b6003820160006101000a81549060ff021916905550507fba14a0046929f1988e83976a0b146d57588d1fbc4a0c4794c122728d4a2809c68160405161043e9190610d3d565b60405180910390a150565b6060600060015467ffffffffffffffff81111561046957610468610b77565b5b6040519080825280602002602001820160405280156104a257816020015b61048f6109a9565b8152602001906001900390816104875790505b509050600080600190505b60015481116105f157600080600083815260200190815260200160002060000154146105de5760008082815260200190815260200160002060405180608001604052908160008201548152602001600182015481526020016002820180546105149061103e565b80601f01602080910402602001604051908101604052809291908181526020018280546105409061103e565b801561058d5780601f106105625761010080835404028352916020019161058d565b820191906000526020600020905b81548152906001019060200180831161057057829003601f168201915b505050505081526020016003820160009054906101000a900460ff1615151515815250508383815181106105c4576105c36113f6565b5b602002602001018190525081806105da9061109e565b9250505b80806105e99061109e565b9150506104ad565b50819250505090565b60008060008681526020019081526020016000206000015403610652576040517f08c379a0000000000000000000000000000000000000000000000000000000008152600401610649906113d6565b60405180910390fd5b60008060008681526020019081526020016000209050838160010181905550828160020190816106829190611292565b50818160030160006101000a81548160ff0219169083151502179055507f8fe2c502443346fa594155bd39926411942aa3e442a8cebff805d935ef35ba00856040516106ce9190610d3d565b60405180910390a15050505050565b6106e56109a9565b6000806000848152602001908152602001600020600001540361073d576040517f08c379a0000000000000000000000000000000000000000000000000000000008152600401610734906113d6565b60405180910390fd5b600080838152602001908152602001600020604051806080016040529081600082015481526020016001820154815260200160028201805461077e9061103e565b80601f01602080910402602001604051908101604052809291908181526020018280546107aa9061103e565b80156107f75780601f106107cc576101008083540402835291602001916107f7565b820191906000526020600020905b8154815290600101906020018083116107da57829003601f168201915b505050505081526020016003820160009054906101000a900460ff1615151515815250509050919050565b6000600154905090565b6108346109a9565b6001548210610878576040517f08c379a000000000000000000000000000000000000000000000000000000000815260040161086f90611471565b60405180910390fd5b6000806001846108889190611491565b815260200190815260200160002060405180608001604052908160008201548152602001600182015481526020016002820180546108c59061103e565b80601f01602080910402602001604051908101604052809291908181526020018280546108f19061103e565b801561093e5780601f106109135761010080835404028352916020019161093e565b820191906000526020600020905b81548152906001019060200180831161092157829003601f168201915b505050505081526020016003820160009054906101000a900460ff1615151515815250509050919050565b5080546109759061103e565b6000825580601f1061098757506109a6565b601f0160209004906000526020600020908101906109a591906109d3565b5b50565b60405180608001604052806000815260200160008152602001606081526020016000151581525090565b5b808211156109ec5760008160009055506001016109d4565b5090565b6000604051905090565b600080fd5b600080fd5b6000819050919050565b610a1781610a04565b8114610a2257600080fd5b50565b600081359050610a3481610a0e565b92915050565b600060208284031215610a5057610a4f6109fa565b5b6000610a5e84828501610a25565b91505092915050565b610a7081610a04565b82525050565b600081519050919050565b600082825260208201905092915050565b60005b83811015610ab0578082015181840152602081019050610a95565b60008484015250505050565b6000601f19601f8301169050919050565b6000610ad882610a76565b610ae28185610a81565b9350610af2818560208601610a92565b610afb81610abc565b840191505092915050565b60008115159050919050565b610b1b81610b06565b82525050565b6000608082019050610b366000830187610a67565b610b436020830186610a67565b8181036040830152610b558185610acd565b9050610b646060830184610b12565b95945050505050565b600080fd5b600080fd5b7f4e487b7100000000000000000000000000000000000000000000000000000000600052604160045260246000fd5b610baf82610abc565b810181811067ffffffffffffffff82111715610bce57610bcd610b77565b5b80604052505050565b6000610be16109f0565b9050610bed8282610ba6565b919050565b600067ffffffffffffffff821115610c0d57610c0c610b77565b5b610c1682610abc565b9050602081019050919050565b82818337600083830152505050565b6000610c45610c4084610bf2565b610bd7565b905082815260208101848484011115610c6157610c60610b72565b5b610c6c848285610c23565b509392505050565b600082601f830112610c8957610c88610b6d565b5b8135610c99848260208601610c32565b91505092915050565b610cab81610b06565b8114610cb657600080fd5b50565b600081359050610cc881610ca2565b92915050565b600080600060608486031215610ce757610ce66109fa565b5b6000610cf586828701610a25565b935050602084013567ffffffffffffffff811115610d1657610d156109ff565b5b610d2286828701610c74565b9250506040610d3386828701610cb9565b9150509250925092565b6000602082019050610d526000830184610a67565b92915050565b600081519050919050565b600082825260208201905092915050565b6000819050602082019050919050565b610d8d81610a04565b82525050565b600082825260208201905092915050565b6000610daf82610a76565b610db98185610d93565b9350610dc9818560208601610a92565b610dd281610abc565b840191505092915050565b610de681610b06565b82525050565b6000608083016000830151610e046000860182610d84565b506020830151610e176020860182610d84565b5060408301518482036040860152610e2f8282610da4565b9150506060830151610e446060860182610ddd565b508091505092915050565b6000610e5b8383610dec565b905092915050565b6000602082019050919050565b6000610e7b82610d58565b610e858185610d63565b935083602082028501610e9785610d74565b8060005b85811015610ed35784840389528151610eb48582610e4f565b9450610ebf83610e63565b925060208a01995050600181019050610e9b565b50829750879550505050505092915050565b60006020820190508181036000830152610eff8184610e70565b905092915050565b60008060008060808587031215610f2157610f206109fa565b5b6000610f2f87828801610a25565b9450506020610f4087828801610a25565b935050604085013567ffffffffffffffff811115610f6157610f606109ff565b5b610f6d87828801610c74565b9250506060610f7e87828801610cb9565b91505092959194509250565b6000608083016000830151610fa26000860182610d84565b506020830151610fb56020860182610d84565b5060408301518482036040860152610fcd8282610da4565b9150506060830151610fe26060860182610ddd565b508091505092915050565b600060208201905081810360008301526110078184610f8a565b905092915050565b7f4e487b7100000000000000000000000000000000000000000000000000000000600052602260045260246000fd5b6000600282049050600182168061105657607f821691505b6020821081036110695761106861100f565b5b50919050565b7f4e487b7100000000000000000000000000000000000000000000000000000000600052601160045260246000fd5b60006110a982610a04565b91507fffffffffffffffffffffffffffffffffffffffffffffffffffffffffffffffff82036110db576110da61106f565b5b600182019050919050565b60008190508160005260206000209050919050565b60006020601f8301049050919050565b600082821b905092915050565b6000600883026111487fffffffffffffffffffffffffffffffffffffffffffffffffffffffffffffffff8261110b565b611152868361110b565b95508019841693508086168417925050509392505050565b6000819050919050565b600061118f61118a61118584610a04565b61116a565b610a04565b9050919050565b6000819050919050565b6111a983611174565b6111bd6111b582611196565b848454611118565b825550505050565b600090565b6111d26111c5565b6111dd8184846111a0565b505050565b5b81811015611201576111f66000826111ca565b6001810190506111e3565b5050565b601f82111561124657611217816110e6565b611220846110fb565b8101602085101561122f578190505b61124361123b856110fb565b8301826111e2565b50505b505050565b600082821c905092915050565b60006112696000198460080261124b565b1980831691505092915050565b60006112828383611258565b9150826002028217905092915050565b61129b82610a76565b67ffffffffffffffff8111156112b4576112b3610b77565b5b6112be825461103e565b6112c9828285611205565b600060209050601f8311600181146112fc57600084156112ea578287015190505b6112f48582611276565b86555061135c565b601f19841661130a866110e6565b60005b828110156113325784890151825560018201915060208501945060208101905061130d565b8683101561134f578489015161134b601f891682611258565b8355505b6001600288020188555050505b505050505050565b7f53706f6e736f725175657374526571756972656d656e7420646f6573206e6f7460008201527f2065786973740000000000000000000000000000000000000000000000000000602082015250565b60006113c0602683610a81565b91506113cb82611364565b604082019050919050565b600060208201905081810360008301526113ef816113b3565b9050919050565b7f4e487b7100000000000000000000000000000000000000000000000000000000600052603260045260246000fd5b7f496e646578206f7574206f6620626f756e647300000000000000000000000000600082015250565b600061145b601383610a81565b915061146682611425565b602082019050919050565b6000602082019050818103600083015261148a8161144e565b9050919050565b600061149c82610a04565b91506114a783610a04565b92508282019050808211156114bf576114be61106f565b5b9291505056fea26469706673582212205c2205be6e50e377683cebb1c0e9719f1572f5ee9b99bd324baa29dcaad5064b64736f6c63430008170033",
  "linkReferences": {},
  "deployedLinkReferences": {}
}