{
  "_format": "hh-sol-artifact-1",
  "contractName": "Sponsors",
  "sourceName": "contracts/Sponsors.sol",
  "abi": [
    {
      "inputs": [
        {
          "internalType": "string",
          "name": "companyName",
          "type": "string"
        },
        {
          "internalType": "address",
          "name": "wallet",
          "type": "address"
        },
        {
          "internalType": "uint256",
          "name": "rewardPoolId",
          "type": "uint256"
        }
      ],
      "name": "createSponsor",
      "outputs": [
        {
          "internalType": "uint256",
          "name": "",
          "type": "uint256"
        }
      ],
      "stateMutability": "nonpayable",
      "type": "function"
    },
    {
      "inputs": [
        {
          "internalType": "uint256",
          "name": "sponsorId",
          "type": "uint256"
        }
      ],
      "name": "deleteSponsor",
      "outputs": [],
      "stateMutability": "nonpayable",
      "type": "function"
    },
    {
      "inputs": [],
      "name": "listSponsors",
      "outputs": [
        {
          "components": [
            {
              "internalType": "uint256",
              "name": "sponsorId",
              "type": "uint256"
            },
            {
              "internalType": "string",
              "name": "companyName",
              "type": "string"
            },
            {
              "internalType": "address",
              "name": "wallet",
              "type": "address"
            },
            {
              "internalType": "uint256",
              "name": "rewardPoolId",
              "type": "uint256"
            }
          ],
          "internalType": "struct Sponsors.Sponsor[]",
          "name": "",
          "type": "tuple[]"
        }
      ],
      "stateMutability": "view",
      "type": "function"
    },
    {
      "inputs": [
        {
          "internalType": "uint256",
          "name": "sponsorId",
          "type": "uint256"
        }
      ],
      "name": "readSponsor",
      "outputs": [
        {
          "components": [
            {
              "internalType": "uint256",
              "name": "sponsorId",
              "type": "uint256"
            },
            {
              "internalType": "string",
              "name": "companyName",
              "type": "string"
            },
            {
              "internalType": "address",
              "name": "wallet",
              "type": "address"
            },
            {
              "internalType": "uint256",
              "name": "rewardPoolId",
              "type": "uint256"
            }
          ],
          "internalType": "struct Sponsors.Sponsor",
          "name": "",
          "type": "tuple"
        }
      ],
      "stateMutability": "view",
      "type": "function"
    },
    {
      "inputs": [
        {
          "internalType": "uint256",
          "name": "",
          "type": "uint256"
        }
      ],
      "name": "sponsors",
      "outputs": [
        {
          "internalType": "uint256",
          "name": "sponsorId",
          "type": "uint256"
        },
        {
          "internalType": "string",
          "name": "companyName",
          "type": "string"
        },
        {
          "internalType": "address",
          "name": "wallet",
          "type": "address"
        },
        {
          "internalType": "uint256",
          "name": "rewardPoolId",
          "type": "uint256"
        }
      ],
      "stateMutability": "view",
      "type": "function"
    },
    {
      "inputs": [
        {
          "internalType": "uint256",
          "name": "sponsorId",
          "type": "uint256"
        },
        {
          "internalType": "string",
          "name": "companyName",
          "type": "string"
        },
        {
          "internalType": "address",
          "name": "wallet",
          "type": "address"
        },
        {
          "internalType": "uint256",
          "name": "rewardPoolId",
          "type": "uint256"
        }
      ],
      "name": "updateSponsor",
      "outputs": [],
      "stateMutability": "nonpayable",
      "type": "function"
    }
  ],
  "bytecode": "0x608060405234801561001057600080fd5b506112fa806100206000396000f3fe608060405234801561001057600080fd5b50600436106100625760003560e01c8063056aefb51461006757806311fa78631461008557806324eca0d8146100b55780634da6a019146100e55780636c92fe3c1461010157806393066b4c1461011d575b600080fd5b61006f610150565b60405161007c9190610a9e565b60405180910390f35b61009f600480360381019061009a9190610b00565b61033c565b6040516100ac9190610b90565b60405180910390f35b6100cf60048036038101906100ca9190610d13565b6104bc565b6040516100dc9190610d91565b60405180910390f35b6100ff60048036038101906100fa9190610dac565b6105a3565b005b61011b60048036038101906101169190610b00565b610665565b005b61013760048036038101906101329190610b00565b61071c565b6040516101479493929190610e88565b60405180910390f35b6060600060015467ffffffffffffffff8111156101705761016f610bbc565b5b6040519080825280602002602001820160405280156101a957816020015b6101966107f4565b81526020019060019003908161018e5790505b509050600080600190505b60015481116103335760008060008381526020019081526020016000206000015414610320576000808281526020019081526020016000206040518060800160405290816000820154815260200160018201805461021190610f03565b80601f016020809104026020016040519081016040528092919081815260200182805461023d90610f03565b801561028a5780601f1061025f5761010080835404028352916020019161028a565b820191906000526020600020905b81548152906001019060200180831161026d57829003601f168201915b505050505081526020016002820160009054906101000a900473ffffffffffffffffffffffffffffffffffffffff1673ffffffffffffffffffffffffffffffffffffffff1673ffffffffffffffffffffffffffffffffffffffff16815260200160038201548152505083838151811061030657610305610f34565b5b6020026020010181905250818061031c90610f92565b9250505b808061032b90610f92565b9150506101b4565b50819250505090565b6103446107f4565b6000806000848152602001908152602001600020600001540361039c576040517f08c379a000000000000000000000000000000000000000000000000000000000815260040161039390611026565b60405180910390fd5b600080838152602001908152602001600020604051806080016040529081600082015481526020016001820180546103d390610f03565b80601f01602080910402602001604051908101604052809291908181526020018280546103ff90610f03565b801561044c5780601f106104215761010080835404028352916020019161044c565b820191906000526020600020905b81548152906001019060200180831161042f57829003601f168201915b505050505081526020016002820160009054906101000a900473ffffffffffffffffffffffffffffffffffffffff1673ffffffffffffffffffffffffffffffffffffffff1673ffffffffffffffffffffffffffffffffffffffff1681526020016003820154815250509050919050565b6000600160008154809291906104d190610f92565b9190505550604051806080016040528060015481526020018581526020018473ffffffffffffffffffffffffffffffffffffffff16815260200183815250600080600154815260200190815260200160002060008201518160000155602082015181600101908161054291906111f2565b5060408201518160020160006101000a81548173ffffffffffffffffffffffffffffffffffffffff021916908373ffffffffffffffffffffffffffffffffffffffff1602179055506060820151816003015590505060015490509392505050565b600080600086815260200190815260200160002090506000816000015403610600576040517f08c379a00000000000000000000000000000000000000000000000000000000081526004016105f790611026565b60405180910390fd5b8381600101908161061191906111f2565b50828160020160006101000a81548173ffffffffffffffffffffffffffffffffffffffff021916908373ffffffffffffffffffffffffffffffffffffffff1602179055508181600301819055505050505050565b600080600083815260200190815260200160002060000154036106bd576040517f08c379a00000000000000000000000000000000000000000000000000000000081526004016106b490611026565b60405180910390fd5b6000808281526020019081526020016000206000808201600090556001820160006106e89190610832565b6002820160006101000a81549073ffffffffffffffffffffffffffffffffffffffff02191690556003820160009055505050565b600060205280600052604060002060009150905080600001549080600101805461074590610f03565b80601f016020809104026020016040519081016040528092919081815260200182805461077190610f03565b80156107be5780601f10610793576101008083540402835291602001916107be565b820191906000526020600020905b8154815290600101906020018083116107a157829003601f168201915b5050505050908060020160009054906101000a900473ffffffffffffffffffffffffffffffffffffffff16908060030154905084565b60405180608001604052806000815260200160608152602001600073ffffffffffffffffffffffffffffffffffffffff168152602001600081525090565b50805461083e90610f03565b6000825580601f10610850575061086f565b601f01602090049060005260206000209081019061086e9190610872565b5b50565b5b8082111561088b576000816000905550600101610873565b5090565b600081519050919050565b600082825260208201905092915050565b6000819050602082019050919050565b6000819050919050565b6108ce816108bb565b82525050565b600081519050919050565b600082825260208201905092915050565b60005b8381101561090e5780820151818401526020810190506108f3565b60008484015250505050565b6000601f19601f8301169050919050565b6000610936826108d4565b61094081856108df565b93506109508185602086016108f0565b6109598161091a565b840191505092915050565b600073ffffffffffffffffffffffffffffffffffffffff82169050919050565b600061098f82610964565b9050919050565b61099f81610984565b82525050565b60006080830160008301516109bd60008601826108c5565b50602083015184820360208601526109d5828261092b565b91505060408301516109ea6040860182610996565b5060608301516109fd60608601826108c5565b508091505092915050565b6000610a1483836109a5565b905092915050565b6000602082019050919050565b6000610a348261088f565b610a3e818561089a565b935083602082028501610a50856108ab565b8060005b85811015610a8c5784840389528151610a6d8582610a08565b9450610a7883610a1c565b925060208a01995050600181019050610a54565b50829750879550505050505092915050565b60006020820190508181036000830152610ab88184610a29565b905092915050565b6000604051905090565b600080fd5b600080fd5b610add816108bb565b8114610ae857600080fd5b50565b600081359050610afa81610ad4565b92915050565b600060208284031215610b1657610b15610aca565b5b6000610b2484828501610aeb565b91505092915050565b6000608083016000830151610b4560008601826108c5565b5060208301518482036020860152610b5d828261092b565b9150506040830151610b726040860182610996565b506060830151610b8560608601826108c5565b508091505092915050565b60006020820190508181036000830152610baa8184610b2d565b905092915050565b600080fd5b600080fd5b7f4e487b7100000000000000000000000000000000000000000000000000000000600052604160045260246000fd5b610bf48261091a565b810181811067ffffffffffffffff82111715610c1357610c12610bbc565b5b80604052505050565b6000610c26610ac0565b9050610c328282610beb565b919050565b600067ffffffffffffffff821115610c5257610c51610bbc565b5b610c5b8261091a565b9050602081019050919050565b82818337600083830152505050565b6000610c8a610c8584610c37565b610c1c565b905082815260208101848484011115610ca657610ca5610bb7565b5b610cb1848285610c68565b509392505050565b600082601f830112610cce57610ccd610bb2565b5b8135610cde848260208601610c77565b91505092915050565b610cf081610984565b8114610cfb57600080fd5b50565b600081359050610d0d81610ce7565b92915050565b600080600060608486031215610d2c57610d2b610aca565b5b600084013567ffffffffffffffff811115610d4a57610d49610acf565b5b610d5686828701610cb9565b9350506020610d6786828701610cfe565b9250506040610d7886828701610aeb565b9150509250925092565b610d8b816108bb565b82525050565b6000602082019050610da66000830184610d82565b92915050565b60008060008060808587031215610dc657610dc5610aca565b5b6000610dd487828801610aeb565b945050602085013567ffffffffffffffff811115610df557610df4610acf565b5b610e0187828801610cb9565b9350506040610e1287828801610cfe565b9250506060610e2387828801610aeb565b91505092959194509250565b600082825260208201905092915050565b6000610e4b826108d4565b610e558185610e2f565b9350610e658185602086016108f0565b610e6e8161091a565b840191505092915050565b610e8281610984565b82525050565b6000608082019050610e9d6000830187610d82565b8181036020830152610eaf8186610e40565b9050610ebe6040830185610e79565b610ecb6060830184610d82565b95945050505050565b7f4e487b7100000000000000000000000000000000000000000000000000000000600052602260045260246000fd5b60006002820490506001821680610f1b57607f821691505b602082108103610f2e57610f2d610ed4565b5b50919050565b7f4e487b7100000000000000000000000000000000000000000000000000000000600052603260045260246000fd5b7f4e487b7100000000000000000000000000000000000000000000000000000000600052601160045260246000fd5b6000610f9d826108bb565b91507fffffffffffffffffffffffffffffffffffffffffffffffffffffffffffffffff8203610fcf57610fce610f63565b5b600182019050919050565b7f53706f6e736f7220646f6573206e6f7420657869737400000000000000000000600082015250565b6000611010601683610e2f565b915061101b82610fda565b602082019050919050565b6000602082019050818103600083015261103f81611003565b9050919050565b60008190508160005260206000209050919050565b60006020601f8301049050919050565b600082821b905092915050565b6000600883026110a87fffffffffffffffffffffffffffffffffffffffffffffffffffffffffffffffff8261106b565b6110b2868361106b565b95508019841693508086168417925050509392505050565b6000819050919050565b60006110ef6110ea6110e5846108bb565b6110ca565b6108bb565b9050919050565b6000819050919050565b611109836110d4565b61111d611115826110f6565b848454611078565b825550505050565b600090565b611132611125565b61113d818484611100565b505050565b5b818110156111615761115660008261112a565b600181019050611143565b5050565b601f8211156111a65761117781611046565b6111808461105b565b8101602085101561118f578190505b6111a361119b8561105b565b830182611142565b50505b505050565b600082821c905092915050565b60006111c9600019846008026111ab565b1980831691505092915050565b60006111e283836111b8565b9150826002028217905092915050565b6111fb826108d4565b67ffffffffffffffff81111561121457611213610bbc565b5b61121e8254610f03565b611229828285611165565b600060209050601f83116001811461125c576000841561124a578287015190505b61125485826111d6565b8655506112bc565b601f19841661126a86611046565b60005b828110156112925784890151825560018201915060208501945060208101905061126d565b868310156112af57848901516112ab601f8916826111b8565b8355505b6001600288020188555050505b50505050505056fea2646970667358221220347c731847d1301e239054ef9f49e8a43f26b8006b03fa0a694d5aa4413d7cc064736f6c63430008170033",
  "linkReferences": {},
  "deployedLinkReferences": {}
}