{
  "_format": "hh-sol-artifact-1",
  "contractName": "UserManager",
  "sourceName": "contracts/UserManager.sol",
  "abi": [
    {
      "inputs": [
        {
          "internalType": "address",
          "name": "_questManagerAddress",
          "type": "address"
        }
      ],
      "stateMutability": "nonpayable",
      "type": "constructor"
    },
    {
      "anonymous": false,
      "inputs": [
        {
          "indexed": false,
          "internalType": "uint256",
          "name": "userId",
          "type": "uint256"
        },
        {
          "indexed": false,
          "internalType": "uint256",
          "name": "questId",
          "type": "uint256"
        }
      ],
      "name": "QuestRegistered",
      "type": "event"
    },
    {
      "anonymous": false,
      "inputs": [
        {
          "indexed": false,
          "internalType": "uint256",
          "name": "userId",
          "type": "uint256"
        },
        {
          "indexed": false,
          "internalType": "address",
          "name": "walletAddress",
          "type": "address"
        }
      ],
      "name": "UserDeleted",
      "type": "event"
    },
    {
      "anonymous": false,
      "inputs": [
        {
          "indexed": false,
          "internalType": "uint256",
          "name": "userId",
          "type": "uint256"
        },
        {
          "indexed": false,
          "internalType": "address",
          "name": "walletAddress",
          "type": "address"
        }
      ],
      "name": "UserRegistered",
      "type": "event"
    },
    {
      "anonymous": false,
      "inputs": [
        {
          "indexed": false,
          "internalType": "uint256",
          "name": "userId",
          "type": "uint256"
        },
        {
          "indexed": false,
          "internalType": "address",
          "name": "walletAddress",
          "type": "address"
        }
      ],
      "name": "UserUpdated",
      "type": "event"
    },
    {
      "inputs": [],
      "name": "admin",
      "outputs": [
        {
          "internalType": "address",
          "name": "",
          "type": "address"
        }
      ],
      "stateMutability": "view",
      "type": "function"
    },
    {
      "inputs": [
        {
          "internalType": "address",
          "name": "_walletAddress",
          "type": "address"
        }
      ],
      "name": "deleteUser",
      "outputs": [],
      "stateMutability": "nonpayable",
      "type": "function"
    },
    {
      "inputs": [
        {
          "internalType": "address",
          "name": "_walletAddress",
          "type": "address"
        }
      ],
      "name": "getRegisteredQuests",
      "outputs": [
        {
          "internalType": "uint256[]",
          "name": "",
          "type": "uint256[]"
        }
      ],
      "stateMutability": "view",
      "type": "function"
    },
    {
      "inputs": [
        {
          "internalType": "address",
          "name": "_walletAddress",
          "type": "address"
        }
      ],
      "name": "getUser",
      "outputs": [
        {
          "components": [
            {
              "internalType": "uint256",
              "name": "userId",
              "type": "uint256"
            },
            {
              "internalType": "address",
              "name": "walletAddress",
              "type": "address"
            },
            {
              "internalType": "uint256[]",
              "name": "registeredQuests",
              "type": "uint256[]"
            }
          ],
          "internalType": "struct UserManager.User",
          "name": "",
          "type": "tuple"
        }
      ],
      "stateMutability": "view",
      "type": "function"
    },
    {
      "inputs": [
        {
          "internalType": "uint256",
          "name": "index",
          "type": "uint256"
        }
      ],
      "name": "getUserByIndex",
      "outputs": [
        {
          "components": [
            {
              "internalType": "uint256",
              "name": "userId",
              "type": "uint256"
            },
            {
              "internalType": "address",
              "name": "walletAddress",
              "type": "address"
            },
            {
              "internalType": "uint256[]",
              "name": "registeredQuests",
              "type": "uint256[]"
            }
          ],
          "internalType": "struct UserManager.User",
          "name": "",
          "type": "tuple"
        }
      ],
      "stateMutability": "view",
      "type": "function"
    },
    {
      "inputs": [],
      "name": "getUserCount",
      "outputs": [
        {
          "internalType": "uint256",
          "name": "",
          "type": "uint256"
        }
      ],
      "stateMutability": "view",
      "type": "function"
    },
    {
      "inputs": [
        {
          "internalType": "address",
          "name": "_walletAddress",
          "type": "address"
        },
        {
          "internalType": "uint256",
          "name": "_questId",
          "type": "uint256"
        }
      ],
      "name": "registerForQuest",
      "outputs": [],
      "stateMutability": "nonpayable",
      "type": "function"
    },
    {
      "inputs": [
        {
          "internalType": "address",
          "name": "_walletAddress",
          "type": "address"
        }
      ],
      "name": "registerUser",
      "outputs": [],
      "stateMutability": "nonpayable",
      "type": "function"
    },
    {
      "inputs": [
        {
          "internalType": "address",
          "name": "_oldWalletAddress",
          "type": "address"
        },
        {
          "internalType": "address",
          "name": "_newWalletAddress",
          "type": "address"
        }
      ],
      "name": "updateUser",
      "outputs": [],
      "stateMutability": "nonpayable",
      "type": "function"
    },
    {
      "inputs": [
        {
          "internalType": "address",
          "name": "",
          "type": "address"
        }
      ],
      "name": "users",
      "outputs": [
        {
          "internalType": "uint256",
          "name": "userId",
          "type": "uint256"
        },
        {
          "internalType": "address",
          "name": "walletAddress",
          "type": "address"
        }
      ],
      "stateMutability": "view",
      "type": "function"
    }
  ],
  "bytecode": "0x608060405260016002553480156200001657600080fd5b506040516200222a3803806200222a83398181016040528101906200003c91906200012e565b336000806101000a81548173ffffffffffffffffffffffffffffffffffffffff021916908373ffffffffffffffffffffffffffffffffffffffff16021790555080600160006101000a81548173ffffffffffffffffffffffffffffffffffffffff021916908373ffffffffffffffffffffffffffffffffffffffff1602179055505062000160565b600080fd5b600073ffffffffffffffffffffffffffffffffffffffff82169050919050565b6000620000f682620000c9565b9050919050565b6200010881620000e9565b81146200011457600080fd5b50565b6000815190506200012881620000fd565b92915050565b600060208284031215620001475762000146620000c4565b5b6000620001578482850162000117565b91505092915050565b6120ba80620001706000396000f3fe608060405234801561001057600080fd5b506004361061009e5760003560e01c8063a87430ba11610066578063a87430ba14610157578063b5cb15f714610188578063ed1fd215146101a6578063f851a440146101c2578063ff5d32fe146101e05761009e565b80632199d5cd146100a35780635c60f226146100bf5780636f77926b146100db57806391b465c81461010b578063a54d22c714610127575b600080fd5b6100bd60048036038101906100b8919061168b565b610210565b005b6100d960048036038101906100d4919061168b565b610554565b005b6100f560048036038101906100f0919061168b565b61093f565b60405161010291906117df565b60405180910390f35b61012560048036038101906101209190611801565b610a50565b005b610141600480360381019061013c919061168b565b610fee565b60405161014e91906118b0565b60405180910390f35b610171600480360381019061016c919061168b565b611088565b60405161017f9291906118f0565b60405180910390f35b6101906110cc565b60405161019d9190611919565b60405180910390f35b6101c060048036038101906101bb9190611960565b6110d9565b005b6101ca611397565b6040516101d791906119a0565b60405180910390f35b6101fa60048036038101906101f591906119bb565b6113bb565b60405161020791906117df565b60405180910390f35b60008054906101000a900473ffffffffffffffffffffffffffffffffffffffff1673ffffffffffffffffffffffffffffffffffffffff163373ffffffffffffffffffffffffffffffffffffffff161461029e576040517f08c379a000000000000000000000000000000000000000000000000000000000815260040161029590611a6b565b60405180910390fd5b600073ffffffffffffffffffffffffffffffffffffffff16600360008373ffffffffffffffffffffffffffffffffffffffff1673ffffffffffffffffffffffffffffffffffffffff16815260200190815260200160002060010160009054906101000a900473ffffffffffffffffffffffffffffffffffffffff1673ffffffffffffffffffffffffffffffffffffffff161461036f576040517f08c379a000000000000000000000000000000000000000000000000000000000815260040161036690611ad7565b60405180910390fd5b60006002600081548092919061038490611b26565b91905055905060405180606001604052808281526020018373ffffffffffffffffffffffffffffffffffffffff168152602001600067ffffffffffffffff8111156103d2576103d1611b6e565b5b6040519080825280602002602001820160405280156104005781602001602082028036833780820191505090505b50815250600360008473ffffffffffffffffffffffffffffffffffffffff1673ffffffffffffffffffffffffffffffffffffffff1681526020019081526020016000206000820151816000015560208201518160010160006101000a81548173ffffffffffffffffffffffffffffffffffffffff021916908373ffffffffffffffffffffffffffffffffffffffff16021790555060408201518160020190805190602001906104b0929190611557565b509050506004829080600181540180825580915050600190039060005260206000200160009091909190916101000a81548173ffffffffffffffffffffffffffffffffffffffff021916908373ffffffffffffffffffffffffffffffffffffffff1602179055507fb442efe467d2ef30e62927a3cae0afcbc799a8a0944d8a143332e4e5e51cee5d81836040516105489291906118f0565b60405180910390a15050565b60008054906101000a900473ffffffffffffffffffffffffffffffffffffffff1673ffffffffffffffffffffffffffffffffffffffff163373ffffffffffffffffffffffffffffffffffffffff16146105e2576040517f08c379a00000000000000000000000000000000000000000000000000000000081526004016105d990611a6b565b60405180910390fd5b600073ffffffffffffffffffffffffffffffffffffffff16600360008373ffffffffffffffffffffffffffffffffffffffff1673ffffffffffffffffffffffffffffffffffffffff16815260200190815260200160002060010160009054906101000a900473ffffffffffffffffffffffffffffffffffffffff1673ffffffffffffffffffffffffffffffffffffffff16036106b3576040517f08c379a00000000000000000000000000000000000000000000000000000000081526004016106aa90611be9565b60405180910390fd5b6000600360008373ffffffffffffffffffffffffffffffffffffffff1673ffffffffffffffffffffffffffffffffffffffff168152602001908152602001600020600001549050600360008373ffffffffffffffffffffffffffffffffffffffff1673ffffffffffffffffffffffffffffffffffffffff1681526020019081526020016000206000808201600090556001820160006101000a81549073ffffffffffffffffffffffffffffffffffffffff021916905560028201600061077991906115a4565b505060005b600480549050811015610901578273ffffffffffffffffffffffffffffffffffffffff16600482815481106107b6576107b5611c09565b5b9060005260206000200160009054906101000a900473ffffffffffffffffffffffffffffffffffffffff1673ffffffffffffffffffffffffffffffffffffffff16036108f457600460016004805490506108109190611c38565b8154811061082157610820611c09565b5b9060005260206000200160009054906101000a900473ffffffffffffffffffffffffffffffffffffffff16600482815481106108605761085f611c09565b5b9060005260206000200160006101000a81548173ffffffffffffffffffffffffffffffffffffffff021916908373ffffffffffffffffffffffffffffffffffffffff16021790555060048054806108ba576108b9611c6c565b5b6001900381819060005260206000200160006101000a81549073ffffffffffffffffffffffffffffffffffffffff02191690559055610901565b808060010191505061077e565b507fd9c9eba630c5551d8a23cca3a0a6f0b502da672e36c547bf68e4047b8ca886b281836040516109339291906118f0565b60405180910390a15050565b6109476115c5565b600360008373ffffffffffffffffffffffffffffffffffffffff1673ffffffffffffffffffffffffffffffffffffffff168152602001908152602001600020604051806060016040529081600082015481526020016001820160009054906101000a900473ffffffffffffffffffffffffffffffffffffffff1673ffffffffffffffffffffffffffffffffffffffff1673ffffffffffffffffffffffffffffffffffffffff16815260200160028201805480602002602001604051908101604052809291908181526020018280548015610a4057602002820191906000526020600020905b815481526020019060010190808311610a2c575b5050505050815250509050919050565b60008054906101000a900473ffffffffffffffffffffffffffffffffffffffff1673ffffffffffffffffffffffffffffffffffffffff163373ffffffffffffffffffffffffffffffffffffffff1614610ade576040517f08c379a0000000000000000000000000000000000000000000000000000000008152600401610ad590611a6b565b60405180910390fd5b600073ffffffffffffffffffffffffffffffffffffffff16600360008473ffffffffffffffffffffffffffffffffffffffff1673ffffffffffffffffffffffffffffffffffffffff16815260200190815260200160002060010160009054906101000a900473ffffffffffffffffffffffffffffffffffffffff1673ffffffffffffffffffffffffffffffffffffffff1603610baf576040517f08c379a0000000000000000000000000000000000000000000000000000000008152600401610ba690611be9565b60405180910390fd5b600073ffffffffffffffffffffffffffffffffffffffff16600360008373ffffffffffffffffffffffffffffffffffffffff1673ffffffffffffffffffffffffffffffffffffffff16815260200190815260200160002060010160009054906101000a900473ffffffffffffffffffffffffffffffffffffffff1673ffffffffffffffffffffffffffffffffffffffff1614610c80576040517f08c379a0000000000000000000000000000000000000000000000000000000008152600401610c7790611d0d565b60405180910390fd5b6000600360008473ffffffffffffffffffffffffffffffffffffffff1673ffffffffffffffffffffffffffffffffffffffff1681526020019081526020016000206000015490506000600360008573ffffffffffffffffffffffffffffffffffffffff1673ffffffffffffffffffffffffffffffffffffffff168152602001908152602001600020600201805480602002602001604051908101604052809291908181526020018280548015610d5557602002820191906000526020600020905b815481526020019060010190808311610d41575b50505050509050600360008573ffffffffffffffffffffffffffffffffffffffff1673ffffffffffffffffffffffffffffffffffffffff1681526020019081526020016000206000808201600090556001820160006101000a81549073ffffffffffffffffffffffffffffffffffffffff0219169055600282016000610ddb91906115a4565b505060405180606001604052808381526020018473ffffffffffffffffffffffffffffffffffffffff16815260200182815250600360008573ffffffffffffffffffffffffffffffffffffffff1673ffffffffffffffffffffffffffffffffffffffff1681526020019081526020016000206000820151816000015560208201518160010160006101000a81548173ffffffffffffffffffffffffffffffffffffffff021916908373ffffffffffffffffffffffffffffffffffffffff1602179055506040820151816002019080519060200190610eba929190611557565b5090505060005b600480549050811015610fae578473ffffffffffffffffffffffffffffffffffffffff1660048281548110610ef957610ef8611c09565b5b9060005260206000200160009054906101000a900473ffffffffffffffffffffffffffffffffffffffff1673ffffffffffffffffffffffffffffffffffffffff1603610fa1578360048281548110610f5457610f53611c09565b5b9060005260206000200160006101000a81548173ffffffffffffffffffffffffffffffffffffffff021916908373ffffffffffffffffffffffffffffffffffffffff160217905550610fae565b8080600101915050610ec1565b507f5bc939bb7dd6c80b6aeb2c59be4653b82f02df6dd62ea2a69b49e961669d8aa18284604051610fe09291906118f0565b60405180910390a150505050565b6060600360008373ffffffffffffffffffffffffffffffffffffffff1673ffffffffffffffffffffffffffffffffffffffff16815260200190815260200160002060020180548060200260200160405190810160405280929190818152602001828054801561107c57602002820191906000526020600020905b815481526020019060010190808311611068575b50505050509050919050565b60036020528060005260406000206000915090508060000154908060010160009054906101000a900473ffffffffffffffffffffffffffffffffffffffff16905082565b6000600480549050905090565b60008054906101000a900473ffffffffffffffffffffffffffffffffffffffff1673ffffffffffffffffffffffffffffffffffffffff163373ffffffffffffffffffffffffffffffffffffffff1614611167576040517f08c379a000000000000000000000000000000000000000000000000000000000815260040161115e90611a6b565b60405180910390fd5b6000600360008473ffffffffffffffffffffffffffffffffffffffff1673ffffffffffffffffffffffffffffffffffffffff1681526020019081526020016000209050600073ffffffffffffffffffffffffffffffffffffffff168160010160009054906101000a900473ffffffffffffffffffffffffffffffffffffffff1673ffffffffffffffffffffffffffffffffffffffff160361123d576040517f08c379a000000000000000000000000000000000000000000000000000000000815260040161123490611be9565b60405180910390fd5b6000600160009054906101000a900473ffffffffffffffffffffffffffffffffffffffff1673ffffffffffffffffffffffffffffffffffffffff166349f86f34846040518263ffffffff1660e01b815260040161129a9190611919565b600060405180830381865afa1580156112b7573d6000803e3d6000fd5b505050506040513d6000823e3d601f19601f820116820180604052508101906112e09190611f3a565b90506000816000015103611329576040517f08c379a000000000000000000000000000000000000000000000000000000000815260040161132090611fcf565b60405180910390fd5b816002018390806001815401808255809150506001900390600052602060002001600090919091909150557f8510be6e86ab3796274ff59e375d9774e39d3279ed82492fee0ab90a0a3070a8826000015484604051611389929190611fef565b60405180910390a150505050565b60008054906101000a900473ffffffffffffffffffffffffffffffffffffffff1681565b6113c36115c5565b600480549050821061140a576040517f08c379a000000000000000000000000000000000000000000000000000000000815260040161140190612064565b60405180910390fd5b6000600483815481106114205761141f611c09565b5b9060005260206000200160009054906101000a900473ffffffffffffffffffffffffffffffffffffffff169050600360008273ffffffffffffffffffffffffffffffffffffffff1673ffffffffffffffffffffffffffffffffffffffff168152602001908152602001600020604051806060016040529081600082015481526020016001820160009054906101000a900473ffffffffffffffffffffffffffffffffffffffff1673ffffffffffffffffffffffffffffffffffffffff1673ffffffffffffffffffffffffffffffffffffffff1681526020016002820180548060200260200160405190810160405280929190818152602001828054801561154657602002820191906000526020600020905b815481526020019060010190808311611532575b505050505081525050915050919050565b828054828255906000526020600020908101928215611593579160200282015b82811115611592578251825591602001919060010190611577565b5b5090506115a091906115fc565b5090565b50805460008255906000526020600020908101906115c291906115fc565b50565b604051806060016040528060008152602001600073ffffffffffffffffffffffffffffffffffffffff168152602001606081525090565b5b808211156116155760008160009055506001016115fd565b5090565b6000604051905090565b600080fd5b600080fd5b600073ffffffffffffffffffffffffffffffffffffffff82169050919050565b60006116588261162d565b9050919050565b6116688161164d565b811461167357600080fd5b50565b6000813590506116858161165f565b92915050565b6000602082840312156116a1576116a0611623565b5b60006116af84828501611676565b91505092915050565b6000819050919050565b6116cb816116b8565b82525050565b6116da8161164d565b82525050565b600081519050919050565b600082825260208201905092915050565b6000819050602082019050919050565b600061171883836116c2565b60208301905092915050565b6000602082019050919050565b600061173c826116e0565b61174681856116eb565b9350611751836116fc565b8060005b83811015611782578151611769888261170c565b975061177483611724565b925050600181019050611755565b5085935050505092915050565b60006060830160008301516117a760008601826116c2565b5060208301516117ba60208601826116d1565b50604083015184820360408601526117d28282611731565b9150508091505092915050565b600060208201905081810360008301526117f9818461178f565b905092915050565b6000806040838503121561181857611817611623565b5b600061182685828601611676565b925050602061183785828601611676565b9150509250929050565b600082825260208201905092915050565b600061185d826116e0565b6118678185611841565b9350611872836116fc565b8060005b838110156118a357815161188a888261170c565b975061189583611724565b925050600181019050611876565b5085935050505092915050565b600060208201905081810360008301526118ca8184611852565b905092915050565b6118db816116b8565b82525050565b6118ea8161164d565b82525050565b600060408201905061190560008301856118d2565b61191260208301846118e1565b9392505050565b600060208201905061192e60008301846118d2565b92915050565b61193d816116b8565b811461194857600080fd5b50565b60008135905061195a81611934565b92915050565b6000806040838503121561197757611976611623565b5b600061198585828601611676565b92505060206119968582860161194b565b9150509250929050565b60006020820190506119b560008301846118e1565b92915050565b6000602082840312156119d1576119d0611623565b5b60006119df8482850161194b565b91505092915050565b600082825260208201905092915050565b7f4f6e6c792061646d696e2063616e20706572666f726d2074686973206163746960008201527f6f6e000000000000000000000000000000000000000000000000000000000000602082015250565b6000611a556022836119e8565b9150611a60826119f9565b604082019050919050565b60006020820190508181036000830152611a8481611a48565b9050919050565b7f5573657220616c72656164792072656769737465726564000000000000000000600082015250565b6000611ac16017836119e8565b9150611acc82611a8b565b602082019050919050565b60006020820190508181036000830152611af081611ab4565b9050919050565b7f4e487b7100000000000000000000000000000000000000000000000000000000600052601160045260246000fd5b6000611b31826116b8565b91507fffffffffffffffffffffffffffffffffffffffffffffffffffffffffffffffff8203611b6357611b62611af7565b5b600182019050919050565b7f4e487b7100000000000000000000000000000000000000000000000000000000600052604160045260246000fd5b7f55736572206e6f74207265676973746572656400000000000000000000000000600082015250565b6000611bd36013836119e8565b9150611bde82611b9d565b602082019050919050565b60006020820190508181036000830152611c0281611bc6565b9050919050565b7f4e487b7100000000000000000000000000000000000000000000000000000000600052603260045260246000fd5b6000611c43826116b8565b9150611c4e836116b8565b9250828203905081811115611c6657611c65611af7565b5b92915050565b7f4e487b7100000000000000000000000000000000000000000000000000000000600052603160045260246000fd5b7f4e65772077616c6c6574206164647265737320616c726561647920726567697360008201527f7465726564000000000000000000000000000000000000000000000000000000602082015250565b6000611cf76025836119e8565b9150611d0282611c9b565b604082019050919050565b60006020820190508181036000830152611d2681611cea565b9050919050565b600080fd5b6000601f19601f8301169050919050565b611d4c82611d32565b810181811067ffffffffffffffff82111715611d6b57611d6a611b6e565b5b80604052505050565b6000611d7e611619565b9050611d8a8282611d43565b919050565b600080fd5b600081519050611da381611934565b92915050565b600080fd5b600080fd5b600067ffffffffffffffff821115611dce57611dcd611b6e565b5b611dd782611d32565b9050602081019050919050565b60005b83811015611e02578082015181840152602081019050611de7565b60008484015250505050565b6000611e21611e1c84611db3565b611d74565b905082815260208101848484011115611e3d57611e3c611dae565b5b611e48848285611de4565b509392505050565b600082601f830112611e6557611e64611da9565b5b8151611e75848260208601611e0e565b91505092915050565b600060c08284031215611e9457611e93611d2d565b5b611e9e60c0611d74565b90506000611eae84828501611d94565b6000830152506020611ec284828501611d94565b6020830152506040611ed684828501611d94565b6040830152506060611eea84828501611d94565b6060830152506080611efe84828501611d94565b60808301525060a082015167ffffffffffffffff811115611f2257611f21611d8f565b5b611f2e84828501611e50565b60a08301525092915050565b600060208284031215611f5057611f4f611623565b5b600082015167ffffffffffffffff811115611f6e57611f6d611628565b5b611f7a84828501611e7e565b91505092915050565b7f517565737420646f6573206e6f74206578697374000000000000000000000000600082015250565b6000611fb96014836119e8565b9150611fc482611f83565b602082019050919050565b60006020820190508181036000830152611fe881611fac565b9050919050565b600060408201905061200460008301856118d2565b61201160208301846118d2565b9392505050565b7f496e646578206f7574206f6620626f756e647300000000000000000000000000600082015250565b600061204e6013836119e8565b915061205982612018565b602082019050919050565b6000602082019050818103600083015261207d81612041565b905091905056fea2646970667358221220bd78bde5e43febbfa45c842ad255a9a8daa3c737a3fe8a518c0d5bb3f93c5e3264736f6c63430008170033",
  "linkReferences": {},
  "deployedLinkReferences": {}
}