{
  "_format": "hh-sol-artifact-1",
  "contractName": "UserQuestEvents",
  "sourceName": "contracts/UserQuestEvents.sol",
  "abi": [
    {
      "anonymous": false,
      "inputs": [
        {
          "indexed": true,
          "internalType": "uint256",
          "name": "userQuestEventId",
          "type": "uint256"
        },
        {
          "indexed": true,
          "internalType": "uint256",
          "name": "questEventId",
          "type": "uint256"
        },
        {
          "indexed": true,
          "internalType": "uint256",
          "name": "userId",
          "type": "uint256"
        },
        {
          "indexed": false,
          "internalType": "uint256",
          "name": "interactions",
          "type": "uint256"
        },
        {
          "indexed": false,
          "internalType": "bool",
          "name": "validated",
          "type": "bool"
        },
        {
          "indexed": false,
          "internalType": "string",
          "name": "url",
          "type": "string"
        },
        {
          "indexed": false,
          "internalType": "bool",
          "name": "completed",
          "type": "bool"
        }
      ],
      "name": "UserQuestEventCreated",
      "type": "event"
    },
    {
      "inputs": [
        {
          "internalType": "uint256",
          "name": "questEventId",
          "type": "uint256"
        },
        {
          "internalType": "uint256",
          "name": "userId",
          "type": "uint256"
        },
        {
          "internalType": "uint256",
          "name": "interactions",
          "type": "uint256"
        },
        {
          "internalType": "bool",
          "name": "validated",
          "type": "bool"
        },
        {
          "internalType": "string",
          "name": "url",
          "type": "string"
        },
        {
          "internalType": "bool",
          "name": "completed",
          "type": "bool"
        }
      ],
      "name": "createUserQuestEvent",
      "outputs": [
        {
          "internalType": "uint256",
          "name": "",
          "type": "uint256"
        }
      ],
      "stateMutability": "nonpayable",
      "type": "function"
    },
    {
      "inputs": [
        {
          "internalType": "uint256",
          "name": "userQuestEventId",
          "type": "uint256"
        }
      ],
      "name": "deleteUserQuestEvent",
      "outputs": [],
      "stateMutability": "nonpayable",
      "type": "function"
    },
    {
      "inputs": [
        {
          "internalType": "uint256",
          "name": "userId",
          "type": "uint256"
        }
      ],
      "name": "getQuestsForUser",
      "outputs": [
        {
          "components": [
            {
              "internalType": "uint256",
              "name": "userQuestEventId",
              "type": "uint256"
            },
            {
              "internalType": "uint256",
              "name": "questEventId",
              "type": "uint256"
            },
            {
              "internalType": "uint256",
              "name": "userId",
              "type": "uint256"
            },
            {
              "internalType": "uint256",
              "name": "interactions",
              "type": "uint256"
            },
            {
              "internalType": "bool",
              "name": "validated",
              "type": "bool"
            },
            {
              "internalType": "string",
              "name": "url",
              "type": "string"
            },
            {
              "internalType": "bool",
              "name": "completed",
              "type": "bool"
            }
          ],
          "internalType": "struct UserQuestEvents.UserQuestEvent[]",
          "name": "",
          "type": "tuple[]"
        }
      ],
      "stateMutability": "view",
      "type": "function"
    },
    {
      "inputs": [],
      "name": "getUserQuestEventCount",
      "outputs": [
        {
          "internalType": "uint256",
          "name": "",
          "type": "uint256"
        }
      ],
      "stateMutability": "view",
      "type": "function"
    },
    {
      "inputs": [
        {
          "internalType": "address",
          "name": "wallet",
          "type": "address"
        },
        {
          "internalType": "address",
          "name": "userContractAddress",
          "type": "address"
        }
      ],
      "name": "getUserQuestsByWallet",
      "outputs": [
        {
          "components": [
            {
              "internalType": "uint256",
              "name": "userQuestEventId",
              "type": "uint256"
            },
            {
              "internalType": "uint256",
              "name": "questEventId",
              "type": "uint256"
            },
            {
              "internalType": "uint256",
              "name": "userId",
              "type": "uint256"
            },
            {
              "internalType": "uint256",
              "name": "interactions",
              "type": "uint256"
            },
            {
              "internalType": "bool",
              "name": "validated",
              "type": "bool"
            },
            {
              "internalType": "string",
              "name": "url",
              "type": "string"
            },
            {
              "internalType": "bool",
              "name": "completed",
              "type": "bool"
            }
          ],
          "internalType": "struct UserQuestEvents.UserQuestEvent[]",
          "name": "",
          "type": "tuple[]"
        }
      ],
      "stateMutability": "view",
      "type": "function"
    },
    {
      "inputs": [],
      "name": "listUserQuestEvents",
      "outputs": [
        {
          "components": [
            {
              "internalType": "uint256",
              "name": "userQuestEventId",
              "type": "uint256"
            },
            {
              "internalType": "uint256",
              "name": "questEventId",
              "type": "uint256"
            },
            {
              "internalType": "uint256",
              "name": "userId",
              "type": "uint256"
            },
            {
              "internalType": "uint256",
              "name": "interactions",
              "type": "uint256"
            },
            {
              "internalType": "bool",
              "name": "validated",
              "type": "bool"
            },
            {
              "internalType": "string",
              "name": "url",
              "type": "string"
            },
            {
              "internalType": "bool",
              "name": "completed",
              "type": "bool"
            }
          ],
          "internalType": "struct UserQuestEvents.UserQuestEvent[]",
          "name": "",
          "type": "tuple[]"
        }
      ],
      "stateMutability": "view",
      "type": "function"
    },
    {
      "inputs": [
        {
          "internalType": "uint256",
          "name": "userQuestEventId",
          "type": "uint256"
        }
      ],
      "name": "readUserQuestEvent",
      "outputs": [
        {
          "components": [
            {
              "internalType": "uint256",
              "name": "userQuestEventId",
              "type": "uint256"
            },
            {
              "internalType": "uint256",
              "name": "questEventId",
              "type": "uint256"
            },
            {
              "internalType": "uint256",
              "name": "userId",
              "type": "uint256"
            },
            {
              "internalType": "uint256",
              "name": "interactions",
              "type": "uint256"
            },
            {
              "internalType": "bool",
              "name": "validated",
              "type": "bool"
            },
            {
              "internalType": "string",
              "name": "url",
              "type": "string"
            },
            {
              "internalType": "bool",
              "name": "completed",
              "type": "bool"
            }
          ],
          "internalType": "struct UserQuestEvents.UserQuestEvent",
          "name": "",
          "type": "tuple"
        }
      ],
      "stateMutability": "view",
      "type": "function"
    },
    {
      "inputs": [
        {
          "internalType": "uint256",
          "name": "userQuestEventId",
          "type": "uint256"
        },
        {
          "internalType": "uint256",
          "name": "questEventId",
          "type": "uint256"
        },
        {
          "internalType": "uint256",
          "name": "userId",
          "type": "uint256"
        },
        {
          "internalType": "uint256",
          "name": "interactions",
          "type": "uint256"
        },
        {
          "internalType": "bool",
          "name": "validated",
          "type": "bool"
        },
        {
          "internalType": "string",
          "name": "url",
          "type": "string"
        },
        {
          "internalType": "bool",
          "name": "completed",
          "type": "bool"
        }
      ],
      "name": "updateUserQuestEvent",
      "outputs": [],
      "stateMutability": "nonpayable",
      "type": "function"
    },
    {
      "inputs": [
        {
          "internalType": "uint256",
          "name": "",
          "type": "uint256"
        }
      ],
      "name": "userQuestEvents",
      "outputs": [
        {
          "internalType": "uint256",
          "name": "userQuestEventId",
          "type": "uint256"
        },
        {
          "internalType": "uint256",
          "name": "questEventId",
          "type": "uint256"
        },
        {
          "internalType": "uint256",
          "name": "userId",
          "type": "uint256"
        },
        {
          "internalType": "uint256",
          "name": "interactions",
          "type": "uint256"
        },
        {
          "internalType": "bool",
          "name": "validated",
          "type": "bool"
        },
        {
          "internalType": "string",
          "name": "url",
          "type": "string"
        },
        {
          "internalType": "bool",
          "name": "completed",
          "type": "bool"
        }
      ],
      "stateMutability": "view",
      "type": "function"
    }
  ],
  "bytecode": "0x608060405234801561001057600080fd5b5061195d806100206000396000f3fe608060405234801561001057600080fd5b50600436106100935760003560e01c80632f361e3b116100665780632f361e3b146101365780638f2a6799146101665780639604cd4b14610184578063d303663f146101a2578063dc6ca8c0146101d257610093565b80630180900a14610098578063168edae3146100b4578063177cae68146100d05780632588d06914610100575b600080fd5b6100b260048036038101906100ad9190610e79565b610202565b005b6100ce60048036038101906100c99190610f37565b6102ed565b005b6100ea60048036038101906100e59190610f64565b6103c3565b6040516100f7919061101c565b60405180910390f35b61011a60048036038101906101159190610f37565b6104fb565b60405161012d97969594939291906110c5565b60405180910390f35b610150600480360381019061014b9190610f37565b6105df565b60405161015d919061123f565b60405180910390f35b61016e610761565b60405161017b919061101c565b60405180910390f35b61018c61076b565b60405161019991906113bf565b60405180910390f35b6101bc60048036038101906101b79190610f37565b61094b565b6040516101c991906113bf565b60405180910390f35b6101ec60048036038101906101e7919061143f565b610b7b565b6040516101f991906113bf565b60405180910390f35b60008714158015610229575060008060008981526020019081526020016000206000015414155b610268576040517f08c379a000000000000000000000000000000000000000000000000000000000815260040161025f906114cb565b60405180910390fd5b60008060008981526020019081526020016000209050868160010181905550858160020181905550848160030181905550838160040160006101000a81548160ff021916908315150217905550828160050190816102c691906116f7565b50818160060160006101000a81548160ff0219169083151502179055505050505050505050565b60008114158015610314575060008060008381526020019081526020016000206000015414155b610353576040517f08c379a000000000000000000000000000000000000000000000000000000000815260040161034a906114cb565b60405180910390fd5b6000808281526020019081526020016000206000808201600090556001820160009055600282016000905560038201600090556004820160006101000a81549060ff02191690556005820160006103aa9190610c13565b6006820160006101000a81549060ff0219169055505050565b6000600160008154809291906103d8906117f8565b91905055506040518060e001604052806001548152602001888152602001878152602001868152602001851515815260200184815260200183151581525060008060015481526020019081526020016000206000820151816000015560208201518160010155604082015181600201556060820151816003015560808201518160040160006101000a81548160ff02191690831515021790555060a082015181600501908161048791906116f7565b5060c08201518160060160006101000a81548160ff02191690831515021790555090505085876001547e93c1fde9fd0ab3bd39accdf9b666b9f144a46a52f95703ef04acc81779b13d888888886040516104e49493929190611840565b60405180910390a460015490509695505050505050565b60006020528060005260406000206000915090508060000154908060010154908060020154908060030154908060040160009054906101000a900460ff16908060050180546105499061151a565b80601f01602080910402602001604051908101604052809291908181526020018280546105759061151a565b80156105c25780601f10610597576101008083540402835291602001916105c2565b820191906000526020600020905b8154815290600101906020018083116105a557829003601f168201915b5050505050908060060160009054906101000a900460ff16905087565b6105e7610c53565b6000821415801561060e575060008060008481526020019081526020016000206000015414155b61064d576040517f08c379a0000000000000000000000000000000000000000000000000000000008152600401610644906114cb565b60405180910390fd5b6000808381526020019081526020016000206040518060e0016040529081600082015481526020016001820154815260200160028201548152602001600382015481526020016004820160009054906101000a900460ff161515151581526020016005820180546106bd9061151a565b80601f01602080910402602001604051908101604052809291908181526020018280546106e99061151a565b80156107365780601f1061070b57610100808354040283529160200191610736565b820191906000526020600020905b81548152906001019060200180831161071957829003601f168201915b505050505081526020016006820160009054906101000a900460ff1615151515815250509050919050565b6000600154905090565b6060600060015467ffffffffffffffff81111561078b5761078a610d4e565b5b6040519080825280602002602001820160405280156107c457816020015b6107b1610c53565b8152602001906001900390816107a95790505b509050600080600190505b6001548111610942576000806000838152602001908152602001600020600001541461092f576000808281526020019081526020016000206040518060e0016040529081600082015481526020016001820154815260200160028201548152602001600382015481526020016004820160009054906101000a900460ff161515151581526020016005820180546108659061151a565b80601f01602080910402602001604051908101604052809291908181526020018280546108919061151a565b80156108de5780601f106108b3576101008083540402835291602001916108de565b820191906000526020600020905b8154815290600101906020018083116108c157829003601f168201915b505050505081526020016006820160009054906101000a900460ff1615151515815250508383815181106109155761091461188c565b5b6020026020010181905250818061092b906117f8565b9250505b808061093a906117f8565b9150506107cf565b50819250505090565b6060600080600190505b600154811161099c57836000808381526020019081526020016000206002015403610989578180610985906117f8565b9250505b8080610994906117f8565b915050610955565b5060008167ffffffffffffffff8111156109b9576109b8610d4e565b5b6040519080825280602002602001820160405280156109f257816020015b6109df610c53565b8152602001906001900390816109d75790505b509050600080600190505b6001548111610b6f57856000808381526020019081526020016000206002015403610b5c576000808281526020019081526020016000206040518060e0016040529081600082015481526020016001820154815260200160028201548152602001600382015481526020016004820160009054906101000a900460ff16151515158152602001600582018054610a929061151a565b80601f0160208091040260200160405190810160405280929190818152602001828054610abe9061151a565b8015610b0b5780601f10610ae057610100808354040283529160200191610b0b565b820191906000526020600020905b815481529060010190602001808311610aee57829003601f168201915b505050505081526020016006820160009054906101000a900460ff161515151581525050838381518110610b4257610b4161188c565b5b60200260200101819052508180610b58906117f8565b9250505b8080610b67906117f8565b9150506109fd565b50819350505050919050565b6060600082905060008173ffffffffffffffffffffffffffffffffffffffff16633b529df4866040518263ffffffff1660e01b8152600401610bbd91906118ca565b602060405180830381865afa158015610bda573d6000803e3d6000fd5b505050506040513d601f19601f82011682018060405250810190610bfe91906118fa565b9050610c098161094b565b9250505092915050565b508054610c1f9061151a565b6000825580601f10610c315750610c50565b601f016020900490600052602060002090810190610c4f9190610c94565b5b50565b6040518060e0016040528060008152602001600081526020016000815260200160008152602001600015158152602001606081526020016000151581525090565b5b80821115610cad576000816000905550600101610c95565b5090565b6000604051905090565b600080fd5b600080fd5b6000819050919050565b610cd881610cc5565b8114610ce357600080fd5b50565b600081359050610cf581610ccf565b92915050565b60008115159050919050565b610d1081610cfb565b8114610d1b57600080fd5b50565b600081359050610d2d81610d07565b92915050565b600080fd5b600080fd5b6000601f19601f8301169050919050565b7f4e487b7100000000000000000000000000000000000000000000000000000000600052604160045260246000fd5b610d8682610d3d565b810181811067ffffffffffffffff82111715610da557610da4610d4e565b5b80604052505050565b6000610db8610cb1565b9050610dc48282610d7d565b919050565b600067ffffffffffffffff821115610de457610de3610d4e565b5b610ded82610d3d565b9050602081019050919050565b82818337600083830152505050565b6000610e1c610e1784610dc9565b610dae565b905082815260208101848484011115610e3857610e37610d38565b5b610e43848285610dfa565b509392505050565b600082601f830112610e6057610e5f610d33565b5b8135610e70848260208601610e09565b91505092915050565b600080600080600080600060e0888a031215610e9857610e97610cbb565b5b6000610ea68a828b01610ce6565b9750506020610eb78a828b01610ce6565b9650506040610ec88a828b01610ce6565b9550506060610ed98a828b01610ce6565b9450506080610eea8a828b01610d1e565b93505060a088013567ffffffffffffffff811115610f0b57610f0a610cc0565b5b610f178a828b01610e4b565b92505060c0610f288a828b01610d1e565b91505092959891949750929550565b600060208284031215610f4d57610f4c610cbb565b5b6000610f5b84828501610ce6565b91505092915050565b60008060008060008060c08789031215610f8157610f80610cbb565b5b6000610f8f89828a01610ce6565b9650506020610fa089828a01610ce6565b9550506040610fb189828a01610ce6565b9450506060610fc289828a01610d1e565b935050608087013567ffffffffffffffff811115610fe357610fe2610cc0565b5b610fef89828a01610e4b565b92505060a061100089828a01610d1e565b9150509295509295509295565b61101681610cc5565b82525050565b6000602082019050611031600083018461100d565b92915050565b61104081610cfb565b82525050565b600081519050919050565b600082825260208201905092915050565b60005b83811015611080578082015181840152602081019050611065565b60008484015250505050565b600061109782611046565b6110a18185611051565b93506110b1818560208601611062565b6110ba81610d3d565b840191505092915050565b600060e0820190506110da600083018a61100d565b6110e7602083018961100d565b6110f4604083018861100d565b611101606083018761100d565b61110e6080830186611037565b81810360a0830152611120818561108c565b905061112f60c0830184611037565b98975050505050505050565b61114481610cc5565b82525050565b61115381610cfb565b82525050565b600082825260208201905092915050565b600061117582611046565b61117f8185611159565b935061118f818560208601611062565b61119881610d3d565b840191505092915050565b600060e0830160008301516111bb600086018261113b565b5060208301516111ce602086018261113b565b5060408301516111e1604086018261113b565b5060608301516111f4606086018261113b565b506080830151611207608086018261114a565b5060a083015184820360a086015261121f828261116a565b91505060c083015161123460c086018261114a565b508091505092915050565b6000602082019050818103600083015261125981846111a3565b905092915050565b600081519050919050565b600082825260208201905092915050565b6000819050602082019050919050565b600060e0830160008301516112a5600086018261113b565b5060208301516112b8602086018261113b565b5060408301516112cb604086018261113b565b5060608301516112de606086018261113b565b5060808301516112f1608086018261114a565b5060a083015184820360a0860152611309828261116a565b91505060c083015161131e60c086018261114a565b508091505092915050565b6000611335838361128d565b905092915050565b6000602082019050919050565b600061135582611261565b61135f818561126c565b9350836020820285016113718561127d565b8060005b858110156113ad578484038952815161138e8582611329565b94506113998361133d565b925060208a01995050600181019050611375565b50829750879550505050505092915050565b600060208201905081810360008301526113d9818461134a565b905092915050565b600073ffffffffffffffffffffffffffffffffffffffff82169050919050565b600061140c826113e1565b9050919050565b61141c81611401565b811461142757600080fd5b50565b60008135905061143981611413565b92915050565b6000806040838503121561145657611455610cbb565b5b60006114648582860161142a565b92505060206114758582860161142a565b9150509250929050565b7f5573657251756573744576656e7420646f6573206e6f74206578697374000000600082015250565b60006114b5601d83611051565b91506114c08261147f565b602082019050919050565b600060208201905081810360008301526114e4816114a8565b9050919050565b7f4e487b7100000000000000000000000000000000000000000000000000000000600052602260045260246000fd5b6000600282049050600182168061153257607f821691505b602082108103611545576115446114eb565b5b50919050565b60008190508160005260206000209050919050565b60006020601f8301049050919050565b600082821b905092915050565b6000600883026115ad7fffffffffffffffffffffffffffffffffffffffffffffffffffffffffffffffff82611570565b6115b78683611570565b95508019841693508086168417925050509392505050565b6000819050919050565b60006115f46115ef6115ea84610cc5565b6115cf565b610cc5565b9050919050565b6000819050919050565b61160e836115d9565b61162261161a826115fb565b84845461157d565b825550505050565b600090565b61163761162a565b611642818484611605565b505050565b5b818110156116665761165b60008261162f565b600181019050611648565b5050565b601f8211156116ab5761167c8161154b565b61168584611560565b81016020851015611694578190505b6116a86116a085611560565b830182611647565b50505b505050565b600082821c905092915050565b60006116ce600019846008026116b0565b1980831691505092915050565b60006116e783836116bd565b9150826002028217905092915050565b61170082611046565b67ffffffffffffffff81111561171957611718610d4e565b5b611723825461151a565b61172e82828561166a565b600060209050601f831160018114611761576000841561174f578287015190505b61175985826116db565b8655506117c1565b601f19841661176f8661154b565b60005b8281101561179757848901518255600182019150602085019450602081019050611772565b868310156117b457848901516117b0601f8916826116bd565b8355505b6001600288020188555050505b505050505050565b7f4e487b7100000000000000000000000000000000000000000000000000000000600052601160045260246000fd5b600061180382610cc5565b91507fffffffffffffffffffffffffffffffffffffffffffffffffffffffffffffffff8203611835576118346117c9565b5b600182019050919050565b6000608082019050611855600083018761100d565b6118626020830186611037565b8181036040830152611874818561108c565b90506118836060830184611037565b95945050505050565b7f4e487b7100000000000000000000000000000000000000000000000000000000600052603260045260246000fd5b6118c481611401565b82525050565b60006020820190506118df60008301846118bb565b92915050565b6000815190506118f481610ccf565b92915050565b6000602082840312156119105761190f610cbb565b5b600061191e848285016118e5565b9150509291505056fea264697066735822122087a71c7f406fa311fdbc82be49c698e8606dc26943b420882aa356da73196c3364736f6c63430008170033",
  "linkReferences": {},
  "deployedLinkReferences": {}
}