{
  "_format": "hh-sol-artifact-1",
  "contractName": "UserQuestTypeEvents",
  "sourceName": "contracts/UserQuestTypeEvents.sol",
  "abi": [
    {
      "anonymous": false,
      "inputs": [
        {
          "indexed": true,
          "internalType": "uint256",
          "name": "userQuestTypeEventId",
          "type": "uint256"
        },
        {
          "indexed": true,
          "internalType": "uint256",
          "name": "questTypeEventId",
          "type": "uint256"
        },
        {
          "indexed": true,
          "internalType": "uint256",
          "name": "userId",
          "type": "uint256"
        },
        {
          "indexed": false,
          "internalType": "uint256",
          "name": "interactions",
          "type": "uint256"
        },
        {
          "indexed": false,
          "internalType": "bool",
          "name": "validated",
          "type": "bool"
        },
        {
          "indexed": false,
          "internalType": "string",
          "name": "url",
          "type": "string"
        },
        {
          "indexed": false,
          "internalType": "bool",
          "name": "completed",
          "type": "bool"
        }
      ],
      "name": "UserQuestTypeEventCreated",
      "type": "event"
    },
    {
      "inputs": [
        {
          "internalType": "uint256",
          "name": "questTypeEventId",
          "type": "uint256"
        },
        {
          "internalType": "uint256",
          "name": "userId",
          "type": "uint256"
        },
        {
          "internalType": "uint256",
          "name": "interactions",
          "type": "uint256"
        },
        {
          "internalType": "bool",
          "name": "validated",
          "type": "bool"
        },
        {
          "internalType": "string",
          "name": "url",
          "type": "string"
        },
        {
          "internalType": "bool",
          "name": "completed",
          "type": "bool"
        }
      ],
      "name": "createUserQuestTypeEvent",
      "outputs": [
        {
          "internalType": "uint256",
          "name": "",
          "type": "uint256"
        }
      ],
      "stateMutability": "nonpayable",
      "type": "function"
    },
    {
      "inputs": [
        {
          "internalType": "uint256",
          "name": "userQuestTypeEventId",
          "type": "uint256"
        }
      ],
      "name": "deleteUserQuestTypeEvent",
      "outputs": [],
      "stateMutability": "nonpayable",
      "type": "function"
    },
    {
      "inputs": [
        {
          "internalType": "uint256",
          "name": "index",
          "type": "uint256"
        }
      ],
      "name": "getUserQuestTypeEventByIndex",
      "outputs": [
        {
          "components": [
            {
              "internalType": "uint256",
              "name": "userQuestTypeEventId",
              "type": "uint256"
            },
            {
              "internalType": "uint256",
              "name": "questTypeEventId",
              "type": "uint256"
            },
            {
              "internalType": "uint256",
              "name": "userId",
              "type": "uint256"
            },
            {
              "internalType": "uint256",
              "name": "interactions",
              "type": "uint256"
            },
            {
              "internalType": "bool",
              "name": "validated",
              "type": "bool"
            },
            {
              "internalType": "string",
              "name": "url",
              "type": "string"
            },
            {
              "internalType": "bool",
              "name": "completed",
              "type": "bool"
            }
          ],
          "internalType": "struct UserQuestTypeEvents.UserQuestTypeEvent",
          "name": "",
          "type": "tuple"
        }
      ],
      "stateMutability": "view",
      "type": "function"
    },
    {
      "inputs": [],
      "name": "getUserQuestTypeEventCount",
      "outputs": [
        {
          "internalType": "uint256",
          "name": "",
          "type": "uint256"
        }
      ],
      "stateMutability": "view",
      "type": "function"
    },
    {
      "inputs": [
        {
          "internalType": "address",
          "name": "wallet",
          "type": "address"
        },
        {
          "internalType": "address",
          "name": "userContractAddress",
          "type": "address"
        }
      ],
      "name": "getUserQuestsByWallet",
      "outputs": [
        {
          "components": [
            {
              "internalType": "uint256",
              "name": "userQuestTypeEventId",
              "type": "uint256"
            },
            {
              "internalType": "uint256",
              "name": "questTypeEventId",
              "type": "uint256"
            },
            {
              "internalType": "uint256",
              "name": "userId",
              "type": "uint256"
            },
            {
              "internalType": "uint256",
              "name": "interactions",
              "type": "uint256"
            },
            {
              "internalType": "bool",
              "name": "validated",
              "type": "bool"
            },
            {
              "internalType": "string",
              "name": "url",
              "type": "string"
            },
            {
              "internalType": "bool",
              "name": "completed",
              "type": "bool"
            }
          ],
          "internalType": "struct UserQuestTypeEvents.UserQuestTypeEvent[]",
          "name": "",
          "type": "tuple[]"
        }
      ],
      "stateMutability": "view",
      "type": "function"
    },
    {
      "inputs": [
        {
          "internalType": "uint256",
          "name": "userId",
          "type": "uint256"
        }
      ],
      "name": "getUserQuestsForUser",
      "outputs": [
        {
          "components": [
            {
              "internalType": "uint256",
              "name": "userQuestTypeEventId",
              "type": "uint256"
            },
            {
              "internalType": "uint256",
              "name": "questTypeEventId",
              "type": "uint256"
            },
            {
              "internalType": "uint256",
              "name": "userId",
              "type": "uint256"
            },
            {
              "internalType": "uint256",
              "name": "interactions",
              "type": "uint256"
            },
            {
              "internalType": "bool",
              "name": "validated",
              "type": "bool"
            },
            {
              "internalType": "string",
              "name": "url",
              "type": "string"
            },
            {
              "internalType": "bool",
              "name": "completed",
              "type": "bool"
            }
          ],
          "internalType": "struct UserQuestTypeEvents.UserQuestTypeEvent[]",
          "name": "",
          "type": "tuple[]"
        }
      ],
      "stateMutability": "view",
      "type": "function"
    },
    {
      "inputs": [],
      "name": "listUserQuestTypeEvents",
      "outputs": [
        {
          "components": [
            {
              "internalType": "uint256",
              "name": "userQuestTypeEventId",
              "type": "uint256"
            },
            {
              "internalType": "uint256",
              "name": "questTypeEventId",
              "type": "uint256"
            },
            {
              "internalType": "uint256",
              "name": "userId",
              "type": "uint256"
            },
            {
              "internalType": "uint256",
              "name": "interactions",
              "type": "uint256"
            },
            {
              "internalType": "bool",
              "name": "validated",
              "type": "bool"
            },
            {
              "internalType": "string",
              "name": "url",
              "type": "string"
            },
            {
              "internalType": "bool",
              "name": "completed",
              "type": "bool"
            }
          ],
          "internalType": "struct UserQuestTypeEvents.UserQuestTypeEvent[]",
          "name": "",
          "type": "tuple[]"
        }
      ],
      "stateMutability": "view",
      "type": "function"
    },
    {
      "inputs": [
        {
          "internalType": "uint256",
          "name": "userQuestTypeEventId",
          "type": "uint256"
        }
      ],
      "name": "readUserQuestTypeEvent",
      "outputs": [
        {
          "components": [
            {
              "internalType": "uint256",
              "name": "userQuestTypeEventId",
              "type": "uint256"
            },
            {
              "internalType": "uint256",
              "name": "questTypeEventId",
              "type": "uint256"
            },
            {
              "internalType": "uint256",
              "name": "userId",
              "type": "uint256"
            },
            {
              "internalType": "uint256",
              "name": "interactions",
              "type": "uint256"
            },
            {
              "internalType": "bool",
              "name": "validated",
              "type": "bool"
            },
            {
              "internalType": "string",
              "name": "url",
              "type": "string"
            },
            {
              "internalType": "bool",
              "name": "completed",
              "type": "bool"
            }
          ],
          "internalType": "struct UserQuestTypeEvents.UserQuestTypeEvent",
          "name": "",
          "type": "tuple"
        }
      ],
      "stateMutability": "view",
      "type": "function"
    },
    {
      "inputs": [
        {
          "internalType": "uint256",
          "name": "userQuestTypeEventId",
          "type": "uint256"
        },
        {
          "internalType": "uint256",
          "name": "questTypeEventId",
          "type": "uint256"
        },
        {
          "internalType": "uint256",
          "name": "userId",
          "type": "uint256"
        },
        {
          "internalType": "uint256",
          "name": "interactions",
          "type": "uint256"
        },
        {
          "internalType": "bool",
          "name": "validated",
          "type": "bool"
        },
        {
          "internalType": "string",
          "name": "url",
          "type": "string"
        },
        {
          "internalType": "bool",
          "name": "completed",
          "type": "bool"
        }
      ],
      "name": "updateUserQuestTypeEvent",
      "outputs": [],
      "stateMutability": "nonpayable",
      "type": "function"
    },
    {
      "inputs": [
        {
          "internalType": "uint256",
          "name": "",
          "type": "uint256"
        }
      ],
      "name": "userQuestTypeEvents",
      "outputs": [
        {
          "internalType": "uint256",
          "name": "userQuestTypeEventId",
          "type": "uint256"
        },
        {
          "internalType": "uint256",
          "name": "questTypeEventId",
          "type": "uint256"
        },
        {
          "internalType": "uint256",
          "name": "userId",
          "type": "uint256"
        },
        {
          "internalType": "uint256",
          "name": "interactions",
          "type": "uint256"
        },
        {
          "internalType": "bool",
          "name": "validated",
          "type": "bool"
        },
        {
          "internalType": "string",
          "name": "url",
          "type": "string"
        },
        {
          "internalType": "bool",
          "name": "completed",
          "type": "bool"
        }
      ],
      "stateMutability": "view",
      "type": "function"
    }
  ],
  "bytecode": "0x608060405234801561001057600080fd5b50611ba1806100206000396000f3fe608060405234801561001057600080fd5b506004361061009e5760003560e01c8063a145929811610066578063a14592981461016d578063dc1e78391461018b578063dc6ca8c0146101bb578063dcf45429146101eb578063ef9fc793146102215761009e565b806324232818146100a357806354617b53146100d357806359fe6d08146100f157806366fe9c8d146101215780638f6e034914610151575b600080fd5b6100bd60048036038101906100b89190610e79565b61023d565b6040516100ca91906110be565b60405180910390f35b6100db61046d565b6040516100e891906110be565b60405180910390f35b61010b60048036038101906101069190611241565b61064d565b60405161011891906112f9565b60405180910390f35b61013b60048036038101906101369190610e79565b610786565b60405161014891906113b0565b60405180910390f35b61016b600480360381019061016691906113d2565b6108fa565b005b6101756109d7565b60405161018291906112f9565b60405180910390f35b6101a560048036038101906101a09190610e79565b6109e1565b6040516101b291906113b0565b60405180910390f35b6101d560048036038101906101d091906114ee565b610b4d565b6040516101e291906110be565b60405180910390f35b61020560048036038101906102009190610e79565b610be5565b6040516102189796959493929190611587565b60405180910390f35b61023b60048036038101906102369190610e79565b610cc9565b005b6060600080600190505b600154811161028e5783600080838152602001908152602001600020600201540361027b5781806102779061162c565b9250505b80806102869061162c565b915050610247565b5060008167ffffffffffffffff8111156102ab576102aa611116565b5b6040519080825280602002602001820160405280156102e457816020015b6102d1610d91565b8152602001906001900390816102c95790505b509050600080600190505b60015481116104615785600080838152602001908152602001600020600201540361044e576000808281526020019081526020016000206040518060e0016040529081600082015481526020016001820154815260200160028201548152602001600382015481526020016004820160009054906101000a900460ff16151515158152602001600582018054610384906116a3565b80601f01602080910402602001604051908101604052809291908181526020018280546103b0906116a3565b80156103fd5780601f106103d2576101008083540402835291602001916103fd565b820191906000526020600020905b8154815290600101906020018083116103e057829003601f168201915b505050505081526020016006820160009054906101000a900460ff161515151581525050838381518110610434576104336116d4565b5b6020026020010181905250818061044a9061162c565b9250505b80806104599061162c565b9150506102ef565b50819350505050919050565b6060600060015467ffffffffffffffff81111561048d5761048c611116565b5b6040519080825280602002602001820160405280156104c657816020015b6104b3610d91565b8152602001906001900390816104ab5790505b509050600080600190505b60015481116106445760008060008381526020019081526020016000206000015414610631576000808281526020019081526020016000206040518060e0016040529081600082015481526020016001820154815260200160028201548152602001600382015481526020016004820160009054906101000a900460ff16151515158152602001600582018054610567906116a3565b80601f0160208091040260200160405190810160405280929190818152602001828054610593906116a3565b80156105e05780601f106105b5576101008083540402835291602001916105e0565b820191906000526020600020905b8154815290600101906020018083116105c357829003601f168201915b505050505081526020016006820160009054906101000a900460ff161515151581525050838381518110610617576106166116d4565b5b6020026020010181905250818061062d9061162c565b9250505b808061063c9061162c565b9150506104d1565b50819250505090565b6000600160008154809291906106629061162c565b91905055506040518060e001604052806001548152602001888152602001878152602001868152602001851515815260200184815260200183151581525060008060015481526020019081526020016000206000820151816000015560208201518160010155604082015181600201556060820151816003015560808201518160040160006101000a81548160ff02191690831515021790555060a082015181600501908161071191906118af565b5060c08201518160060160006101000a81548160ff02191690831515021790555090505085876001547f062d7571bbbda1e61a7390ecd209b46d6b5668e70369f10400b574637fcaa6b58888888860405161076f9493929190611981565b60405180910390a460015490509695505050505050565b61078e610d91565b600080600084815260200190815260200160002060000154036107e6576040517f08c379a00000000000000000000000000000000000000000000000000000000081526004016107dd90611a3f565b60405180910390fd5b6000808381526020019081526020016000206040518060e0016040529081600082015481526020016001820154815260200160028201548152602001600382015481526020016004820160009054906101000a900460ff16151515158152602001600582018054610856906116a3565b80601f0160208091040260200160405190810160405280929190818152602001828054610882906116a3565b80156108cf5780601f106108a4576101008083540402835291602001916108cf565b820191906000526020600020905b8154815290600101906020018083116108b257829003601f168201915b505050505081526020016006820160009054906101000a900460ff1615151515815250509050919050565b60008060008981526020019081526020016000206000015403610952576040517f08c379a000000000000000000000000000000000000000000000000000000000815260040161094990611a3f565b60405180910390fd5b60008060008981526020019081526020016000209050868160010181905550858160020181905550848160030181905550838160040160006101000a81548160ff021916908315150217905550828160050190816109b091906118af565b50818160060160006101000a81548160ff0219169083151502179055505050505050505050565b6000600154905090565b6109e9610d91565b6001548210610a2d576040517f08c379a0000000000000000000000000000000000000000000000000000000008152600401610a2490611aab565b60405180910390fd5b600080600184610a3d9190611acb565b81526020019081526020016000206040518060e0016040529081600082015481526020016001820154815260200160028201548152602001600382015481526020016004820160009054906101000a900460ff16151515158152602001600582018054610aa9906116a3565b80601f0160208091040260200160405190810160405280929190818152602001828054610ad5906116a3565b8015610b225780601f10610af757610100808354040283529160200191610b22565b820191906000526020600020905b815481529060010190602001808311610b0557829003601f168201915b505050505081526020016006820160009054906101000a900460ff1615151515815250509050919050565b6060600082905060008173ffffffffffffffffffffffffffffffffffffffff16633b529df4866040518263ffffffff1660e01b8152600401610b8f9190611b0e565b602060405180830381865afa158015610bac573d6000803e3d6000fd5b505050506040513d601f19601f82011682018060405250810190610bd09190611b3e565b9050610bdb8161023d565b9250505092915050565b60006020528060005260406000206000915090508060000154908060010154908060020154908060030154908060040160009054906101000a900460ff1690806005018054610c33906116a3565b80601f0160208091040260200160405190810160405280929190818152602001828054610c5f906116a3565b8015610cac5780601f10610c8157610100808354040283529160200191610cac565b820191906000526020600020905b815481529060010190602001808311610c8f57829003601f168201915b5050505050908060060160009054906101000a900460ff16905087565b60008060008381526020019081526020016000206000015403610d21576040517f08c379a0000000000000000000000000000000000000000000000000000000008152600401610d1890611a3f565b60405180910390fd5b6000808281526020019081526020016000206000808201600090556001820160009055600282016000905560038201600090556004820160006101000a81549060ff0219169055600582016000610d789190610dd2565b6006820160006101000a81549060ff0219169055505050565b6040518060e0016040528060008152602001600081526020016000815260200160008152602001600015158152602001606081526020016000151581525090565b508054610dde906116a3565b6000825580601f10610df05750610e0f565b601f016020900490600052602060002090810190610e0e9190610e12565b5b50565b5b80821115610e2b576000816000905550600101610e13565b5090565b6000604051905090565b600080fd5b600080fd5b6000819050919050565b610e5681610e43565b8114610e6157600080fd5b50565b600081359050610e7381610e4d565b92915050565b600060208284031215610e8f57610e8e610e39565b5b6000610e9d84828501610e64565b91505092915050565b600081519050919050565b600082825260208201905092915050565b6000819050602082019050919050565b610edb81610e43565b82525050565b60008115159050919050565b610ef681610ee1565b82525050565b600081519050919050565b600082825260208201905092915050565b60005b83811015610f36578082015181840152602081019050610f1b565b60008484015250505050565b6000601f19601f8301169050919050565b6000610f5e82610efc565b610f688185610f07565b9350610f78818560208601610f18565b610f8181610f42565b840191505092915050565b600060e083016000830151610fa46000860182610ed2565b506020830151610fb76020860182610ed2565b506040830151610fca6040860182610ed2565b506060830151610fdd6060860182610ed2565b506080830151610ff06080860182610eed565b5060a083015184820360a08601526110088282610f53565b91505060c083015161101d60c0860182610eed565b508091505092915050565b60006110348383610f8c565b905092915050565b6000602082019050919050565b600061105482610ea6565b61105e8185610eb1565b93508360208202850161107085610ec2565b8060005b858110156110ac578484038952815161108d8582611028565b94506110988361103c565b925060208a01995050600181019050611074565b50829750879550505050505092915050565b600060208201905081810360008301526110d88184611049565b905092915050565b6110e981610ee1565b81146110f457600080fd5b50565b600081359050611106816110e0565b92915050565b600080fd5b600080fd5b7f4e487b7100000000000000000000000000000000000000000000000000000000600052604160045260246000fd5b61114e82610f42565b810181811067ffffffffffffffff8211171561116d5761116c611116565b5b80604052505050565b6000611180610e2f565b905061118c8282611145565b919050565b600067ffffffffffffffff8211156111ac576111ab611116565b5b6111b582610f42565b9050602081019050919050565b82818337600083830152505050565b60006111e46111df84611191565b611176565b905082815260208101848484011115611200576111ff611111565b5b61120b8482856111c2565b509392505050565b600082601f8301126112285761122761110c565b5b81356112388482602086016111d1565b91505092915050565b60008060008060008060c0878903121561125e5761125d610e39565b5b600061126c89828a01610e64565b965050602061127d89828a01610e64565b955050604061128e89828a01610e64565b945050606061129f89828a016110f7565b935050608087013567ffffffffffffffff8111156112c0576112bf610e3e565b5b6112cc89828a01611213565b92505060a06112dd89828a016110f7565b9150509295509295509295565b6112f381610e43565b82525050565b600060208201905061130e60008301846112ea565b92915050565b600060e08301600083015161132c6000860182610ed2565b50602083015161133f6020860182610ed2565b5060408301516113526040860182610ed2565b5060608301516113656060860182610ed2565b5060808301516113786080860182610eed565b5060a083015184820360a08601526113908282610f53565b91505060c08301516113a560c0860182610eed565b508091505092915050565b600060208201905081810360008301526113ca8184611314565b905092915050565b600080600080600080600060e0888a0312156113f1576113f0610e39565b5b60006113ff8a828b01610e64565b97505060206114108a828b01610e64565b96505060406114218a828b01610e64565b95505060606114328a828b01610e64565b94505060806114438a828b016110f7565b93505060a088013567ffffffffffffffff81111561146457611463610e3e565b5b6114708a828b01611213565b92505060c06114818a828b016110f7565b91505092959891949750929550565b600073ffffffffffffffffffffffffffffffffffffffff82169050919050565b60006114bb82611490565b9050919050565b6114cb816114b0565b81146114d657600080fd5b50565b6000813590506114e8816114c2565b92915050565b6000806040838503121561150557611504610e39565b5b6000611513858286016114d9565b9250506020611524858286016114d9565b9150509250929050565b61153781610ee1565b82525050565b600082825260208201905092915050565b600061155982610efc565b611563818561153d565b9350611573818560208601610f18565b61157c81610f42565b840191505092915050565b600060e08201905061159c600083018a6112ea565b6115a960208301896112ea565b6115b660408301886112ea565b6115c360608301876112ea565b6115d0608083018661152e565b81810360a08301526115e2818561154e565b90506115f160c083018461152e565b98975050505050505050565b7f4e487b7100000000000000000000000000000000000000000000000000000000600052601160045260246000fd5b600061163782610e43565b91507fffffffffffffffffffffffffffffffffffffffffffffffffffffffffffffffff8203611669576116686115fd565b5b600182019050919050565b7f4e487b7100000000000000000000000000000000000000000000000000000000600052602260045260246000fd5b600060028204905060018216806116bb57607f821691505b6020821081036116ce576116cd611674565b5b50919050565b7f4e487b7100000000000000000000000000000000000000000000000000000000600052603260045260246000fd5b60008190508160005260206000209050919050565b60006020601f8301049050919050565b600082821b905092915050565b6000600883026117657fffffffffffffffffffffffffffffffffffffffffffffffffffffffffffffffff82611728565b61176f8683611728565b95508019841693508086168417925050509392505050565b6000819050919050565b60006117ac6117a76117a284610e43565b611787565b610e43565b9050919050565b6000819050919050565b6117c683611791565b6117da6117d2826117b3565b848454611735565b825550505050565b600090565b6117ef6117e2565b6117fa8184846117bd565b505050565b5b8181101561181e576118136000826117e7565b600181019050611800565b5050565b601f8211156118635761183481611703565b61183d84611718565b8101602085101561184c578190505b61186061185885611718565b8301826117ff565b50505b505050565b600082821c905092915050565b600061188660001984600802611868565b1980831691505092915050565b600061189f8383611875565b9150826002028217905092915050565b6118b882610efc565b67ffffffffffffffff8111156118d1576118d0611116565b5b6118db82546116a3565b6118e6828285611822565b600060209050601f8311600181146119195760008415611907578287015190505b6119118582611893565b865550611979565b601f19841661192786611703565b60005b8281101561194f5784890151825560018201915060208501945060208101905061192a565b8683101561196c5784890151611968601f891682611875565b8355505b6001600288020188555050505b505050505050565b600060808201905061199660008301876112ea565b6119a3602083018661152e565b81810360408301526119b5818561154e565b90506119c4606083018461152e565b95945050505050565b7f557365725175657374547970654576656e7420646f6573206e6f74206578697360008201527f7400000000000000000000000000000000000000000000000000000000000000602082015250565b6000611a2960218361153d565b9150611a34826119cd565b604082019050919050565b60006020820190508181036000830152611a5881611a1c565b9050919050565b7f496e646578206f7574206f6620626f756e647300000000000000000000000000600082015250565b6000611a9560138361153d565b9150611aa082611a5f565b602082019050919050565b60006020820190508181036000830152611ac481611a88565b9050919050565b6000611ad682610e43565b9150611ae183610e43565b9250828201905080821115611af957611af86115fd565b5b92915050565b611b08816114b0565b82525050565b6000602082019050611b236000830184611aff565b92915050565b600081519050611b3881610e4d565b92915050565b600060208284031215611b5457611b53610e39565b5b6000611b6284828501611b29565b9150509291505056fea26469706673582212203d7e51f04309a9011bc619ba980a554440f47146808b3d10bf99a371728cd13364736f6c63430008170033",
  "linkReferences": {},
  "deployedLinkReferences": {}
}