{
  "_format": "hh-sol-artifact-1",
  "contractName": "UserManager",
  "sourceName": "contracts/UserManager.sol",
  "abi": [
    {
      "inputs": [
        {
          "internalType": "address",
          "name": "_questManagerAddress",
          "type": "address"
        }
      ],
      "stateMutability": "nonpayable",
      "type": "constructor"
    },
    {
      "anonymous": false,
      "inputs": [
        {
          "indexed": false,
          "internalType": "uint256",
          "name": "userId",
          "type": "uint256"
        },
        {
          "indexed": false,
          "internalType": "uint256",
          "name": "questId",
          "type": "uint256"
        }
      ],
      "name": "QuestRegistered",
      "type": "event"
    },
    {
      "anonymous": false,
      "inputs": [
        {
          "indexed": false,
          "internalType": "uint256",
          "name": "userId",
          "type": "uint256"
        },
        {
          "indexed": false,
          "internalType": "address",
          "name": "walletAddress",
          "type": "address"
        }
      ],
      "name": "UserDeleted",
      "type": "event"
    },
    {
      "anonymous": false,
      "inputs": [
        {
          "indexed": false,
          "internalType": "uint256",
          "name": "userId",
          "type": "uint256"
        },
        {
          "indexed": false,
          "internalType": "address",
          "name": "walletAddress",
          "type": "address"
        }
      ],
      "name": "UserRegistered",
      "type": "event"
    },
    {
      "anonymous": false,
      "inputs": [
        {
          "indexed": false,
          "internalType": "uint256",
          "name": "userId",
          "type": "uint256"
        },
        {
          "indexed": false,
          "internalType": "address",
          "name": "walletAddress",
          "type": "address"
        }
      ],
      "name": "UserUpdated",
      "type": "event"
    },
    {
      "inputs": [],
      "name": "admin",
      "outputs": [
        {
          "internalType": "address",
          "name": "",
          "type": "address"
        }
      ],
      "stateMutability": "view",
      "type": "function"
    },
    {
      "inputs": [
        {
          "internalType": "address",
          "name": "_walletAddress",
          "type": "address"
        }
      ],
      "name": "deleteUser",
      "outputs": [],
      "stateMutability": "nonpayable",
      "type": "function"
    },
    {
      "inputs": [
        {
          "internalType": "address",
          "name": "_walletAddress",
          "type": "address"
        }
      ],
      "name": "getRegisteredQuests",
      "outputs": [
        {
          "internalType": "uint256[]",
          "name": "",
          "type": "uint256[]"
        }
      ],
      "stateMutability": "view",
      "type": "function"
    },
    {
      "inputs": [
        {
          "internalType": "address",
          "name": "_walletAddress",
          "type": "address"
        }
      ],
      "name": "getUser",
      "outputs": [
        {
          "components": [
            {
              "internalType": "uint256",
              "name": "userId",
              "type": "uint256"
            },
            {
              "internalType": "address",
              "name": "walletAddress",
              "type": "address"
            },
            {
              "internalType": "uint256[]",
              "name": "registeredQuests",
              "type": "uint256[]"
            }
          ],
          "internalType": "struct UserManager.User",
          "name": "",
          "type": "tuple"
        }
      ],
      "stateMutability": "view",
      "type": "function"
    },
    {
      "inputs": [
        {
          "internalType": "uint256",
          "name": "index",
          "type": "uint256"
        }
      ],
      "name": "getUserByIndex",
      "outputs": [
        {
          "components": [
            {
              "internalType": "uint256",
              "name": "userId",
              "type": "uint256"
            },
            {
              "internalType": "address",
              "name": "walletAddress",
              "type": "address"
            },
            {
              "internalType": "uint256[]",
              "name": "registeredQuests",
              "type": "uint256[]"
            }
          ],
          "internalType": "struct UserManager.User",
          "name": "",
          "type": "tuple"
        }
      ],
      "stateMutability": "view",
      "type": "function"
    },
    {
      "inputs": [],
      "name": "getUserCount",
      "outputs": [
        {
          "internalType": "uint256",
          "name": "",
          "type": "uint256"
        }
      ],
      "stateMutability": "view",
      "type": "function"
    },
    {
      "inputs": [
        {
          "internalType": "address",
          "name": "_walletAddress",
          "type": "address"
        },
        {
          "internalType": "uint256",
          "name": "_questId",
          "type": "uint256"
        }
      ],
      "name": "registerForQuest",
      "outputs": [],
      "stateMutability": "nonpayable",
      "type": "function"
    },
    {
      "inputs": [
        {
          "internalType": "address",
          "name": "_walletAddress",
          "type": "address"
        }
      ],
      "name": "registerUser",
      "outputs": [],
      "stateMutability": "nonpayable",
      "type": "function"
    },
    {
      "inputs": [
        {
          "internalType": "address",
          "name": "_oldWalletAddress",
          "type": "address"
        },
        {
          "internalType": "address",
          "name": "_newWalletAddress",
          "type": "address"
        }
      ],
      "name": "updateUser",
      "outputs": [],
      "stateMutability": "nonpayable",
      "type": "function"
    },
    {
      "inputs": [
        {
          "internalType": "address",
          "name": "",
          "type": "address"
        }
      ],
      "name": "users",
      "outputs": [
        {
          "internalType": "uint256",
          "name": "userId",
          "type": "uint256"
        },
        {
          "internalType": "address",
          "name": "walletAddress",
          "type": "address"
        }
      ],
      "stateMutability": "view",
      "type": "function"
    }
  ],
  "bytecode": "0x608060405260016002553480156200001657600080fd5b506040516200211b3803806200211b83398181016040528101906200003c91906200012e565b336000806101000a81548173ffffffffffffffffffffffffffffffffffffffff021916908373ffffffffffffffffffffffffffffffffffffffff16021790555080600160006101000a81548173ffffffffffffffffffffffffffffffffffffffff021916908373ffffffffffffffffffffffffffffffffffffffff1602179055505062000160565b600080fd5b600073ffffffffffffffffffffffffffffffffffffffff82169050919050565b6000620000f682620000c9565b9050919050565b6200010881620000e9565b81146200011457600080fd5b50565b6000815190506200012881620000fd565b92915050565b600060208284031215620001475762000146620000c4565b5b6000620001578482850162000117565b91505092915050565b611fab80620001706000396000f3fe608060405234801561001057600080fd5b506004361061009e5760003560e01c8063a87430ba11610066578063a87430ba14610157578063b5cb15f714610188578063ed1fd215146101a6578063f851a440146101c2578063ff5d32fe146101e05761009e565b80632199d5cd146100a35780635c60f226146100bf5780636f77926b146100db57806391b465c81461010b578063a54d22c714610127575b600080fd5b6100bd60048036038101906100b8919061157c565b610210565b005b6100d960048036038101906100d4919061157c565b6104c6565b005b6100f560048036038101906100f0919061157c565b6108b1565b60405161010291906116d0565b60405180910390f35b610125600480360381019061012091906116f2565b6109c2565b005b610141600480360381019061013c919061157c565b610f60565b60405161014e91906117a1565b60405180910390f35b610171600480360381019061016c919061157c565b610ffa565b60405161017f9291906117e1565b60405180910390f35b61019061103e565b60405161019d919061180a565b60405180910390f35b6101c060048036038101906101bb9190611851565b61104b565b005b6101ca611288565b6040516101d79190611891565b60405180910390f35b6101fa60048036038101906101f591906118ac565b6112ac565b60405161020791906116d0565b60405180910390f35b600073ffffffffffffffffffffffffffffffffffffffff16600360008373ffffffffffffffffffffffffffffffffffffffff1673ffffffffffffffffffffffffffffffffffffffff16815260200190815260200160002060010160009054906101000a900473ffffffffffffffffffffffffffffffffffffffff1673ffffffffffffffffffffffffffffffffffffffff16146102e1576040517f08c379a00000000000000000000000000000000000000000000000000000000081526004016102d890611936565b60405180910390fd5b6000600260008154809291906102f690611985565b91905055905060405180606001604052808281526020018373ffffffffffffffffffffffffffffffffffffffff168152602001600067ffffffffffffffff811115610344576103436119cd565b5b6040519080825280602002602001820160405280156103725781602001602082028036833780820191505090505b50815250600360008473ffffffffffffffffffffffffffffffffffffffff1673ffffffffffffffffffffffffffffffffffffffff1681526020019081526020016000206000820151816000015560208201518160010160006101000a81548173ffffffffffffffffffffffffffffffffffffffff021916908373ffffffffffffffffffffffffffffffffffffffff1602179055506040820151816002019080519060200190610422929190611448565b509050506004829080600181540180825580915050600190039060005260206000200160009091909190916101000a81548173ffffffffffffffffffffffffffffffffffffffff021916908373ffffffffffffffffffffffffffffffffffffffff1602179055507fb442efe467d2ef30e62927a3cae0afcbc799a8a0944d8a143332e4e5e51cee5d81836040516104ba9291906117e1565b60405180910390a15050565b60008054906101000a900473ffffffffffffffffffffffffffffffffffffffff1673ffffffffffffffffffffffffffffffffffffffff163373ffffffffffffffffffffffffffffffffffffffff1614610554576040517f08c379a000000000000000000000000000000000000000000000000000000000815260040161054b90611a6e565b60405180910390fd5b600073ffffffffffffffffffffffffffffffffffffffff16600360008373ffffffffffffffffffffffffffffffffffffffff1673ffffffffffffffffffffffffffffffffffffffff16815260200190815260200160002060010160009054906101000a900473ffffffffffffffffffffffffffffffffffffffff1673ffffffffffffffffffffffffffffffffffffffff1603610625576040517f08c379a000000000000000000000000000000000000000000000000000000000815260040161061c90611ada565b60405180910390fd5b6000600360008373ffffffffffffffffffffffffffffffffffffffff1673ffffffffffffffffffffffffffffffffffffffff168152602001908152602001600020600001549050600360008373ffffffffffffffffffffffffffffffffffffffff1673ffffffffffffffffffffffffffffffffffffffff1681526020019081526020016000206000808201600090556001820160006101000a81549073ffffffffffffffffffffffffffffffffffffffff02191690556002820160006106eb9190611495565b505060005b600480549050811015610873578273ffffffffffffffffffffffffffffffffffffffff166004828154811061072857610727611afa565b5b9060005260206000200160009054906101000a900473ffffffffffffffffffffffffffffffffffffffff1673ffffffffffffffffffffffffffffffffffffffff160361086657600460016004805490506107829190611b29565b8154811061079357610792611afa565b5b9060005260206000200160009054906101000a900473ffffffffffffffffffffffffffffffffffffffff16600482815481106107d2576107d1611afa565b5b9060005260206000200160006101000a81548173ffffffffffffffffffffffffffffffffffffffff021916908373ffffffffffffffffffffffffffffffffffffffff160217905550600480548061082c5761082b611b5d565b5b6001900381819060005260206000200160006101000a81549073ffffffffffffffffffffffffffffffffffffffff02191690559055610873565b80806001019150506106f0565b507fd9c9eba630c5551d8a23cca3a0a6f0b502da672e36c547bf68e4047b8ca886b281836040516108a59291906117e1565b60405180910390a15050565b6108b96114b6565b600360008373ffffffffffffffffffffffffffffffffffffffff1673ffffffffffffffffffffffffffffffffffffffff168152602001908152602001600020604051806060016040529081600082015481526020016001820160009054906101000a900473ffffffffffffffffffffffffffffffffffffffff1673ffffffffffffffffffffffffffffffffffffffff1673ffffffffffffffffffffffffffffffffffffffff168152602001600282018054806020026020016040519081016040528092919081815260200182805480156109b257602002820191906000526020600020905b81548152602001906001019080831161099e575b5050505050815250509050919050565b60008054906101000a900473ffffffffffffffffffffffffffffffffffffffff1673ffffffffffffffffffffffffffffffffffffffff163373ffffffffffffffffffffffffffffffffffffffff1614610a50576040517f08c379a0000000000000000000000000000000000000000000000000000000008152600401610a4790611a6e565b60405180910390fd5b600073ffffffffffffffffffffffffffffffffffffffff16600360008473ffffffffffffffffffffffffffffffffffffffff1673ffffffffffffffffffffffffffffffffffffffff16815260200190815260200160002060010160009054906101000a900473ffffffffffffffffffffffffffffffffffffffff1673ffffffffffffffffffffffffffffffffffffffff1603610b21576040517f08c379a0000000000000000000000000000000000000000000000000000000008152600401610b1890611ada565b60405180910390fd5b600073ffffffffffffffffffffffffffffffffffffffff16600360008373ffffffffffffffffffffffffffffffffffffffff1673ffffffffffffffffffffffffffffffffffffffff16815260200190815260200160002060010160009054906101000a900473ffffffffffffffffffffffffffffffffffffffff1673ffffffffffffffffffffffffffffffffffffffff1614610bf2576040517f08c379a0000000000000000000000000000000000000000000000000000000008152600401610be990611bfe565b60405180910390fd5b6000600360008473ffffffffffffffffffffffffffffffffffffffff1673ffffffffffffffffffffffffffffffffffffffff1681526020019081526020016000206000015490506000600360008573ffffffffffffffffffffffffffffffffffffffff1673ffffffffffffffffffffffffffffffffffffffff168152602001908152602001600020600201805480602002602001604051908101604052809291908181526020018280548015610cc757602002820191906000526020600020905b815481526020019060010190808311610cb3575b50505050509050600360008573ffffffffffffffffffffffffffffffffffffffff1673ffffffffffffffffffffffffffffffffffffffff1681526020019081526020016000206000808201600090556001820160006101000a81549073ffffffffffffffffffffffffffffffffffffffff0219169055600282016000610d4d9190611495565b505060405180606001604052808381526020018473ffffffffffffffffffffffffffffffffffffffff16815260200182815250600360008573ffffffffffffffffffffffffffffffffffffffff1673ffffffffffffffffffffffffffffffffffffffff1681526020019081526020016000206000820151816000015560208201518160010160006101000a81548173ffffffffffffffffffffffffffffffffffffffff021916908373ffffffffffffffffffffffffffffffffffffffff1602179055506040820151816002019080519060200190610e2c929190611448565b5090505060005b600480549050811015610f20578473ffffffffffffffffffffffffffffffffffffffff1660048281548110610e6b57610e6a611afa565b5b9060005260206000200160009054906101000a900473ffffffffffffffffffffffffffffffffffffffff1673ffffffffffffffffffffffffffffffffffffffff1603610f13578360048281548110610ec657610ec5611afa565b5b9060005260206000200160006101000a81548173ffffffffffffffffffffffffffffffffffffffff021916908373ffffffffffffffffffffffffffffffffffffffff160217905550610f20565b8080600101915050610e33565b507f5bc939bb7dd6c80b6aeb2c59be4653b82f02df6dd62ea2a69b49e961669d8aa18284604051610f529291906117e1565b60405180910390a150505050565b6060600360008373ffffffffffffffffffffffffffffffffffffffff1673ffffffffffffffffffffffffffffffffffffffff168152602001908152602001600020600201805480602002602001604051908101604052809291908181526020018280548015610fee57602002820191906000526020600020905b815481526020019060010190808311610fda575b50505050509050919050565b60036020528060005260406000206000915090508060000154908060010160009054906101000a900473ffffffffffffffffffffffffffffffffffffffff16905082565b6000600480549050905090565b600073ffffffffffffffffffffffffffffffffffffffff16600360008473ffffffffffffffffffffffffffffffffffffffff1673ffffffffffffffffffffffffffffffffffffffff16815260200190815260200160002060010160009054906101000a900473ffffffffffffffffffffffffffffffffffffffff1673ffffffffffffffffffffffffffffffffffffffff16036110eb576110ea82610210565b5b6000600360008473ffffffffffffffffffffffffffffffffffffffff1673ffffffffffffffffffffffffffffffffffffffff16815260200190815260200160002090506000600160009054906101000a900473ffffffffffffffffffffffffffffffffffffffff1673ffffffffffffffffffffffffffffffffffffffff166349f86f34846040518263ffffffff1660e01b815260040161118b919061180a565b600060405180830381865afa1580156111a8573d6000803e3d6000fd5b505050506040513d6000823e3d601f19601f820116820180604052508101906111d19190611e2b565b9050600081600001510361121a576040517f08c379a000000000000000000000000000000000000000000000000000000000815260040161121190611ec0565b60405180910390fd5b816002018390806001815401808255809150506001900390600052602060002001600090919091909150557f8510be6e86ab3796274ff59e375d9774e39d3279ed82492fee0ab90a0a3070a882600001548460405161127a929190611ee0565b60405180910390a150505050565b60008054906101000a900473ffffffffffffffffffffffffffffffffffffffff1681565b6112b46114b6565b60048054905082106112fb576040517f08c379a00000000000000000000000000000000000000000000000000000000081526004016112f290611f55565b60405180910390fd5b60006004838154811061131157611310611afa565b5b9060005260206000200160009054906101000a900473ffffffffffffffffffffffffffffffffffffffff169050600360008273ffffffffffffffffffffffffffffffffffffffff1673ffffffffffffffffffffffffffffffffffffffff168152602001908152602001600020604051806060016040529081600082015481526020016001820160009054906101000a900473ffffffffffffffffffffffffffffffffffffffff1673ffffffffffffffffffffffffffffffffffffffff1673ffffffffffffffffffffffffffffffffffffffff1681526020016002820180548060200260200160405190810160405280929190818152602001828054801561143757602002820191906000526020600020905b815481526020019060010190808311611423575b505050505081525050915050919050565b828054828255906000526020600020908101928215611484579160200282015b82811115611483578251825591602001919060010190611468565b5b50905061149191906114ed565b5090565b50805460008255906000526020600020908101906114b391906114ed565b50565b604051806060016040528060008152602001600073ffffffffffffffffffffffffffffffffffffffff168152602001606081525090565b5b808211156115065760008160009055506001016114ee565b5090565b6000604051905090565b600080fd5b600080fd5b600073ffffffffffffffffffffffffffffffffffffffff82169050919050565b60006115498261151e565b9050919050565b6115598161153e565b811461156457600080fd5b50565b60008135905061157681611550565b92915050565b60006020828403121561159257611591611514565b5b60006115a084828501611567565b91505092915050565b6000819050919050565b6115bc816115a9565b82525050565b6115cb8161153e565b82525050565b600081519050919050565b600082825260208201905092915050565b6000819050602082019050919050565b600061160983836115b3565b60208301905092915050565b6000602082019050919050565b600061162d826115d1565b61163781856115dc565b9350611642836115ed565b8060005b8381101561167357815161165a88826115fd565b975061166583611615565b925050600181019050611646565b5085935050505092915050565b600060608301600083015161169860008601826115b3565b5060208301516116ab60208601826115c2565b50604083015184820360408601526116c38282611622565b9150508091505092915050565b600060208201905081810360008301526116ea8184611680565b905092915050565b6000806040838503121561170957611708611514565b5b600061171785828601611567565b925050602061172885828601611567565b9150509250929050565b600082825260208201905092915050565b600061174e826115d1565b6117588185611732565b9350611763836115ed565b8060005b8381101561179457815161177b88826115fd565b975061178683611615565b925050600181019050611767565b5085935050505092915050565b600060208201905081810360008301526117bb8184611743565b905092915050565b6117cc816115a9565b82525050565b6117db8161153e565b82525050565b60006040820190506117f660008301856117c3565b61180360208301846117d2565b9392505050565b600060208201905061181f60008301846117c3565b92915050565b61182e816115a9565b811461183957600080fd5b50565b60008135905061184b81611825565b92915050565b6000806040838503121561186857611867611514565b5b600061187685828601611567565b92505060206118878582860161183c565b9150509250929050565b60006020820190506118a660008301846117d2565b92915050565b6000602082840312156118c2576118c1611514565b5b60006118d08482850161183c565b91505092915050565b600082825260208201905092915050565b7f5573657220616c72656164792072656769737465726564000000000000000000600082015250565b60006119206017836118d9565b915061192b826118ea565b602082019050919050565b6000602082019050818103600083015261194f81611913565b9050919050565b7f4e487b7100000000000000000000000000000000000000000000000000000000600052601160045260246000fd5b6000611990826115a9565b91507fffffffffffffffffffffffffffffffffffffffffffffffffffffffffffffffff82036119c2576119c1611956565b5b600182019050919050565b7f4e487b7100000000000000000000000000000000000000000000000000000000600052604160045260246000fd5b7f4f6e6c792061646d696e2063616e20706572666f726d2074686973206163746960008201527f6f6e000000000000000000000000000000000000000000000000000000000000602082015250565b6000611a586022836118d9565b9150611a63826119fc565b604082019050919050565b60006020820190508181036000830152611a8781611a4b565b9050919050565b7f55736572206e6f74207265676973746572656400000000000000000000000000600082015250565b6000611ac46013836118d9565b9150611acf82611a8e565b602082019050919050565b60006020820190508181036000830152611af381611ab7565b9050919050565b7f4e487b7100000000000000000000000000000000000000000000000000000000600052603260045260246000fd5b6000611b34826115a9565b9150611b3f836115a9565b9250828203905081811115611b5757611b56611956565b5b92915050565b7f4e487b7100000000000000000000000000000000000000000000000000000000600052603160045260246000fd5b7f4e65772077616c6c6574206164647265737320616c726561647920726567697360008201527f7465726564000000000000000000000000000000000000000000000000000000602082015250565b6000611be86025836118d9565b9150611bf382611b8c565b604082019050919050565b60006020820190508181036000830152611c1781611bdb565b9050919050565b600080fd5b6000601f19601f8301169050919050565b611c3d82611c23565b810181811067ffffffffffffffff82111715611c5c57611c5b6119cd565b5b80604052505050565b6000611c6f61150a565b9050611c7b8282611c34565b919050565b600080fd5b600081519050611c9481611825565b92915050565b600080fd5b600080fd5b600067ffffffffffffffff821115611cbf57611cbe6119cd565b5b611cc882611c23565b9050602081019050919050565b60005b83811015611cf3578082015181840152602081019050611cd8565b60008484015250505050565b6000611d12611d0d84611ca4565b611c65565b905082815260208101848484011115611d2e57611d2d611c9f565b5b611d39848285611cd5565b509392505050565b600082601f830112611d5657611d55611c9a565b5b8151611d66848260208601611cff565b91505092915050565b600060c08284031215611d8557611d84611c1e565b5b611d8f60c0611c65565b90506000611d9f84828501611c85565b6000830152506020611db384828501611c85565b6020830152506040611dc784828501611c85565b6040830152506060611ddb84828501611c85565b6060830152506080611def84828501611c85565b60808301525060a082015167ffffffffffffffff811115611e1357611e12611c80565b5b611e1f84828501611d41565b60a08301525092915050565b600060208284031215611e4157611e40611514565b5b600082015167ffffffffffffffff811115611e5f57611e5e611519565b5b611e6b84828501611d6f565b91505092915050565b7f517565737420646f6573206e6f74206578697374000000000000000000000000600082015250565b6000611eaa6014836118d9565b9150611eb582611e74565b602082019050919050565b60006020820190508181036000830152611ed981611e9d565b9050919050565b6000604082019050611ef560008301856117c3565b611f0260208301846117c3565b9392505050565b7f496e646578206f7574206f6620626f756e647300000000000000000000000000600082015250565b6000611f3f6013836118d9565b9150611f4a82611f09565b602082019050919050565b60006020820190508181036000830152611f6e81611f32565b905091905056fea264697066735822122070b21a5a9f0f5eeeba8877b4254764a251e2004fc246edce950f17c3ecd35a6364736f6c63430008170033",
  "linkReferences": {},
  "deployedLinkReferences": {}
}