{
  "_format": "hh-sol-artifact-1",
  "contractName": "Users",
  "sourceName": "contracts/Users.sol",
  "abi": [
    {
      "inputs": [
        {
          "internalType": "address",
          "name": "wallet",
          "type": "address"
        },
        {
          "internalType": "string",
          "name": "role",
          "type": "string"
        }
      ],
      "name": "createUser",
      "outputs": [
        {
          "internalType": "uint256",
          "name": "",
          "type": "uint256"
        }
      ],
      "stateMutability": "nonpayable",
      "type": "function"
    },
    {
      "inputs": [
        {
          "internalType": "uint256",
          "name": "userId",
          "type": "uint256"
        }
      ],
      "name": "deleteUser",
      "outputs": [],
      "stateMutability": "nonpayable",
      "type": "function"
    },
    {
      "inputs": [
        {
          "internalType": "uint256",
          "name": "index",
          "type": "uint256"
        }
      ],
      "name": "getUserByIndex",
      "outputs": [
        {
          "components": [
            {
              "internalType": "uint256",
              "name": "userId",
              "type": "uint256"
            },
            {
              "internalType": "address",
              "name": "wallet",
              "type": "address"
            },
            {
              "internalType": "string",
              "name": "role",
              "type": "string"
            }
          ],
          "internalType": "struct Users.User",
          "name": "",
          "type": "tuple"
        }
      ],
      "stateMutability": "view",
      "type": "function"
    },
    {
      "inputs": [],
      "name": "getUserCount",
      "outputs": [
        {
          "internalType": "uint256",
          "name": "",
          "type": "uint256"
        }
      ],
      "stateMutability": "view",
      "type": "function"
    },
    {
      "inputs": [
        {
          "internalType": "address",
          "name": "wallet",
          "type": "address"
        }
      ],
      "name": "getUserIdByWallet",
      "outputs": [
        {
          "internalType": "uint256",
          "name": "",
          "type": "uint256"
        }
      ],
      "stateMutability": "view",
      "type": "function"
    },
    {
      "inputs": [],
      "name": "listUsers",
      "outputs": [
        {
          "components": [
            {
              "internalType": "uint256",
              "name": "userId",
              "type": "uint256"
            },
            {
              "internalType": "address",
              "name": "wallet",
              "type": "address"
            },
            {
              "internalType": "string",
              "name": "role",
              "type": "string"
            }
          ],
          "internalType": "struct Users.User[]",
          "name": "",
          "type": "tuple[]"
        }
      ],
      "stateMutability": "view",
      "type": "function"
    },
    {
      "inputs": [
        {
          "internalType": "uint256",
          "name": "userId",
          "type": "uint256"
        }
      ],
      "name": "readUser",
      "outputs": [
        {
          "components": [
            {
              "internalType": "uint256",
              "name": "userId",
              "type": "uint256"
            },
            {
              "internalType": "address",
              "name": "wallet",
              "type": "address"
            },
            {
              "internalType": "string",
              "name": "role",
              "type": "string"
            }
          ],
          "internalType": "struct Users.User",
          "name": "",
          "type": "tuple"
        }
      ],
      "stateMutability": "view",
      "type": "function"
    },
    {
      "inputs": [
        {
          "internalType": "uint256",
          "name": "userId",
          "type": "uint256"
        },
        {
          "internalType": "address",
          "name": "wallet",
          "type": "address"
        },
        {
          "internalType": "string",
          "name": "role",
          "type": "string"
        }
      ],
      "name": "updateUser",
      "outputs": [],
      "stateMutability": "nonpayable",
      "type": "function"
    },
    {
      "inputs": [
        {
          "internalType": "uint256",
          "name": "",
          "type": "uint256"
        }
      ],
      "name": "users",
      "outputs": [
        {
          "internalType": "uint256",
          "name": "userId",
          "type": "uint256"
        },
        {
          "internalType": "address",
          "name": "wallet",
          "type": "address"
        },
        {
          "internalType": "string",
          "name": "role",
          "type": "string"
        }
      ],
      "stateMutability": "view",
      "type": "function"
    }
  ],
  "bytecode": "0x608060405234801561001057600080fd5b50611730806100206000396000f3fe608060405234801561001057600080fd5b50600436106100935760003560e01c80634167f53a116100665780634167f53a146101465780638ad257b714610162578063b5cb15f714610180578063f9bcd5451461019e578063ff5d32fe146101ce57610093565b80630d70e5d014610098578063365b98b2146100c857806338f14845146100fa5780633b529df414610116575b600080fd5b6100b260048036038101906100ad9190610cd1565b6101fe565b6040516100bf9190610e2e565b60405180910390f35b6100e260048036038101906100dd9190610cd1565b610374565b6040516100f193929190610eb8565b60405180910390f35b610114600480360381019061010f9190610cd1565b610446565b005b610130600480360381019061012b9190610f22565b61056d565b60405161013d9190610f4f565b60405180910390f35b610160600480360381019061015b919061109f565b610637565b005b61016a610733565b6040516101779190611220565b60405180910390f35b610188610915565b6040516101959190610f4f565b60405180910390f35b6101b860048036038101906101b39190611242565b61091f565b6040516101c59190610f4f565b60405180910390f35b6101e860048036038101906101e39190610cd1565b610a3b565b6040516101f59190610e2e565b60405180910390f35b610206610bf3565b6000806000848152602001908152602001600020600001540361025e576040517f08c379a0000000000000000000000000000000000000000000000000000000008152600401610255906112ea565b60405180910390fd5b600080838152602001908152602001600020604051806060016040529081600082015481526020016001820160009054906101000a900473ffffffffffffffffffffffffffffffffffffffff1673ffffffffffffffffffffffffffffffffffffffff1673ffffffffffffffffffffffffffffffffffffffff1681526020016002820180546102eb90611339565b80601f016020809104026020016040519081016040528092919081815260200182805461031790611339565b80156103645780601f1061033957610100808354040283529160200191610364565b820191906000526020600020905b81548152906001019060200180831161034757829003601f168201915b5050505050815250509050919050565b60006020528060005260406000206000915090508060000154908060010160009054906101000a900473ffffffffffffffffffffffffffffffffffffffff16908060020180546103c390611339565b80601f01602080910402602001604051908101604052809291908181526020018280546103ef90611339565b801561043c5780601f106104115761010080835404028352916020019161043c565b820191906000526020600020905b81548152906001019060200180831161041f57829003601f168201915b5050505050905083565b6000806000838152602001908152602001600020600001540361049e576040517f08c379a0000000000000000000000000000000000000000000000000000000008152600401610495906112ea565b60405180910390fd5b6001600080600084815260200190815260200160002060010160009054906101000a900473ffffffffffffffffffffffffffffffffffffffff1673ffffffffffffffffffffffffffffffffffffffff1673ffffffffffffffffffffffffffffffffffffffff168152602001908152602001600020600090556000808281526020019081526020016000206000808201600090556001820160006101000a81549073ffffffffffffffffffffffffffffffffffffffff02191690556002820160006105689190610c2a565b505050565b600080600160008473ffffffffffffffffffffffffffffffffffffffff1673ffffffffffffffffffffffffffffffffffffffff16815260200190815260200160002054036105f0576040517f08c379a00000000000000000000000000000000000000000000000000000000081526004016105e7906112ea565b60405180910390fd5b600160008373ffffffffffffffffffffffffffffffffffffffff1673ffffffffffffffffffffffffffffffffffffffff168152602001908152602001600020549050919050565b600080600085815260200190815260200160002090506000816000015403610694576040517f08c379a000000000000000000000000000000000000000000000000000000000815260040161068b906112ea565b60405180910390fd5b828160010160006101000a81548173ffffffffffffffffffffffffffffffffffffffff021916908373ffffffffffffffffffffffffffffffffffffffff160217905550818160020190816106e89190611516565b5083600160008573ffffffffffffffffffffffffffffffffffffffff1673ffffffffffffffffffffffffffffffffffffffff1681526020019081526020016000208190555050505050565b6060600060025467ffffffffffffffff81111561075357610752610f74565b5b60405190808252806020026020018201604052801561078c57816020015b610779610bf3565b8152602001906001900390816107715790505b509050600080600190505b600254811161090c57600080600083815260200190815260200160002060000154146108f957600080828152602001908152602001600020604051806060016040529081600082015481526020016001820160009054906101000a900473ffffffffffffffffffffffffffffffffffffffff1673ffffffffffffffffffffffffffffffffffffffff1673ffffffffffffffffffffffffffffffffffffffff16815260200160028201805461084a90611339565b80601f016020809104026020016040519081016040528092919081815260200182805461087690611339565b80156108c35780601f10610898576101008083540402835291602001916108c3565b820191906000526020600020905b8154815290600101906020018083116108a657829003601f168201915b5050505050815250508383815181106108df576108de6115e8565b5b602002602001018190525081806108f590611646565b9250505b808061090490611646565b915050610797565b50819250505090565b6000600254905090565b60006002600081548092919061093490611646565b9190505550604051806060016040528060025481526020018473ffffffffffffffffffffffffffffffffffffffff1681526020018381525060008060025481526020019081526020016000206000820151816000015560208201518160010160006101000a81548173ffffffffffffffffffffffffffffffffffffffff021916908373ffffffffffffffffffffffffffffffffffffffff16021790555060408201518160020190816109e69190611516565b50905050600254600160008573ffffffffffffffffffffffffffffffffffffffff1673ffffffffffffffffffffffffffffffffffffffff16815260200190815260200160002081905550600254905092915050565b610a43610bf3565b600080600190505b6002548111610bb25760008060008381526020019081526020016000206000015414610b9f57838203610b9057600080828152602001908152602001600020604051806060016040529081600082015481526020016001820160009054906101000a900473ffffffffffffffffffffffffffffffffffffffff1673ffffffffffffffffffffffffffffffffffffffff1673ffffffffffffffffffffffffffffffffffffffff168152602001600282018054610b0590611339565b80601f0160208091040260200160405190810160405280929190818152602001828054610b3190611339565b8015610b7e5780601f10610b5357610100808354040283529160200191610b7e565b820191906000526020600020905b815481529060010190602001808311610b6157829003601f168201915b50505050508152505092505050610bee565b8180610b9b90611646565b9250505b8080610baa90611646565b915050610a4b565b506040517f08c379a0000000000000000000000000000000000000000000000000000000008152600401610be5906116da565b60405180910390fd5b919050565b604051806060016040528060008152602001600073ffffffffffffffffffffffffffffffffffffffff168152602001606081525090565b508054610c3690611339565b6000825580601f10610c485750610c67565b601f016020900490600052602060002090810190610c669190610c6a565b5b50565b5b80821115610c83576000816000905550600101610c6b565b5090565b6000604051905090565b600080fd5b600080fd5b6000819050919050565b610cae81610c9b565b8114610cb957600080fd5b50565b600081359050610ccb81610ca5565b92915050565b600060208284031215610ce757610ce6610c91565b5b6000610cf584828501610cbc565b91505092915050565b610d0781610c9b565b82525050565b600073ffffffffffffffffffffffffffffffffffffffff82169050919050565b6000610d3882610d0d565b9050919050565b610d4881610d2d565b82525050565b600081519050919050565b600082825260208201905092915050565b60005b83811015610d88578082015181840152602081019050610d6d565b60008484015250505050565b6000601f19601f8301169050919050565b6000610db082610d4e565b610dba8185610d59565b9350610dca818560208601610d6a565b610dd381610d94565b840191505092915050565b6000606083016000830151610df66000860182610cfe565b506020830151610e096020860182610d3f565b5060408301518482036040860152610e218282610da5565b9150508091505092915050565b60006020820190508181036000830152610e488184610dde565b905092915050565b610e5981610c9b565b82525050565b610e6881610d2d565b82525050565b600082825260208201905092915050565b6000610e8a82610d4e565b610e948185610e6e565b9350610ea4818560208601610d6a565b610ead81610d94565b840191505092915050565b6000606082019050610ecd6000830186610e50565b610eda6020830185610e5f565b8181036040830152610eec8184610e7f565b9050949350505050565b610eff81610d2d565b8114610f0a57600080fd5b50565b600081359050610f1c81610ef6565b92915050565b600060208284031215610f3857610f37610c91565b5b6000610f4684828501610f0d565b91505092915050565b6000602082019050610f646000830184610e50565b92915050565b600080fd5b600080fd5b7f4e487b7100000000000000000000000000000000000000000000000000000000600052604160045260246000fd5b610fac82610d94565b810181811067ffffffffffffffff82111715610fcb57610fca610f74565b5b80604052505050565b6000610fde610c87565b9050610fea8282610fa3565b919050565b600067ffffffffffffffff82111561100a57611009610f74565b5b61101382610d94565b9050602081019050919050565b82818337600083830152505050565b600061104261103d84610fef565b610fd4565b90508281526020810184848401111561105e5761105d610f6f565b5b611069848285611020565b509392505050565b600082601f83011261108657611085610f6a565b5b813561109684826020860161102f565b91505092915050565b6000806000606084860312156110b8576110b7610c91565b5b60006110c686828701610cbc565b93505060206110d786828701610f0d565b925050604084013567ffffffffffffffff8111156110f8576110f7610c96565b5b61110486828701611071565b9150509250925092565b600081519050919050565b600082825260208201905092915050565b6000819050602082019050919050565b60006060830160008301516111526000860182610cfe565b5060208301516111656020860182610d3f565b506040830151848203604086015261117d8282610da5565b9150508091505092915050565b6000611196838361113a565b905092915050565b6000602082019050919050565b60006111b68261110e565b6111c08185611119565b9350836020820285016111d28561112a565b8060005b8581101561120e57848403895281516111ef858261118a565b94506111fa8361119e565b925060208a019950506001810190506111d6565b50829750879550505050505092915050565b6000602082019050818103600083015261123a81846111ab565b905092915050565b6000806040838503121561125957611258610c91565b5b600061126785828601610f0d565b925050602083013567ffffffffffffffff81111561128857611287610c96565b5b61129485828601611071565b9150509250929050565b7f5573657220646f6573206e6f7420657869737400000000000000000000000000600082015250565b60006112d4601383610e6e565b91506112df8261129e565b602082019050919050565b60006020820190508181036000830152611303816112c7565b9050919050565b7f4e487b7100000000000000000000000000000000000000000000000000000000600052602260045260246000fd5b6000600282049050600182168061135157607f821691505b6020821081036113645761136361130a565b5b50919050565b60008190508160005260206000209050919050565b60006020601f8301049050919050565b600082821b905092915050565b6000600883026113cc7fffffffffffffffffffffffffffffffffffffffffffffffffffffffffffffffff8261138f565b6113d6868361138f565b95508019841693508086168417925050509392505050565b6000819050919050565b600061141361140e61140984610c9b565b6113ee565b610c9b565b9050919050565b6000819050919050565b61142d836113f8565b6114416114398261141a565b84845461139c565b825550505050565b600090565b611456611449565b611461818484611424565b505050565b5b818110156114855761147a60008261144e565b600181019050611467565b5050565b601f8211156114ca5761149b8161136a565b6114a48461137f565b810160208510156114b3578190505b6114c76114bf8561137f565b830182611466565b50505b505050565b600082821c905092915050565b60006114ed600019846008026114cf565b1980831691505092915050565b600061150683836114dc565b9150826002028217905092915050565b61151f82610d4e565b67ffffffffffffffff81111561153857611537610f74565b5b6115428254611339565b61154d828285611489565b600060209050601f831160018114611580576000841561156e578287015190505b61157885826114fa565b8655506115e0565b601f19841661158e8661136a565b60005b828110156115b657848901518255600182019150602085019450602081019050611591565b868310156115d357848901516115cf601f8916826114dc565b8355505b6001600288020188555050505b505050505050565b7f4e487b7100000000000000000000000000000000000000000000000000000000600052603260045260246000fd5b7f4e487b7100000000000000000000000000000000000000000000000000000000600052601160045260246000fd5b600061165182610c9b565b91507fffffffffffffffffffffffffffffffffffffffffffffffffffffffffffffffff820361168357611682611617565b5b600182019050919050565b7f496e646578206f7574206f6620626f756e647300000000000000000000000000600082015250565b60006116c4601383610e6e565b91506116cf8261168e565b602082019050919050565b600060208201905081810360008301526116f3816116b7565b905091905056fea2646970667358221220331524cdf97d441631e3b51524612b0ef202a4d1dcb92cbf8beb823c900fcbd764736f6c63430008170033",
  "linkReferences": {},
  "deployedLinkReferences": {}
}