{
  "_format": "hh-sol-artifact-1",
  "contractName": "Users",
  "sourceName": "contracts/Users.sol",
  "abi": [
    {
      "inputs": [
        {
          "internalType": "address",
          "name": "wallet",
          "type": "address"
        },
        {
          "internalType": "string",
          "name": "role",
          "type": "string"
        }
      ],
      "name": "createUser",
      "outputs": [
        {
          "internalType": "uint256",
          "name": "",
          "type": "uint256"
        }
      ],
      "stateMutability": "nonpayable",
      "type": "function"
    },
    {
      "inputs": [
        {
          "internalType": "uint256",
          "name": "userId",
          "type": "uint256"
        }
      ],
      "name": "deleteUser",
      "outputs": [],
      "stateMutability": "nonpayable",
      "type": "function"
    },
    {
      "inputs": [
        {
          "internalType": "uint256",
          "name": "index",
          "type": "uint256"
        }
      ],
      "name": "getUserByIndex",
      "outputs": [
        {
          "components": [
            {
              "internalType": "uint256",
              "name": "userId",
              "type": "uint256"
            },
            {
              "internalType": "address",
              "name": "wallet",
              "type": "address"
            },
            {
              "internalType": "string",
              "name": "role",
              "type": "string"
            }
          ],
          "internalType": "struct Users.User",
          "name": "",
          "type": "tuple"
        }
      ],
      "stateMutability": "view",
      "type": "function"
    },
    {
      "inputs": [],
      "name": "getUserCount",
      "outputs": [
        {
          "internalType": "uint256",
          "name": "",
          "type": "uint256"
        }
      ],
      "stateMutability": "view",
      "type": "function"
    },
    {
      "inputs": [],
      "name": "listUsers",
      "outputs": [
        {
          "components": [
            {
              "internalType": "uint256",
              "name": "userId",
              "type": "uint256"
            },
            {
              "internalType": "address",
              "name": "wallet",
              "type": "address"
            },
            {
              "internalType": "string",
              "name": "role",
              "type": "string"
            }
          ],
          "internalType": "struct Users.User[]",
          "name": "",
          "type": "tuple[]"
        }
      ],
      "stateMutability": "view",
      "type": "function"
    },
    {
      "inputs": [
        {
          "internalType": "uint256",
          "name": "userId",
          "type": "uint256"
        }
      ],
      "name": "readUser",
      "outputs": [
        {
          "components": [
            {
              "internalType": "uint256",
              "name": "userId",
              "type": "uint256"
            },
            {
              "internalType": "address",
              "name": "wallet",
              "type": "address"
            },
            {
              "internalType": "string",
              "name": "role",
              "type": "string"
            }
          ],
          "internalType": "struct Users.User",
          "name": "",
          "type": "tuple"
        }
      ],
      "stateMutability": "view",
      "type": "function"
    },
    {
      "inputs": [
        {
          "internalType": "uint256",
          "name": "userId",
          "type": "uint256"
        },
        {
          "internalType": "address",
          "name": "wallet",
          "type": "address"
        },
        {
          "internalType": "string",
          "name": "role",
          "type": "string"
        }
      ],
      "name": "updateUser",
      "outputs": [],
      "stateMutability": "nonpayable",
      "type": "function"
    },
    {
      "inputs": [
        {
          "internalType": "uint256",
          "name": "",
          "type": "uint256"
        }
      ],
      "name": "users",
      "outputs": [
        {
          "internalType": "uint256",
          "name": "userId",
          "type": "uint256"
        },
        {
          "internalType": "address",
          "name": "wallet",
          "type": "address"
        },
        {
          "internalType": "string",
          "name": "role",
          "type": "string"
        }
      ],
      "stateMutability": "view",
      "type": "function"
    }
  ],
  "bytecode": "0x608060405234801561001057600080fd5b506115a0806100206000396000f3fe608060405234801561001057600080fd5b50600436106100885760003560e01c80638ad257b71161005b5780638ad257b714610127578063b5cb15f714610145578063f9bcd54514610163578063ff5d32fe1461019357610088565b80630d70e5d01461008d578063365b98b2146100bd57806338f14845146100ef5780634167f53a1461010b575b600080fd5b6100a760048036038101906100a29190610b6e565b6101c3565b6040516100b49190610ccb565b60405180910390f35b6100d760048036038101906100d29190610b6e565b610339565b6040516100e693929190610d55565b60405180910390f35b61010960048036038101906101049190610b6e565b61040b565b005b61012560048036038101906101209190610ef4565b6104ba565b005b61012f610572565b60405161013c9190611075565b60405180910390f35b61014d6107a4565b60405161015a9190611097565b60405180910390f35b61017d600480360381019061017891906110b2565b610802565b60405161018a9190611097565b60405180910390f35b6101ad60048036038101906101a89190610b6e565b6108d8565b6040516101ba9190610ccb565b60405180910390f35b6101cb610a90565b60008060008481526020019081526020016000206000015403610223576040517f08c379a000000000000000000000000000000000000000000000000000000000815260040161021a9061115a565b60405180910390fd5b600080838152602001908152602001600020604051806060016040529081600082015481526020016001820160009054906101000a900473ffffffffffffffffffffffffffffffffffffffff1673ffffffffffffffffffffffffffffffffffffffff1673ffffffffffffffffffffffffffffffffffffffff1681526020016002820180546102b0906111a9565b80601f01602080910402602001604051908101604052809291908181526020018280546102dc906111a9565b80156103295780601f106102fe57610100808354040283529160200191610329565b820191906000526020600020905b81548152906001019060200180831161030c57829003601f168201915b5050505050815250509050919050565b60006020528060005260406000206000915090508060000154908060010160009054906101000a900473ffffffffffffffffffffffffffffffffffffffff1690806002018054610388906111a9565b80601f01602080910402602001604051908101604052809291908181526020018280546103b4906111a9565b80156104015780601f106103d657610100808354040283529160200191610401565b820191906000526020600020905b8154815290600101906020018083116103e457829003601f168201915b5050505050905083565b60008060008381526020019081526020016000206000015403610463576040517f08c379a000000000000000000000000000000000000000000000000000000000815260040161045a9061115a565b60405180910390fd5b6000808281526020019081526020016000206000808201600090556001820160006101000a81549073ffffffffffffffffffffffffffffffffffffffff02191690556002820160006104b59190610ac7565b505050565b600080600085815260200190815260200160002090506000816000015403610517576040517f08c379a000000000000000000000000000000000000000000000000000000000815260040161050e9061115a565b60405180910390fd5b828160010160006101000a81548173ffffffffffffffffffffffffffffffffffffffff021916908373ffffffffffffffffffffffffffffffffffffffff1602179055508181600201908161056b9190611386565b5050505050565b6060600080600190505b60015481116105c457600080600083815260200190815260200160002060000154146105b15781806105ad90611487565b9250505b80806105bc90611487565b91505061057c565b5060008167ffffffffffffffff8111156105e1576105e0610dc9565b5b60405190808252806020026020018201604052801561061a57816020015b610607610a90565b8152602001906001900390816105ff5790505b509050600080600190505b600154811161079a576000806000838152602001908152602001600020600001541461078757600080828152602001908152602001600020604051806060016040529081600082015481526020016001820160009054906101000a900473ffffffffffffffffffffffffffffffffffffffff1673ffffffffffffffffffffffffffffffffffffffff1673ffffffffffffffffffffffffffffffffffffffff1681526020016002820180546106d8906111a9565b80601f0160208091040260200160405190810160405280929190818152602001828054610704906111a9565b80156107515780601f1061072657610100808354040283529160200191610751565b820191906000526020600020905b81548152906001019060200180831161073457829003601f168201915b50505050508152505083838151811061076d5761076c6114cf565b5b6020026020010181905250818061078390611487565b9250505b808061079290611487565b915050610625565b5081935050505090565b600080600090506000600190505b60015481116107fa57600080600083815260200190815260200160002060000154146107e75781806107e390611487565b9250505b80806107f290611487565b9150506107b2565b508091505090565b60006001600081548092919061081790611487565b9190505550604051806060016040528060015481526020018473ffffffffffffffffffffffffffffffffffffffff1681526020018381525060008060015481526020019081526020016000206000820151816000015560208201518160010160006101000a81548173ffffffffffffffffffffffffffffffffffffffff021916908373ffffffffffffffffffffffffffffffffffffffff16021790555060408201518160020190816108c99190611386565b50905050600154905092915050565b6108e0610a90565b600080600190505b6001548111610a4f5760008060008381526020019081526020016000206000015414610a3c57838203610a2d57600080828152602001908152602001600020604051806060016040529081600082015481526020016001820160009054906101000a900473ffffffffffffffffffffffffffffffffffffffff1673ffffffffffffffffffffffffffffffffffffffff1673ffffffffffffffffffffffffffffffffffffffff1681526020016002820180546109a2906111a9565b80601f01602080910402602001604051908101604052809291908181526020018280546109ce906111a9565b8015610a1b5780601f106109f057610100808354040283529160200191610a1b565b820191906000526020600020905b8154815290600101906020018083116109fe57829003601f168201915b50505050508152505092505050610a8b565b8180610a3890611487565b9250505b8080610a4790611487565b9150506108e8565b506040517f08c379a0000000000000000000000000000000000000000000000000000000008152600401610a829061154a565b60405180910390fd5b919050565b604051806060016040528060008152602001600073ffffffffffffffffffffffffffffffffffffffff168152602001606081525090565b508054610ad3906111a9565b6000825580601f10610ae55750610b04565b601f016020900490600052602060002090810190610b039190610b07565b5b50565b5b80821115610b20576000816000905550600101610b08565b5090565b6000604051905090565b600080fd5b600080fd5b6000819050919050565b610b4b81610b38565b8114610b5657600080fd5b50565b600081359050610b6881610b42565b92915050565b600060208284031215610b8457610b83610b2e565b5b6000610b9284828501610b59565b91505092915050565b610ba481610b38565b82525050565b600073ffffffffffffffffffffffffffffffffffffffff82169050919050565b6000610bd582610baa565b9050919050565b610be581610bca565b82525050565b600081519050919050565b600082825260208201905092915050565b60005b83811015610c25578082015181840152602081019050610c0a565b60008484015250505050565b6000601f19601f8301169050919050565b6000610c4d82610beb565b610c578185610bf6565b9350610c67818560208601610c07565b610c7081610c31565b840191505092915050565b6000606083016000830151610c936000860182610b9b565b506020830151610ca66020860182610bdc565b5060408301518482036040860152610cbe8282610c42565b9150508091505092915050565b60006020820190508181036000830152610ce58184610c7b565b905092915050565b610cf681610b38565b82525050565b610d0581610bca565b82525050565b600082825260208201905092915050565b6000610d2782610beb565b610d318185610d0b565b9350610d41818560208601610c07565b610d4a81610c31565b840191505092915050565b6000606082019050610d6a6000830186610ced565b610d776020830185610cfc565b8181036040830152610d898184610d1c565b9050949350505050565b610d9c81610bca565b8114610da757600080fd5b50565b600081359050610db981610d93565b92915050565b600080fd5b600080fd5b7f4e487b7100000000000000000000000000000000000000000000000000000000600052604160045260246000fd5b610e0182610c31565b810181811067ffffffffffffffff82111715610e2057610e1f610dc9565b5b80604052505050565b6000610e33610b24565b9050610e3f8282610df8565b919050565b600067ffffffffffffffff821115610e5f57610e5e610dc9565b5b610e6882610c31565b9050602081019050919050565b82818337600083830152505050565b6000610e97610e9284610e44565b610e29565b905082815260208101848484011115610eb357610eb2610dc4565b5b610ebe848285610e75565b509392505050565b600082601f830112610edb57610eda610dbf565b5b8135610eeb848260208601610e84565b91505092915050565b600080600060608486031215610f0d57610f0c610b2e565b5b6000610f1b86828701610b59565b9350506020610f2c86828701610daa565b925050604084013567ffffffffffffffff811115610f4d57610f4c610b33565b5b610f5986828701610ec6565b9150509250925092565b600081519050919050565b600082825260208201905092915050565b6000819050602082019050919050565b6000606083016000830151610fa76000860182610b9b565b506020830151610fba6020860182610bdc565b5060408301518482036040860152610fd28282610c42565b9150508091505092915050565b6000610feb8383610f8f565b905092915050565b6000602082019050919050565b600061100b82610f63565b6110158185610f6e565b93508360208202850161102785610f7f565b8060005b8581101561106357848403895281516110448582610fdf565b945061104f83610ff3565b925060208a0199505060018101905061102b565b50829750879550505050505092915050565b6000602082019050818103600083015261108f8184611000565b905092915050565b60006020820190506110ac6000830184610ced565b92915050565b600080604083850312156110c9576110c8610b2e565b5b60006110d785828601610daa565b925050602083013567ffffffffffffffff8111156110f8576110f7610b33565b5b61110485828601610ec6565b9150509250929050565b7f5573657220646f6573206e6f7420657869737400000000000000000000000000600082015250565b6000611144601383610d0b565b915061114f8261110e565b602082019050919050565b6000602082019050818103600083015261117381611137565b9050919050565b7f4e487b7100000000000000000000000000000000000000000000000000000000600052602260045260246000fd5b600060028204905060018216806111c157607f821691505b6020821081036111d4576111d361117a565b5b50919050565b60008190508160005260206000209050919050565b60006020601f8301049050919050565b600082821b905092915050565b60006008830261123c7fffffffffffffffffffffffffffffffffffffffffffffffffffffffffffffffff826111ff565b61124686836111ff565b95508019841693508086168417925050509392505050565b6000819050919050565b600061128361127e61127984610b38565b61125e565b610b38565b9050919050565b6000819050919050565b61129d83611268565b6112b16112a98261128a565b84845461120c565b825550505050565b600090565b6112c66112b9565b6112d1818484611294565b505050565b5b818110156112f5576112ea6000826112be565b6001810190506112d7565b5050565b601f82111561133a5761130b816111da565b611314846111ef565b81016020851015611323578190505b61133761132f856111ef565b8301826112d6565b50505b505050565b600082821c905092915050565b600061135d6000198460080261133f565b1980831691505092915050565b6000611376838361134c565b9150826002028217905092915050565b61138f82610beb565b67ffffffffffffffff8111156113a8576113a7610dc9565b5b6113b282546111a9565b6113bd8282856112f9565b600060209050601f8311600181146113f057600084156113de578287015190505b6113e8858261136a565b865550611450565b601f1984166113fe866111da565b60005b8281101561142657848901518255600182019150602085019450602081019050611401565b86831015611443578489015161143f601f89168261134c565b8355505b6001600288020188555050505b505050505050565b7f4e487b7100000000000000000000000000000000000000000000000000000000600052601160045260246000fd5b600061149282610b38565b91507fffffffffffffffffffffffffffffffffffffffffffffffffffffffffffffffff82036114c4576114c3611458565b5b600182019050919050565b7f4e487b7100000000000000000000000000000000000000000000000000000000600052603260045260246000fd5b7f496e646578206f7574206f6620626f756e647300000000000000000000000000600082015250565b6000611534601383610d0b565b915061153f826114fe565b602082019050919050565b6000602082019050818103600083015261156381611527565b905091905056fea2646970667358221220640b096d276961f234eac847cc01648cab9bc84054ee5a8f40d480ffa70b2fcf64736f6c63430008170033",
  "linkReferences": {},
  "deployedLinkReferences": {}
}