{
  "_format": "hh-sol-artifact-1",
  "contractName": "UserQuestEvents",
  "sourceName": "contracts/UserQuestEvents.sol",
  "abi": [
    {
      "inputs": [
        {
          "internalType": "uint256",
          "name": "questEventId",
          "type": "uint256"
        },
        {
          "internalType": "uint256",
          "name": "userId",
          "type": "uint256"
        },
        {
          "internalType": "uint256",
          "name": "interactions",
          "type": "uint256"
        },
        {
          "internalType": "bool",
          "name": "validated",
          "type": "bool"
        },
        {
          "internalType": "string",
          "name": "url",
          "type": "string"
        },
        {
          "internalType": "bool",
          "name": "completed",
          "type": "bool"
        }
      ],
      "name": "createUserQuestEvent",
      "outputs": [
        {
          "internalType": "uint256",
          "name": "",
          "type": "uint256"
        }
      ],
      "stateMutability": "nonpayable",
      "type": "function"
    },
    {
      "inputs": [
        {
          "internalType": "uint256",
          "name": "userQuestEventId",
          "type": "uint256"
        }
      ],
      "name": "deleteUserQuestEvent",
      "outputs": [],
      "stateMutability": "nonpayable",
      "type": "function"
    },
    {
      "inputs": [
        {
          "internalType": "uint256",
          "name": "userId",
          "type": "uint256"
        }
      ],
      "name": "getQuestsForUser",
      "outputs": [
        {
          "components": [
            {
              "internalType": "uint256",
              "name": "userQuestEventId",
              "type": "uint256"
            },
            {
              "internalType": "uint256",
              "name": "questEventId",
              "type": "uint256"
            },
            {
              "internalType": "uint256",
              "name": "userId",
              "type": "uint256"
            },
            {
              "internalType": "uint256",
              "name": "interactions",
              "type": "uint256"
            },
            {
              "internalType": "bool",
              "name": "validated",
              "type": "bool"
            },
            {
              "internalType": "string",
              "name": "url",
              "type": "string"
            },
            {
              "internalType": "bool",
              "name": "completed",
              "type": "bool"
            }
          ],
          "internalType": "struct UserQuestEvents.UserQuestEvent[]",
          "name": "",
          "type": "tuple[]"
        }
      ],
      "stateMutability": "view",
      "type": "function"
    },
    {
      "inputs": [],
      "name": "getUserQuestEventCount",
      "outputs": [
        {
          "internalType": "uint256",
          "name": "",
          "type": "uint256"
        }
      ],
      "stateMutability": "view",
      "type": "function"
    },
    {
      "inputs": [
        {
          "internalType": "address",
          "name": "wallet",
          "type": "address"
        },
        {
          "internalType": "address",
          "name": "userContractAddress",
          "type": "address"
        }
      ],
      "name": "getUserQuestsByWallet",
      "outputs": [
        {
          "components": [
            {
              "internalType": "uint256",
              "name": "userQuestEventId",
              "type": "uint256"
            },
            {
              "internalType": "uint256",
              "name": "questEventId",
              "type": "uint256"
            },
            {
              "internalType": "uint256",
              "name": "userId",
              "type": "uint256"
            },
            {
              "internalType": "uint256",
              "name": "interactions",
              "type": "uint256"
            },
            {
              "internalType": "bool",
              "name": "validated",
              "type": "bool"
            },
            {
              "internalType": "string",
              "name": "url",
              "type": "string"
            },
            {
              "internalType": "bool",
              "name": "completed",
              "type": "bool"
            }
          ],
          "internalType": "struct UserQuestEvents.UserQuestEvent[]",
          "name": "",
          "type": "tuple[]"
        }
      ],
      "stateMutability": "view",
      "type": "function"
    },
    {
      "inputs": [],
      "name": "listUserQuestEvents",
      "outputs": [
        {
          "components": [
            {
              "internalType": "uint256",
              "name": "userQuestEventId",
              "type": "uint256"
            },
            {
              "internalType": "uint256",
              "name": "questEventId",
              "type": "uint256"
            },
            {
              "internalType": "uint256",
              "name": "userId",
              "type": "uint256"
            },
            {
              "internalType": "uint256",
              "name": "interactions",
              "type": "uint256"
            },
            {
              "internalType": "bool",
              "name": "validated",
              "type": "bool"
            },
            {
              "internalType": "string",
              "name": "url",
              "type": "string"
            },
            {
              "internalType": "bool",
              "name": "completed",
              "type": "bool"
            }
          ],
          "internalType": "struct UserQuestEvents.UserQuestEvent[]",
          "name": "",
          "type": "tuple[]"
        }
      ],
      "stateMutability": "view",
      "type": "function"
    },
    {
      "inputs": [
        {
          "internalType": "uint256",
          "name": "userQuestEventId",
          "type": "uint256"
        }
      ],
      "name": "readUserQuestEvent",
      "outputs": [
        {
          "components": [
            {
              "internalType": "uint256",
              "name": "userQuestEventId",
              "type": "uint256"
            },
            {
              "internalType": "uint256",
              "name": "questEventId",
              "type": "uint256"
            },
            {
              "internalType": "uint256",
              "name": "userId",
              "type": "uint256"
            },
            {
              "internalType": "uint256",
              "name": "interactions",
              "type": "uint256"
            },
            {
              "internalType": "bool",
              "name": "validated",
              "type": "bool"
            },
            {
              "internalType": "string",
              "name": "url",
              "type": "string"
            },
            {
              "internalType": "bool",
              "name": "completed",
              "type": "bool"
            }
          ],
          "internalType": "struct UserQuestEvents.UserQuestEvent",
          "name": "",
          "type": "tuple"
        }
      ],
      "stateMutability": "view",
      "type": "function"
    },
    {
      "inputs": [
        {
          "internalType": "uint256",
          "name": "userQuestEventId",
          "type": "uint256"
        },
        {
          "internalType": "uint256",
          "name": "questEventId",
          "type": "uint256"
        },
        {
          "internalType": "uint256",
          "name": "userId",
          "type": "uint256"
        },
        {
          "internalType": "uint256",
          "name": "interactions",
          "type": "uint256"
        },
        {
          "internalType": "bool",
          "name": "validated",
          "type": "bool"
        },
        {
          "internalType": "string",
          "name": "url",
          "type": "string"
        },
        {
          "internalType": "bool",
          "name": "completed",
          "type": "bool"
        }
      ],
      "name": "updateUserQuestEvent",
      "outputs": [],
      "stateMutability": "nonpayable",
      "type": "function"
    },
    {
      "inputs": [
        {
          "internalType": "uint256",
          "name": "",
          "type": "uint256"
        }
      ],
      "name": "userQuestEvents",
      "outputs": [
        {
          "internalType": "uint256",
          "name": "userQuestEventId",
          "type": "uint256"
        },
        {
          "internalType": "uint256",
          "name": "questEventId",
          "type": "uint256"
        },
        {
          "internalType": "uint256",
          "name": "userId",
          "type": "uint256"
        },
        {
          "internalType": "uint256",
          "name": "interactions",
          "type": "uint256"
        },
        {
          "internalType": "bool",
          "name": "validated",
          "type": "bool"
        },
        {
          "internalType": "string",
          "name": "url",
          "type": "string"
        },
        {
          "internalType": "bool",
          "name": "completed",
          "type": "bool"
        }
      ],
      "stateMutability": "view",
      "type": "function"
    }
  ],
  "bytecode": "0x608060405234801561001057600080fd5b506118d0806100206000396000f3fe608060405234801561001057600080fd5b50600436106100935760003560e01c80632f361e3b116100665780632f361e3b146101365780638f2a6799146101665780639604cd4b14610184578063d303663f146101a2578063dc6ca8c0146101d257610093565b80630180900a14610098578063168edae3146100b4578063177cae68146100d05780632588d06914610100575b600080fd5b6100b260048036038101906100ad9190610e38565b610202565b005b6100ce60048036038101906100c99190610ef6565b6102ed565b005b6100ea60048036038101906100e59190610f23565b6103c3565b6040516100f79190610fdb565b60405180910390f35b61011a60048036038101906101159190610ef6565b6104ba565b60405161012d9796959493929190611084565b60405180910390f35b610150600480360381019061014b9190610ef6565b61059e565b60405161015d91906111fe565b60405180910390f35b61016e610720565b60405161017b9190610fdb565b60405180910390f35b61018c61072a565b604051610199919061137e565b60405180910390f35b6101bc60048036038101906101b79190610ef6565b61090a565b6040516101c9919061137e565b60405180910390f35b6101ec60048036038101906101e791906113fe565b610b3a565b6040516101f9919061137e565b60405180910390f35b60008714158015610229575060008060008981526020019081526020016000206000015414155b610268576040517f08c379a000000000000000000000000000000000000000000000000000000000815260040161025f9061148a565b60405180910390fd5b60008060008981526020019081526020016000209050868160010181905550858160020181905550848160030181905550838160040160006101000a81548160ff021916908315150217905550828160050190816102c691906116b6565b50818160060160006101000a81548160ff0219169083151502179055505050505050505050565b60008114158015610314575060008060008381526020019081526020016000206000015414155b610353576040517f08c379a000000000000000000000000000000000000000000000000000000000815260040161034a9061148a565b60405180910390fd5b6000808281526020019081526020016000206000808201600090556001820160009055600282016000905560038201600090556004820160006101000a81549060ff02191690556005820160006103aa9190610bd2565b6006820160006101000a81549060ff0219169055505050565b6000600160008154809291906103d8906117b7565b91905055506040518060e001604052806001548152602001888152602001878152602001868152602001851515815260200184815260200183151581525060008060015481526020019081526020016000206000820151816000015560208201518160010155604082015181600201556060820151816003015560808201518160040160006101000a81548160ff02191690831515021790555060a082015181600501908161048791906116b6565b5060c08201518160060160006101000a81548160ff02191690831515021790555090505060015490509695505050505050565b60006020528060005260406000206000915090508060000154908060010154908060020154908060030154908060040160009054906101000a900460ff1690806005018054610508906114d9565b80601f0160208091040260200160405190810160405280929190818152602001828054610534906114d9565b80156105815780601f1061055657610100808354040283529160200191610581565b820191906000526020600020905b81548152906001019060200180831161056457829003601f168201915b5050505050908060060160009054906101000a900460ff16905087565b6105a6610c12565b600082141580156105cd575060008060008481526020019081526020016000206000015414155b61060c576040517f08c379a00000000000000000000000000000000000000000000000000000000081526004016106039061148a565b60405180910390fd5b6000808381526020019081526020016000206040518060e0016040529081600082015481526020016001820154815260200160028201548152602001600382015481526020016004820160009054906101000a900460ff1615151515815260200160058201805461067c906114d9565b80601f01602080910402602001604051908101604052809291908181526020018280546106a8906114d9565b80156106f55780601f106106ca576101008083540402835291602001916106f5565b820191906000526020600020905b8154815290600101906020018083116106d857829003601f168201915b505050505081526020016006820160009054906101000a900460ff1615151515815250509050919050565b6000600154905090565b6060600060015467ffffffffffffffff81111561074a57610749610d0d565b5b60405190808252806020026020018201604052801561078357816020015b610770610c12565b8152602001906001900390816107685790505b509050600080600190505b600154811161090157600080600083815260200190815260200160002060000154146108ee576000808281526020019081526020016000206040518060e0016040529081600082015481526020016001820154815260200160028201548152602001600382015481526020016004820160009054906101000a900460ff16151515158152602001600582018054610824906114d9565b80601f0160208091040260200160405190810160405280929190818152602001828054610850906114d9565b801561089d5780601f106108725761010080835404028352916020019161089d565b820191906000526020600020905b81548152906001019060200180831161088057829003601f168201915b505050505081526020016006820160009054906101000a900460ff1615151515815250508383815181106108d4576108d36117ff565b5b602002602001018190525081806108ea906117b7565b9250505b80806108f9906117b7565b91505061078e565b50819250505090565b6060600080600190505b600154811161095b57836000808381526020019081526020016000206002015403610948578180610944906117b7565b9250505b8080610953906117b7565b915050610914565b5060008167ffffffffffffffff81111561097857610977610d0d565b5b6040519080825280602002602001820160405280156109b157816020015b61099e610c12565b8152602001906001900390816109965790505b509050600080600190505b6001548111610b2e57856000808381526020019081526020016000206002015403610b1b576000808281526020019081526020016000206040518060e0016040529081600082015481526020016001820154815260200160028201548152602001600382015481526020016004820160009054906101000a900460ff16151515158152602001600582018054610a51906114d9565b80601f0160208091040260200160405190810160405280929190818152602001828054610a7d906114d9565b8015610aca5780601f10610a9f57610100808354040283529160200191610aca565b820191906000526020600020905b815481529060010190602001808311610aad57829003601f168201915b505050505081526020016006820160009054906101000a900460ff161515151581525050838381518110610b0157610b006117ff565b5b60200260200101819052508180610b17906117b7565b9250505b8080610b26906117b7565b9150506109bc565b50819350505050919050565b6060600082905060008173ffffffffffffffffffffffffffffffffffffffff16633b529df4866040518263ffffffff1660e01b8152600401610b7c919061183d565b602060405180830381865afa158015610b99573d6000803e3d6000fd5b505050506040513d601f19601f82011682018060405250810190610bbd919061186d565b9050610bc88161090a565b9250505092915050565b508054610bde906114d9565b6000825580601f10610bf05750610c0f565b601f016020900490600052602060002090810190610c0e9190610c53565b5b50565b6040518060e0016040528060008152602001600081526020016000815260200160008152602001600015158152602001606081526020016000151581525090565b5b80821115610c6c576000816000905550600101610c54565b5090565b6000604051905090565b600080fd5b600080fd5b6000819050919050565b610c9781610c84565b8114610ca257600080fd5b50565b600081359050610cb481610c8e565b92915050565b60008115159050919050565b610ccf81610cba565b8114610cda57600080fd5b50565b600081359050610cec81610cc6565b92915050565b600080fd5b600080fd5b6000601f19601f8301169050919050565b7f4e487b7100000000000000000000000000000000000000000000000000000000600052604160045260246000fd5b610d4582610cfc565b810181811067ffffffffffffffff82111715610d6457610d63610d0d565b5b80604052505050565b6000610d77610c70565b9050610d838282610d3c565b919050565b600067ffffffffffffffff821115610da357610da2610d0d565b5b610dac82610cfc565b9050602081019050919050565b82818337600083830152505050565b6000610ddb610dd684610d88565b610d6d565b905082815260208101848484011115610df757610df6610cf7565b5b610e02848285610db9565b509392505050565b600082601f830112610e1f57610e1e610cf2565b5b8135610e2f848260208601610dc8565b91505092915050565b600080600080600080600060e0888a031215610e5757610e56610c7a565b5b6000610e658a828b01610ca5565b9750506020610e768a828b01610ca5565b9650506040610e878a828b01610ca5565b9550506060610e988a828b01610ca5565b9450506080610ea98a828b01610cdd565b93505060a088013567ffffffffffffffff811115610eca57610ec9610c7f565b5b610ed68a828b01610e0a565b92505060c0610ee78a828b01610cdd565b91505092959891949750929550565b600060208284031215610f0c57610f0b610c7a565b5b6000610f1a84828501610ca5565b91505092915050565b60008060008060008060c08789031215610f4057610f3f610c7a565b5b6000610f4e89828a01610ca5565b9650506020610f5f89828a01610ca5565b9550506040610f7089828a01610ca5565b9450506060610f8189828a01610cdd565b935050608087013567ffffffffffffffff811115610fa257610fa1610c7f565b5b610fae89828a01610e0a565b92505060a0610fbf89828a01610cdd565b9150509295509295509295565b610fd581610c84565b82525050565b6000602082019050610ff06000830184610fcc565b92915050565b610fff81610cba565b82525050565b600081519050919050565b600082825260208201905092915050565b60005b8381101561103f578082015181840152602081019050611024565b60008484015250505050565b600061105682611005565b6110608185611010565b9350611070818560208601611021565b61107981610cfc565b840191505092915050565b600060e082019050611099600083018a610fcc565b6110a66020830189610fcc565b6110b36040830188610fcc565b6110c06060830187610fcc565b6110cd6080830186610ff6565b81810360a08301526110df818561104b565b90506110ee60c0830184610ff6565b98975050505050505050565b61110381610c84565b82525050565b61111281610cba565b82525050565b600082825260208201905092915050565b600061113482611005565b61113e8185611118565b935061114e818560208601611021565b61115781610cfc565b840191505092915050565b600060e08301600083015161117a60008601826110fa565b50602083015161118d60208601826110fa565b5060408301516111a060408601826110fa565b5060608301516111b360608601826110fa565b5060808301516111c66080860182611109565b5060a083015184820360a08601526111de8282611129565b91505060c08301516111f360c0860182611109565b508091505092915050565b600060208201905081810360008301526112188184611162565b905092915050565b600081519050919050565b600082825260208201905092915050565b6000819050602082019050919050565b600060e08301600083015161126460008601826110fa565b50602083015161127760208601826110fa565b50604083015161128a60408601826110fa565b50606083015161129d60608601826110fa565b5060808301516112b06080860182611109565b5060a083015184820360a08601526112c88282611129565b91505060c08301516112dd60c0860182611109565b508091505092915050565b60006112f4838361124c565b905092915050565b6000602082019050919050565b600061131482611220565b61131e818561122b565b9350836020820285016113308561123c565b8060005b8581101561136c578484038952815161134d85826112e8565b9450611358836112fc565b925060208a01995050600181019050611334565b50829750879550505050505092915050565b600060208201905081810360008301526113988184611309565b905092915050565b600073ffffffffffffffffffffffffffffffffffffffff82169050919050565b60006113cb826113a0565b9050919050565b6113db816113c0565b81146113e657600080fd5b50565b6000813590506113f8816113d2565b92915050565b6000806040838503121561141557611414610c7a565b5b6000611423858286016113e9565b9250506020611434858286016113e9565b9150509250929050565b7f5573657251756573744576656e7420646f6573206e6f74206578697374000000600082015250565b6000611474601d83611010565b915061147f8261143e565b602082019050919050565b600060208201905081810360008301526114a381611467565b9050919050565b7f4e487b7100000000000000000000000000000000000000000000000000000000600052602260045260246000fd5b600060028204905060018216806114f157607f821691505b602082108103611504576115036114aa565b5b50919050565b60008190508160005260206000209050919050565b60006020601f8301049050919050565b600082821b905092915050565b60006008830261156c7fffffffffffffffffffffffffffffffffffffffffffffffffffffffffffffffff8261152f565b611576868361152f565b95508019841693508086168417925050509392505050565b6000819050919050565b60006115b36115ae6115a984610c84565b61158e565b610c84565b9050919050565b6000819050919050565b6115cd83611598565b6115e16115d9826115ba565b84845461153c565b825550505050565b600090565b6115f66115e9565b6116018184846115c4565b505050565b5b818110156116255761161a6000826115ee565b600181019050611607565b5050565b601f82111561166a5761163b8161150a565b6116448461151f565b81016020851015611653578190505b61166761165f8561151f565b830182611606565b50505b505050565b600082821c905092915050565b600061168d6000198460080261166f565b1980831691505092915050565b60006116a6838361167c565b9150826002028217905092915050565b6116bf82611005565b67ffffffffffffffff8111156116d8576116d7610d0d565b5b6116e282546114d9565b6116ed828285611629565b600060209050601f831160018114611720576000841561170e578287015190505b611718858261169a565b865550611780565b601f19841661172e8661150a565b60005b8281101561175657848901518255600182019150602085019450602081019050611731565b86831015611773578489015161176f601f89168261167c565b8355505b6001600288020188555050505b505050505050565b7f4e487b7100000000000000000000000000000000000000000000000000000000600052601160045260246000fd5b60006117c282610c84565b91507fffffffffffffffffffffffffffffffffffffffffffffffffffffffffffffffff82036117f4576117f3611788565b5b600182019050919050565b7f4e487b7100000000000000000000000000000000000000000000000000000000600052603260045260246000fd5b611837816113c0565b82525050565b6000602082019050611852600083018461182e565b92915050565b60008151905061186781610c8e565b92915050565b60006020828403121561188357611882610c7a565b5b600061189184828501611858565b9150509291505056fea264697066735822122051ff486e8e8e9c9c3d22b0c92c4df72a7ac89bd34ae46fded417c91811772ec164736f6c63430008170033",
  "linkReferences": {},
  "deployedLinkReferences": {}
}