{
  "_format": "hh-sol-artifact-1",
  "contractName": "Users",
  "sourceName": "contracts/Users.sol",
  "abi": [
    {
      "inputs": [
        {
          "internalType": "address",
          "name": "wallet",
          "type": "address"
        },
        {
          "internalType": "string",
          "name": "role",
          "type": "string"
        }
      ],
      "name": "createUser",
      "outputs": [
        {
          "internalType": "uint256",
          "name": "",
          "type": "uint256"
        }
      ],
      "stateMutability": "nonpayable",
      "type": "function"
    },
    {
      "inputs": [
        {
          "internalType": "uint256",
          "name": "userId",
          "type": "uint256"
        }
      ],
      "name": "deleteUser",
      "outputs": [],
      "stateMutability": "nonpayable",
      "type": "function"
    },
    {
      "inputs": [
        {
          "internalType": "uint256",
          "name": "index",
          "type": "uint256"
        }
      ],
      "name": "getUserByIndex",
      "outputs": [
        {
          "components": [
            {
              "internalType": "uint256",
              "name": "userId",
              "type": "uint256"
            },
            {
              "internalType": "address",
              "name": "wallet",
              "type": "address"
            },
            {
              "internalType": "string",
              "name": "role",
              "type": "string"
            }
          ],
          "internalType": "struct Users.User",
          "name": "",
          "type": "tuple"
        }
      ],
      "stateMutability": "view",
      "type": "function"
    },
    {
      "inputs": [],
      "name": "getUserCount",
      "outputs": [
        {
          "internalType": "uint256",
          "name": "",
          "type": "uint256"
        }
      ],
      "stateMutability": "view",
      "type": "function"
    },
    {
      "inputs": [
        {
          "internalType": "address",
          "name": "wallet",
          "type": "address"
        }
      ],
      "name": "getUserIdByWallet",
      "outputs": [
        {
          "internalType": "uint256",
          "name": "",
          "type": "uint256"
        }
      ],
      "stateMutability": "view",
      "type": "function"
    },
    {
      "inputs": [],
      "name": "listUsers",
      "outputs": [
        {
          "components": [
            {
              "internalType": "uint256",
              "name": "userId",
              "type": "uint256"
            },
            {
              "internalType": "address",
              "name": "wallet",
              "type": "address"
            },
            {
              "internalType": "string",
              "name": "role",
              "type": "string"
            }
          ],
          "internalType": "struct Users.User[]",
          "name": "",
          "type": "tuple[]"
        }
      ],
      "stateMutability": "view",
      "type": "function"
    },
    {
      "inputs": [
        {
          "internalType": "uint256",
          "name": "userId",
          "type": "uint256"
        }
      ],
      "name": "readUser",
      "outputs": [
        {
          "components": [
            {
              "internalType": "uint256",
              "name": "userId",
              "type": "uint256"
            },
            {
              "internalType": "address",
              "name": "wallet",
              "type": "address"
            },
            {
              "internalType": "string",
              "name": "role",
              "type": "string"
            }
          ],
          "internalType": "struct Users.User",
          "name": "",
          "type": "tuple"
        }
      ],
      "stateMutability": "view",
      "type": "function"
    },
    {
      "inputs": [
        {
          "internalType": "uint256",
          "name": "userId",
          "type": "uint256"
        },
        {
          "internalType": "address",
          "name": "wallet",
          "type": "address"
        },
        {
          "internalType": "string",
          "name": "role",
          "type": "string"
        }
      ],
      "name": "updateUser",
      "outputs": [],
      "stateMutability": "nonpayable",
      "type": "function"
    },
    {
      "inputs": [
        {
          "internalType": "uint256",
          "name": "",
          "type": "uint256"
        }
      ],
      "name": "users",
      "outputs": [
        {
          "internalType": "uint256",
          "name": "userId",
          "type": "uint256"
        },
        {
          "internalType": "address",
          "name": "wallet",
          "type": "address"
        },
        {
          "internalType": "string",
          "name": "role",
          "type": "string"
        }
      ],
      "stateMutability": "view",
      "type": "function"
    }
  ],
  "bytecode": "0x608060405234801561001057600080fd5b50611830806100206000396000f3fe608060405234801561001057600080fd5b50600436106100935760003560e01c80634167f53a116100665780634167f53a146101465780638ad257b714610162578063b5cb15f714610180578063f9bcd5451461019e578063ff5d32fe146101ce57610093565b80630d70e5d014610098578063365b98b2146100c857806338f14845146100fa5780633b529df414610116575b600080fd5b6100b260048036038101906100ad9190610d65565b6101fe565b6040516100bf9190610ec2565b60405180910390f35b6100e260048036038101906100dd9190610d65565b610374565b6040516100f193929190610f4c565b60405180910390f35b610114600480360381019061010f9190610d65565b610446565b005b610130600480360381019061012b9190610fb6565b61056d565b60405161013d9190610fe3565b60405180910390f35b610160600480360381019061015b9190611133565b610637565b005b61016a610733565b60405161017791906112b4565b60405180910390f35b610188610965565b6040516101959190610fe3565b60405180910390f35b6101b860048036038101906101b391906112d6565b61096f565b6040516101c59190610fe3565b60405180910390f35b6101e860048036038101906101e39190610d65565b610a8b565b6040516101f59190610ec2565b60405180910390f35b610206610c87565b6000806000848152602001908152602001600020600001540361025e576040517f08c379a00000000000000000000000000000000000000000000000000000000081526004016102559061137e565b60405180910390fd5b600080838152602001908152602001600020604051806060016040529081600082015481526020016001820160009054906101000a900473ffffffffffffffffffffffffffffffffffffffff1673ffffffffffffffffffffffffffffffffffffffff1673ffffffffffffffffffffffffffffffffffffffff1681526020016002820180546102eb906113cd565b80601f0160208091040260200160405190810160405280929190818152602001828054610317906113cd565b80156103645780601f1061033957610100808354040283529160200191610364565b820191906000526020600020905b81548152906001019060200180831161034757829003601f168201915b5050505050815250509050919050565b60006020528060005260406000206000915090508060000154908060010160009054906101000a900473ffffffffffffffffffffffffffffffffffffffff16908060020180546103c3906113cd565b80601f01602080910402602001604051908101604052809291908181526020018280546103ef906113cd565b801561043c5780601f106104115761010080835404028352916020019161043c565b820191906000526020600020905b81548152906001019060200180831161041f57829003601f168201915b5050505050905083565b6000806000838152602001908152602001600020600001540361049e576040517f08c379a00000000000000000000000000000000000000000000000000000000081526004016104959061137e565b60405180910390fd5b6001600080600084815260200190815260200160002060010160009054906101000a900473ffffffffffffffffffffffffffffffffffffffff1673ffffffffffffffffffffffffffffffffffffffff1673ffffffffffffffffffffffffffffffffffffffff168152602001908152602001600020600090556000808281526020019081526020016000206000808201600090556001820160006101000a81549073ffffffffffffffffffffffffffffffffffffffff02191690556002820160006105689190610cbe565b505050565b600080600160008473ffffffffffffffffffffffffffffffffffffffff1673ffffffffffffffffffffffffffffffffffffffff16815260200190815260200160002054036105f0576040517f08c379a00000000000000000000000000000000000000000000000000000000081526004016105e79061137e565b60405180910390fd5b600160008373ffffffffffffffffffffffffffffffffffffffff1673ffffffffffffffffffffffffffffffffffffffff168152602001908152602001600020549050919050565b600080600085815260200190815260200160002090506000816000015403610694576040517f08c379a000000000000000000000000000000000000000000000000000000000815260040161068b9061137e565b60405180910390fd5b828160010160006101000a81548173ffffffffffffffffffffffffffffffffffffffff021916908373ffffffffffffffffffffffffffffffffffffffff160217905550818160020190816106e891906115aa565b5083600160008573ffffffffffffffffffffffffffffffffffffffff1673ffffffffffffffffffffffffffffffffffffffff1681526020019081526020016000208190555050505050565b6060600080600190505b6002548111610785576000806000838152602001908152602001600020600001541461077257818061076e906116ab565b9250505b808061077d906116ab565b91505061073d565b5060008167ffffffffffffffff8111156107a2576107a1611008565b5b6040519080825280602002602001820160405280156107db57816020015b6107c8610c87565b8152602001906001900390816107c05790505b509050600080600190505b600254811161095b576000806000838152602001908152602001600020600001541461094857600080828152602001908152602001600020604051806060016040529081600082015481526020016001820160009054906101000a900473ffffffffffffffffffffffffffffffffffffffff1673ffffffffffffffffffffffffffffffffffffffff1673ffffffffffffffffffffffffffffffffffffffff168152602001600282018054610899906113cd565b80601f01602080910402602001604051908101604052809291908181526020018280546108c5906113cd565b80156109125780601f106108e757610100808354040283529160200191610912565b820191906000526020600020905b8154815290600101906020018083116108f557829003601f168201915b50505050508152505083838151811061092e5761092d6116f3565b5b60200260200101819052508180610944906116ab565b9250505b8080610953906116ab565b9150506107e6565b5081935050505090565b6000600254905090565b600060026000815480929190610984906116ab565b9190505550604051806060016040528060025481526020018473ffffffffffffffffffffffffffffffffffffffff1681526020018381525060008060025481526020019081526020016000206000820151816000015560208201518160010160006101000a81548173ffffffffffffffffffffffffffffffffffffffff021916908373ffffffffffffffffffffffffffffffffffffffff1602179055506040820151816002019081610a3691906115aa565b50905050600254600160008573ffffffffffffffffffffffffffffffffffffffff1673ffffffffffffffffffffffffffffffffffffffff16815260200190815260200160002081905550600254905092915050565b610a93610c87565b6002548210610ad7576040517f08c379a0000000000000000000000000000000000000000000000000000000008152600401610ace9061176e565b60405180910390fd5b600080600190505b6002548111610c465760008060008381526020019081526020016000206000015414610c3357838203610c2457600080828152602001908152602001600020604051806060016040529081600082015481526020016001820160009054906101000a900473ffffffffffffffffffffffffffffffffffffffff1673ffffffffffffffffffffffffffffffffffffffff1673ffffffffffffffffffffffffffffffffffffffff168152602001600282018054610b99906113cd565b80601f0160208091040260200160405190810160405280929190818152602001828054610bc5906113cd565b8015610c125780601f10610be757610100808354040283529160200191610c12565b820191906000526020600020905b815481529060010190602001808311610bf557829003601f168201915b50505050508152505092505050610c82565b8180610c2f906116ab565b9250505b8080610c3e906116ab565b915050610adf565b506040517f08c379a0000000000000000000000000000000000000000000000000000000008152600401610c79906117da565b60405180910390fd5b919050565b604051806060016040528060008152602001600073ffffffffffffffffffffffffffffffffffffffff168152602001606081525090565b508054610cca906113cd565b6000825580601f10610cdc5750610cfb565b601f016020900490600052602060002090810190610cfa9190610cfe565b5b50565b5b80821115610d17576000816000905550600101610cff565b5090565b6000604051905090565b600080fd5b600080fd5b6000819050919050565b610d4281610d2f565b8114610d4d57600080fd5b50565b600081359050610d5f81610d39565b92915050565b600060208284031215610d7b57610d7a610d25565b5b6000610d8984828501610d50565b91505092915050565b610d9b81610d2f565b82525050565b600073ffffffffffffffffffffffffffffffffffffffff82169050919050565b6000610dcc82610da1565b9050919050565b610ddc81610dc1565b82525050565b600081519050919050565b600082825260208201905092915050565b60005b83811015610e1c578082015181840152602081019050610e01565b60008484015250505050565b6000601f19601f8301169050919050565b6000610e4482610de2565b610e4e8185610ded565b9350610e5e818560208601610dfe565b610e6781610e28565b840191505092915050565b6000606083016000830151610e8a6000860182610d92565b506020830151610e9d6020860182610dd3565b5060408301518482036040860152610eb58282610e39565b9150508091505092915050565b60006020820190508181036000830152610edc8184610e72565b905092915050565b610eed81610d2f565b82525050565b610efc81610dc1565b82525050565b600082825260208201905092915050565b6000610f1e82610de2565b610f288185610f02565b9350610f38818560208601610dfe565b610f4181610e28565b840191505092915050565b6000606082019050610f616000830186610ee4565b610f6e6020830185610ef3565b8181036040830152610f808184610f13565b9050949350505050565b610f9381610dc1565b8114610f9e57600080fd5b50565b600081359050610fb081610f8a565b92915050565b600060208284031215610fcc57610fcb610d25565b5b6000610fda84828501610fa1565b91505092915050565b6000602082019050610ff86000830184610ee4565b92915050565b600080fd5b600080fd5b7f4e487b7100000000000000000000000000000000000000000000000000000000600052604160045260246000fd5b61104082610e28565b810181811067ffffffffffffffff8211171561105f5761105e611008565b5b80604052505050565b6000611072610d1b565b905061107e8282611037565b919050565b600067ffffffffffffffff82111561109e5761109d611008565b5b6110a782610e28565b9050602081019050919050565b82818337600083830152505050565b60006110d66110d184611083565b611068565b9050828152602081018484840111156110f2576110f1611003565b5b6110fd8482856110b4565b509392505050565b600082601f83011261111a57611119610ffe565b5b813561112a8482602086016110c3565b91505092915050565b60008060006060848603121561114c5761114b610d25565b5b600061115a86828701610d50565b935050602061116b86828701610fa1565b925050604084013567ffffffffffffffff81111561118c5761118b610d2a565b5b61119886828701611105565b9150509250925092565b600081519050919050565b600082825260208201905092915050565b6000819050602082019050919050565b60006060830160008301516111e66000860182610d92565b5060208301516111f96020860182610dd3565b50604083015184820360408601526112118282610e39565b9150508091505092915050565b600061122a83836111ce565b905092915050565b6000602082019050919050565b600061124a826111a2565b61125481856111ad565b935083602082028501611266856111be565b8060005b858110156112a25784840389528151611283858261121e565b945061128e83611232565b925060208a0199505060018101905061126a565b50829750879550505050505092915050565b600060208201905081810360008301526112ce818461123f565b905092915050565b600080604083850312156112ed576112ec610d25565b5b60006112fb85828601610fa1565b925050602083013567ffffffffffffffff81111561131c5761131b610d2a565b5b61132885828601611105565b9150509250929050565b7f5573657220646f6573206e6f7420657869737400000000000000000000000000600082015250565b6000611368601383610f02565b915061137382611332565b602082019050919050565b600060208201905081810360008301526113978161135b565b9050919050565b7f4e487b7100000000000000000000000000000000000000000000000000000000600052602260045260246000fd5b600060028204905060018216806113e557607f821691505b6020821081036113f8576113f761139e565b5b50919050565b60008190508160005260206000209050919050565b60006020601f8301049050919050565b600082821b905092915050565b6000600883026114607fffffffffffffffffffffffffffffffffffffffffffffffffffffffffffffffff82611423565b61146a8683611423565b95508019841693508086168417925050509392505050565b6000819050919050565b60006114a76114a261149d84610d2f565b611482565b610d2f565b9050919050565b6000819050919050565b6114c18361148c565b6114d56114cd826114ae565b848454611430565b825550505050565b600090565b6114ea6114dd565b6114f58184846114b8565b505050565b5b818110156115195761150e6000826114e2565b6001810190506114fb565b5050565b601f82111561155e5761152f816113fe565b61153884611413565b81016020851015611547578190505b61155b61155385611413565b8301826114fa565b50505b505050565b600082821c905092915050565b600061158160001984600802611563565b1980831691505092915050565b600061159a8383611570565b9150826002028217905092915050565b6115b382610de2565b67ffffffffffffffff8111156115cc576115cb611008565b5b6115d682546113cd565b6115e182828561151d565b600060209050601f8311600181146116145760008415611602578287015190505b61160c858261158e565b865550611674565b601f198416611622866113fe565b60005b8281101561164a57848901518255600182019150602085019450602081019050611625565b868310156116675784890151611663601f891682611570565b8355505b6001600288020188555050505b505050505050565b7f4e487b7100000000000000000000000000000000000000000000000000000000600052601160045260246000fd5b60006116b682610d2f565b91507fffffffffffffffffffffffffffffffffffffffffffffffffffffffffffffffff82036116e8576116e761167c565b5b600182019050919050565b7f4e487b7100000000000000000000000000000000000000000000000000000000600052603260045260246000fd5b7f496e646578206f7574206f6620626f756e647300000000000000000000000000600082015250565b6000611758601383610f02565b915061176382611722565b602082019050919050565b600060208201905081810360008301526117878161174b565b9050919050565b7f5573657220617420696e646578206e6f7420666f756e64000000000000000000600082015250565b60006117c4601783610f02565b91506117cf8261178e565b602082019050919050565b600060208201905081810360008301526117f3816117b7565b905091905056fea26469706673582212204726e81235ca4cef193f908d6efd9d96a3df5647957ec31d908e583e6543a0fb64736f6c63430008170033",
  "linkReferences": {},
  "deployedLinkReferences": {}
}