{
  "_format": "hh-sol-artifact-1",
  "contractName": "UserQuestEvents",
  "sourceName": "contracts/UserQuestEvents.sol",
  "abi": [
    {
      "inputs": [
        {
          "internalType": "uint256",
          "name": "questEventId",
          "type": "uint256"
        },
        {
          "internalType": "uint256",
          "name": "userId",
          "type": "uint256"
        },
        {
          "internalType": "uint256",
          "name": "interactions",
          "type": "uint256"
        },
        {
          "internalType": "bool",
          "name": "validated",
          "type": "bool"
        },
        {
          "internalType": "string",
          "name": "url",
          "type": "string"
        },
        {
          "internalType": "bool",
          "name": "completed",
          "type": "bool"
        }
      ],
      "name": "createUserQuestEvent",
      "outputs": [
        {
          "internalType": "uint256",
          "name": "",
          "type": "uint256"
        }
      ],
      "stateMutability": "nonpayable",
      "type": "function"
    },
    {
      "inputs": [
        {
          "internalType": "uint256",
          "name": "userQuestEventId",
          "type": "uint256"
        }
      ],
      "name": "deleteUserQuestEvent",
      "outputs": [],
      "stateMutability": "nonpayable",
      "type": "function"
    },
    {
      "inputs": [
        {
          "internalType": "uint256",
          "name": "userId",
          "type": "uint256"
        }
      ],
      "name": "getQuestsForUser",
      "outputs": [
        {
          "components": [
            {
              "internalType": "uint256",
              "name": "userQuestEventId",
              "type": "uint256"
            },
            {
              "internalType": "uint256",
              "name": "questEventId",
              "type": "uint256"
            },
            {
              "internalType": "uint256",
              "name": "userId",
              "type": "uint256"
            },
            {
              "internalType": "uint256",
              "name": "interactions",
              "type": "uint256"
            },
            {
              "internalType": "bool",
              "name": "validated",
              "type": "bool"
            },
            {
              "internalType": "string",
              "name": "url",
              "type": "string"
            },
            {
              "internalType": "bool",
              "name": "completed",
              "type": "bool"
            }
          ],
          "internalType": "struct UserQuestEvents.UserQuestEvent[]",
          "name": "",
          "type": "tuple[]"
        }
      ],
      "stateMutability": "view",
      "type": "function"
    },
    {
      "inputs": [],
      "name": "getUserQuestEventCount",
      "outputs": [
        {
          "internalType": "uint256",
          "name": "",
          "type": "uint256"
        }
      ],
      "stateMutability": "view",
      "type": "function"
    },
    {
      "inputs": [],
      "name": "listUserQuestEvents",
      "outputs": [
        {
          "components": [
            {
              "internalType": "uint256",
              "name": "userQuestEventId",
              "type": "uint256"
            },
            {
              "internalType": "uint256",
              "name": "questEventId",
              "type": "uint256"
            },
            {
              "internalType": "uint256",
              "name": "userId",
              "type": "uint256"
            },
            {
              "internalType": "uint256",
              "name": "interactions",
              "type": "uint256"
            },
            {
              "internalType": "bool",
              "name": "validated",
              "type": "bool"
            },
            {
              "internalType": "string",
              "name": "url",
              "type": "string"
            },
            {
              "internalType": "bool",
              "name": "completed",
              "type": "bool"
            }
          ],
          "internalType": "struct UserQuestEvents.UserQuestEvent[]",
          "name": "",
          "type": "tuple[]"
        }
      ],
      "stateMutability": "view",
      "type": "function"
    },
    {
      "inputs": [
        {
          "internalType": "uint256",
          "name": "userQuestEventId",
          "type": "uint256"
        }
      ],
      "name": "readUserQuestEvent",
      "outputs": [
        {
          "components": [
            {
              "internalType": "uint256",
              "name": "userQuestEventId",
              "type": "uint256"
            },
            {
              "internalType": "uint256",
              "name": "questEventId",
              "type": "uint256"
            },
            {
              "internalType": "uint256",
              "name": "userId",
              "type": "uint256"
            },
            {
              "internalType": "uint256",
              "name": "interactions",
              "type": "uint256"
            },
            {
              "internalType": "bool",
              "name": "validated",
              "type": "bool"
            },
            {
              "internalType": "string",
              "name": "url",
              "type": "string"
            },
            {
              "internalType": "bool",
              "name": "completed",
              "type": "bool"
            }
          ],
          "internalType": "struct UserQuestEvents.UserQuestEvent",
          "name": "",
          "type": "tuple"
        }
      ],
      "stateMutability": "view",
      "type": "function"
    },
    {
      "inputs": [
        {
          "internalType": "uint256",
          "name": "userQuestEventId",
          "type": "uint256"
        },
        {
          "internalType": "uint256",
          "name": "questEventId",
          "type": "uint256"
        },
        {
          "internalType": "uint256",
          "name": "userId",
          "type": "uint256"
        },
        {
          "internalType": "uint256",
          "name": "interactions",
          "type": "uint256"
        },
        {
          "internalType": "bool",
          "name": "validated",
          "type": "bool"
        },
        {
          "internalType": "string",
          "name": "url",
          "type": "string"
        },
        {
          "internalType": "bool",
          "name": "completed",
          "type": "bool"
        }
      ],
      "name": "updateUserQuestEvent",
      "outputs": [],
      "stateMutability": "nonpayable",
      "type": "function"
    },
    {
      "inputs": [
        {
          "internalType": "uint256",
          "name": "",
          "type": "uint256"
        }
      ],
      "name": "userQuestEvents",
      "outputs": [
        {
          "internalType": "uint256",
          "name": "userQuestEventId",
          "type": "uint256"
        },
        {
          "internalType": "uint256",
          "name": "questEventId",
          "type": "uint256"
        },
        {
          "internalType": "uint256",
          "name": "userId",
          "type": "uint256"
        },
        {
          "internalType": "uint256",
          "name": "interactions",
          "type": "uint256"
        },
        {
          "internalType": "bool",
          "name": "validated",
          "type": "bool"
        },
        {
          "internalType": "string",
          "name": "url",
          "type": "string"
        },
        {
          "internalType": "bool",
          "name": "completed",
          "type": "bool"
        }
      ],
      "stateMutability": "view",
      "type": "function"
    }
  ],
  "bytecode": "0x608060405234801561001057600080fd5b506116f3806100206000396000f3fe608060405234801561001057600080fd5b50600436106100885760003560e01c80632f361e3b1161005b5780632f361e3b1461012b5780638f2a67991461015b5780639604cd4b14610179578063d303663f1461019757610088565b80630180900a1461008d578063168edae3146100a9578063177cae68146100c55780632588d069146100f5575b600080fd5b6100a760048036038101906100a29190610d65565b6101c7565b005b6100c360048036038101906100be9190610e23565b6102b2565b005b6100df60048036038101906100da9190610e50565b610388565b6040516100ec9190610f08565b60405180910390f35b61010f600480360381019061010a9190610e23565b61047f565b6040516101229796959493929190610fb1565b60405180910390f35b61014560048036038101906101409190610e23565b610563565b604051610152919061112b565b60405180910390f35b6101636106e5565b6040516101709190610f08565b60405180910390f35b6101816106ef565b60405161018e91906112ab565b60405180910390f35b6101b160048036038101906101ac9190610e23565b6108cf565b6040516101be91906112ab565b60405180910390f35b600087141580156101ee575060008060008981526020019081526020016000206000015414155b61022d576040517f08c379a000000000000000000000000000000000000000000000000000000000815260040161022490611319565b60405180910390fd5b60008060008981526020019081526020016000209050868160010181905550858160020181905550848160030181905550838160040160006101000a81548160ff0219169083151502179055508281600501908161028b9190611545565b50818160060160006101000a81548160ff0219169083151502179055505050505050505050565b600081141580156102d9575060008060008381526020019081526020016000206000015414155b610318576040517f08c379a000000000000000000000000000000000000000000000000000000000815260040161030f90611319565b60405180910390fd5b6000808281526020019081526020016000206000808201600090556001820160009055600282016000905560038201600090556004820160006101000a81549060ff021916905560058201600061036f9190610aff565b6006820160006101000a81549060ff0219169055505050565b60006001600081548092919061039d90611646565b91905055506040518060e001604052806001548152602001888152602001878152602001868152602001851515815260200184815260200183151581525060008060015481526020019081526020016000206000820151816000015560208201518160010155604082015181600201556060820151816003015560808201518160040160006101000a81548160ff02191690831515021790555060a082015181600501908161044c9190611545565b5060c08201518160060160006101000a81548160ff02191690831515021790555090505060015490509695505050505050565b60006020528060005260406000206000915090508060000154908060010154908060020154908060030154908060040160009054906101000a900460ff16908060050180546104cd90611368565b80601f01602080910402602001604051908101604052809291908181526020018280546104f990611368565b80156105465780601f1061051b57610100808354040283529160200191610546565b820191906000526020600020905b81548152906001019060200180831161052957829003601f168201915b5050505050908060060160009054906101000a900460ff16905087565b61056b610b3f565b60008214158015610592575060008060008481526020019081526020016000206000015414155b6105d1576040517f08c379a00000000000000000000000000000000000000000000000000000000081526004016105c890611319565b60405180910390fd5b6000808381526020019081526020016000206040518060e0016040529081600082015481526020016001820154815260200160028201548152602001600382015481526020016004820160009054906101000a900460ff1615151515815260200160058201805461064190611368565b80601f016020809104026020016040519081016040528092919081815260200182805461066d90611368565b80156106ba5780601f1061068f576101008083540402835291602001916106ba565b820191906000526020600020905b81548152906001019060200180831161069d57829003601f168201915b505050505081526020016006820160009054906101000a900460ff1615151515815250509050919050565b6000600154905090565b6060600060015467ffffffffffffffff81111561070f5761070e610c3a565b5b60405190808252806020026020018201604052801561074857816020015b610735610b3f565b81526020019060019003908161072d5790505b509050600080600190505b60015481116108c657600080600083815260200190815260200160002060000154146108b3576000808281526020019081526020016000206040518060e0016040529081600082015481526020016001820154815260200160028201548152602001600382015481526020016004820160009054906101000a900460ff161515151581526020016005820180546107e990611368565b80601f016020809104026020016040519081016040528092919081815260200182805461081590611368565b80156108625780601f1061083757610100808354040283529160200191610862565b820191906000526020600020905b81548152906001019060200180831161084557829003601f168201915b505050505081526020016006820160009054906101000a900460ff1615151515815250508383815181106108995761089861168e565b5b602002602001018190525081806108af90611646565b9250505b80806108be90611646565b915050610753565b50819250505090565b6060600080600190505b60015481116109205783600080838152602001908152602001600020600201540361090d57818061090990611646565b9250505b808061091890611646565b9150506108d9565b5060008167ffffffffffffffff81111561093d5761093c610c3a565b5b60405190808252806020026020018201604052801561097657816020015b610963610b3f565b81526020019060019003908161095b5790505b509050600080600190505b6001548111610af357856000808381526020019081526020016000206002015403610ae0576000808281526020019081526020016000206040518060e0016040529081600082015481526020016001820154815260200160028201548152602001600382015481526020016004820160009054906101000a900460ff16151515158152602001600582018054610a1690611368565b80601f0160208091040260200160405190810160405280929190818152602001828054610a4290611368565b8015610a8f5780601f10610a6457610100808354040283529160200191610a8f565b820191906000526020600020905b815481529060010190602001808311610a7257829003601f168201915b505050505081526020016006820160009054906101000a900460ff161515151581525050838381518110610ac657610ac561168e565b5b60200260200101819052508180610adc90611646565b9250505b8080610aeb90611646565b915050610981565b50819350505050919050565b508054610b0b90611368565b6000825580601f10610b1d5750610b3c565b601f016020900490600052602060002090810190610b3b9190610b80565b5b50565b6040518060e0016040528060008152602001600081526020016000815260200160008152602001600015158152602001606081526020016000151581525090565b5b80821115610b99576000816000905550600101610b81565b5090565b6000604051905090565b600080fd5b600080fd5b6000819050919050565b610bc481610bb1565b8114610bcf57600080fd5b50565b600081359050610be181610bbb565b92915050565b60008115159050919050565b610bfc81610be7565b8114610c0757600080fd5b50565b600081359050610c1981610bf3565b92915050565b600080fd5b600080fd5b6000601f19601f8301169050919050565b7f4e487b7100000000000000000000000000000000000000000000000000000000600052604160045260246000fd5b610c7282610c29565b810181811067ffffffffffffffff82111715610c9157610c90610c3a565b5b80604052505050565b6000610ca4610b9d565b9050610cb08282610c69565b919050565b600067ffffffffffffffff821115610cd057610ccf610c3a565b5b610cd982610c29565b9050602081019050919050565b82818337600083830152505050565b6000610d08610d0384610cb5565b610c9a565b905082815260208101848484011115610d2457610d23610c24565b5b610d2f848285610ce6565b509392505050565b600082601f830112610d4c57610d4b610c1f565b5b8135610d5c848260208601610cf5565b91505092915050565b600080600080600080600060e0888a031215610d8457610d83610ba7565b5b6000610d928a828b01610bd2565b9750506020610da38a828b01610bd2565b9650506040610db48a828b01610bd2565b9550506060610dc58a828b01610bd2565b9450506080610dd68a828b01610c0a565b93505060a088013567ffffffffffffffff811115610df757610df6610bac565b5b610e038a828b01610d37565b92505060c0610e148a828b01610c0a565b91505092959891949750929550565b600060208284031215610e3957610e38610ba7565b5b6000610e4784828501610bd2565b91505092915050565b60008060008060008060c08789031215610e6d57610e6c610ba7565b5b6000610e7b89828a01610bd2565b9650506020610e8c89828a01610bd2565b9550506040610e9d89828a01610bd2565b9450506060610eae89828a01610c0a565b935050608087013567ffffffffffffffff811115610ecf57610ece610bac565b5b610edb89828a01610d37565b92505060a0610eec89828a01610c0a565b9150509295509295509295565b610f0281610bb1565b82525050565b6000602082019050610f1d6000830184610ef9565b92915050565b610f2c81610be7565b82525050565b600081519050919050565b600082825260208201905092915050565b60005b83811015610f6c578082015181840152602081019050610f51565b60008484015250505050565b6000610f8382610f32565b610f8d8185610f3d565b9350610f9d818560208601610f4e565b610fa681610c29565b840191505092915050565b600060e082019050610fc6600083018a610ef9565b610fd36020830189610ef9565b610fe06040830188610ef9565b610fed6060830187610ef9565b610ffa6080830186610f23565b81810360a083015261100c8185610f78565b905061101b60c0830184610f23565b98975050505050505050565b61103081610bb1565b82525050565b61103f81610be7565b82525050565b600082825260208201905092915050565b600061106182610f32565b61106b8185611045565b935061107b818560208601610f4e565b61108481610c29565b840191505092915050565b600060e0830160008301516110a76000860182611027565b5060208301516110ba6020860182611027565b5060408301516110cd6040860182611027565b5060608301516110e06060860182611027565b5060808301516110f36080860182611036565b5060a083015184820360a086015261110b8282611056565b91505060c083015161112060c0860182611036565b508091505092915050565b60006020820190508181036000830152611145818461108f565b905092915050565b600081519050919050565b600082825260208201905092915050565b6000819050602082019050919050565b600060e0830160008301516111916000860182611027565b5060208301516111a46020860182611027565b5060408301516111b76040860182611027565b5060608301516111ca6060860182611027565b5060808301516111dd6080860182611036565b5060a083015184820360a08601526111f58282611056565b91505060c083015161120a60c0860182611036565b508091505092915050565b60006112218383611179565b905092915050565b6000602082019050919050565b60006112418261114d565b61124b8185611158565b93508360208202850161125d85611169565b8060005b85811015611299578484038952815161127a8582611215565b945061128583611229565b925060208a01995050600181019050611261565b50829750879550505050505092915050565b600060208201905081810360008301526112c58184611236565b905092915050565b7f5573657251756573744576656e7420646f6573206e6f74206578697374000000600082015250565b6000611303601d83610f3d565b915061130e826112cd565b602082019050919050565b60006020820190508181036000830152611332816112f6565b9050919050565b7f4e487b7100000000000000000000000000000000000000000000000000000000600052602260045260246000fd5b6000600282049050600182168061138057607f821691505b60208210810361139357611392611339565b5b50919050565b60008190508160005260206000209050919050565b60006020601f8301049050919050565b600082821b905092915050565b6000600883026113fb7fffffffffffffffffffffffffffffffffffffffffffffffffffffffffffffffff826113be565b61140586836113be565b95508019841693508086168417925050509392505050565b6000819050919050565b600061144261143d61143884610bb1565b61141d565b610bb1565b9050919050565b6000819050919050565b61145c83611427565b61147061146882611449565b8484546113cb565b825550505050565b600090565b611485611478565b611490818484611453565b505050565b5b818110156114b4576114a960008261147d565b600181019050611496565b5050565b601f8211156114f9576114ca81611399565b6114d3846113ae565b810160208510156114e2578190505b6114f66114ee856113ae565b830182611495565b50505b505050565b600082821c905092915050565b600061151c600019846008026114fe565b1980831691505092915050565b6000611535838361150b565b9150826002028217905092915050565b61154e82610f32565b67ffffffffffffffff81111561156757611566610c3a565b5b6115718254611368565b61157c8282856114b8565b600060209050601f8311600181146115af576000841561159d578287015190505b6115a78582611529565b86555061160f565b601f1984166115bd86611399565b60005b828110156115e5578489015182556001820191506020850194506020810190506115c0565b8683101561160257848901516115fe601f89168261150b565b8355505b6001600288020188555050505b505050505050565b7f4e487b7100000000000000000000000000000000000000000000000000000000600052601160045260246000fd5b600061165182610bb1565b91507fffffffffffffffffffffffffffffffffffffffffffffffffffffffffffffffff820361168357611682611617565b5b600182019050919050565b7f4e487b7100000000000000000000000000000000000000000000000000000000600052603260045260246000fdfea26469706673582212205225793f8a20d769ab74f67f60c08e3056e5e9d4e78d8a1c1d6cebbbeed9f07664736f6c63430008170033",
  "linkReferences": {},
  "deployedLinkReferences": {}
}